:020000040800F2
:10000000684500209D0100087D520008B13F0008AE
:10001000255000080F130008358600080000000076
:10002000000000000000000000000000F95A000875
:10003000F114000800000000E9560008FD5A00080D
:10004000B7010008B7010008B7010008B7010008B0
:10005000B7010008B7010008B7010008B7010008A0
:10006000B7010008B7010008B701000879130008BC
:1000700085130008911300089D130008B9130008A8
:10008000D5130008E1130008B7010008B701000804
:10009000B7010008B7010008B7010008B701000860
:1000A000B7010008B7010008B7010008B701000850
:1000B000B7010008655C0008715C0008B701000822
:1000C000B7010008B7010008B7010008B701000830
:1000D000B701000881650008B1650008E565000802
:1000E000B7010008B7010008B7010008B701000810
:1000F000B7010008B7010008B7010008FD130008A8
:10010000B7010008B7010008B7010008B7010008EF
:10011000B95F0008E95F0008B7010008B7010008EF
:10012000B70100081914000825140008B7010008D9
:10013000B7010008B7010008B7010008B7010008BF
:10014000B7010008B7010008B70100088152000894
:10015000B701000831140008B70100080D66000857
:10016000B7010008B7010008B7010008B70100088F
:10017000B7010008B7010008B7010008000000003F
:10018000B7010008B7010008DFF80CD000F01EFB33
:1001900000480047E9950008684500200648804768
:1001A00006480047FEE7FEE7FEE7FEE7FEE7FEE75C
:1001B000FEE7FEE7FEE7FEE7115C000889010008A4
:1001C0002DE9F05F0546002092469B46884606468C
:1001D000814640241BE0284641464746224600F01F
:1001E000CFF953465A46C01A914110D311461846CA
:1001F000224600F0B6F92D1A67EB01084F46224659
:100200000120002100F0ADF917EB00094E41201E3E
:10021000A4F10104DFDC484631462A464346BDE8E6
:10022000F09F10B5431A934209D28318881803E04F
:1002300010F8011D03F8011D521EF9D210BD40EA4D
:1002400001039B0703D009E008C9121F08C0042A54
:10025000FAD203E011F8013B00F8013B521EF9D23B
:1002600010BDD2B201E000F8012B491EFBD270474D
:100270000022F6E710B513460A4604461946FFF772
:10028000F0FF204610BD2DE9FE4F804681EA0300B5
:10029000C00F0C46009021F0004123F00045B8EB60
:1002A0000200A94105D24046214690461C460B4615
:1002B000024623F00040104347D0270DC7F30A0041
:1002C000C3F30A510290401A019040286BDAC3F33D
:1002D000130040F4801B0098924620B10023D2EB1B
:1002E000030A63EB0B0B01985946C0F140025046DC
:1002F00000F037F906460D4650465946019A00F07F
:100300004FF910EB08006141002487EA115284EA9A
:10031000E7731A4340D0009A62B3019A012A4FEA68
:10032000075215DC001B61EB02014FF0004202EAAC
:100330000752CDE90042001C41F5801132462B46A0
:1003400000F086F903B0BDE8F08F40462146F9E79A
:10035000001B61EB0201001C41F5801300185B419A
:100360002018A2F5001747EB030140EAD570B61933
:100370006D4111E06D084FEA360645EAC0754FEA57
:100380000752001B61EB0201001C41F58011490876
:100390004FEA30000019514132462B4603B0BDE808
:1003A000F04F00F046B90098012240000023D0EB46
:1003B000020263EBE073009821464FEAE074B8EB69
:1003C000000061EB0401E9E783F000435BE781F0A3
:1003D000004158E72DE9FE4F81EA030404F0004490
:1003E00021F0004100944FF0000B23F0004350EA4D
:1003F00001045ED052EA03045BD0C3F30A54C1F394
:100400000A552C44A4F2F3340194A0FB0254C1F326
:10041000130141F48011C3F3130343F4801301FB70
:10042000024400FB034E840A970A44EA815447EAD7
:100430008357A4FB076802958D0A05FB07854FEAE1
:10044000932C04FB0C542705029D4FEA065847EAFB
:100450001637B5EB08056EEB070C870E920E47EAD0
:10046000811742EA8312A7FB0201B6EB0B0164EB92
:1004700000042B0D43EA0C335E1844EB1C50DA46A3
:100480005146E7FB0201C5F313044FEA0B3343EA7D
:1004900014534FEA0432019C43EA0603A4F10C040E
:1004A0000294009CCDE900B400F0D2F803B0BDE89E
:1004B000F08F00200146F9E70EB540F2334102917A
:1004C0000021CDE900110A460B4600F0C1F803B047
:1004D00000BDC1F30A5210B5C1F3130140F2FF335E
:1004E00041F480119A4201DA002010BD40F23343FA
:1004F0009A42A2F2334203DC524200F041F810BDAE
:10050000904010BD00F0004230F000400AD0C10D14
:1005100001F56071C0F3160042EA0151C2084007BC
:100520001143704700200146704701F0004330B48A
:1005300021F0004150EA010206D00A0DA2F56072D6
:10054000C1F31301002A02DC30BC00207047440FC5
:1005500044EAC104C100E01830BC00EBC25000F016
:1005600031B8202A04DB203A00FA02F1002070475B
:100570009140C2F1200320FA03F3194390407047E1
:10058000202A04DB203A21FA02F00021704721FAE8
:1005900002F3D040C2F1200291400843194670474F
:1005A000202A06DBCB17203A41FA02F043EAE07337
:1005B00006E041FA02F3D040C2F120029140084324
:1005C000194670470029A8BF7047401C490008BF62
:1005D00020F00100704710B4B0FA80FC00FA0CF073
:1005E00050EA010404BF10BC704749B1CCF12004AB
:1005F00021FA04F411FA0CF118BF01212143084338
:10060000A3EB0C01CB1D4FEA00614FEA102042BF63
:10061000002010BC704700EBC35010440029A4BF59
:1006200010BC7047401C490008BF20F0010010BCFE
:10063000704710B5141E73F1000408DA401C41F134
:10064000000192185B411A4301D120F0010010BD56
:100650002DE9F04D92469B4611B1B1FA81F202E0CC
:10066000B0FA80F220329046FFF77BFF04460F4637
:1006700040EA0A0041EA0B0153465A46084313D0A8
:10068000114653EA010019D0C8F140025046FFF765
:1006900077FF05460E46504659464246FFF761FF32
:1006A000084305D0012004E020463946BDE8F08D1E
:1006B0000020054346EAE0762C4337430A98630559
:1006C000E40AA0EB08000022FD0A44EA47540A307D
:1006D00002D500200146E9E7010510196941DDE96D
:1006E000084500196941BDE8F04DA2E72DE9F04D3C
:1006F00081EA030404F0004B21F0004514464FF05A
:10070000000A23F0004150EA050220D054EA010219
:100710001DD0C5F30A570246C5F31303C1F31300F6
:10072000C1F30A5640F4801543F48013A7EB060882
:10073000101BD64608F2FD3873EB050002D308F112
:10074000010801E092185B41B8F1000F03DA0020C4
:100750000146BDE8F08D00204FF480110646844626
:100760000EE0171B73EB050705D3121B63EB0503A4
:1007700006434CEA010C49084FEA300092185B41ED
:1007800050EA0107EDD152EA030012D082EA0400D8
:1007900083EA0501084305D0101BAB4106D20122B4
:1007A000002306E000224FF0004302E06FF0010258
:1007B00053101AEB06004CEB085110EB0A0041EB0A
:1007C0000B01BDE8F04DFFF734BF0000064C074DAC
:1007D00006E0E06840F0010394E807009847103411
:1007E000AC42F6D3FFF7D4FC48D6000868D6000820
:1007F0002DE9F04D00231A461B1A8A4103DB002025
:100800000146BDE8F08DC1F30A52C1F3130141F472
:1008100080154FF0000BD10702D100186D41521E18
:100820000027044640F2FF11384601EB620A3E46BB
:100830008046024600204FF48011FFF7A1FEC21946
:100840007141BB1846EB0100B4EB030C75EB000CD7
:1008500004D3E41A65EB000517460E46241908F187
:1008600001006D4180463428E3DDF91946EB0600AE
:10087000091BA84103D24FF0FF32134601E00022CA
:1008800013461BEB070046EB0A51BDE8F04DFFF79E
:10089000D0BE70B58C1810F8015B15F0070301D1BC
:1008A00010F8013B2A1106D110F8012B03E010F8D3
:1008B000016B01F8016B5B1EF9D12B0705D40023F6
:1008C000521E0DD401F8013BFAE710F8013BCB1A98
:1008D000921C03E013F8015B01F8015B521EF9D58D
:1008E000A142D8D3002070BD30B5904B90489149BB
:1008F000D3ED003AC0ED053A93ED021A80ED071AE8
:1009000093ED014A11EE102A80ED034A8988A1F285
:10091000DC5100EE901AF8EEE00ADFED871A03F1E1
:100920001401864D60EEA10AC1ED000A90ED062A81
:1009300012EE104ADFED821AAC4206DBF5EEC00A79
:10094000F1EE10FA01DDC1ED001A7E4D0C68AC42EB
:1009500004DA7D4DAC4201D2C1ED001A7B4C91ED21
:10096000003AD4ED030ADFED7A2AB5EEC03AF1EE93
:1009700010FA04DBDFED774A43EE240A01E043EE90
:10098000220AC1ED010ADFED740AD1ED024A20EE20
:10099000203AD1ED010A70EEE40AC0ED010AF4EE4E
:1009A000C30AF1EE10FA06DCB1EE433AF4EEC30AE4
:1009B000F1EE10FA01D280ED013AD0ED010A34EEE9
:1009C000A03A81ED023AD1ED030A73EE604A9FED41
:1009D000635A44EE850AC1ED030A61494979C1B100
:1009E0000478B4B100EE802AC0ED040A71EE220A48
:1009F00080ED062AF4EEC20AF1EE10FA06D371EE8B
:100A0000620AF4EEC20AF1EE10FA06DDC0ED060A43
:100A100003E0C0ED041A80ED061AD0ED060A514D30
:100A2000F7EE082ABDEEE02A70EEC10A12EE104A77
:100A3000BDEEC12A2C804C4D12EE104A2C80C0ED28
:100A4000080A90ED042A00EEA22ADFED480A44EEDF
:100A5000203A72EE630AB1EE042AC0ED090A20EED4
:100A6000822A80ED022A72EE440AC0ED0A0ADFED06
:100A7000402A404D60EEA22AD0ED0B0A42EE800AD9
:100A800010EE904AC0ED0B0AAC4202DDDFED3A0AEF
:100A900006E0F5EEC00AF1EE10FA01D2F0EE610ABE
:100AA0009FED360AC0ED0B0A354D22EE000A80EDAF
:100AB0000C0A30EE200A10EE104A80ED0D0AAC420E
:100AC00002DD9FED300A06E0B5EEC00AF1EE10FA45
:100AD00001D2B0EE610A80ED0D0ABCEEC00A10EE44
:100AE000104A1C82284C2478E40710D0012461B1FC
:100AF000BDEEC30A10EE101A09B2002906DD234923
:100B00008A420BDA22498A4208D2047030BDC0ED15
:100B10000B1A80ED061A0021017030BDC3ED021AD8
:100B2000C3ED011AC3ED001A30BD00004C3F002098
:100B3000D0040020B03F00206F12833A000016431B
:100B400000000000CDCCCC3DCDCCCCBDB0400020D1
:100B500000001643000048430000FA43CDCC4C3E51
:100B6000FC2500200202002000020020CDCC4C3DDC
:100B70009A99193F0000164400001644CDCCCC3E93
:100B800000007A4400007A44C204002000002042A1
:100B9000000020C270B5C94CF6EE000A2DED028BA4
:100BA00060EE208AD4ED010A94ED031AD4ED001A08
:100BB00094ED020A20EE812AB0EE008A8AB0C04984
:100BC00001EEC02A61EEA01A60EEA00A054640EED2
:100BD000011A40EE000AB7EE000A22EE082A21EEC2
:100BE000881A00EEC80A8DED002A8DED011A8DEDF0
:100BF000020AB1F9000000EE100AB1F9020000EE9D
:100C0000900AB8EEC00AB8EEE01A00EE900A20EEA4
:100C1000000AB1F90400F8EEE00A01EE200A00EE45
:100C2000900AB8EEE01A00EE900AF8EEE00A01EE43
:100C3000200A04F021FEB5F90000A4F11C0600EE24
:100C4000900AF8EEE00A60EE800ACDED030AB5F9ED
:100C5000020000EE900AF8EEE00A60EE800ACDEDA8
:100C6000040AB5F9040000EE900AF8EEE00A20EE5E
:100C7000800A8DED050A9DED040ADDED020A9DED69
:100C8000011A20EE200ADDED050A00EEC10A8DED05
:100C9000060A9DED050ADDED000A9DED021A20EE23
:100CA000200ADDED030A00EEC10A8DED070A9DED75
:100CB000030ADDED010A9DED001A20EE200ADDEDAC
:100CC000040A00EEC10A8DED080AB5F906009DED93
:100CD000061A00EE100A7B48B8EEC00AD0ED000AF2
:100CE00060EE200A96ED000A40EE010ACDED000A02
:100CF000B5F9081090ED001A00EE901AF8EEE00A2F
:100D000060EE810A9DED071A40EE010ACDED010A61
:100D1000B5F90A1090ED001A00EE901AF8EEE00A0C
:100D200060EE810A9DED081A40EE010ACDED020A3F
:100D300094ED011A9DED000AD4ED020A9DED022A00
:100D400060EE411A9DED010A40EEC01A94ED030ACF
:100D500040EE421A9DED002A21EEA83AD4ED001A89
:100D6000DDED012ADDED013A21EE822A9DED004AFA
:100D700031EE833A00EE622ADDED022A00EEA22A6D
:100D8000DDED002A60EE222A22EE282A41EEA32A77
:100D9000DDED023A41EE632A62EEA83ADDED012A6A
:100DA00061EE222A31EE021A40EEC42A9DED024A7B
:100DB00070EEA30A84ED003A84ED011AC4ED020A34
:100DC00041EE842A62EEA82A70EE221A23EE030A6C
:100DD000C4ED031A01EE010A00EEA00A01EEA10A19
:100DE00004F04AFDD4ED000A60EE801AC4ED001A4A
:100DF000D4ED010A21EE883A61EEA11A20EE801AA4
:100E000084ED011AD4ED020A61EE082A41EE411A7E
:100E100060EE800AC4ED020A94ED032A40EEE01A67
:100E200022EE000A23EE202A84ED030A40EE001A87
:100E300002EEC02A60EE882A62EE802A86ED022A3F
:100E400043EE012A9FED221AC6ED032AC6ED041ACD
:100E5000B5F90000404200EE100AB5F90200B8EE04
:100E6000C00A00EE900AB5F9040020EE020AF8EE7E
:100E7000E00A00EEA20A00EE900AA4F10800F8EEE3
:100E8000E00A00EEA10ADFED100A86ED010A30EE5D
:100E9000600ADFED0E0A60EE200AC0ED000A90ED58
:100EA000010A70EEC00A00EE810A80ED010A0948CD
:100EB00080ED010A0AB0BDEC028B70BDCC010020B0
:100EC0004C250020F4D50008000000457D3FF53E8C
:100ED000CDCCCC3D4C3F0020084803781BB141806D
:100EE0000021017002E04188491E418041880029AB
:100EF00003D101210170024802757047640500208A
:100F00003441002070B57E491A222DED048B01F189
:100F10003800FFF786F97A4800F120050178AA2900
:100F200025D14178AF2922D1818849BA2980C18849
:100F300049BA6980018949BAA980418949BAE980D9
:100F4000818949BA2981C18949BA6981018A49BA25
:100F5000A981418A49BAE981818A49BA2982C18A2B
:100F600049BA6982008B40BAA88204F09BFC6448AD
:100F700038300188A1F52A42AA3A17D1018BA1F590
:100F8000AA42553A12D15F4A0321D17001892980C2
:100F9000C18869808188A9804189E980C1892981C6
:100FA000818969814088688204F07CFC5648017818
:100FB0000F297AD1524CB0F80110203CC1F30A013C
:100FC00021808178CA08C17842EA4112C2F30A023C
:100FD00062800279890941EA8202417942EA8122EA
:100FE000C2F30A02A2804A08817942EAC112C2F31E
:100FF0000A02E2800A09C17942EA0112C2F30A0236
:101000002281027AC90941EA4202417A42EA412236
:10101000C2F30A0262818A08817A42EA8112C2F32B
:101020000A02A281C27A490941EAC201E1818189A9
:10103000C1F30A012182417BCA08817B42EA411245
:10104000C2F30A026282C27B890941EA8202017C00
:1010500042EA8122C2F30A02A2824A08417C42EAA1
:10106000C112C2F30A02E2820A09817C42EA011239
:10107000C2F30A022283C27CC90941EA4202017D0D
:1010800042EA4122C2F30A0262838A08417D9FED4F
:101090001F8B42EA8112C2F30A02A2834909807DB2
:1010A000002641EAC000E08300E022E09FED199BAA
:1010B00034F81600FFF700FA53EC182BFFF78AF903
:1010C00053EC192BFFF7DFF8FFF703FA24F81600AB
:1010D000761C102EECDB6088688020882880E088F1
:1010E000E880A088A88020892881E089688104F0B0
:1010F000D9FB0A4932204860BDEC048B70BD00006A
:10110000903F00209A010020202600207F6ABC74B6
:101110009318E83F0000000000A887405005002019
:10112000F0B40021144B42F210760C46DA1C5D5CE0
:10113000A5B122F811405C54491CC9B20229F6D36A
:1011400013884FF47A710D488B4202D852888A4234
:101150000DD90470F0BC002000F0C4B832F8115072
:10116000B542E8D207783D4422F81150E3E7012167
:101170000170F0BC70470000DF01002080250020D6
:101180002DE9F0410022044610464B1E04E0255C88
:10119000401C2A44D2B2C0B29842F8DB601810F862
:1011A000010C904233D1E078244E234D012706F103
:1011B0000308512821D1607958B3012827D130691B
:1011C000401C3061A07900F08DF8E079217A41EA85
:1011D00000202881607AA17A41EA00206881E07AC3
:1011E000217B41EA0020A881607BA17B41EA0020AD
:1011F000E881E07C687188F80070E078522806D1B8
:10120000607980B1012802D1E08840BA6882BDE8E7
:10121000F081A07900F066F8E079A871207AE87191
:10122000607A6871E9E7F068401CF060E08840BAD5
:10123000288288F80170EAE780250020DC01002080
:10124000264930B48A78264B002482B1012A15D071
:10125000022A19D0032A1BD0042A1DD00B46204D88
:101260001B78052A1D4420D0062A2CD033E0AA285A
:1012700031D101228A70187030BC704722282AD1DF
:1012800002228A705870F7E703228A709870F3E799
:1012900004228A70D870EFE705228A7018714870AE
:1012A000282800D98C700C70E6E74A789AB1521E53
:1012B00012F0FF024A70687103F101030B70DBD179
:1012C00006208870D8E78C7068719B1D30BCD9B23D
:1012D0000348FFF755BF8C70CEE70000DC0100200B
:1012E000C8250020064900F001024A70C0F3400200
:1012F0008A70C0F38002CA70C0F3C00008717047E2
:101300008025002001B56846FFF70AFF08BDFEE70B
:10131000002070470020704710B50022044905489E
:1013200005F036FC0449034805F02CFC002010BDF4
:101330001C1D0020780C00201C15002010B5014653
:10134000034805F01FFC024805F000FC002010BD1A
:10135000780C002000B50246B0EE403A084606F090
:10136000F9FE91ED030A104682ED050AB0EE430A3C
:101370005DF804EB06F0EEBE014800F089BB00000A
:1013800078090020014800F083BB0000F80A002023
:10139000014800F07DBB0000B808002010B50448EB
:1013A00000F076FB0349012081F8380610BD0000EB
:1013B000580B0020B826002010B5044800F068FB48
:1013C0000349012081F8340910BD000058080020AD
:1013D000B8260020014800F05BBB0000980A0020FE
:1013E00010B5044800F054FB0349012081F83C0388
:1013F00010BD0000380A0020B826002010B50448AF
:1014000000F046FB0349012081F8300C10BD0000BC
:1014100018090020B8260020014800F039BB000060
:10142000B80B0020014800F033BB0000D8090020B1
:1014300010B5044800F02CFB0349012081F82C0F63
:1014400010BD0000180C0020B826002001681823E9
:10145000CAB2103AB2FBF3F2054B6FF30901032A4B
:101460009B5CC36500D9091D816508467047000073
:10147000B09C000810B5014600208B698A6A4FF0C5
:10148000C07453B1B3F5005F15D072B1012A0CD00E
:10149000022A0AD0032A09D104E01AB1012A06D08F
:1014A000022A03D1C96AC90100D5012010BDC96A49
:1014B000A142FAD010BD002AF7D0012AF2D0022AA8
:1014C000F3D0032AF3D010BD30B50468256825F4A5
:1014D00080252560046863608368402B036803D01F
:1014E00099600068C26030BD9A600068C16030BD1C
:1014F000704770472DE9F041594D2DED028BF0EE0C
:10150000408A2878AF1C4FF0FF0801280BD09FEDD0
:10151000558A554E554C0B280AD01F2814D0FF2849
:101520006FD0404692E03878C0076BD00B2092E035
:1015300004F0C4FA02F084FE86ED028A85ED018A89
:1015400084ED5B8A1F2081E04A484949B0F90620B2
:1015500091ED002A00EE102A474AF8EEC00A92EDFB
:10156000001AB0EE420A10EE810AB6EE001A00EE42
:10157000012A81ED002AB0F90830D1ED011A00EE00
:10158000103AD2ED002AF8EEC00AB0EE610A10EE71
:10159000A20A40EE011AC1ED011AB0F90A00D1ED1C
:1015A000020A00EE100A92ED003AF8EEC02AB0EE00
:1015B000600A12EE830A40EE010AC1ED020A84EDD0
:1015C000172AC4ED061AC4ED280A96ED010A2B4924
:1015D00084ED390A96ED000A84ED4A0A84ED5B8AAF
:1015E00096ED020AD5ED010A70EEC00A9FED240ABD
:1015F00010EE900AC4ED5A0A884204DB30EEC00AAD
:1016000008E01EE026E010EE900A1E49884203D34F
:1016100030EE800A84ED5A0A1B49B0EE680AA1F147
:10162000CC00FFF797FE1849B0EE680A44390F481E
:10163000FFF790FE0D48B0EE680A883006F08AFD8C
:1016400005E004F03BFA02F0FBFD01202870387839
:10165000C00701D140462870BDEC028BBDE8F08187
:10166000C00400200000000074250020CC3B0020B6
:10167000403F00204C250020F0D5000800003443F6
:101680000000B443000034C3DC3C00202149224860
:1016900001F14402B7EE080AC0E9071281ED000A21
:1016A000016ADFED1F0A9FED1F1A81ED000A016A32
:1016B000B0EE080A81ED070AC16981ED070AA2F5BB
:1016C00019719FED160A01F52A7282EC030A443261
:1016D00082EC030AFBEE040A9FED130A81ED8D0AEA
:1016E0009FED120A81ED9E0A016AB3EE040A81EDB4
:1016F0000F0AC1ED100AC16981ED0F0AC1ED100A90
:101700004FF44871C182322101830949C1600949FE
:1017100001617047EC3D0020344100206666E63EE2
:10172000B81E053E4260653C000070420000A042C9
:101730007C2E0020FC25002070B504462548F0EEE4
:10174000001A2DED028BF7EE000A90ED020A90EDE3
:10175000031A20EE002A01EE012A42EE610A90ED02
:10176000012A22EE212A22EE000A90ED002A62EEE2
:10177000211A01EE810A07F0BBFA174DD5ED000AD8
:1017800020EE200A84ED020A2868FEF7BBFE114E07
:1017900041EC180B1C3EB068FEF7B4FE41EC100B98
:1017A00007F0F6F853EC182B51EC100BFEF712FE75
:1017B000FEF7BBFE6060D6ED040A96ED030A07F063
:1017C00097FAD5ED000A20EE200A84ED000ABDEC60
:1017D000028B70BDCC010020ECD50008FEB5244D75
:1017E000002400BF04F13B00C1B2D02002F0F6FBA0
:1017F0002855641C0E2CF5DB1D49062208312C46A9
:10180000A81DFEF70EFD1C48194F00211A3F9FED41
:10181000191AD0F804506B46A7F1300607EB4102C5
:1018200034F81100928940BA801A00B200EE100A12
:1018300006EB810223F81100F8EEC00A92ED000ACF
:1018400070EEC00A00EE810A82ED000AD2ED060AAF
:1018500030EE600A40EE010AC2ED060ABDEEE00A73
:1018600010EE100A25F81100491C0629D6DBFEBD32
:10187000662500209A99993EA40100202DE9F04F99
:101880008BB0182104A8FEF7F3FC002551480295FF
:10189000039500950195C5634E4C0564456430344D
:1018A0004FF4006020822E46012000F067FAFFF717
:1018B00095FF761C642EF7DB4FF4C8774FF4167A49
:1018C000DFF8148140F21F36C7F10009CAF1000B9E
:1018D000D8F80800401CC8F80800022000F04EFAB2
:1018E000FFF77CFFB4F9000000F28F10B0421CD269
:1018F000B4F90200B84218DA484516DDB4F904001C
:10190000504512DA584510DDD8F80800B0F5FA6FE6
:10191000DEDDB4F90670B4F908C0B4F90A90D8F85D
:10192000042002A96D464FB902E0C8F80850CFE77D
:10193000BCF1000F02D1B9F1000FF4D05FF000004C
:1019400002EB400331F81060DB889E1B25F8106025
:1019500021F81030401C00B20328F1DBBDF9000073
:10196000001D0828DFD8BDF90200001D0828DAD8BC
:10197000BDF90400001D0828D5D80025FFF72EFF6B
:101980004FF4B27704AE11E0FFF728FF642D0DDBB2
:10199000D8F80410002000BF56F8202031F910308C
:1019A0001A4446F82020401C0628F5DB6D1C2DB299
:1019B000BD42E9DB5FF0000004EB400256F8201066
:1019C000401C091200B291810628F5DB0BB0BDE87E
:1019D000F08F00001C250020A40100202DE9F0411B
:1019E0000446876D00F0C0FA064694F835000025DD
:1019F000022806D08020606584F834500120BDE8BC
:101A0000F0812068016821F01601016020684169B9
:101A100021F080014161206C08B9A06C20B12068E0
:101A2000016821F0080101602068016821F00101CE
:101A300001600BE000F098FA801B052806D92020F1
:101A4000606504F8345F03206070D8E720680068A0
:101A5000C007EFD194F85C103F208840B86004F8CC
:101A6000345F012060700020C9E790F8351002292A
:101A700003D08021416501207047052180F8351091
:101A80000068016821F0010101600020704700003A
:101A90002DE9F84304464FF00009CDF80090634863
:101AA0004FF41651A56D0068B0FBF1F72E6894F85D
:101AB0005C10082000FA01F131420FD021680A6859
:101AC00052070BD50A6822F004020A6094F85C10F1
:101AD0008840A860606D40F00100606594F85C107B
:101AE0004FF0010808FA01F0304208D02168496936
:101AF000090604D5A860606D40F00200606594F8A6
:101B00005C1004208840304208D0216809688907A9
:101B100004D5A860606D40F00400606594F85C1026
:101B200010208840304218D021680968090714D570
:101B3000A86020680168490304D50068000308D53F
:101B4000A16C07E00168C90503D4016821F0080110
:101B50000160216C09B12046884794F85C10202070
:101B60008840304231D021680968C9062DD5A86067
:101B700094F8350005282068016806D0490347D548
:101B8000006800031DD4616C1CE021F016010160A7
:101B90002068416921F080014161206C08B9A06C86
:101BA00020B12068016821F00801016094F85C1000
:101BB0003F208840A86084F8349084F83580216DF7
:101BC0001FE0E16B09B120468847606D00282BD0EB
:101BD000606DC00714D0052084F8350020680168C6
:101BE00021F0010101600098401C0090B84203D828
:101BF00020680068C007F6D184F8349084F83580F6
:101C0000E16C002910D001B02046BDE8F043084740
:101C10000168C905D5D4016821F01001016084F87C
:101C2000349084F83580CCE7BDE8F8837C00002050
:101C30002DE9F041044600F097F906465CB1002515
:101C400084F83450022084F835002068016821F0BF
:101C5000010101600DE00120BDE8F08100F084F990
:101C6000801B052805D920206065032084F83500F5
:101C7000F2E720680068C007F0D1226811682048A8
:101C80000140D4E901031843D4E903363343184330
:101C900063691843A3691843E3691843236A184327
:101CA0000843616A042903D1D4E90B13194308439B
:101CB000106020684069666A20F0070130460E43D4
:101CC000012704280CD1A06A0643E06A40B12046EF
:101CD000FFF7D0FB20B14020606584F83570BAE78B
:101CE000206846612046FFF7B1FB94F85C203F2155
:101CF00091408160656584F835700020ACE7000094
:101D00003F8010F02DE9F0410446866D90F83400D4
:101D1000002501280DD0012084F8340094F8357096
:101D20000020012F07D084F8340002252846BDE8A2
:101D3000F0810220FBE7022784F8357060652046B9
:101D4000FFF7C2FB94F85C103F208840B060206829
:101D5000016841F0160101602068416941F080018D
:101D60004161206C20B12068016841F008010160E8
:101D70002068016841F001010160D7E770B50446B1
:101D800000F0F2F80546601C02D0044800780444D4
:101D900000F0EAF8401BA042FAD370BD70000020AA
:101DA0002DE9F84FDFF87CB100224FF001084FF029
:101DB000030A4FF00F090BF1040E00BF0B6808FA7D
:101DC00002F42340A3426ED14D68022D01D0122DA2
:101DD0000ED1D50800EB850CDCF820505607F70E25
:101DE00009FA07F6B5430E69BE402E43CCF82060D1
:101DF000066855000F790AFA05FC07F0030726EA82
:101E00000C06AF40374307604E68012E05D0022E06
:101E100003D0112E01D0122E0ED18668CF6826EA8B
:101E20000C06AF40374387604668A6430C79C4F37D
:101E30000014944034434460C6688C6826EA0C065B
:101E4000AC403443C4604C68E40065D5364C25682A
:101E500045F480452560246822F0030504F480449D
:101E60000094324C2E19D6F8084895072F0F09FA1E
:101E700007F5AC432E4DA84201D1002524E02D4D9D
:101E8000A84201D101251FE02B4DA84201D1022516
:101E90001AE02A4DA84201D1032515E0284DA84299
:101EA00002D1042510E037E0264DA84201D10525D6
:101EB0000AE0254DA84201D1062505E0234DA842A0
:101EC00001D1072500E00825BD402543C6F8085884
:101ED000DBF800405D464E689C43F60300D51C438A
:101EE0002C60DEF8004075464E689C43B60300D572
:101EF0001C432C600B4D08352C684E689C43F60241
:101F000000D51C432C60074D0C352C684E689C4353
:101F1000B60200D51C432C60521C102AFFF44EAFB1
:101F2000BDE8F88F003C01404438024000300140D9
:101F3000000002400004024000080240000C024081
:101F4000001002400014024000180240001C024031
:101F5000426931EA020200D10904816170470AB185
:101F6000816170470904FBE7014880687047000001
:101F70007000002070B504001BD094F83D000025CF
:101F800020B984F83C50204600F0AEF8242084F8B4
:101F90003D002068016821F00101016000F0CEFEE3
:101FA0004D4A6168914201D84C4900E04C49884251
:101FB00001D2012070BD4B492368B0FBF1F15E688E
:101FC00026F03F060E435E606368934206D94FF4E5
:101FD000967359434FF47A73B1FBF3F12368491CAC
:101FE0001E6A26F03F06314319626168914210D89B
:101FF0004900401EB0FBF1F2521CC2F30B02042A4E
:1020000001D2042022E0B0FBF1F0401CC0F30B0031
:102010001CE0A368F3B301EBC10202EB0116421E00
:10202000B2FBF6F2521C42F48042120549D093B33F
:1020300001EBC10202EB0111401EB0FBF1F0401CAC
:10204000C0F30B0040F4804040F400402168CA69AE
:102050004CF6FF739A431043C861D4E90701084363
:1020600021680A6822F0C00210430860D4E9030125
:1020700001432068826848F2FF339A43114381602C
:10208000D4E9050108432168CA6822F0FF02104321
:10209000C86001E00EE016E02068016841F001012F
:1020A00001602564202084F83D00256384F83E50BB
:1020B000002070BD01EB4106421EB2FBF6F2521C3D
:1020C000B3E70120C2E701EB4101401EB0FBF1F094
:1020D000401CC0F30B00B7E7A086010080841E00FF
:1020E00000093D0040420F00F0B587B004461421BE
:1020F0006846FEF7BDF81A49206888422DD1194874
:10210000016841F004010160016801F004010591DA
:10211000016841F0010101600068122400F0010033
:1021200005904FF400700125032604278DE8F10087
:1021300069460D48FFF734FE28028DE8F100694634
:102140000A48FFF72DFE07481030016841F40001EE
:102150000160006800F40000059007B0F0BD0000C9
:10216000005C00403038024000080240000002409D
:102170000248816802781144816070477000002035
:102180000B4810B5016841F400710160016841F429
:1021900080610160016841F480710160032000F0FA
:1021A0006FF8002000F006F800F024F8002010BDC1
:1021B000003C024070B50D4D04464FF47A7128780A
:1021C000B1FBF0F00A490968B1FBF0F000F096FFAE
:1021D00048B9102C07D200222146501E00F030F8DA
:1021E00000206C6070BD012070BD000070000020F8
:1021F0007C0000200A4808B5016841F48041016074
:10220000006800F4804000900548001F016841F01C
:1022100080510160006800F08050009008BD00000F
:1022200044380240002809DB00F01F0201219140E0
:102230004009800000F1E020C0F800117047000064
:10224000F0B40E4B1B680C46C3F30223C3F1070521
:10225000042D00D90425191D072901D2002300E00F
:10226000DB1E012606FA05F1491E214099409E40D9
:10227000761E16403143F0BC06F079BB0CED00E051
:10228000064900F0070208684FF6FF03184040EACD
:102290000220034A10430860704700000CED00E084
:1022A0000000FA0570470068416200207047F0B5F1
:1022B0000368586A39B19C6A4FF4827600EB144483
:1022C00000204D1E0AE040EA024098620FE006EB53
:1022D0008007DF59401C04EB1744C0B2A842F6D374
:1022E00044EA02404FF4807202EB81015850002012
:1022F000F0BDD0F8040404F0D2BEC1EBC10200EB83
:102300008202D0F80404926C04F025BEC1EBC10235
:1023100000EB8202D0F80404D2F8082204F07EBE5A
:10232000D0F8040404F0BDBE70B504460B0601F0FD
:102330000F00C0EBC00104EB81014FF001024FF030
:10234000000503D581F83D203C3103E081F8FD51C3
:1023500001F5FE71087094F8BC03012808D084F8D8
:10236000BC23206805F014FA84F8BC53002070BD2B
:10237000022070BD70B5044601F00F006268904203
:1023800001D9012070BD0B0601F00F01C1EBC101A5
:1023900004EB81014FF001024FF0000503D581F8F5
:1023A0003D203C3103E081F8FD5101F5FE718D7057
:1023B000087094F8BC03012808D084F8BC23206876
:1023C00005F0C2FB84F8BC53002070BD022070BD34
:1023D00001F00F01C1EBC10100EB8100D0F8140244
:1023E00070472DE9F04104460F0601F00F00C0EBE5
:1023F000C00104EB81014FF001064FF0000503D549
:1024000081F83D603C3103E081F8FD5101F5FE713A
:1024100008708A60CB704A7802B1C880022B00D164
:102420000D7194F8BC03012809D084F8BC632068BE
:1024300005F0FEF8284684F8BC53BDE8F081022080
:10244000FBE770B50C4601F00F05C5EBC50100EBCD
:102450008101C1F81032C1F808220023C1F81432FA
:1024600081F8FD3181F8FC51036901F5FE71012B02
:1024700000D10A612207027C006803D005F0BCFB92
:10248000002070BD05F0A8FAFAE770B504460D46C5
:1024900001F00F006168884201D9012070BD290652
:1024A0004FF000064FF0010207D5C0EBC00104EB6E
:1024B000810181F83D203C3107E0C5EBC50104EB0B
:1024C000810181F8FD6101F5FE718A70087094F850
:1024D000BC03012807D084F8BC23206805F060FB0A
:1024E000280702D007E0022070BD217C04F571723C
:1024F000206805F0FDFA84F8BC63002070BD70B55B
:102500000C4601F00F05C5EBC50100EB81010B6521
:102510008A6400234B65012381F83D3001F83C5F5C
:102520000369012B00D10A612207027C006803D0F5
:1025300005F062FB002070BD05F04EFAFAE70000DE
:102540002DE9FC5F05680446284605F07EFC00285E
:102550007ED1206805F0A5FC002879D0206805F020
:10256000A0FC800704D52068416901F002014161A7
:10257000206805F096FC010304F571704FF0010A24
:102580004FF0080B009075D50026206805F068FC18
:102590000746DFF808946BE0F80767D0F1B22068CF
:1025A00005F077FC8046C00707D005EB4611C1F85F
:1025B00008AB3146204602F069FE5FEA087032D56A
:1025C0002068016C00EB46100191D0F8081B2269CD
:1025D000012A019A0FD0F24B9A4214D1090403D573
:1025E0004FF40041C0F8081B204600F0C9FA2069EA
:1025F00001280FD013E04A4505D9090403D54FF44B
:102600000041C0F8081B204600F0BAFA019848457E
:10261000EDD804E020680121009A05F069FA05EB85
:102620004611C1F808BB5FEAC86004D505EB461146
:102630001020C1F8080B5FEA88600ED520690128D8
:1026400004D120680121009A05F052FA202100E00F
:10265000A1E105EB4610C0F8081B5FEA884005D5EC
:1026600005EB46104FF40051C0F8081B7F08761C9C
:10267000002F91D1206805F014FC40034FF00009B1
:102680005FD5206805F0E5FB0746002657E0F80710
:1026900053D0F1B2206805F0EAFB8046C00726D08F
:1026A00006F00F020AFA02F0D5F834288243C5F882
:1026B000342805EB4610C0F808A92069012807D185
:1026C000C6EBC60004EB8000D0E9112111448164FF
:1026D000F1B22046FFF711FE2069012807D136B973
:1026E000206D20B920680121009A05F001FA5FEA07
:1026F000087003D505EB4611C1F808B95FEAC86058
:1027000004D505EB46111020C1F808095FEA4860BE
:1027100004D505EB46104021C0F808195FEA88701F
:1027200004D505EB46100221C0F808195FEA0860DD
:1027300003D53146204602F017FE7F08761C002F95
:10274000A5D1206805F0ADFB002811DAD5F8040802
:1027500020F00100C5F8040894F8F40301282BD0F8
:10276000204600F0F1F92068416901F00041416123
:10277000206805F096FB00050BD5D5F80808C007C2
:1027800002D0204600F024FA2068416901F400617B
:102790004161206805F085FBC00461D5D5F80408C7
:1027A00020F00101C5F804181021206805F02EFB67
:1027B00000214FF67F321AE084F8F493002120467E
:1027C000FFF770FDCFE700BF05EB4110C0F8082907
:1027D000D0F8003923F40013C0F80039C0F8082BF2
:1027E000D0F8003B23F40013C0F8003B491C60689C
:1027F0008842E9D8D5F81C0840F00111C5F81C182A
:10280000206B002828460DD0D0F8840840F00B003B
:10281000C5F88408D5F8440840F00B012846C5F8EF
:1028200044180DE0D0F8140842F22B010843C5F813
:102830001408D5F8100840F00B012846C5F8101808
:10284000D0F8000820F4FE61C5F80018217C20684B
:10285000009A05F04DF92068416901F48051416109
:10286000206805F01EFB800415D5206804F020FFC9
:10287000206805F0DDFAE06000F05AFA0146227B9C
:10288000206805F049FB204600F048F920684169BE
:1028900001F400514161206805F003FBC00634D506
:1028A0002068816921F0100181612F6A07F00F0013
:1028B000C0EBC00004EB8006C7F3434006F5FE768C
:1028C000022802D0062811D01AE047F6F07007421D
:1028D00016D0C7F30A1217462846F16805F0E5FA44
:1028E000F0683844F060B069384408E008222846AF
:1028F000009905F0DAFAB069C7F30A110844B0612B
:102900002168886940F010008861206805F0C9FAE4
:10291000000707D5204600F01BF92168486900F040
:1029200008004861206805F0BCFAC00208D5002103
:10293000204600F037F82168486900F480104861AB
:10294000206805F0AEFA800208D50021204600F08C
:102950002DF82168486900F400104861206805F0EE
:10296000A0FA400007D52046FFF7C3FC2068416964
:1029700001F080414161206805F093FA40070AD5D3
:1029800020684568680702D52046FFF7C9FC206823
:10299000416829434160BDE8FC9F00000A30544F64
:1029A0000A31544FD0F8040404F0CABBD0F8040430
:1029B00004F0C8BB2DE9F0418AB0040005D094F8BA
:1029C000BD032668002520B108E001200AB0BDE85B
:1029D000F08184F8BC53204600F05EF8032084F8B0
:1029E000BD03F06BC00500D42561206804F0EEFF44
:1029F00004F11001282288466846FDF712FC94E88D
:102A00000F0004F06FFE0226C8BB0021206805F00D
:102A10005AFA002001270EE0C0EBC00104EB81014F
:102A200081F83D7001F83C0FC880CD708D60CD609D
:102A3000401CC0B24D6161688142EDD8002011E0B8
:102A4000C0EBC00104EB810181F8FD5181F8FC016C
:102A500081F8FF51C1F80452C1F80852401CC0B2BD
:102A6000C1F8105261688142EAD82822414668467E
:102A7000FDF7D7FB94E80F0004F0E2FE10B184F8F4
:102A8000BD63A2E784F8385084F8BD73206804F071
:102A9000CBFE00209AE7000010B586B00446142152
:102AA0006846FDF7E5FB2068B0F1A04F2FD119482B
:102AB0000021026842F001020260006800F001009B
:102AC00005904FF4C05000900220CDE90101032091
:102AD00003900A20049069460F48FFF761F90D48FA
:102AE000001D016841F0800101600A48143001684E
:102AF00041F4804101600068002200F480400590AC
:102B000011464320FFF79CFB4320FFF78BFB06B0E9
:102B100010BD0000303802400000024070B504468D
:102B2000C068012570B1022801D0FEF7E2FC2946F9
:102B3000D4F8040404F057FBD4F80404BDE8704052
:102B400004F017BB0025F2E7D0F8040404F039BB09
:102B5000D0F8040404F03BBB10B5044690F8BC0365
:102B600001280BD0012084F8BC0384F838102068B9
:102B700005F0C0F9002084F8BC0310BD022010BD90
:102B8000D0F8042400F57171104604F038BB10B57C
:102B90000446006894F8BC13012906D0012184F88A
:102BA000BC13A16A012902D008E0022010BDA1696E
:102BB000012903D0816B41F480318163206804F0E6
:102BC00027FE206805F00CF9002084F8BC0310BD36
:102BD00010B50446D0F8040404F050FB2068D0F887
:102BE000001E41F00101C0F8001E206A002804D038
:102BF0000248016841F00601016010BD10ED00E0DF
:102C00002DE9F0470E46050065D0DFF81481D8F8AD
:102C10000000F7B200F00F00B04207D288F8007051
:102C2000D8F8000000F00F00B04254D128683D4CA5
:102C3000810712D5400703D5206840F4E05020609A
:102C40002878000703D5206840F4604020602068A1
:102C5000A96820F0F000084320602878C0072DD034
:102C6000304968680839012812D0022813D0032897
:102C700011D00968890700292DDA216821F00301A4
:102C800001432160FFF770F9814641F2883A0EE076
:102C900009688903EFE709688901ECE7FFF764F940
:102CA000A0EB0901514502D90320BDE8F087206857
:102CB000696800F00C00B0EB810FEFD1D8F800107C
:102CC000404601F00F01B14207D90770006800F0DB
:102CD0000F00B04201D00120E7E72878400705D572
:102CE0002068E96820F4E050084320602878000755
:102CF00006D52068296920F4604040EAC1002060C0
:102D000000F03CF82168084AC1F30311515CC84047
:102D1000064908600020FFF74DFA0020C5E70000D3
:102D2000003C024008380240B89C00087C000020AB
:102D300001480068704700007C00002004480549F5
:102D400000680968044AC1F38221515CC840704799
:102D50007C00002008380240C89C0008044805494F
:102D600000680968044AC1F34231515CC8407047A9
:102D70007C00002008380240C89C0008154810B5A7
:102D8000006810F00C02144813D01449042A0FD024
:102D9000082A0ED10F4C241F2268236802F03F023C
:102DA0005B0207D52068C0F38810A0FB010106E094
:102DB000084610BD2168C1F38811A1FB0001002362
:102DC000FDF7FEF92168C1F30141491C4900B0FB40
:102DD000F1F010BD083802400024F40040787D0175
:102DE0002DE9F84F050076D02878DFF8F8B2BE4C10
:102DF000C00749D0DBF800105846C1F38101012912
:102E000008D00068C0F3810002280AD1201D0068A4
:102E1000400206D52068800336D568680028E2D0D5
:102E200032E06868B0F5803F10D0B0F5A02F206880
:102E300010D020F480302060206820F480202060B2
:102E40006868A0B1FFF790F806460CE0206840F4EF
:102E50008030F4E740F480202060F7E7FFF784F843
:102E6000801B642873D820688003F7D50CE0FFF737
:102E70007BF8064605E000BFFFF776F8801B642864
:102E8000F0D820688003F7D42878DFF860828007C4
:102E90004FF000093ED5DBF80010584611F00C0F3A
:102EA00009D00068C0F3810002280BD18D48001FB3
:102EB0000068400206D42068800715D5E86801281C
:102EC00009D111E0E868B8B10120C8F80000FFF7A7
:102ED0004BF8064605E002E1FFF746F8801B0228A2
:102EE000C0D820688007F7D52068296920F0F8004D
:102EF00040EAC10020600DE0C8F80090FFF734F808
:102F0000064604E0FFF730F8801B02281FD820682F
:102F10008007F7D42878000722D5724E7448696973
:102F20006C3671B101210160FFF71EF8074604E01D
:102F3000FFF71AF8C01B022809D830688007F7D5B8
:102F40000EE0C0F80090FFF70FF8074605E083E0B9
:102F5000FFF70AF8C01B02287ED830688007F7D434
:102F60002878400768D5DFF87CA100270AF1380AE5
:102F7000DAF80000C0000BD4DAF8001041F08051FC
:102F8000CAF80010DAF80000012700F08050009025
:102F9000584E3068C00510D4306840F480703060FE
:102FA000FEF7E2FF009005E0FEF7DEFF0099401A11
:102FB000022851D83068C005F6D54A4EA868683650
:102FC00001280FD00528306810D020F001003060B3
:102FD000306820F004003060A868B8B1FEF7C4FF84
:102FE00000900FE0306840F00100F4E740F004008A
:102FF0003060F7E7FEF7B8FF0099411A41F28830D8
:10300000814264D830688007F4D50EE0FEF7ACFF4B
:10301000009007E0FEF7A8FF0099411A41F28830BE
:10302000814254D830688007F4D42FB1DAF8001008
:1030300021F08051CAF80010A869C0B3DBF8001075
:10304000C1F3810102294AD00228484607D0C8F8B6
:103050006000FEF789FF00E039E005463AE04746A8
:10306000C8F86000FEF780FF064604E0FEF77CFF2C
:10307000801B02282BD820688001F7D4D5E90701EE
:103080000843A96A1C4A490802EB01416A6A41EAFD
:103090008211084395F82C1040EA01611148001F85
:1030A000016001203866FEF75FFF054605E014E089
:1030B000FEF75AFF401B022809D820688001F7D587
:1030C0000BE000BFFEF750FF401B022802D903208F
:1030D000BDE8F88F20688001F4D40020F8E70120D3
:1030E000F6E700000838024000380240000047427E
:1030F000800E4742007000400000FFFF10B5401EE8
:10310000B0F1807F01D3012010BD4FF0E024606159
:103110000F21601705F02BFC0020A0610720206123
:10312000002010BD7047704710B590F83C20012A70
:1031300022D0012280F83C20CA688C6822F44072B8
:1031400022434C6822F4806222430C6822F400621D
:1031500022430C6922F4805222434C6922F400522B
:103160002243C969002322F480420A4301684A6469
:1031700080F83C30002010BD022010BD70B590F8E2
:103180003C20012A19D0012400F83C4F0222427051
:1031900050F83C3C5A689D6822F070060A684968FD
:1031A000324325F0800529435A6050F83C2C916049
:1031B000447000210170084670BD022070BD10B53A
:1031C000040003D094F83D0010B107E0012010BDC9
:1031D000002084F83C00204600F00CF8022084F81F
:1031E0003D00211D206802F049FD012084F83D00CA
:1031F000002010BD08B5154A0168154891420ED14E
:10320000016841F0020101600068002200F0020044
:10321000009011461D20FFF713F81D2010E00D4A05
:10322000914211D1016841F004010160006800225F
:1032300000F00400009011461E20FFF701F81E2048
:10324000BDE80840FEF7EEBF08BD000000040040E6
:1032500040380240000800400168CA6842F001029C
:10326000CA600068816801F00701062903D001687F
:1032700041F0010101600020704770B5044690F8EC
:103280003C00012817D0012584F83C50022084F826
:103290003D002068826822F0770222F47F4282603B
:1032A0000868502830D00DDC20284DD005DC98B3BC
:1032B00010283BD148E0022070BD302844D040287F
:1032C00034D139E0602828D0702806D0B0F5805F6E
:1032D0002CD0B0F5005F29D10AE0CB68D1E90121FB
:1032E000206802F03CFD2068816841F0770109E028
:1032F000CB68D1E90121206802F031FD20688168A6
:1033000041F48041816011E0CA684968206802F098
:10331000FBFD5021206807E016E0CA684968206874
:1033200002F003FE6021206802F023FD84F83D5086
:10333000002084F83C0070BDCA684968206802F02B
:10334000E3FD40212068EFE7226801461046EBE7E5
:10335000704770B50446006801694FF00005C94325
:10336000890715D4C168C943890711D4E91E0161D1
:1033700001202077206880698007204602D0FFF76F
:10338000E7FF04E000F0EAF8204600F085F9257731
:1033900020680169C943490717D4C168C94349076F
:1033A00013D46FF004010161022020772068806946
:1033B00010F4407F204602D0FFF7CAFF04E000F07F
:1033C000CDF8204600F068F9257720680169C943E7
:1033D000090716D4C168C943090712D46FF0080160
:1033E0000161042020772068C0698007204602D050
:1033F000FFF7AEFF04E000F0B1F8204600F04CF912
:10340000257720680169C943C90617D4C168C94333
:10341000C90613D46FF010010161082020772068DD
:10342000C06910F4407F204602D0FFF791FF04E00E
:1034300000F094F8204600F02FF925772068016904
:10344000C943C90708D1C168C943C90704D1891E46
:103450000161204600F044F920680169C94309066A
:1034600009D4C168C943090605D46FF08001016120
:103470002046FFF757FE20680169C943490609D471
:10348000C168C943490605D46FF040010161204677
:1034900000F027F920680169C94389060BD4C16887
:1034A000C943890607D46FF0200101612046BDE8B9
:1034B0007040FFF738BE70BD70B586B00446142169
:1034C0006846FCF7D5FE204A216800241F480225E3
:1034D000012691420FD1016841F01001016000689E
:1034E000694600F0100005904FF4D4400090CDE9FB
:1034F0000154174822E0B1F1804F23D1016841F017
:1035000001010160016801F001010591016841F0CC
:103510000201016000680095CDE9015400F002004D
:10352000CDE90460694603940A48FEF739FC4FF47C
:1035300040600090CDE9015407486946CDE9034653
:10354000FEF72EFC06B070BD00000140303802408E
:10355000001002400000024000040240704770B5B5
:10356000044690F83C000D4601280DD0012684F851
:103570003C60022084F83D0042B1042A18D0082A99
:103580002AD00C2A4DD139E0022070BD206802F00B
:10359000F9FB2068816941F0080181612068816937
:1035A00021F004018161206881692A69114311E0D9
:1035B000206802F017FC2068816941F40061816194
:1035C0002068816921F480618161206881692A69AC
:1035D00041EA0221816124E0206802F039FC206880
:1035E000C16941F00801C1612068C16921F004018D
:1035F000C1612068C1692A69114311E0206802F0A5
:103600005BFC2068C16941F40061C1612068C16947
:1036100021F48061C1612068C1692A6941EA0221FF
:10362000C16184F83D60002084F83C0070BD10B595
:10363000040003D094F83D0010B107E0012010BD54
:10364000002084F83C00204600F00CF8022084F8AA
:103650003D00211D206802F011FB012084F83D008F
:10366000002010BD08B500680949884201D1094809
:1036700004E0B0F1804F09D10648001F016841F015
:1036800001010160006800F00100009008BD000029
:1036900000000140443802407047000010B5044665
:1036A0000068012202F04EFB0B492068884202D0DC
:1036B0000A49884203D1416C41F4004141642068C9
:1036C000816801F00701062903D0016841F001017A
:1036D0000160002010BD0000000001400004014016
:1036E0007047704710B504460068416994F8392066
:1036F000C1F3C011212A0BD151B1416921F08001E0
:103700004161206B08B1FEF769F9204602F02AFDFD
:103710002068416994F83A20C1F38011222A0BD124
:1037200051B1416921F040014161606B08B1FEF780
:1037300055F9204602F008FD002010BD704700003A
:1037400070B5026804461068D168536910F00F0F15
:1037500051D003F0010501F4907635435DD0C207E6
:1037600005D0CA0503D5E26B42F00102E2634207CD
:1037700005D5DA0703D0E26B42F00202E26382076A
:1037800005D5DA0703D0E26B42F00402E2630207D8
:1037900005D5DA0703D0E26B42F00802E263E26B80
:1037A000002A34D0800604D5880602D5204602F0CF
:1037B000E2FC20684069E16BC0F3801001F0080171
:1037C0000143204624D002F0BFFC2068416949062D
:1037D0001AD5416921F040014161606BA0B11B49DC
:1037E0000165606BFEF741F9002810D0606B016D38
:1037F000BDE87040084783060FD58B060DD52046DF
:10380000BDE8704002F0B7BC2046FFF797FF70BDDF
:10381000FFF794FF0020E06370BD030606D50B069A
:1038200004D52046BDE8704002F046BE4006F3D500
:103830004806F1D5D168204621F04001D160202111
:1038400084F8391000F086FB70BD0000716000083C
:1038500070B5040004D094F83900002510B106E0DA
:10386000012070BD84F83850204600F023F8242051
:1038700084F839002068C16821F40051C1602046F5
:1038800002F0C4FC2068016921F4904101612068C4
:10389000416921F02A0141612068C16841F4005169
:1038A000C160E563202084F8390084F83A000020E4
:1038B00070BD00002DE9F04F87B004461421684622
:1038C000FCF7D6FCFF48DFF8F8831038D4F800C0C6
:1038D000FC4B012702210322002506154FF0080B9F
:1038E0004FF0400A4FF00069C44573D1D3F800C0CF
:1038F0004CF4002CC3F800C01B6803F400230593AC
:10390000036843F001030360036803F001030593B8
:10391000036843F00403036000680DF1080C00F035
:10392000040005900220CDE9007090468CE88009E3
:103930006946E548FEF734FA700000900DF1040C7A
:1039400002208CE881096946E048FEF729FADFF891
:103950008483DF4940464F46C0E90356C8F81450F7
:10396000C8F81850C8F81C50C8F8205088E88204DD
:10397000C8F82450FEF75CF908B1FDF7BAFDC4F8A9
:103980003080C8F83840DFF84C83D14908F160082E
:1039900030394046C8F80010C0E90175C0E9035647
:1039A0008915C8F81450C0E90651C8F82050C8F865
:1039B0002450FEF73DF908B1FDF79BFDC4F83480B3
:1039C000002211463420C8F83840FEF739FC342074
:1039D00071E0FFE7DFF80083C44572D1D3F800C07F
:1039E0004CF4801CC3F800C01B6803F480130593DB
:1039F000036843F004030360036803F004030593C2
:103A0000036843F00803036000680DF1040C00F044
:103A1000080005904FF480500090022090468CE8FA
:103A200081096946A948FEF7BBF9042000900DF111
:103A3000040C02208CE881096946A848FEF7B0F919
:103A4000DFF89082A24908F1C00840464F46C0E91D
:103A50000356C8F81450C8F81850C8F81C5048311C
:103A6000C8F8205088E88204B146C8F82450FEF710
:103A7000DFF808B1FDF73DFD9548994EC4F8308058
:103A80006038C8F838403060C6E90175C6E90359A6
:103A90007561B561F561356230467562FEF7C8F84B
:103AA00008B1FDF726FD6663002211463520B46398
:103AB000FEF7C6FB3520FEF7B5FB07B0BDE8F08F7B
:103AC000FFE7DFF820824FF0070EC44539D17D4B68
:103AD0001B1DD3F800C04CF0100CC3F800C01B68CD
:103AE00003F010030593036843F0010303600068CB
:103AF00000F0010005904FF4C0608DE88300CDE92F
:103B0000032E69467048FEF74BF9754F76486037CB
:103B10003860C7E90195C7E903567D61BD61FD6164
:103B20003D6238467D62FEF783F808B1FDF7E1FC9F
:103B30006763002211462520BC63FEF781FB252028
:103B4000B9E7DFF8A881C4454BD1D3F800C04CF4E5
:103B5000003CC3F800C01B6803F4003305930368FE
:103B600043F001030360006800F0010005900C20A1
:103B70008DE88300CDE9032E69465348FEF710F91E
:103B8000574F5348C0373030C7E903567D61BD6198
:103B9000FD613D627D6287E801063846FEF748F820
:103BA00008B1FDF7A6FC2763BC634948504F1830A5
:103BB0003860C7E90195C7E903567D61BD61FD61C4
:103BC0003D6238467D62FEF733F808B1FDF791FC9F
:103BD0006763002211462620BC63FEF731FB2620D6
:103BE00069E7DFF81081C4454ED1D3F800C04CF42A
:103BF000802CC3F800C01B6803F48023059303687E
:103C000043F008030360006800F0080005904FF4DB
:103C100040708DE88300CDE9032E69462F48FEF7FA
:103C2000BFF8334F2A48603748383860C7E90195F4
:103C3000C7E9035680157D61C7E906503D623846E5
:103C40007D62FDF7F5FF08B1FDF753FC6763BC63C8
:103C5000274F1F48C0371838C7E903567D61BD613B
:103C6000FD613D627D6287E801063846FDF7E0FFB1
:103C700008B1FDF73EFC2763002211462720BC63F4
:103C8000FEF7DEFA272016E71B4B9C457FF415AFA5
:103C90000C4B1B1DD3F800C04CF0200CC3F800C027
:103CA0001B6803F020030593036843F004030360DB
:103CB000006800F004000590C0208DE883001DE03E
:103CC000004C004040380240000002400008024022
:103CD000706002405808002000500040000C024074
:103CE0007809002000100140406402400044004078
:103CF000980A00200048004000140140CDE9032B41
:103D000069461B48FEF74CF81B4F1A484FF02068D5
:103D10003860C7E90185C7E9035680157D61C7E9A9
:103D200006503D6238467D62FDF782FF08B1FDF71F
:103D3000E0FB6763BC63104F0E4860377830C7E91B
:103D400003567D61BD61FD613D627D6287E80105CD
:103D50003846FDF76DFF08B1FDF7CBFB2763002266
:103D600011464720BC63FEF76BFA4720A3E600002C
:103D70000008024028640240B80B0020F8B5044651
:103D800090F83A0020283CD1C1B3BAB394F8380077
:103D9000012836D0012084F83800A162A2850025D0
:103DA000E563222084F83A00636B1748D863636B9D
:103DB00016481864636B1648D864606B1346056533
:103DC0000846666B216802463046091DFDF79AFFDA
:103DD000206801684168009184F83850C16841F456
:103DE0008071C1602068416941F001014161206832
:103DF000416941F0400141610020F8BDFFE7012029
:103E0000FBE70220F9E70000CB600008076100082B
:103E100081600008704770472DE9F843044690F828
:103E200039001F4616460D46202850D1A5B19EB137
:103E300094F8380001284AD0012084F838004FF067
:103E40000008C4F83C80212084F83900FEF78CF883
:103E5000A6848146E68426E00120BDE8F883E08C54
:103E6000401EE084A0684B46B0F5805F4FF0000232
:103E70004FF080012046009703D002F04EFBE8B9D6
:103E80000DE002F04AFBC8B928882168C0F3080099
:103E90004860206908B16D1C05E0AD1C03E0216895
:103EA00015F8010B4860E08C0028D8D14B46002261
:103EB00040212046009702F030FB08B10320CCE7F8
:103EC000202084F8390084F838800020C5E70220DB
:103ED000C3E7000070B5044690F83900202830D1BF
:103EE00069B362B394F8380001282AD0012084F81D
:103EF00038002162A284E2840025E563212084F851
:103F00003900236B1048D863236B10481864236B67
:103F10000F48D864206B134605652668206B321D58
:103F2000FDF7F0FE21686FF04000086084F838501B
:103F30002068416941F080014161002070BD01208D
:103F400070BD022070BD0000116100083F610008D3
:103F5000816000087047704708B502F079FB01F0F6
:103F600077F901F053FAFDF791FB05F057F901F0ED
:103F700091FD05F0ADFB00F0C7FC00F0B9FC0A486C
:103F8000FFF76AF900F05CFA48F230400021009037
:103F9000B423A022084600F033FA05F0ABF9034938
:103FA0000120087008BD000098060020640200206F
:103FB000FEE700000848016821F440410160016803
:103FC00041F480410160016821F4405101600168C1
:103FD00041F48051016070470004024030B50D4645
:103FE000044600F0E5F8204600F0B2F800F030F8A2
:103FF000284600F0ADF800F02BF800F0D9F8601C6E
:1040000000F0A6F800F024F800F04CF80446002078
:1040100000F06EF800F0F2F8E0B230BD30B51446B2
:104020000D46034600F0C4F8184600F091F800F081
:104030000FF8284600F08CF800F00AF8204600F04F
:1040400087F800F005F8BDE8304000F0D7B8000070
:10405000124810B5016821F4404101600F4C14343E
:10406000206840F0400020600D4B211F0AE01878C6
:10407000401CC0B21870052804D900F0BFF8002019
:10408000187002E008680006F1D4206820F04000B3
:104090002060BDE81040012005F046B80004024051
:1040A0000802002030B511480023016821F4404186
:1040B00001600E4A08241432151F11E0106840F008
:1040C000400010605806030E2868000601D543F032
:1040D0000103106820F040001060012005F024F872
:1040E000641EE4B2EAD2184630BD0000000402406B
:1040F00010B5164B0446186840F480401860134A07
:104100001432106820F040001060012005F00CF817
:104110001068C4B120F080001060012005F004F8A0
:10412000106840F040001060012004F0FDFF1068AE
:1041300020F040001060012004F0F6FF186820F421
:104140004040186010BD40F08000E5E700040240E8
:1041500030B5164B0446186840F480401860134A86
:10416000082514321AE02006106802D540F08000BD
:1041700001E020F0800010606400012004F0D4FF12
:10418000106840F040001060012004F0CDFF10687E
:1041900020F040001060012004F0C6FF6D1EEDB25B
:1041A000E1D2186820F44040186030BD000402409D
:1041B000114800B5016841F4804101600E4A143293
:1041C000106840F080001060106840F040001060FF
:1041D000012004F0A9FF106820F080001060012089
:1041E00004F0A2FF106820F04000106001205DF88C
:1041F00004EB04F099BF0000000402400F4800B532
:10420000016841F4804101600C4A1432106820F0CA
:1042100040001060106820F080001060012004F061
:1042200083FF106840F040001060012004F07CFF24
:10423000106840F08000106000BD000000040240E3
:104240000648B7EE000A80ED000A9FED050A80EDF2
:10425000010A80ED020A80ED030A7047CC010020BC
:1042600000000000F0B500230A24302537261F4641
:1042700011E000BFB4EB107F02D905EB107C01E028
:1042800006EB107C01F813C001EB430C00015B1C32
:104290008CF80170DBB29342ECD3F0BD70B53B4CAF
:1042A0002DED028B207800286DD0002525706068E8
:1042B000401C0321B0FBF1F2606001FB120028B941
:1042C0009FED330AFDF716F900F0AEFE20794007A6
:1042D00002D13048FDF730FA60680B21B0FBF1F2F3
:1042E00001FB120010B90B20FDF70CF860680A26DC
:1042F000B0FBF6F106FB110048B99FED278AB0EE3E
:10430000480A03F0EDFEB0EE480A05F053FA606883
:104310001421B0FBF1F201FB120088B99FED1F8A56
:10432000B0EE480A04F02CFAB0EE480A04F09AF90C
:10433000B0EE480AFCF7D8FAB0EE480A01F0B6F839
:104340006068B0FBF6F106FB110020B901F0CEF970
:10435000002004F0FDFF60684FF47A71B0FBF1F2C9
:1043600001FB120018B90E4805600E48056005F003
:104370004FFC01F0F3F901F053FABDEC028BBDE8FC
:10438000704004F0A7BEBDEC028B70BD00000020A1
:10439000A69B443B742500200AD7233C0AD7A33CA4
:1043A000E8010020EC0100202DE9F04107461C4601
:1043B00015460E462A2000F05BFA7F1CB8B200F0CA
:1043C0004CFA6D1CA8B200F048FA2B2000F050FA0D
:1043D0001A36B0B200F041FA1A34A0B200F03DFA39
:1043E000BDE8F0412C2000F043BA10B514460B464E
:1043F0000246FFF7D9FF2046BDE8104000F02DBA75
:104400002DE9F04780461F46581E83B21646501EBF
:1044100082B20C464046DDF82090FFF7C5FF0AE067
:10442000454604E0484600F018FA6D1CADB2B542AE
:10443000F8D3641CA4B2BC42F2D3BDE8F0870000FC
:1044400010B5934C002240212046FDF788FD6420E2
:10445000FDF794FC012240212046FDF780FD6420F9
:10446000FDF78CFC012210212046FDF778FD642029
:10447000FDF784FC112000F0FBF97820FDF77EFCAD
:10448000B12000F0F5F9052000F006FA3C2000F01C
:1044900003FA3C2000F000FAB22000F0E9F9052010
:1044A00000F0FAF93C2000F0F7F93C2000F0F4F9B4
:1044B000B32000F0DDF9052000F0EEF93C2000F01B
:1044C000EBF93C2000F0E8F9052000F0E5F93C208C
:1044D00000F0E2F93C2000F0DFF9B42000F0C8F968
:1044E000032000F0D9F9C02000F0C2F9AB2000F0A1
:1044F000D3F90B2000F0D0F9042000F0CDF9C12051
:1045000000F0B6F9C52000F0C7F9C22000F0B0F9FC
:104510000D2000F0C1F9002000F0BEF9C32000F02A
:10452000A7F98D2000F0B8F96A2000F0B5F9C42091
:1045300000F09EF98D2000F0AFF9EE2000F0ACF90C
:10454000C52000F095F90F2000F0A6F9E02000F05A
:104550008FF9072000F0A0F90E2000F09DF9082047
:1045600000F09AF9072000F097F9102000F094F974
:10457000072000F091F9022000F08EF9072000F0EA
:104580008BF9092000F088F90F2000F085F925202B
:1045900000F082F9362000F07FF9002000F07CF96D
:1045A000082000F079F9042000F076F9102000F0DE
:1045B00073F9E12000F05CF90A2000F06DF90D209C
:1045C00000F06AF9082000F067F9072000F064F9AC
:1045D0000F2000F061F9072000F05EF9022000F0E2
:1045E0005BF9072000F058F9092000F055F90F2079
:1045F00000F052F9252000F04FF9352000F04CF979
:10460000002000F049F9092000F046F9042000F0EC
:1046100043F9102000F040F9FC2000F029F9802037
:1046200000F03AF93A2000F023F9052000F034F9BF
:10463000362000F01DF9782000F02EF9212000F03E
:1046400017F9292000F014F92A2000F011F90020B0
:1046500000F022F91A2000F01FF9002000F01CF9E8
:10466000692000F019F92B2000F002F9002000F079
:1046700013F9012000F010F9002000F00DF9A0203E
:1046800000F00AF9BDE810402C2000F0F1B800005D
:10469000000C02402DE9FF4F81B00446DDF83C904C
:1046A00000904FEA59074FF00008780700D001202A
:1046B00000EBD70000FB09FB203AD0B20390029830
:1046C00002994844401E83B2E019401E82B220463F
:1046D000FFF76AFE002553E0B9F10C0F2AD0B9F1BB
:1046E000100F2ED0B9F1180F2ED0B9F1200F49D1EB
:1046F0002749039801EB8010002610F805A01098B8
:1047000000284FF0010000FA06F000EA0A0022D06B
:1047100020B12046049A0299FFF767FE641C0098B6
:10472000A4B2201AB84225D10298009C401C80B245
:10473000029023E00398174900EB400001EB800052
:10474000DAE71549039803E00398144900EB4000A9
:1047500001EB0010D0E708B1049800E00E9800F0DB
:104760007CF808F10100C0B2B0FBF7F1804607FB0E
:10477000118050B1761CF6B2082EC0D36D1CADB2BC
:104780005D45A9D305B0BDE8F08F4FF00008F5E70F
:1047900004B90008D09C000844A1000834A7000810
:1047A0002DE9FF4F83B00026DDE9128A1D468146C0
:1047B0004FEA58073446DDF844B02CE0281B401E71
:1047C000C1B20A2004F074FF0599B1FBF0F00A2190
:1047D000B0FBF1F201FB120026B9691E8C4201DA2E
:1047E00058B101263030CDF800B0C2B2CDE9018A0F
:1047F00004FB079080B2109B08E0CDF800B0CDE933
:10480000018A04FB0790109B80B220220499FFF7D5
:1048100041FF641CE4B2AC42D0D307B0BDE8F08FD6
:104820002DE9FE4F9946DDE90D6714468A46054697
:10483000DDF830800CE0CDF800804B46514628462C
:10484000CDE90167FFF726FF05EB560085B2641C32
:104850002278002AEFD1BDE8FE8F10B50446000A89
:1048600000F01AF8E0B2BDE8104000F015B8000002
:1048700070B5084C0546002280212046FDF76FFBED
:10488000284600F009F82046BDE87040012280214A
:10489000FDF765BB000C024070B5144E05460022C2
:1048A00020213046FDF75BFB00240022102130461A
:1048B000FDF755FB280601D5012200E00022082162
:1048C0003046FDF74CFB012210213046FDF747FB37
:1048D0006806641C050EE4B2082CE6D33046BDE839
:1048E000704001222021FDF73ABB00000004024085
:1048F000044802210122C1708270817101714171ED
:10490000704700009A0100202DE9F041FFF752FBAB
:10491000264C0027264E67763D467521D020FFF7AE
:104920005DFB30706420FDF729FA6D1C052DF4DB6A
:104930003078682803D027760020BDE8F081012573
:10494000657680226B21D020FFF768FB3220FDF7CF
:1049500015FA2A461921D020FFF760FB0520FDF744
:104960000DFA032632466B21D020FFF757FB0520B6
:10497000FDF704FA32461A21D020FFF74FFB05203D
:10498000FDF7FCF9182632461B21D020FFF746FB25
:1049900032461C21D020FFF741FB0520FDF7EEF940
:1049A000FCF76CFF25760120C7E700004C250020AE
:1049B000A4010020314808B5016841F400110160EC
:1049C000016801F400110091016841F48001016067
:1049D0000068002200F48000009011460B20FDF7D3
:1049E0002FFC0B20FDF71EFC002211460C20FDF7CA
:1049F00027FC0C20FDF716FC002211460D20FDF7C8
:104A00001FFC0D20FDF70EFC002211460E20FDF7C5
:104A100017FC0E20FDF706FC002211461020FDF7C2
:104A20000FFC1020FDF7FEFB002211461120FDF7C0
:104A300007FC1120FDF7F6FB002211462F20FDF7A1
:104A4000FFFB2F20FDF7EEFB002211463920FDF77A
:104A5000F7FB3920FDF7E6FB002211463A20FDF76F
:104A6000EFFB3A20FDF7DEFB002211464520FDF763
:104A7000E7FBBDE808404520FDF7D4BB30380240D5
:104A80002DE9F04F87B014216846FBF7F1FB594838
:104A90000024016841F010010160016801F010017B
:104AA0000591016841F080010160016801F0800119
:104AB0000591016841F001010160016801F0010107
:104AC0000591016841F002010160016801F00201F5
:104AD0000591016841F008010160016801F00801D9
:104AE0000591016841F0040101600068DFF808A148
:104AF00000F004000590002260215046FDF72FFAD7
:104B00004FF48657002239463C48FDF728FADFF873
:104B1000F0B04FF44168002241465846FDF71FFAB5
:104B20004FF48079002249463648FDF718FA0122F1
:104B3000C0215846FDF713FA012238212F48FDF70E
:104B40000EFA01252020CDE90005CDE90254694681
:104B50005046FDF725F90820CDE900046946504686
:104B60000294FDF71DF910208DE83100694650468A
:104B7000FDF716F940260096CDE9014569465046F5
:104B80000394FDF70DF90097CDE9015469461B48E0
:104B90000394FDF705F9009669465046CDE90145B5
:104BA000FDF7FEF8CDF80080CDE90154694658467E
:104BB0000394FDF7F5F8CDF80090CDE9015469466E
:104BC00010480394FDF7ECF8C020CDE9000502245D
:104BD000CDE9025469465846FDF7E2F83820CDE9A0
:104BE0000005CDE9025469460448FDF7D9F807B03D
:104BF000BDE8F08F3038024000100240000402404F
:104C0000000C0240000802400D4810B50B4901603D
:104C10000C49416000214FF480428160C0E90312D9
:104C200041618161C1610162FDF7A4F9002803D0EF
:104C3000BDE81040FCF75DBC10BD0000005C00400A
:104C400084050020A086010010B592B000240F94C6
:104C50001C2168461094FBF70BFB202107A8FBF7EB
:104C600007FB2D482B490160A721C0E9011440F63C
:104C7000C311C0E9031444618461FEF7D8FC08B194
:104C8000FCF737FC0F940FA923481094FEF776FA2F
:104C900008B1FCF72EFC602000904FF47A70CDE94B
:104CA0000104039404940594002269461A4806946A
:104CB000FEF755FC08B1FCF71CFC042269461648B7
:104CC000FEF74DFC08B1FCF714FC082269461248B7
:104CD000FEF745FC08B1FCF70CFC0C2269460E48B7
:104CE000FEF73DFC08B1FCF704FC07940894099416
:104CF0004FF400500A94CDE90B4007A906480E94E2
:104D0000FEF712FA08B1FCF7F4FB0348FEF7D4FBF8
:104D100012B010BD00000140D805002010B58AB0C7
:104D2000002407941C2168460894FBF7A1FA1C484C
:104D30004FF08041C0E900148460C4600461846164
:104D4000FEF775FC08B1FCF7D4FB079407A91448DB
:104D50000894FEF713FA08B1FCF7CBFB6020CDE90D
:104D600000040294042269460D480494FEF7F7FB00
:104D700008B1FCF7BEFB082269460948FEF7EFFBC5
:104D800008B1FCF7B6FB0C2269460548FEF7E7FBC5
:104D900008B1FCF7AEFB0248FEF78EFB0AB010BD6F
:104DA0001806002010B586B000241748009401941E
:104DB000029403940494134905940160A721C0E967
:104DC000011440F2E731C0E903148461FEF7F7F9FA
:104DD00008B1FCF78EFB4FF48050009069460A48FA
:104DE000FEF74BFA08B1FCF784FB049404A90648CB
:104DF0000594FEF7C3F9002801D0FCF77AFB06B052
:104E000010BD0000000400405806002010B586B018
:104E100000241748009401940294039404941349C5
:104E200005940160A721C0E901144FF47A71C0E92B
:104E300003148461FEF7C3F908B1FCF75AFB4FF481
:104E40008050009069460A48FEF717FA08B1FCF74F
:104E500050FB049404A906480594FEF78FF9002836
:104E600001D0FCF746FB06B010BD00000008004072
:104E7000980600200C4810B50A4901604FF41651FD
:104E80004160002181600C22C160C0E9041281618F
:104E9000C161FEF7DDFC002803D0BDE81040FCF73F
:104EA00028BB10BD004C0040D80600200C4810B5AF
:104EB0000A4901604FF4E1314160002181600C2218
:104EC000C160C0E904128161C161FEF7C1FC002824
:104ED00003D0BDE81040FCF70CBB10BD00500040F3
:104EE000180700200E4810B50C4901600D494160BB
:104EF0004FF4805181604900C160C91001610C21EB
:104F0000416100218161C161FEF7A2FC002803D04C
:104F1000BDE81040FCF7EDBA10BD000000100140E4
:104F200058070020A08601000C4810B50A4901600E
:104F30004FF4E1314160002181600C22C160C0E981
:104F400004128161C161FEF783FC002803D0BDE833
:104F50001040FCF7CEBA10BD004400409807002076
:104F60000C4810B50A4901604FF4E131416000215D
:104F700081600C22C160C0E904128161C161FEF749
:104F800067FC002803D0BDE81040FCF7B2BA10BDA2
:104F900000480040D80700200C4810B50A490160BD
:104FA0004FF4E1314160002181600C22C160C0E911
:104FB00004128161C161FEF74BFC002803D0BDE8FB
:104FC0001040FCF796BA10BD0014014018080020EC
:104FD00010B500220F49104801F096FF08B1FCF708
:104FE00088FA0E490C4802F06FF908B1FCF781FA13
:104FF0000B49094801F0BEFD08B1FCF77AFA0648F2
:1050000002F0B8F9002803D0BDE81040FCF771BAEF
:1050100010BD000008000020780C00205C0100207A
:1050200058000020FEE700002DE9F0417F484FF0D6
:10503000FF07A0F102040178CA0700D16770627807
:105040007A4DAD1D012A07D0022A0CD000261F2A56
:1050500021D0FF2A38D1E5E0CA0704D021F00601AB
:1050600001700221617072490A781F21002A0278BA
:105070004FEA427203D0002A03DB617006E0002A87
:1050800004DA027842F002020270F6E76420288017
:105090006880A880B9E0674ADFF89CC1536863451F
:1050A00008D8DFF898E1734504DC1268624501D83E
:1050B00072450ADD21F001010170677000F0FEFC0D
:1050C000FFF7BEF8A660E660A0E05D48407958B101
:1050D0005C48B0F9104000F0E5FB00BF40F25231EF
:1050E000002C07DC00220AE057488088A0F57A707F
:1050F00004B2F3E78C4201DD0A4600E022462A8032
:10510000002C01DC002304E08C4201DD0B4600E0B2
:1051100023466B80002C01DC002004E08C4201DD82
:10512000084600E02046A880002C01DC002102E0B7
:105130008C4200DC2146454C94ED140AD4ED030A60
:1051400094ED251A70EE601A31EE812A01EE902A54
:10515000F8EEE11A72EE211AFDEEE11A11EE902A34
:1051600070EE201A12B22A8031EEC12A01EE903A76
:10517000642AF8EEE11A72EE211AFDEEE11A11EE40
:10518000903A70EEC01AB1EE400A1EB230EE600ADC
:1051900031EE812A01EE900A6E8070EE410AF8EE3F
:1051A000E11A00EE101A72EE211AB8EEC00AFDEEF6
:1051B000E11A30EE800A11EE900ABDEEC00A03B289
:1051C000AB8010EE100A01B2E9804FF47A7001DC76
:1051D000642202E0824200DD02462A80642E01DC65
:1051E000642602E0864200DD06466E80642B01DC08
:1051F000642302E0834200DD0346AB80642901DCC6
:10520000642002E0814200DC0846E880B5F90630FF
:10521000B5F90420B5F90210B5F90000BDE8F04178
:1052200002F068BF012060704CE70000C20400205B
:10523000D004002074250020000020C2000020427D
:10524000FC2500204C3F0020B03F0020CC3B00203C
:1052500010B500210848FEF721FA04210648FEF7A0
:105260001DFA08210448FEF719FABDE810400C2188
:105270000148FEF713BA0000D8050020704700006F
:105280000148FDF75DB90000140F00202DE9F04141
:10529000044600680E46016C00EB4615D5F8080B75
:1052A000276920234FF40042012F08D02C4FB94228
:1052B0004FD1010449D500BFC5F8082B4DE0DFF8F8
:1052C000A4C05FEA007E04F5717711D5614503D96A
:1052D000000401D5C5F8082B2046FDF751FC3A46DD
:1052E0000121206802F004FC0820C5F8080B34E016
:1052F0005FEA806E02D5C5F8083B2EE010F0280F5B
:105300002BD1614501D90004D6D4C6EBC60004EB0D
:105310008000D5F8102BD0F80412C2F312028A1ABA
:10532000C0F81422D0F808221144C0F80812F1B2D3
:105330002046FCF7EBFF86B9D4F8100268B93A466C
:105340000121206802F0D4FB07E0800601D5C5F8F2
:10535000083BF1B22046FCF7D9FF0020BDE8F08100
:105360000A31544F0A30544F2DE9F84F0E46C1EB25
:10537000C60100EB810481460568D4E914103C3471
:10538000884202D90120BDE8F88F081AA16881423D
:1053900000D20846C01C870805EB46181BE000BF7A
:1053A000A0EB010AA068504500D282460AF1030032
:1053B000870899F8100000901FFA8AF3F2B2284685
:1053C000E16802F01DFEE16801EB0A00E060A169FE
:1053D00001EB0A00A061D8F8180980B2B84205D3E1
:1053E000D4E90501814201D20028D9D1D4E90501CF
:1053F000884208D806F00F0101208840D5F83418FB
:105400008143C5F834180020BDE700001E48B2EE05
:10541000000ADFED1E0A80ED330AC0ED000A9FEDA1
:105420001C1AC0ED010A80ED021AB2EE041A80EDDA
:105430000D1ABAEE041A80ED0E1A80ED440AC0ED82
:10544000110AF7EE000AC0ED120ADFED120AC0EDF4
:10545000130A80ED550AB0EE000A80ED220A9FED96
:105460000E0A80ED240A9FED0D0A80ED310A9FEDB2
:105470000C0A80ED320A9FED0B0A80ED1E0A9FEDAB
:105480000A0A80ED1F0A7047CC3B0020CDCC8C3F30
:105490008FC2753D0AD7233D000000000000C842BE
:1054A0000000C8C200004842000048C27F4910B551
:1054B00048887D4AA0F2DC50404201EE100AD2ED4D
:1054C000040AB8EEC11ADFED7A1A7A4841EE210AD1
:1054D000C0ED000A098892ED051AA1F2DC5149429B
:1054E00002EE101AF5EEC00AB8EEC22A02EE211A38
:1054F000F1EE10FA80ED011A01DCF1EE600A10EE17
:10550000902A6D49DFED6D1A8A4201DAC0ED001A6A
:10551000B5EEC01AF1EE10FA01DCB1EE411A11EE4F
:10552000102A8A4201DAC0ED011A6549674CB1F9C7
:10553000082000EE902A5F4AF8EEE02A0832C2ED19
:10554000002AB1F90A3000EE903A5E4BB8EEE02A3C
:1055500082ED012AB1F90C2000EE902A554AF8EEAE
:10556000E04A2032C2ED004AB1F90E1000EE901A66
:1055700002F10801F8EEE00AC2ED010A90ED001A0E
:1055800071EE623A71EE644AC1ED003A90ED014A63
:1055900034EE423A34EE604A81ED013A183901F1B5
:1055A000080091ED005A35EE625A80ED005A91EDF7
:1055B000015A35EE425A80ED015A183090ED001A2A
:1055C00004EE801A80ED001AD0ED010A11EE102AC7
:1055D00044EE000A9FED3C4A9FED3D0A9A42C0ED21
:1055E000010A02D3B0EE441A05E011EE102AA242DD
:1055F00001DDB0EE401A10EE902A80ED001A9A42BA
:1056000002D3F0EE440A05E010EE902AA24201DD3A
:10561000F0EE400AC0ED010AC1ED002ADFED2D2AAF
:1056200081ED012A9FED2C2A23EEA20A21492B4C61
:10563000383101EE020A23EE221A294B00EE821ABB
:1056400010EE102A81ED000AA24281ED011A02D368
:10565000BBEE040A05E010EE102A9A4201DDB3EE1B
:10566000040A11EE102A81ED000AA24202D3BBEE19
:10567000041A05E011EE102A9A4201DDB3EE041A75
:1056800081ED011A0B49403181ED000AB1EE410A6A
:1056900081ED010A13490978002903D1C0ED001AF0
:1056A000C0ED011A10BD0000B0400020B03F002046
:1056B0009A99993E080500200000A04000000000D3
:1056C000802500200000C8C20000C8C20000C842F7
:1056D0000000C8429A99193E8FC2F53D0000A0C152
:1056E0000000A041D0040020704700001FB51A4CF4
:1056F000A068052823D2DFE800F00311161B1E0066
:1057000004F0FEF90020009001900290034602464A
:10571000014603900A2002F0B5FE10E004F0D6F92D
:1057200002F006FE0BE004F035FA02F025FF06E079
:1057300002F084FE03E002F0FDFE02F023FEA0680A
:105740000521401CB0FBF1F201FB1200A060BDE896
:105750001F4002F055BF0000F001002070B52D4C35
:105760002D4E4FF480612088401C80B22080A279A9
:1057700064256AB1012A04D0022A0DD0032A0FD170
:1057800001E0002209E0B0FBF5F205FB120038B998
:105790003046FCF7DDFB03E001223046FCF7DFFB7F
:1057A00020794FF4006170B1012804D002280ED096
:1057B000032810D101E000220AE02088B0FBF5F2B6
:1057C00005FB120038B93046FCF7C2FB03E00122AA
:1057D0003046FCF7C4FB627910484FF4807162B127
:1057E000012A0ED0022A0ED0032A11D12288B2FB40
:1057F000F5F305FB1322002A0AD1BDE87040FCF73F
:10580000A7BB002200E00122BDE87040FCF7A7BB67
:1058100070BD00009A010020000C02400008024008
:105820002DE9F0411248007800281FD0114F0025C3
:10583000C5EB851000EBC51007EB800494F8400021
:1058400088B104F5C772561C04F14100314603F0DB
:1058500049FC40B1002084F8400094F88E21314684
:105860002046FEF737FB6D1C062DE1DBBDE8F0811D
:1058700004020020B826002010EE100AF6EE000AFE
:10588000074960EE200AA1EB600000EE100AB7EEB7
:10589000081A60EE800A00EEC01A21EE000A704776
:1058A000DF59375FF0B435489FED330A344B007948
:1058B000344A354948B1587938B1344890ED000A36
:1058C00082ED380A90ED010A14E04888A0F2DC501D
:1058D000404200EE900AF8EEE00A60EE800AC2ED67
:1058E000380A0888A0F2DC5000EE900AF8EEE00AD0
:1058F00020EE800A264882ED490A0078C0072CD0A5
:10590000888840F21454A04227D92348CD8840F219
:10591000A466DFED200A90ED000AB54202D930EE10
:10592000600A03E0A54203D230EE200A80ED000AAF
:10593000D2F86821194C9FED1A0AA24204DBD0ED7F
:10594000000A30EEC00A06E0164CA24205D9D0ED9E
:10595000000A30EE800A80ED000A0889B0F5966FE3
:1059600001D2002003E0B0F5AF6F01D201205871E1
:10597000F0BC00F033B800000AD7233D802500209A
:10598000FC250020CC3B0020B03F00204805002033
:10599000C2040020CDCCCC3DC40400200000344320
:1059A0000000B443000034C309494868401E486001
:1059B000002804DC0748017821F001010170064845
:1059C000817D002903D000218175FBF79BBA7047C8
:1059D00050050020C2040020B03F00202DE9F04710
:1059E000294C2378DFF8A480294D0026B8F804203C
:1059F000B8F80610287840F24C474FF00109012B07
:105A000002D0022B29D118E0BA423BD240F26C728C
:105A1000914237D96178491CC9B2617064291CD997
:105A200066700221217040F00100287000F046F8F5
:105A3000FEF706FC02F094FE0FE0BA4222D2B94211
:105A400020D26178491CC9B26170642905D9667099
:105A500084F8009020F001002870B8F80A00B842DD
:105A60000ED340F2DC5188420AD9667084F8009067
:105A700000F024F8FEF7E4FB287820F001002870FD
:105A8000BDE8F0876670E8E750050020B03F0020D1
:105A9000C20400200749002040F2DC5221F8102007
:105AA000401C0828FADB4FF47A7048810249032031
:105AB00048717047B03F0020FC2500209FED0B0A85
:105AC0000B4A002000EB001102EB8101401C81ED2C
:105AD0000C0A81ED0B0A81ED030A81ED0A0A0D28FB
:105AE000F0DB9FED040A82ED7C0A704700000000A5
:105AF000CC3B00200000A0427047000010B52DED07
:105B0000028BFCF735FB19494868401C48604FF48C
:105B10007A71B0FBF1F201FB120119B914490A685C
:105B2000521C0A60134A0121117013490978002997
:105B300018D00321B0FBF1F201FB1200002811D1B3
:105B4000FBF74CFE9FED0D8A0D490E48B0EE480A5A
:105B5000FBF720F8B0EE480ABDEC028BBDE8104020
:105B600002F06ABDBDEC028B10BD00006800002091
:105B7000FC2500200000002064020020A69B443B7E
:105B8000742500204C25002030B593B030216846A4
:105B9000FAF76EFB14210CA8FAF76AFB1A480025E5
:105BA000016841F080510160006800F08050119060
:105BB0001648016841F4804101600068022400F445
:105BC0008040119001200090000401908001CDE9F7
:105BD0000640192008904FF4A870CDE90904072069
:105BE0000B906846FDF7FCF80CA90F2081E8310006
:105BF0004FF4A0500F90E002109005210CA8FCF784
:105C0000FFFF13B030BD000040380240007000407C
:105C10001048016841F4700101600F48016841F0CB
:105C2000010101600C4A00210832116002680B4B2F
:105C30001A400260031D0A4A1A60026822F4802298
:105C4000026005480C30016002495806803908603E
:105C50007047000088ED00E000380240FFFFF6FECC
:105C6000103000240148FDF774BB000058060020E6
:105C70000148FDF76EBB000098060020F0B50268F1
:105C8000254C264D264E274F274B4FF0804CA042E7
:105C900009D0604507D0A84205D0B04203D0B84231
:105CA00001D0984204D122F0700E4A6842EA0E02F6
:105CB000A0421BD0604519D0A84217D0B04215D0E1
:105CC000B84213D0984211D0184DA8420ED0184DAA
:105CD000A8420BD0174DA84208D0174DA84205D0B6
:105CE000164DA84202D0164DA84203D122F44075A9
:105CF000CA682A434D6922F080022A4302608A68FA
:105D0000C2620A688262A04201D0984201D1096948
:105D1000016301214161F0BD000001400004004029
:105D200000080040000C0040000401400040014019
:105D3000004401400048014000180040001C0040A1
:105D40000020004010B501F01F030121046A9940B2
:105D50008C430462016A9A401143016210BD10B580
:105D6000846842EA032224F47F440A432243826087
:105D700010BD826822F070020A4342F00701816080
:105D800070470000F0B5026A22F001020262036A65
:105D900042688469124E24F073050C682C4323F08A
:105DA00002058B682B430D4DA84201D0B04205D1AE
:105DB00023F00807CB683B4323F00403A84201D03B
:105DC000B04205D14D6922F4407215438A692A43D5
:105DD00042608461496841630362F0BD0000014094
:105DE00000040140F0B5026A22F010020262026A69
:105DF000436884690D6824F4E64444EA05248D6808
:105E000022F0200242EA05120F4D104EA84201D0A6
:105E1000B04206D1CF6822F0800242EA071222F097
:105E20004002A84201D0B04207D14D6923F440633B
:105E300043EA85038D6943EA8503436084614968C9
:105E400081630262F0BD00000000014000040140D7
:105E5000F0B5026A22F480720262026A4368C46981
:105E600022F4007224F073050C68124E2C438D68E6
:105E700042EA05220E4DA84201D0B04206D1CF68B9
:105E800022F4006242EA072222F48062A84201D092
:105E9000B04207D14D6923F4405343EA05138D699D
:105EA00043EA05134360C4614968C1630262F0BDFF
:105EB000000001400004014030B5026A22F4805223
:105EC0000262046A4268C3690D6823F4E64343EA48
:105ED00005238D6824F4005444EA0534084DA84293
:105EE00002D0084DA84204D14D6922F4804242EA12
:105EF00085124260C36149680164046230BD0000DC
:105F0000000001400004014010B5036A046A24F057
:105F100001040462846924F0F00444EA021423F0CA
:105F20000A020A438461026210BD10B5036A23F0BD
:105F3000100303628369046A23F4704343EA023264
:105F400024F0A00343EA01118261016210BD000048
:105F50001FB518490446486948B3201A00EE900A54
:105F600000200346B8EEE01A0246C1EE000AC1ED79
:105F7000030A91ED041A70EEC11A81EE801A81EDC8
:105F8000021AC1ED040A4C61BDEEC10A00900190F5
:105F90000290039010EE100ABDEEE00A01B210EE7E
:105FA000100A00B202F09AFA04B0204610BD4C610B
:105FB000FAE700001002002008B50A48FDF7C0FB10
:105FC000084800680168C1F30011002909D0016880
:105FD0004168009101684068BDE80840032003F073
:105FE00033BE08BDD80600200E4808B50168CA684F
:105FF000520605D50C4A0A600C4A012182F8301C71
:1060000000680168C1F3001139B10168416800916D
:1060100001684068042003F017FEBDE8084001480D
:10602000FDF78EBB18070020BFFFFFEFB82600204A
:106030000A4610B501460548FAF7F3F8044901206D
:106040008875BDE81040FFF7AFBC00002026002097
:10605000B03F002070B505460024285DFBF7F0F83E
:10606000641C962CF9DB70BD704770477047704711
:1060700010B5806B0021C185C184FDF75FFB10BDA9
:1060800070B5846B2068406994F83910C0F3C01073
:106090000025212904D118B1E584204600F062F8DA
:1060A0002068406994F83A10C0F38010222904D186
:1060B00018B1E585204600F047F8E06B40F010008D
:1060C000E0632046FDF73AFB70BD10B50146806BDA
:1060D00009680968C90513D40021C1850168CA6827
:1060E00022F48072CA6001684A6922F001024A61A2
:1060F00001684A6922F040024A61202180F83A1082
:10610000FDF788FE10BD10B5806BFDF784FE10BD55
:1061100010B50146806B09680968C9050CD40021D7
:10612000C18401684A6922F080024A610068C1683E
:1061300041F04001C16010BDFDF70CFF10BD10B56E
:10614000806BFDF708FF10BD0168CA6822F49072E9
:10615000CA6001684A6922F001024A61202180F880
:106160003A1070470168CA6822F0C002CA60202154
:1061700080F83910704710B590F83A10222901D0F4
:10618000022010BD8168B1F5805F11D0016900293E
:1061900001681FD0496801F07F03816A4A1C82624E
:1061A0000B70C18D491E0904090CC18518D02BE064
:1061B0000269816A002A0268526805D0D2B20A8058
:1061C000816A491C8162ECE7C2F308020A80816A95
:1061D000891CF7E74A68816A4B1C83620A70E0E712
:1061E0000168CA6822F02002CA600168CA6822F405
:1061F0008072CA6001684A6922F001024A61202166
:1062000080F83A10FDF706FE002010BD2DE9F041A0
:10621000044600680169E26821F4405111430161BC
:106220002169A068E2690843616911432268084353
:10623000D16849F20C6399430143D16020684169F8
:10624000A26921F4407111434161E2696425B2F50C
:10625000004F9748974922684FF032083FD08A4252
:1062600001D082427CD1FCF779FD00EBC00101EB4B
:10627000001061688900B0FBF1F6FCF76FFD00EBE0
:10628000C00101EB001061688900B0FBF1F0B0FBC8
:10629000F5F06FF01801484306EB800108EB0110A0
:1062A000B0FBF5F000F0F006FCF758FD00EBC00184
:1062B00001EB001061688900B0FBF1F0B0FBF5F074
:1062C00006EB0016FCF74AFD00EBC00101EB0010E5
:1062D00061688900B0FBF1F7FCF740FDD2E08A422B
:1062E00001D082423DD1FCF739FD00EBC00101EB4A
:1062F000001061684900B0FBF1F0B0FBF5F0060159
:10630000FCF72CFD00EBC00101EB001061684900B7
:10631000B0FBF1F7FCF722FD00EBC00101EB001030
:1063200061684900B0FBF1F0B0FBF5F06FF01801C7
:10633000484307EB800108EBC100B0FBF5F000F02B
:10634000F80006EB4006FCF709FD00EBC00101EB8D
:10635000001061684900B0FBF1F7FCF7FFFC3CE07E
:1063600055E0FCF7EBFC00EBC00101EB00106168AD
:106370004900B0FBF1F0B0FBF5F00601FCF7DEFCE4
:1063800000EBC00101EB001061684900B0FBF1F7C0
:10639000FCF7D4FC00EBC00101EB00106168490080
:1063A000B0FBF1F0B0FBF5F06FF01801484307EBDC
:1063B000800108EBC100B0FBF5F000F0F80006EB3F
:1063C0004006FCF7BBFC00EBC00101EB001061686C
:1063D0004900B0FBF1F7FCF7B1FC00EBC00101EBA9
:1063E000001061684900B0FBF1F0B0FBF5F06FF010
:1063F0001801484307EB800108EBC100B0FBF5F042
:1064000000F00700216830448860BDE8F081FCF7A7
:1064100095FC00EBC00101EB001061688900B0FB46
:10642000F1F6FCF78BFC00EBC00101EB001061689A
:106430008900B0FBF1F0B0FBF5F06FF018014843B4
:1064400006EB800108EB0110B0FBF5F000F0F00660
:10645000FCF774FC00EBC00101EB001061688900DF
:10646000B0FBF1F0B0FBF5F006EB0016FCF766FCB4
:1064700000EBC00101EB001061688900B0FBF1F78F
:10648000FCF75CFC00EBC00101EB001061688900C7
:10649000B0FBF1F0B0FBF5F06FF01801484307EBEB
:1064A000800108EB0110B0FBF5F000F00F00A9E748
:1064B000001401400010014090F83910212901D04A
:1064C000022070478168B1F5805F016A0BD04A1CD9
:1064D0000262026809785160C18C491E0904090CE6
:1064E000C1840ED017E009880268C1F30801516029
:1064F00001690029016A02D0491C0162ECE7891C8C
:10650000FBE70168CA6822F08002CA600068C168BF
:1065100041F04001C160002070472DE9F0419846EC
:1065200017460E460446069D1DE0681C1BD02DB183
:10653000FBF71AFDA0EB0800A84214D92068C16837
:1065400021F4D071C1602068416921F001014161ED
:10655000202084F8390084F83A00002084F83800BC
:106560000320BDE8F0812068006836EA000004D00E
:106570000020B842D9D00020F3E70120F9E700005D
:1065800008B50A48FDF7DCF8084800680168C1F35F
:106590000011002909D00168416800910168406834
:1065A000BDE80840002003F04FBB08BD580700209D
:1065B00008B50A48FDF7C4F8084908680268084A9F
:1065C0000368436800936FF0200303600868406825
:1065D000C0B21070BDE80840FAF732BE980700203C
:1065E0006800002008B50848FDF7AAF806480068CA
:1065F0000168C1F30011002904D0016841680091CD
:106600000168406808BD0000D807002038B50D4C6F
:106610002068C168090605D50B4901600B490120B6
:1066200081F82C0F0748FDF78BF820680168C1F34B
:106630000011002904D00168416800910168406898
:1066400038BD0000180800207FFFFFEFB8260020AB
:106650002DE9F04FC64C87B0C448C4F8C401C54802
:10666000C4F8C004C448C4F8BC07C448C4F8B80A95
:10667000C348C4F8B40D04F58051C2480491C1F870
:10668000B000012584F8405084F83C5384F8385613
:1066900084F8345984F8305C84F82C5F2046262234
:1066A000B9492434F9F7BDFDB74EF08C6080B16A6A
:1066B000A4F13C000164B18DA0F84410F08D60811C
:1066C000092206F1300104F10C00F9F7AAFD96F851
:1066D0003900607596F83A00A075F06BA06126222B
:1066E000AA4904F53670F9F79CFDA84FF88CA4F878
:1066F000FE02B96A04F53170C163B98DA0F840108B
:10670000F88DA4F80603092207F1300104F5427060
:10671000F9F787FD97F8390084F8110397F83A00E4
:1067200084F81203F86BC4F8140304F2D450262240
:1067300097490390F9F775FDDFF85482B8F8260001
:10674000A4F8FA05D8F8282004F2C4518A63B8F8EE
:106750002C008887B8F82E00A4F80206092208F158
:10676000300104F20460F9F75CFD98F8390084F810
:106770000D0698F83A0084F80E06D8F83C00C4F8E4
:10678000100604F50D60262282490290F9F749FDB2
:10679000DFF800A2BAF82600A4F8F608DAF82820F4
:1067A00004F6C4014A63BAF82C000887BAF82E0030
:1067B000A4F8FE0809220AF1300104F51060F9F787
:1067C00030FD9AF8390084F809099AF83A0084F8FB
:1067D0000A09DAF83C00C4F80C0904F6CC30262289
:1067E0006D490190F9F71DFDDFF8ACB1BBF826004B
:1067F000A4F8F20BDBF8282004F6C4310A63BBF8D6
:106800002C008886BBF82E00A4F8FA0B09220BF1A5
:10681000300104F6FC30F9F704FD9BF8390084F8E8
:10682000050C9BF83A0084F8060CDBF83C00C4F831
:10683000080C04F6C860262258490090F9F7F1FCCC
:10684000DFF85891B9F82600A4F8EE0ED9F8282000
:1068500004F6C461CA62B9F82C000886B9F82E00A3
:10686000A4F8F60E092209F1300104F6F860F9F7F0
:10687000D8FC99F8390084F8010F99F83A0084F8A7
:10688000020FD9F83C00C4F8040F3068C16841F029
:106890001001C1603868C16841F02001C160D8F8BA
:1068A0000000C16841F01001C160DAF80000C16861
:1068B00041F01001C160DBF80000C16841F0100137
:1068C000C160D9F80000C16841F01001C160962292
:1068D00004F5D4712648FDF751FA962204F5F461C7
:1068E0000398FDF74BFA962204F69C210298FDF7D7
:1068F00045FA962204F698510198FDF73FFA962240
:1069000027490098FDF73AFA54F8240C01684068CA
:106910000090D4F8D802016840680090D4F8D405FB
:10692000016840680090D4F8D00801684068009081
:10693000D4F8CC0B016840680090D4F8C80E016808
:10694000406800909620A4F8D402A4F8D005A4F8DA
:10695000CC08A4F8C80BA4F8C40E0499A1F8E4016B
:106960001048057007B0BDE8F08F000031600008E6
:10697000B826002055600008696000086B600008B8
:106980006D6000086F60000858070020980700201D
:10699000D8070020D806002018070020180800207B
:1069A00070370020040200202DE9F041D0F8983221
:1069B000D0F89022DAB101EB810400EB84040025C9
:1069C000E6694EB1C1EBC10703EB87035B6CB6FB15
:1069D000F3F703FB176323B1C2F814520020BDE89C
:1069E000F08100231A46E56100F051FCF6E7022031
:1069F000F5E770B50546D0F8904200F05DFBC4F8AD
:106A00000C02D5F8900248B1D5F89412D4F80402DB
:106A1000CA6804F503719047002070BD022070BD64
:106A200070B504460026812100F08CFA0025012172
:106A30002046E56200F086FA82212046C4F85851CB
:106A400000F080FA2564D4F8900248B1D4F894029A
:106A500004F5247440688047206802F0B7FB256085
:106A6000304670BD10B5D0E9A44159B194F8000288
:106A7000FF2807D08B6894F8012221469847FF2011
:106A800084F80002002010BD0A21018000487047F0
:106A9000840000204321018000487047D40000207A
:106AA000432101800048704790000020432101806D
:106AB00000487047180100202DE9F04104460026E7
:106AC000007C4FF40077012590B3402302228121FE
:106AD000204600F039FB4023E562022201212046D6
:106AE00000F032FB0823032282212046C4F85851CB
:106AF00000F02AFB4FF40770256402F0A3FDC4F8F0
:106B00009002F8B10546D4F894020068804700204E
:106B1000C5F81402C5F81802207CD5F8042298B1F3
:106B200040230121204600F01BFB3046BDE8F081E8
:106B3000FFE73B4602228121204600F005FB3B4651
:106B4000E562CAE70126F0E73B46EAE710B5D0F870
:106B5000901269B1027C002AD1F8042205D04023AA
:106B6000012100F0FDFA002010BD4FF40073F7E79B
:106B7000022010BD02460220002902D00020C2F8E7
:106B800094127047D0F89002C0F8041200207047A9
:106B9000D0F89002C0F81022C0F808120020704708
:106BA0002DE9FC410546D0F8907200208DF80000D8
:106BB000ADF80400064608780C4610F0600121D0BC
:106BC00020293BD1E288AAB10006607807D5D5F824
:106BD00094128B6839469847E288394626E087F850
:106BE0000002A07987F80102E2883946284600F0C1
:106BF0004FF828E0D5F89412607800228B6821467F
:106C0000984720E0607820B10A2809D00B2815D1D8
:106C100010E095F87402032810D1022201A905E0C2
:106C200095F87402032809D101226946284600F02C
:106C300049F808E095F87402032804D02146284654
:106C400000F01BF802263046BDE8FC8110B5D0F8F4
:106C50008C2252689047002010BD134610B50A469A
:106C6000002100F07DFA002010BD134610B50A4641
:106C7000002100F00CFB002010BD10B5044680215F
:106C800000F0EAFA2046BDE81040002100F0E4BA26
:106C900010B50323C0F84821C0F86C32C0F84C216D
:106CA00013460A46002100F05BFA002010BD10B523
:106CB00005210023C0F86C121A46194600F050FA5C
:106CC000002010BD10B50223C261C0F86C32026210
:106CD00013460A46002100F0DAFA002010BD10B574
:106CE00004210023C0F86C121A46194600F0CFFAAE
:106CF000002010BD10B50A46024903A000F0D4F8E8
:106D0000004810BD1C13002043444320436F6E66AF
:106D100069670000122008800048704728000020A2
:106D200010B50A46024903A000F0BEF8004810BDA5
:106D30001C13002043444320496E746572666163EE
:106D400065000000042008800048704724000020EF
:106D500010B50A46024903A000F0A6F8004810BD8D
:106D60001C1300205A4B48440000000010B50A468E
:106D7000024903A000F098F8004810BD1C13002041
:106D80005A4B48440000000010B51A2008800A48F9
:106D90000168001D0468001D0068081809D0082259
:106DA0000649FDF75FFA0549042210312046FDF738
:106DB00059FA0248801E10BD107AFF1F3E000020C5
:106DC000F8B5044648880D46010A08294BD2DFE889
:106DD00001F04A0409174A4A4048D4F88812207C36
:106DE0000A6832E0207C02260028D4F88C0205D004
:106DF000C16A684688470146467041E0816AF8E703
:106E0000C0B206282FD2DFE800F003080D12171CCD
:106E1000D4F88812207C4A6817E0D4F88812207CC5
:106E20008A6812E0D4F88812207CCA680DE0D4F891
:106E30008812207C0A6908E0D4F88812207C4A690C
:106E400003E0D4F88812207C8A696946904701469D
:106E500016E0207C38B9D4F88C02416B684688472C
:106E6000F5E7207C20B129462046FFF706FFF8BD54
:106E7000D4F88C02016B68468847014607204870A9
:106E8000BDF8000048B1EA8852B1824200D90246FA
:106E9000ADF800202046FFF715FFE8880028E6D16E
:106EA0002046FFF71CFFF8BD70B5002300281ED058
:106EB0000446002502E06D1CEDB2641C2678002E0D
:106EC000F9D1022404EB450414801278CA545B1CE7
:106ED0000322CA5400245B1C06E0CA545B1CDAB2CD
:106EE0008C54521CD3B2401C0278002AF5D170BDDC
:106EF00001004FF0000004D0012901D0022901D087
:106F0000022070470120704710B580B1D0F88C3254
:106F100013B10023C0F88C3209B1C0F888120121E6
:106F200080F87412027000F0CBF8002010BD02202F
:106F300010BD10B5D0F89802FBF71CFABDE8104060
:106F4000FFF7D6BF10B5D0F89802FBF7EDF9BDE812
:106F50001040FFF7CDBF2DE9F0411746044651B16F
:106F6000D4F88C0242691AB194F87402032851D003
:106F70000220BDE8F081D4F86C32002504F1140041
:106F8000022B03D0042B3AD0C3B33CE0D0E9036317
:106F90009E4207D9F11AC1608AB239462046FFF7EE
:106FA00064FE12E08068B0FBF3F103FB110199B9B4
:106FB000984211D3D4F8701288420DD200221146A3
:106FC0002046FFF752FEC4F8705200231A461946B5
:106FD000204600F0C5F816E0D4F88C02C16829B14B
:106FE00094F87402032801D1204688478021204666
:106FF00000F032F92046FFF75AFE04E0FFE7802157
:10700000204600F029F994F87802012804D184F888
:10701000785201E0204690470020AAE770B5154657
:10702000044649B1D4F88C0282691AB194F874020A
:10703000032830D0022070BDD4F86C1204F5A07083
:10704000032902D005291ED027E0D0E903218A4276
:107050000BD9531AC3600846834200D303469AB241
:1070600029462046FFF7F9FD17E0D4F88C020169A4
:1070700029B194F87402032801D12046884720469C
:10708000FFF72DFE09E000200146C4F86C022046FF
:1070900000F0E2F801E020469047002070BD00209B
:1070A000704710B5012180F87412D0F88C22017954
:1070B00052689047002010BDD0F89802FBF788B9BD
:1070C00010B5017839BB15490222C1F80404C0F893
:1070D00098124FF0A0400860042048600020C1E9E9
:1070E0000320C1E9062008624862C86208630846B6
:1070F000FBF760FC08B1FAF7FCF980210748FBF7C1
:10710000D2F8402200210548FBF7D1F88022012166
:107110000248FBF7CCF8002010BD0000140F00203F
:107120000A0601F07F01D0F89802C1EBC10100EB23
:10713000810002D590F83E00704790F8FE0170473C
:10714000002070470020704710B51C461346D0F849
:1071500098022246FBF745F9BDE81040FFF7C8BE8C
:1071600010B5D0F89802FBF76CF9BDE81040FFF7B6
:10717000BFBE70B50022044640231146FFF7E4FF6E
:1071800040260125C4F85061334600228021204664
:10719000C4F84451FFF7D8FF6662A56184F87452C1
:1071A0000020C4F86C026060C4F87C02D4F890023D
:1071B00028B1D4F88C020021426820469047002074
:1071C00070BD90F8751280F874120020704710B5E9
:1071D00090F87412032904D1D0F88C12C96901B156
:1071E0008847002010BD01740020704710B5D0F80A
:1071F0009802FBF7B1FCBDE81040FFF779BE70B50F
:10720000044600F52070054600F04AF80120C4F855
:107210006C02B4F88602C4F8700294F8800210F090
:107220001F010AD001290DD0022910D000F08001E1
:10723000204600F011F8002070BD2946204600F0DD
:107240009EF8F8E72946204600F0CAF9F3E72946F8
:10725000204600F01DF9EEE710B5D0F89802FBF7D4
:1072600014F9BDE81040FFF743BE10B5D0F89802FE
:10727000FBF78DFCBDE81040FFF73ABE90F87412A2
:1072800080F87512042180F874120020704710B540
:10729000D0F89802FBF733F9BDE81040FFF728BE9D
:1072A0000A7802704A7842708A78CB7802EB03221F
:1072B00042800A794B7902EB032282808A79C9796C
:1072C00002EB0121C18070470246002011B1C2F8D3
:1072D0008C1270470220704710B5D0F88C2202241F
:1072E0001AB11268904700B90024204610BD000072
:1072F00070B50E461E4D897804462970012931D893
:1073000094F8740202280BD003280FD0314620468F
:10731000FFF7B3FC29782046BDE87040FFF796BC24
:10732000D9B10320616084F8740209E071B160682A
:10733000884212D0C1B22046FFF788FC29786160EC
:107340002046FFF7C9FF02280CD006E0022084F88F
:10735000740220466160FFF779FC2046BDE870406A
:10736000FFF7BDBC31462046BDE87040FFF785BC45
:107370008000002010B5FFF778FF002010BD2DE938
:10738000F0410A78002612F0600208D0202A01D0CD
:10739000402A70D1D0F88C22926890476DE04B78EB
:1073A000002201250A2B66D2DFE803F0405D655715
:1073B000650805652C29FFF703FD5EE00446888813
:1073C000D8B9C888C8B94888802816D200F07F0785
:1073D00094F87402032810D084F876723946204657
:1073E000FFF704FF2046FFF77AFC1FB1022084F864
:1073F000740242E084F874523FE020463BE0FFF71D
:1074000077FF3AE0CB88012B35D190F87432012B0D
:1074100004D0022B02D0032B2DD104E08260012284
:1074200000F1080116E00122011D13E090F874221A
:10743000012A03D0022A01D0032A1CD1CA88022AB9
:1074400019D1C560D0F87C1209B10321C1600222B4
:1074500000F10C01FFF736FC0FE0498801290CD13F
:10746000C0F87C5211E090F87432012B08D0022B46
:1074700006D0032B04D0FFF700FC3046BDE8F081B6
:1074800049880129F9D1C0F87C22FFF728FCF4E7EC
:107490002DE9F0410A46044610780027097910F0DA
:1074A00060030AD0202B01D0402B50D1D4F88C029D
:1074B00011468368204698478FE0C0F341100128A9
:1074C00006D05078D0B301282AD003283FD107E056
:1074D000D4F88C02114683682046BDE8F041184775
:1074E00094F87402022802D0032872D10AE071B322
:1074F00080296ED02046FFF7AFFE80212046FFF79F
:10750000ABFE6AE0508838B931B1802904D0D08808
:1075100010B92046FFF7A0FE2046FFF7E0FB5CE035
:1075200094F874020228E2D0032852D1508898BB04
:107530004806F1D02046FFF7FCFCEDE7FFE794F8A2
:1075400074020026022803D0032842D112E040E052
:1075500009B180293DD1080601F07F0000EB8000D1
:1075600004EB800101D5143101E001F5A071022284
:107570000E602AE0080601F00F0000EB800004EB2B
:1075800080000AD5806920B301F07F0000EB800005
:1075900004EB800514350BE01FE0D0F84401C0B1C6
:1075A00001F07F0000EB800004EB800505F5A0757D
:1075B00041B1802906D02046FFF7B2FD10B101206D
:1075C000286000E02E60022229462046FFF77AFB61
:1075D00003E011462046FFF750FB3846BDE8F08136
:1075E00070B5054608780C4610F0600003D02028DE
:1075F00001D0402816D195F87402012803D0022842
:1076000001D003280ED1207901280BD8D5F88C029F
:10761000826828469047E188014306D12846FFF753
:107620005EFB02E02846FFF728FB002070BD00004B
:1076300070B50A78012302F00F054E78AB401B4C61
:10764000D0F81C58012E17D045EA0343C0F81C3867
:1076500000EB4210D0F8002B12040BD4D0F8002B12
:107660000B89C978C3F30A031A4344EA81410A43E8
:10767000C0F8002B002070BD9BB21D43C0F81C5801
:1076800000EB4210D0F800391B04F3D4D0F80039D5
:107690000D89C978C5F30A0589042B4341EA825153
:1076A0000B432343C0F80039E4E7000000800010DA
:1076B000D0F800196FF30A01C0F80019D0F80818C3
:1076C000C1F34101022905D1D0F8001941F00301AD
:1076D000C0F80019D0F8041841F48071C0F80418FB
:1076E0000020704770B5044606990A9E049D0D98C7
:1076F000012916D0E06840F04000E060204600F02C
:107700002BF8A16B1EB321F48031A163012D07D1A9
:10771000A16841F00601A160A16841F02001A160CB
:1077200070BDA16B21F48031A163E168094A114069
:10773000E160E16821F44011E160012803D1E068D3
:1077400040F48010E060204600F006F8DEE741F4E7
:107750008031DAE7BFFFBDFF01220C4902E0521C75
:107760008A420BD80369002BF9DA026942F0010260
:107770000261012204E0521C8A4201D903207047B1
:107780000369DB07F7D1002070470000400D0300BC
:1077900030B50B784D78012203F00F0402FA04F49F
:1077A000012DD0F83C5817D025EA0444C0F83C48D5
:1077B000D0F81C48097801F00F018A4024EA024100
:1077C000C0F81C1800EB4310D0F8001B0E4A114003
:1077D000C0F8001B002030BDA4B2A543C0F83C583F
:1077E000D0F81C48097801F00F018A4091B28C430F
:1077F000C0F81C4800EB4310D0F80019034A1140B0
:10780000C0F80019E6E700000078F3EF007833ECE9
:1078100010B5D0F8041821F00201C0F804180320B4
:10782000FAF7ACFA002010BD10B5D0F8041841F0FA
:107830000201C0F804180320FAF7A0FA002010BDD6
:107840002DE9F04F0025DDE90BCB0E460446DDF8AF
:107850004090099F2846294604EB8002C2F8041193
:10786000401C0F28F8D3B9F1000F204618D000684B
:1078700020F400122260A06B40F40022A2630846AC
:107880008846C4F8000ED4F800182046C4F8001842
:10789000BCF1010F10D0D0F8001841F0030110E046
:1078A000806B40F40012A263A06B20F40022A2635C
:1078B000A06B20F48022E1E7D0F800180BB141F072
:1078C0000101C0F80018102100F0A0FA00B1012554
:1078D000204600F08BFA00B101254046C4F810881C
:1078E000C4F81488C4F81C8800214FF000634FF0DE
:1078F00090484FF67F3A14E004EB4112D2F800C9E9
:10790000BCF1000F06DA11B1C2F8008904E0C4F836
:10791000003901E0C2F80009C2F81009C2F808A94C
:10792000491C8E42E8D8002115E000BF04EB41124B
:10793000D2F800CBBCF1000F06DA11B1C2F8008B0F
:1079400004E0C4F8003B01E0C2F8000BC2F8100BE1
:10795000C2F808AB491C8E42E8D8D4F8101821F4BC
:1079600080722146C4F81028012F08D1134AC1F8AB
:107970003028D1F83018124A1143C4F83018A061E9
:107980006FF0804060611FB9A06940F01000A061F5
:10799000A0690C490843A061BBF1000F03D0A069A6
:1079A00040F00800A061B9F1010F03D1A0690649B8
:1079B0000843A0612846BDE8F08F00000001800068
:1079C0000300010000383C8004000040816821F081
:1079D000010181600020704770B50D784E78434CEE
:1079E000EBB200EB4313012E1FD0D3F8100B6FF353
:1079F0001200C3F8100BD3F8100B2040C3F8100B83
:107A0000486908B188684861D3F8100B40F4002039
:107A1000C3F8100BD3F8100B8C68C4F31204204386
:107A2000C3F8100B012A55D058E04E69002ED3F848
:107A3000106932D06FF31206C3F81069D3F81069D9
:107A40002640C3F810694E698C68A64200D94C6183
:107A5000D3F8104944F40024C3F81049D3F810496E
:107A60004E69C6F312063443C3F81049012A22D0E6
:107A700000EB4512D2F8003943F00443C2F8003954
:107A80004A6932B3D0F83428097801F00F03012194
:107A900099400A43C0F8342826E02640C3F810690C
:107AA000D3F8104944F40024C3F81049D3F810491E
:107AB0006FF31204D8E7096919B100EB4512C2F857
:107AC000141900EB4510D0F8001941F00441C0F83A
:107AD000001909E0C86808B1C3F8140BD3F8000B0B
:107AE00040F00440C3F8000B002070BDFFFF07E02A
:107AF00010B5036C134CA34203D9D0F8003B002B04
:107B00001EDB0023C0F8103BD0F8103B43F40023E9
:107B1000C0F8103BD0F8103B43F01803C0F8103BFE
:107B2000D0F8103B43F0C043C0F8103B012907D107
:107B3000C0F8142BD0F8001B41F08021C0F8001BC6
:107B4000002010BD0A30544F4A780B78012A00EB10
:107B500043100BD0D0F8002B22F40012C0F8002BF9
:107B6000C978032914D0022912D017E0D0F80029CF
:107B700022F40012C0F80029C978032901D0022993
:107B80000CD1D0F8001941F08051C0F8001905E07F
:107B9000D0F8001B41F08051C0F8001B0020704756
:107BA0000A784B78D1B200EB4110012B12D0D0F8FB
:107BB000001B002906DB2AB1D0F8001B21F0804110
:107BC000C0F8001BD0F8001B41F40011C0F8001BE6
:107BD00000207047D0F80019002906DB2AB1D0F840
:107BE000001921F08041C0F80019D0F8001941F4C3
:107BF0000011C0F80019EBE7F8B50C784F78774D15
:107C0000E3B26FF0604600EB4313012F26D0D3F8A8
:107C1000104B6FF31204C3F8104BD3F8104B2C40E9
:107C2000C3F8104B4C69002C74D08D682C44641E32
:107C3000B4FBF5F4D3F8105BA4B206EAC4463543AE
:107C4000C3F8105BD3F8105B8E686643C6F312046A
:107C50002543C3F8105B012A71D0A6E04F691FB31A
:107C6000D3F810796FF31207C3F81079D3F81079AD
:107C70002F40C3F810794F698D682F447F1EB7FBE2
:107C8000F5F506EAC545D3F810693543C3F8105930
:107C9000D3F810594E69C6F312063543C3F810598C
:107CA000CD78012D10D01BE0D3F810692E40C3F819
:107CB0001069D3F8105945F40025C3F81059D3F8CA
:107CC00010596FF3120509E0D3F8105925F0C0459B
:107CD000C3F81059D3F8105945F00055C3F810599E
:107CE000012A18D000EB4413D3F8004944F00444AF
:107CF000C3F80049CC78012C2FD04A6962B3D0F880
:107D00003428097801F00F03012199400A43C0F893
:107D1000342860E036E00A691AB100EB4413C3F876
:107D20001429C97801290FD1D0F80818C90500EB2A
:107D30004411D1F8002903D442F0005202E030E0AF
:107D400042F08052C1F8002900EB4410D0F800192D
:107D500041F00441C0F800193DE0D0F80848E405BE
:107D6000D3F8004902D444F0005401E044F08054B8
:107D7000C3F8004900928A8A93B20A78C96800F071
:107D80003FF928E0D3F8104B8D68C5F312052C435A
:107D9000C3F8104BD3F8104B44F40024C3F8104B35
:107DA00059E7CA680AB1C3F8142BC97801290CD164
:107DB000D0F80808C005D3F8000B02D440F00050FA
:107DC00001E040F08050C3F8000BD3F8000B40F006
:107DD0000440C3F8000B0020F8BD0000FFFF07E0DF
:107DE000816841F00101816000207047002110226C
:107DF0000261054A491C914201D903207047036979
:107E0000DB06F7D400207047400D0300002220233A
:107E100043EA811101610549521C8A4201D90320BC
:107E2000704703699B06F7D400207047400D03009C
:107E3000D0F8080810F0060004D0022803D0062865
:107E400001D00F20704702207047406900F0010008
:107E50007047D0F81818D0F81C08084080B2704756
:107E6000D0F81818D0F81C080840000C704710B55E
:107E7000D0F81038D0F8342801F00F0400EB41108E
:107E8000E24002F00102D0F8080943EAC2121040B1
:107E900010BD00EB4111D1F8081BD0F814080840C0
:107EA00070474169806908407047D21C10B593083B
:107EB000002200F5805002E00468521C10C19A4272
:107EC000FAD3084610BD10B5C26822F0C042C260A5
:107ED000012902D029B1012010BDC16841F0005133
:107EE00002E0C16841F08041C1603220F9F746FFED
:107EF000002010BDD0F8002822F4FE62C0F800284F
:107F0000D0F800284FF4FE6303EA01110A43C0F8D9
:107F10000028002070470000022A3ED1264A274B45
:107F20000A449A4201D20F2138E0254A254B0A44DF
:107F30009A4201D20E2131E0234A244B0A449A424C
:107F400001D20D212AE0224A224B0A449A4201D250
:107F50000C2123E0204A214B0A449A4201D20B21F2
:107F60001CE01F4A1F4B0A449A4201D20A2115E025
:107F70001D4A1E4B0A449A420FD31D4A1D4B0A4408
:107F80009A4201D2082109E01B4A11441B4A91423E
:107F900001D2072102E0062100E00921C26822F493
:107FA0007052C260C2684FF4705303EA81210A43E1
:107FB000C260002070470000405327FF00350C00CE
:107FC000401E1BFF40420F0000DC0BFF804F1200E1
:107FD000808CF9FE20D6130060B6E5FE60E3160043
:107FE00000D3CEFE40771B00C05BB3FEC0912100E2
:107FF00000CA91FE20753800E05459FEE09C410013
:1080000010B5029C64B9DB1C9C0800EB0230002315
:1080100000F5805002E004C902605B1CA342FAD361
:10802000002010BD204810B5007D072834D007DCA3
:1080300007281BD2DFE800F01A1A1B30303030005E
:108040000B281DD008DC082817D009281ED00A28C4
:108050000CD1B2EE0E0A1BE02F2821D0302805D11A
:108060001248006A017821F00101017010BDBDE8DD
:1080700010409FED0F0A01F08BBBB2EE0E0A01E03B
:10808000BAEE0E0ABDE8104001F0ACBCBAEE0E0A22
:10809000BDE8104001F0C4BCBDE8104001F096BC42
:1080A00001F068FBF8E7000034410020FC250020C7
:1080B00000007042074800690009C00708D106485F
:1080C0004178002904D0002141700449012008753D
:1080D0007047000000100240640500203441002079
:1080E00010B5FFF7E7FF00F0D3F8BDE81040FFF749
:1080F00099BF000030B54FF47A756C1E002801DC82
:10810000002002E0A84200DB2046002901DC00211B
:1081100002E0A94200DB2146002A01DC002202E045
:10812000AA4200DB2246002B01DC002302E0AB4226
:1081300000DB2346064C02F57A72626300F57A7022
:10814000A06301F57A71E16303F57A73236430BDAE
:1081500000000140D0ED050A90ED062A90ED0A1AC4
:1081600070EEC20A70EE810AC0ED040A90ED071AA3
:10817000F4EEC10AF1EE10FA0AD2B1EE411AF4EEB1
:10818000C10AF1EE10FA03DDDFED400AC0ED040A8A
:10819000D0ED081AF5EEC01AF1EE10FA17D090EDF6
:1081A000091AB5EEC01AF1EE10FA10D0F4EEC10AB9
:1081B000F1EE10FA02D8F0EE410A06E0F4EEE10A20
:1081C000F1EE10FA01DDF0EE610AC0ED040AD0ED27
:1081D0000C0AD0ED042A42EE800AC0ED0C0AD0ED64
:1081E0000D1AF5EEC01AF1EE10FA17D090ED0E1A36
:1081F000B5EEC01AF1EE10FA10D0F4EEC10AF1EEAD
:1082000010FA02D8F0EE410A06E0F4EEE10AF1EECF
:1082100010FA01DDF0EE610AC0ED0C0AD0ED0B0A98
:10822000D0ED0C1A30EEC21AC1EE000A90ED000A31
:1082300090ED011A20EE220A01EE210A90ED021AB9
:1082400001EE200A80ED030A90ED0F1AB5EEC01A78
:10825000F1EE10FA17D0D0ED100AF5EEC00AF1EEEB
:1082600010FA10D0B4EEE00AF1EE10FA02D8B0EE37
:10827000600A06E0B4EEC10AF1EE10FA01DDB0EEDC
:10828000410A80ED030A80ED0B2A704700000000D0
:10829000254810B4027D4FF4FA714FF49673072A03
:1082A0002ED007DC072A1ED2DFE802F01D151F21A1
:1082B000232628000B2A27D007DC082A22D0092AE7
:1082C00024D00A2A0FD1052221E02F2A23D0302AD8
:1082D00009D1002106E0C18A491E09B2C1820029E4
:1082E00001DC0221017510BC704703220FE0082257
:1082F00000E00A2219460AE00B22FBE70922F9E70F
:108300002F22F7E7042202E0062200E0072210BC39
:108310000A20F8F7E1BD054A51684B1E5360002959
:10832000E1DA3021DEE7000034410020640500205E
:1083300000B58FB00020ADF80000104890ED020AA3
:10834000BDEEC00A10EE100AADF80000BDF8000046
:10835000ADF80C0008AA09A902208DE8070003ABBC
:1083600004220021012000F0A5FA9DF8202009A98F
:10837000034800F0E1FE0FB000BD00004C3F0020BC
:10838000AC38002030B587B0AA208DF8000000215D
:1083900006208DF8010025488DF8021001228DF885
:1083A00004108DF803208DF8051090ED010ADFED23
:1083B000200A6C4620EE200ABDEEC00A10EE102AFC
:1083C000ADF8142090ED000A20EE200ADFED190A26
:1083D000BDEEC00A10EE102AADF8162090ED020A8C
:1083E00020EE200ABDEEC00A10EE100AADF818000B
:1083F0000598CDF80600BDF81800ADF80A00BDF8E4
:1084000001200020931D02E0255C401C294483428A
:10841000FADCA01D11549DF801002146C01DC2B216
:10842000054800F089FE07B030BD0000742500202B
:108430000000C8C20000C842AC38002000B50F4898
:108440008DB003AA01798DF8101000888DF81B00FB
:10845000000A8DF81C0008A90D208DE8070004AB68
:1084600005220021012000F025FA9DF80C2008A922
:10847000034800F061FE0DB000BD0000FC250020A7
:10848000AC380020F0B591B00DF1580C9CE8F0002C
:10849000ADF80C00ADF81020ADF80E10ADF81230AC
:1084A000ADF81440ADF81860ADF81650ADF81A707C
:1084B0000FAA07A910208DE8070003ABC8220021EE
:1084C000012000F0F7F99DF83C2007A9024800F0D0
:1084D00033FE11B0F0BD0000AC380020F0B58DB017
:1084E0000DF1480C9CE8F000ADF82000ADF822102A
:1084F000ADF82420ADF828400320FC21ADF826304B
:10850000ADF82A508DF800008DF81210ADF82C60EF
:108510008DF801108DF81300ADF82E70102208A907
:108520000DF10200F7F77DFE1421684600F0BAF95C
:108530000DB0F0BD00B50E4891B003AA406904AB80
:1085400001680491416805918068069009A90C2092
:108550008DE8070002220021012000F0ABF99DF810
:108560000C2009A9034800F0E7FD11B000BD000090
:10857000FC250020AC38002010B51D481D4C90B0E3
:108580000378427803EB4301114401EB011104EB42
:1085900081010BB1002300E001230370D8B242EA4D
:1085A0000020ADF80C00DFED140A002003AB00BF83
:1085B000B1EC010A03EB4004401C072820EE200A1E
:1085C000BDEEC00A10EE102A6280F1DB0FAA07A9E7
:1085D00010208DE8070006220021012000F06AF932
:1085E0009DF83C2007A9054800F0A6FD10B010BD7D
:1085F000F0010020CC3B00200000C842AC38002035
:1086000000B5A7B000208DF8980026AA6946074853
:1086100000F068FD002806D064239DF89820694684
:108620000348FBF7F9FB27B000BD0000AC38002081
:10863000A8320020FEE70000084890ED011A084823
:10864000D0ED0A0A41EE000AC0ED0A0A90ED0B1ABD
:1086500000EE801A80ED0B1A704700004C3F00209E
:1086600010020020324900B5D1ED080A314A10EE5F
:10867000900A904202DDDFED300A06E010EE900A2B
:108680002E4A904201D9DFED2E0A2E48C1ED080A8C
:10869000D1ED091A2C4A40EE801AC1ED091A91ED6C
:1086A0000B1A90ED002A71EEC11A62EE212AC1ED7B
:1086B0000D2AD1ED0A1A90ED012A70EEE10A22EEA0
:1086C000202A81ED0C2AD0ED020A20EE823AD1ED6B
:1086D0000E0A43EE000A10EE900AC1ED0E0A904217
:1086E00002DDDFED1A0A06E010EE900A184A904209
:1086F00001D9DFED180A02EE801AC1ED0E0A70EE04
:10870000820A154881ED0B1A40EE801AC1ED0A1A53
:10871000C0ED001A80ED021AC87818B10F48007831
:10872000C00703D100F01CF80120C87000BD000094
:10873000100200200000FA430000FA430000FAC3D0
:108740000000FAC3A0380020000048420000484260
:10875000000048C2000048C24C3F0020C204002074
:1087600006489FED050A80ED090A80ED080A80EDB4
:108770000B0A80ED0A0A704700000000100200207A
:1087800070B53F4C2DED028B204621788069B0EE0C
:10879000408A04F1440519B1491E2170E06102E0EC
:1087A000E169401A2860374E308AB0F5967F07D2CB
:1087B00000EE100A6860B8EE400A84ED010A05E098
:1087C00094ED010ABDEEC00A85ED010AB0EE480A3B
:1087D0006868FDF7BDFB2C480078C1074FF000002A
:1087E0000AD069681E2904DD2849294A896891420E
:1087F00004DD0120A07004E0A07001E0A17801B9BF
:1088000068601F482A684C30F6EE001A0168511A59
:1088100000EE101AA0F11001B8EEC00AC0EE080A6E
:10882000FDEEE00AC1ED000A6B6845685D1B00EED5
:10883000105AB8EEC00A80EE081ABDEEC10A9FEDCC
:10884000161A81ED010AC0E900237178114809B1B7
:10885000617871B1B8EEE00A84ED080A9FED0F0A65
:1088600080ED000AC0ED011A80ED021ABDEC028B0A
:1088700070BDB8EEC00A84ED080A9FED090AEFE763
:108880001002002080250020C20400204C3F002060
:1088900000002041A0380020CDCC4C3ECDCC4C3F38
:1088A000CDCCCC3F0A460146014800F045BC000053
:1088B000AC3800202DE9F0419CB06E46DDE922483D
:1088C000249F8DF867008DF86810AA208DF8640049
:1088D000ADF865408DF8692019980090BDF86800E2
:1088E000ADF80400002522461946B01DF7F799FCA3
:1088F0000020A11D02E0325C401C15448842FADBD6
:108900003019E21D857169464046F7F78AFCE41D7F
:108910003C701CB0BDE8F08103B4019841000098A0
:1089200050EAC12018BF04204A0D18BF40F00100D2
:1089300040F2FF72B2EB515F08BF40F00200012825
:1089400008BF052002B070474100080218BF04208C
:108950000A0E18BF40F001004FF07F4232EA0101D9
:1089600008BF40F00200012808BF05207047090732
:10897000090E002804DB00F1E02080F800147047A5
:1089800000F00F0000F1E02080F8141D7047000097
:1089900070B5C1482DED020B2DED0E8B82B0119DEF
:1089A00025F000449FEDBEDB9FEDBFEB84423EDB34
:1089B000A4F140511098A1F17F6108430FD0BC4849
:1089C000844202DC28D1109830B39DED100B02B028
:1089D000BDEC0E8B02B0BDE8704000F02DBB9DEDEC
:1089E000100B53EC1D2B51EC100BF7F7F3FC9DED26
:1089F000100B41EC180B53EC1E2B51EC100BF7F73E
:108A0000E9FC53EC182BF7F73EFC41EC100B02B0DD
:108A1000BDEC0E8B02B070BD012000F055FB02B022
:108A2000BDEC0E8B02B0BDE8704000F011BBA14858
:108A30009FEDA18B844256DA9DED100BB4F1795F66
:108A40000ADA51EC100BFFF767FF042808BF00F0AB
:108A50000FFB9DED100BDAE753EC102B51EC100BD4
:108A6000F7F7B8FC41EC190B95480621B0EE490A1E
:108A7000F0EE690A784400F063FA53EC192B51ECDC
:108A8000100BF7F7A7FC41EC1A0B8E48B0EE490A21
:108A9000F0EE690A0421784400F052FA53EC192BE5
:108AA00051EC100BF7F796FC53EC182BF7F7EBFB98
:108AB00041EC100B51EC1A0B53EC102BF7F716FE90
:108AC000CDE900019DED000B53EC102B9DED100B3B
:108AD00051EC100BF7F77EFC9DED101B53EC112BA6
:108AE000F7F7D1FBD2E09DED100B51EC100B00F02D
:108AF00046FB53EC182BF7F76AFC9FED730BCDE99F
:108B0000000153EC102B9DED000B51EC100BF7F70F
:108B100061FC41EC190B6E480621B0EE490AF0EEFB
:108B2000690A784400F00CFA53EC192B51EC100B45
:108B3000F7F750FC41EC1B0B6648B0EE490AF0EE2B
:108B4000690A0421784400F0FBF953EC192B51EC2D
:108B5000100BF7F73FFC53EC182BF7F794FB41ECA5
:108B60001C0B51EC190B00F079FF41EC180B5A4823
:108B70009FED5BABA04222DC53EC1C2B51EC1B0B9A
:108B8000F7F7B4FDCDE900019DED000B51EC180B9A
:108B900053EC102BF7F71EFC53EC182BF7F773FB75
:108BA00053EC1A2BF7F716FC53EC1D2BF7F70CFCC4
:108BB00053EC1E2BF7F70BFC41EC100B5FE08DED37
:108BC000008B002000909DED000B51EC180B53EC36
:108BD000102BF7F758FB9DED000B41EC1E0B53ECEF
:108BE000102B51EC100BF7F7F5FB53EC192BF7F7A3
:108BF000EEFB53EC1E2BF7F779FD41EC190B53EC10
:108C00001C2B51EC1B0BF7F771FD41EC1B0B53ECCC
:108C10001A2B51EC190BF7F7DDFB53EC1D2BF7F773
:108C2000D6FB41EC190B53EC1A2B51EC180BF7F750
:108C3000D1FB53EC1B2BF7F7CDFB53EC192BF7F7BC
:108C4000C3FB9DED000B41EC180B53EC1A2B51ECC0
:108C5000100BF7F7BFFB9FED249B53EC192BF7F795
:108C6000B6FB41EC100B51EC180B53EC102BF7F743
:108C7000ABFB53EC192BF7F7AAFB41EC100B002DC3
:108C80003FF7C5AE51EC100B81F0004141EC100BE9
:108C9000BDE60000000000000000F03F0000000002
:108CA000075C143326A6913C182D4454FB21F93F50
:108CB0000000F07F0000E03F000000000000F03FF7
:108CC000804B00008E4B0000000000000000E03FE1
:108CD000D24A0000E04A00003333EF3F00000000BA
:108CE0000000000000000040182D4454FB21E93F23
:108CF00010EE100A10B510EE901A4FF0684202EB19
:108D000040032DED028BB3F1654F3CBF02EB4102F6
:108D1000B2F1654F7CD200BFC0F3C753C1F3C75255
:108D20009A1A1B2A09DD10F0004F14BF9FED6E0A3E
:108D30009FED6E0ABDEC028B10BD12F11A0F1BDA0B
:108D400011F0004F09D010F0004F0CBF9FED680AE2
:108D50009FED680ABDEC028B10BD80EE208A18EEF4
:108D6000100AFFF7F1FD042808BF00F095F9B0EEF6
:108D7000480ABDEC028B10BD4200B2EB410F37D95F
:108D800010F0004F19BFDFED5C1A9FED5C1ADFEDAC
:108D90005C1A9FED5C1AB0EE602A0A46F1EE400ABA
:108DA00080F00041B0EE420A10460A1A5200B2F1B9
:108DB000807F34D2484010F0004FDFED532A9FED02
:108DC000533A1DBFBEEE002A71EEE21A31EE431A8D
:108DD000B6EE002A04BF71EEA21A31EE031AF0EECD
:108DE000402A42EE602A40EE020A82EEA02A18E0F3
:108DF00011F0004F04BF9FED461AF0EE411AD4D097
:108E000010F0004F1CBFDFED431A9FED431A00E046
:108E100026E004BFDFED411A9FED411AC5E780EE61
:108E2000202A22EE020ADFED3F0ADFED3F2ABDECE9
:108E3000028B40EE202ADFED3D0A40EE220ADFEDF4
:108E40003C2A40EE202ADFED3B0A40EE220A22EEC9
:108E5000000A00EE201A31EE020A30EE210A10BD9F
:108E60004FF07F42B2EB400F28BFB2EB410F05D26B
:108E7000BDEC028BBDE8104000F00AB940EA0103E6
:108E80005B0008BF41F0FF410BD0B2EB400F08BFC1
:108E9000B2EB410F08D120F0804000EE100A21F023
:108EA000804100EE901A37E7B2EB400F12BF5FEA45
:108EB000410240F0FF4001F000413FF42DAF4A0075
:108EC00092EA40033FF528AF002AACBF9FED1A1A83
:108ED0009FED1A1A20EE010A60EE810A10EE100AC8
:108EE00010EE901A18E70000DB0FC9BFDB0FC93F77
:108EF000DB0F4940DB0F49C00000C9BF22AAFDB902
:108F00000000C93F22AAFD390060ED3EC30ACE37FA
:108F100000000000000049C022AA7DBA00004940BC
:108F200022AA7D3A2DAD65BD8FB8D53D0FB511BED6
:108F300061C84C3EA8AAAABE0000804F0000802F46
:108F400070B504462DED028B4D1E00EBC500B0EE52
:108F5000408AF0EE608A90ED000B35F0060017D0E5
:108F600053EC182B51EC100BF7F734FA41EC100BC3
:108F70006D1E04EBC50090ED001B51EC100B53EC83
:108F8000112BF7F780F941EC100B35F00600E7D113
:108F9000022D36D0042D1CD0062D1CBFBDEC028B3B
:108FA00070BD53EC182B51EC100BF7F713FA94ED3E
:108FB0000A1B53EC112BF7F766F953EC182BF7F754
:108FC00009FA94ED081B53EC112BF7F75CF941EC0F
:108FD000100B53EC182B51EC100BF7F7FBF994ED39
:108FE000061B53EC112BF7F74EF953EC182BF7F740
:108FF000F1F994ED040B53EC102BF7F744F941EC25
:10900000100B53EC182B51EC100BF7F7E3F994ED20
:10901000021B53EC112BF7F736F953EC182BF7F72B
:10902000D9F994ED001B53EC112BF7F72CF9BDEC9B
:10903000028B41EC100B70BD10B553EC102B51ECB2
:10904000100BF7F720F941EC100B10BD00000000E9
:109050009FED050B10B553EC102B51EC100BF7F7EF
:1090600045FB41EC100B10BD0000000000000000AB
:109070009FED050B10B553EC102B51EC100BF7F7CF
:10908000A9F941EC100B10BD000000000000001019
:1090900030EE200A704700009FED020A20EE000A21
:1090A000704700000000001002E008C8121F08C14D
:1090B000002AFAD170477047002001E001C1121F59
:1090C000002AFBD17047000001490860704700008A
:1090D0008005002002480188491C0180704700007B
:1090E0009401002070B513460C46017842789142F5
:1090F0000DD00A22491CB1FBF2F502FB15110170DB
:1091000001EB4111014491F82220202A01DB0020CB
:1091100070BD1A70017801EB411101442046891C91
:10912000F7F77FF8012070BD02484068401EFDD26D
:10913000704700000802002070B5154604464278CA
:109140000A20521CB2FBF0F300FB13232678B34233
:1091500001D1002070BDB2FBF0F300FB1320607062
:1091600000EB401020442A46801CF7F75AF860783C
:1091700000EB4010204480F82250012070BD82B0E6
:10918000CDE9000121F0004001909DED000B02B0FF
:1091900051EC100B7047000038B50A4C0A4D94F89A
:1091A000A8016978884209D0B4F8B001002180B2E2
:1091B0000090B423A0220846FBF722F994F8A801F6
:1091C000687038BDF83900206502002010B500280D
:1091D00021D0114B0022001F196803E0814203D8FF
:1091E0000A4649680029F9D152B11368841A9C4291
:1091F00004D1006818441060104602E0506000E09E
:10920000186039B102680B1A934203D10B681A44F3
:1092100002604968416010BD780500200748084990
:1092200001610849C16166210171074981600749EF
:10923000416107498161074901627047FC250020AF
:109240004C3F002074250020C80400204C2500203D
:10925000B03F0020C2040020064890F8A811491C25
:10926000C9B280F8A811042902D9002180F8A811F8
:1092700070470000F83900202DE9FF471C4C0746D5
:109280009846B4F8B0013D7883B2D4F8AC010C260E
:1092900068430025401DCDE90036DDF830900029F7
:1092A00081B2029502D0B4F8B80101E0B4F8B4017B
:1092B00083B20520FBF7B4FAB8F1000F15D0B4F86B
:1092C000B001B4F8B81180B289B2CDE90010CDE98F
:1092D0000265B4F8AC0139781FFA89F24843401DA1
:1092E00081B203236420FBF75BFABDE8FF8700002F
:1092F000F839002070B5154A0F2002F5DE71C2F86A
:10930000AC0148F23040C2F8B00147F67C50C2F8D8
:10931000B8014CF21860C2F8B401042008700020B3
:1093200000213523C4B24343C1EBC10502EB430620
:1093300005EB4505354402F813406970491C0529C1
:10934000F2DB401C0428EBDB70BD0000F839002084
:109350002DE9F8435D48006A0078C0076DD15C4D87
:109360005C480024297D012931D001220270C1EB23
:10937000011058490023891C01EB40020121564885
:109380000094FFF779FF55480169090704D4016982
:109390000907FCD5FFF760FF514F4AF6AA2607F1EF
:1093A000160897F8A811E9B1012946D1FFF7F4FE94
:1093B0006868018807F16B00B14203D1A968098888
:1093C000B1424BD1002347A2012100944AE0017829
:1093D000002932D03F4A04702032002301213E4848
:1093E000009438E0FFF7D8FE4248017E19B100230F
:1093F00041A2009405E0407E4FF00003009410B1BC
:1094000040A2012101E044A20021781CFFF734FFB3
:1094100045484079009090B1012344A21946404646
:10942000FFF72AFFEA682E4811792B30FF290AD06E
:1094300064290CD01188B14236D1BDE8F8830023ED
:109440003EA21946EBE7002340A200943BE0002334
:1094500044A2009437E0FFF70FFFEEE7002321A2BC
:1094600019460094FFF708FF68680079FF2820D0AC
:10947000C8284FF0000300941FD03FA200214046AF
:10948000FFF7FAFE16480023953040A20121009410
:10949000FFF7F2FE2868017911484030FF29D2D049
:1094A00069680979CA290BD000233CA219460094A7
:1094B000D1E700233EA2009400E043A20121DEE7B1
:1094C000002345A200940121C5E70000FC250020EF
:1094D0003441002065020020B43B0020001002400F
:1094E000F83900204F70656E4D562046726F6E74CD
:1094F000000000004C2500204D5055204F6E2D6C73
:10950000696E65004D505520496E697469616C69DA
:109510007A696E67000000004D5055204F66662D39
:109520006C696E650000000080250020414E4F5F91
:109530004F4620515541543A00000000414E4F5FC4
:109540004F46204F66662D6C696E65004F70656EE4
:109550004D564720666F756E64206E6F7468696E35
:10956000670000004F70656E4D5647203A204170ED
:1095700072696C54616700004F70656E4D564620ED
:109580004F66662D6C696E65000000004F70656E59
:109590004D562047726F756E640000004F70656E07
:1095A0004D5647204F66662D6C696E6500000000C1
:1095B0004F70656E4D564620666F756E64206E6FF7
:1095C0007468696E670000004F70656E4D564620E6
:1095D0003A20506F6C6500004F70656E4D56472005
:1095E0003A204369726C6500F8F7CAFDFCF7CCFAC3
:1095F000FBF746FAFBF7DEF9FBF726FBFBF73AFC35
:10960000FBF754FCFBF790FCFBF7AAFCFBF7C4FC50
:10961000FBF7DEFCFBF7F8FAFBF780FBFBF7C2FB7E
:10962000FBF760FCFBF7F2FB002211460F20F8F776
:1096300007FE0F20F8F7F6FDFAF78EFCFAF72EFE7C
:10964000FCE70000F0B50B30154D20F007010024B9
:10965000144A0FE003688B420BD38B4205D95E1A84
:1096600043184768C3E9006700E04368136002C01D
:1096700004E0021D10680028ECD12046002802D129
:10968000286808B10020F0BD064A07481060074A64
:10969000121A22F00702C0E9002401202860D7E74F
:1096A0007C050020780500206C41002068430020E4
:1096B0000246012000E05043491EC9B2FBD2704768
:1096C0009FED020A80ED0C0A7047000000000000C8
:1096D0002248B3EE040AFBEE040A80ED0F0A9FED68
:1096E000202AC0ED100A9FED1F1A80ED002A80EDA0
:1096F000011AB2EE041A80ED0D1AFAEE041ADFED2B
:109700001A2AC0ED0E1A9FED193AC0ED112A80ED0C
:10971000123AC0ED222A80ED233A80ED200AC0EDF6
:10972000210A80ED310AC0ED320A80ED1E1AC0ED2B
:109730001F1A80ED2F1AC0ED301ACC3002210170B3
:10974000417080ED012A01210176094981620349B6
:109750000520F83181F8500070470000E43F0020F8
:109760009A99993E0AD7233CCDCC0C3FCDCCCC3D29
:10977000C40400200149012008707047B040002057
:109780000248017821F0010101707047C2040020F5
:10979000034900200870A1F1CC0080ED050A704754
:1097A000B04000200248017841F00101017070478B
:1097B000C20400202DE9F041B0EE402A00F096F8F6
:1097C0003D4E3E4896ED020A00F0C0F83B4C3C4D41
:1097D0002C3C0227207810B3012849D09FED390A8C
:1097E00084ED030A6078002863D13748D4ED010A7C
:1097F000364990ED000A364A30EE800A80ED000AC4
:1098000094ED091A71EE200AC4ED090AD1F8681125
:10981000DFED300A91423DDB30EE600A3FE02E483A
:10982000264E008AF83E00EE100A3046B8EE400A96
:1098300086ED060AB0EE420AFEF78CFC96ED030AAE
:10984000264984ED030A3069884209DA2868401CF9
:1098500028603046FFF734FF28680A2800DA2770AE
:10986000207E0128BED100202076FFF79BFFB9E7BC
:109870009FED1B0A1B4984ED030AB0688842B1DAE8
:109880006868401C6860B0F5FA7FABDD2770FFF7B1
:1098900077FFA7E7144A914203D930EE200A80ED02
:1098A000000A2089401E0004000C208101D1012003
:1098B0006070BDE8F08100004C3F0020DC400020DB
:1098C0005805002000000000C4040020CC3B00200C
:1098D000000034430000B4438025002000002041F4
:1098E000000048C200007041000034C31348B0F9C2
:1098F0000C1001F16302C72A1FD2B0F90E0010F15B
:10990000640F1ADD642818DA00EE101A0C4A9FED75
:109910000D1AB8EEC00AD2ED070A40EE010A00EEB9
:10992000100A9FED091AB8EEC00AC2ED070AD2ED7F
:10993000080A40EE010AC2ED080A7047802500209F
:10994000B04000200AD7233C0AD723BC9FED1E1A43
:109950000122F0EE410A06E000EB8201521C51EDBB
:10996000011AC1ED001A90F850109142F4DC80ED1C
:10997000000A002207E000BF00EB8203521C93EDB7
:10998000000A70EE200A9142F6DC00EE101A002266
:10999000F8EE401A80EEA10A09E000BF00EB820356
:1099A000521CD3ED000A70EEC00A00EEA01A9142DC
:1099B000F4DC491E00EE101AB8EEC00AC1EE000A2F
:1099C000C0ED150A704700000000000004489FED3C
:1099D000030A80ED050A80ED040A704700000000CC
:1099E000B040002010EE100A0849884202D39FEDD3
:1099F000080A06E010EE100A0649884201DD9FEDD4
:109A0000060A064880ED040A704700000000A0C264
:109A10000000A0C20000A0420000A042B040002010
:109A200010EE100A0849884202D39FED080A06E0AA
:109A300010EE100A0649884201DD9FED060A06482D
:109A400080ED050A704700000000A0C20000A0C21F
:109A50000000A0420000A042B040002000B52DED63
:109A6000048B83B041EC190BF6F7C2FE41EC180BE6
:109A700018EE100A18EE901A8DED008B002818BF12
:109A80000120084320F00040C0F17F6000F1E04079
:109A9000C00F14D019EE101A19EE900A8DED009B2C
:109AA000002918BF0121084320F00040C0F17F6069
:109AB00000F1E040C00F04BF0120FFF705FB51ECAF
:109AC000180B03B0BDEC048B00BD000000B58FB0D7
:109AD0000A4808AA09A940798DF80C0001208DE8F0
:109AE000070003AB0B220021FEF7E4FE9DF82010D7
:109AF00009A8FEF7D7FE0FB000BD0000FC2500202E
:109B000000B591B000202049039004900590069084
:109B1000097E8DF80C1001211C4A8DF80E108DF86D
:109B20000F001278012A2AD08DF813008DF810004A
:109B3000174A8DF811009388B3F57A7F1CD3928968
:109B4000A2F5A063DC3B17D08DF814108DF815003A
:109B50008DF816000FAA07A90F208DE8070003ABA8
:109B6000092200210120FEF7A5FE9DF83C1007A860
:109B7000FEF798FE11B000BD8DF81400E6E78DF8F1
:109B800013108DF81010D3E74C25002080250020FD
:109B9000B03F002000B597B01B490020ADF80E0083
:109BA00091ED020A03ABBDEEC00A10EE102AADF82B
:109BB000102091ED000ABDEEC00A10EE101AADF8AB
:109BC000121012490A89ADF814204A89ADF81620FE
:109BD000ADF81800ADF81A00098AADF81C10ADF800
:109BE0001E00ADF8200015AA0BA916208DE807006D
:109BF000082200210120FEF75DFE9DF854100BA8FD
:109C0000FEF750FE17B000BD4C3F0020802500201D
:109C10000A484FF001024FF00201006A0078C307C2
:109C2000074802D00271417101E001714271054A99
:109C3000127D012A00D1032181717047FC2500208B
:109C40009A0100203441002070B517490978002995
:109C500028D0C0EB801101EBC011144800EB810447
:109C60002046F9F73FFD606B00684068C0F1960040
:109C700002B204F5E67005460146A4F8CA21963002
:109C8000F6F7CFFAD4F8C42194F8CA1128469047C1
:109C9000202084F83A0029462046BDE870409622EC
:109CA000FAF76CB870BD000004020020B82600204E
:109CB000000610160006101600000000000000004C
:109CC0000102030406070809000000000102030462
:109CD000000000000000000000000000000004047C
:109CE000040404000004000014140A000000000032
:109CF0000000000000000A0A1F0A0A1F0A0A0000EA
:109D000000040E1505060C14150E040000001215B3
:109D10000D152E2C2A1200000000040A0A36151513
:109D200029160000020201000000000000000000EF
:109D300010080804040404040808100002040408BD
:109D4000080808080404020000000004150E0E159F
:109D50000400000000000008083E080800000000A1
:109D600000000000000000000202010000000000EE
:109D7000003F0000000000000000000000000000A4
:109D80000002000000201010080804040202010074
:109D900000000E1111111111110E00000000040637
:109DA00004040404040E000000000E111108040253
:109DB000011F000000000E11100C1010110E000009
:109DC0000000080C0C0A091F081C000000001F01FD
:109DD000010F1110110E000000000C12010D1311E3
:109DE000110E000000001E10080804040404000006
:109DF00000000E11110E1111110E000000000E11C5
:109E000011191610090600000000000004000000EF
:109E10000004000000000000000400000004040032
:109E200000001008040202040810000000000000F6
:109E30003F003F000000000000000204081010086E
:109E40000402000000000E111108040400040000C8
:109E500000001C22292D2D1D221C000000000404DE
:109E60000C0A0A1E1233000000000F12120E12120A
:109E7000120F000000001E1101010101110E00006F
:109E800000000F1212121212120F000000001F1217
:109E90000A0E0A02121F000000001F120A0E0A0218
:109EA0000207000000001C1201013911120C000011
:109EB00000003312121E12121233000000001F04A1
:109EC00004040404041F000000003E0808080808F9
:109ED00008080907000037120A060A1212370000A4
:109EE0000000070202020202223F000000003B1BAA
:109EF0001B1B15151535000000003B1216161A1A0B
:109F00001217000000000E1111111111110E0000A6
:109F100000000F12120E02020207000000000E11D4
:109F200011111117190E180000000F12120E0A124B
:109F30001237000000001E1101060810110F00006A
:109F400000001F1504040404040E00000000331276
:109F500012121212120C000000003312120A0A0C24
:109F6000040400000000151515150E0A0A0A000069
:109F700000001B0A0A04040A0A1B000000001B0A56
:109F80000A0A0404040E000000001F090804040269
:109F9000121F00001C0404040404040404041C0034
:109FA0000002020404040808081010000E08080843
:109FB0000808080808080E00040A00000000000055
:109FC0000000000000000000000000000000003F52
:109FD000020400000000000000000000000000007B
:109FE000000C121C123C000000030202020E1212AE
:109FF000120E000000000000001C1202120C0000F3
:10A0000000181010101C1212123C0000000000007A
:10A01000000C121E021C000000182404041E04047C
:10A02000041E000000000000003C120C021C221C58
:10A0300000030202020E1212123700000004040094
:10A0400000060404040E000000080800000C0808C4
:10A050000808080700030202021A0A060A13000091
:10A060000007040404040404041F000000000000AE
:10A07000000F15151515000000000000000F12124A
:10A080001237000000000000000C1212120C000039
:10A0900000000000000F1212120E02070000000064
:10A0A000001C1212121C103800000000001B0602D7
:10A0B0000207000000000000001E020C101E00003D
:10A0C00000000004041E0404041C00000000000042
:10A0D000001B1212123C000000000000001B0A0AC4
:10A0E00004040000000000000015150E0A0A00001C
:10A0F00000000000001B0A040A1B00000000000012
:10A10000003312120C08040300000000001E0804B3
:10A11000041E000018080808080C080808081800A1
:10A1200008080808080808080808080806040404BD
:10A1300004080404040406001609000000000000DE
:10A14000000000000000000000000000000000000F
:10A1500000000000000000080808080808080000C7
:10A160001818000000486C241200000000000000D5
:10A17000000000000000002424247F1212127F122D
:10A18000121200000000081C2A2A0A0C1828282A8B
:10A190002A1C080800000022251515152A585454B9
:10A1A000542200000000000C1212120A7625291118
:10A1B000916E00000006060403000000000000008D
:10A1C00000000000004020101008080808080810CF
:10A1D0001020400000020408081010101010100891
:10A1E000080402000000000008086B1C1C6B080833
:10A1F0000000000000000000080808087F080808A8
:10A200000800000000000000000000000000000046
:10A21000060604030000000000000000FE0000002D
:10A22000000000000000000000000000000000002E
:10A23000060600000000804040202010100808049E
:10A2400004020200000000182442424242424242FC
:10A2500024180000000000080E0808080808080874
:10A26000083E00000000003C42424220201008044A
:10A27000427E00000000003C424220182040404244
:10A28000221C0000000000203028242422227E20EE
:10A29000207800000000007E0202021A26404042A0
:10A2A000221C0000000000382402021A264242420A
:10A2B000241800000000007E222210100808080860
:10A2C000080800000000003C424242241824424298
:10A2D000423C0000000000182442424264584040C2
:10A2E000241C0000000000000000181800000000FE
:10A2F0001818000000000000000000080000000026
:10A30000000808040000004020100804020408109F
:10A31000204000000000000000007F0000007F00DF
:10A320000000000000000002040810204020100877
:10A33000040200000000003C424246402010100091
:10A34000181800000000001C225A555555552D4282
:10A35000221C00000000000808181414243C2242AB
:10A3600042E700000000001F2222221E2242424239
:10A37000221F00000000007C424201010101014255
:10A38000221C00000000001F224242424242424280
:10A39000221F00000000003F4212121E1212024251
:10A3A000423F00000000003F4212121E1212020241
:10A3B000020700000000003C22220101017121225D
:10A3C000221C0000000000E7424242427E4242421C
:10A3D00042E700000000003E0808080808080808D6
:10A3E000083E00000000007C10101010101010102B
:10A3F0001010110F0000007722120A0E0A1212220A
:10A40000227700000000000702020202020202029C
:10A41000427F000000000077363636362A2A2A2A84
:10A420002A6B0000000000E346464A4A525252623C
:10A43000624700000000001C22414141414141416E
:10A44000221C00000000003F424242423E02020243
:10A45000020700000000001C2241414141414D53D0
:10A46000321C60000000003F4242423E1212222293
:10A4700042C700000000007C424202041820404213
:10A48000423E00000000007F49080808080808084C
:10A49000081C0000000000E74242424242424242A1
:10A4A000423C0000000000E7424222242414141819
:10A4B000080800000000006B4949494955553622FB
:10A4C00022220000000000E7422424181818242447
:10A4D00042E7000000000077222214140808080850
:10A4E000081C00000000007E212010100804044217
:10A4F000423F000000780808080808080808080813
:10A50000080878000000020204040808081010205F
:10A5100020204040001E10101010101010101010BD
:10A5200010101E0000384400000000000000000071
:10A53000000000000000000000000000000000001B
:10A54000000000FF000608000000000000000000FE
:10A5500000000000000000000000003C427844427F
:10A5600042FC0000000000030202021A264242429E
:10A57000261A000000000000000000384402020219
:10A5800044380000000000604040407844424242AD
:10A5900064D80000000000000000003C427E02027F
:10A5A000423C0000000000F08808087E0808080807
:10A5B000083E0000000000000000007C22221C0277
:10A5C0003C42423C000000030202023A4642424240
:10A5D00042E700000000000C0C00000E080808080C
:10A5E000083E00000000003030000038202020200D
:10A5F0002020221E0000000302020272120A16121C
:10A60000227700000000000E080808080808080863
:10A61000083E0000000000000000007F929292922D
:10A6200092B70000000000000000003B464242429A
:10A6300042E70000000000000000003C42424242AD
:10A64000423C0000000000000000001B2642424285
:10A65000221E02070000000000000078444242422F
:10A66000447840E000000000000000774C0404043F
:10A67000041F0000000000000000007C42023C407B
:10A68000423E0000000000000008083E08080808DC
:10A690000830000000000000000000634242424217
:10A6A00062DC000000000000000000E742242414E7
:10A6B0000808000000000000000000EB4949555563
:10A6C0002222000000000000000000762418181864
:10A6D000246E000000000000000000E74224241463
:10A6E00018080807000000000000007E221008087B
:10A6F000447E000000C020202020201020202020A8
:10A700002020C00010101010101010101010101089
:10A71000101010100006080808080810080808089B
:10A72000080806000C32C200000000000000000013
:10A730000000000000000000000000000000000019
:10A740000000000000000000000000000000000009
:10A7500000000000000000000000000000000000F9
:10A760000000000000000000000000006000600029
:10A770006000600060006000600040002000200079
:10A780002000000000000000600060006000000089
:10A790000000000000000000600660063003980121
:10A7A00088004400000000000000000000000000DD
:10A7B0000000000000000000000000000000000099
:10A7C0000000000000000000000000001002100265
:10A7D00010021002FE07FE07080208010801080126
:10A7E0000801FE07FE070401040104010401000042
:10A7F0000000000000000000000040004000F001E8
:10A8000058034C03CC034C0058007000E000C0011A
:10A81000C00140034C035C034C034801F0004000BE
:10A820004000000000000000000000000E010A01CE
:10A83000910091009100510051003A00AE03A00236
:10A84000500450044804480448048402840300006F
:10A8500000000000000000000000000038006C0054
:10A860006C006C006C006C002C0098071C011A0135
:10A87000330133016301E300C308C6093C0700004C
:10A8800000000000000000000C001C001000100080
:10A8900008000400000000000000000000000000AC
:10A8A00000000000000000000000000000000000A8
:10A8B0000000000000000000000400020001800011
:10A8C00080004000400020002000200020002000E8
:10A8D00020002000400040008000800000010002B5
:10A8E0000004000000000000020004000800100046
:10A8F00010002000200040004000400040004000C8
:10A90000400040002000200010001000080004005B
:10A910000200000000000000000000000000000035
:10A920004000C0004000460C4E0FD001F0015E0F09
:10A93000460C400040004000000000000000000005
:10A940000000000000000000000000000000000007
:10A95000000040004000400040004000FE0F40006A
:10A9600040004000400040000000000000000000E7
:10A9700000000000000000000000000000000000D7
:10A9800000000000000000000000000000000000C7
:10A9900000000000000000000C001C00100010006F
:10A9A000080004000000000000000000000000009B
:10A9B000000000000000000000000000FE07000092
:10A9C0000000000000000000000000000000000087
:10A9D0000000000000000000000000000000000077
:10A9E0000000000000000000000000000000000067
:10A9F00000000000000000001C001C001C00000003
:10AA00000000000000000000000400060002000337
:10AA10000001000180008000400040006000200034
:10AA2000200010001000080008000C0004000600C0
:10AA30000200000000000000000000000000F00024
:10AA400098010C030C030606060606060606060613
:10AA50000606060606060C030C039801F00000002B
:10AA600000000000000000000000000000004000A6
:10AA70007C006000600060006000600060006000BA
:10AA8000600060006000600060006000FC03000087
:10AA90000000000000000000000000000000F800BE
:10AAA0008401020306030603000300018001C000C5
:10AAB000600020001000080204020602FE030000ED
:10AAC000000000000000000000000000000078000E
:10AAD000C6008601860180018001C00070008001EF
:10AAE000000100030003060306038601F8000000CE
:10AAF00000000000000000000000000000008001D5
:10AB00008001C001A001A001900188018801840199
:10AB10008201FE0F8001800180018001E0070000BA
:10AB20000000000000000000000000000000FC0326
:10AB300004000400040004000400F4008C01040379
:10AB4000000300030603060382018401F8000000ED
:10AB50000000000000000000000000000000E00114
:10AB600018030C030C0004000600E60116030E0691
:10AB700006060606060604060C021803F00000008E
:10AB80000000000000000000000000000000F807C6
:10AB90000C06040204010001000180008000400056
:10ABA0004000400060006000600060006000000045
:10ABB0000000000000000000000000000000F8019C
:10ABC0000C030606060606060C021C03F000C8016C
:10ABD0000C0306060606060606060C03F001000036
:10ABE0000000000000000000000000000000F00075
:10ABF0000C010C03060206060606060606078C066E
:10AC000078060006000300030C018C0178000000A8
:10AC10000000000000000000000000000000000034
:10AC20000000000000000000E000E000E000000084
:10AC30000000000000000000E000E000E000000074
:10AC40000000000000000000000000000000000004
:10AC50000000000000000000600060000000000034
:10AC600000000000000000000000600060004000E4
:10AC7000200020000000000000000000000400028E
:10AC800000018000400020001000080004000800BF
:10AC900010002000400080000001000200040000BD
:10ACA00000000000000000000000000000000000A4
:10ACB0000000000000000000FE070000000000008F
:10ACC000FE0700000000000000000000000000007F
:10ACD0000000000000000000000000000400080068
:10ACE000100020004000800000010002000400026B
:10ACF0000001800040002000100008000400000057
:10AD00000000000000000000000000000000E00360
:10AD10001806040C040C0C0C0C0C000780014000FD
:10AD20004000400000000000E000E000E000000003
:10AD3000000000000000000000000000E000180318
:10AD40000C02CC0564056605A605B604B604B60477
:10AD5000B604B602E4010C040C021803F000000073
:10AD60000000000000000000000000000000600083
:10AD700060005000D0009000900088008801080119
:10AD8000F801040304030402020202060F0F00008C
:10AD90000000000000000000000000000000FE00B5
:10ADA0008C030C030C030C030C038C01FC000C0340
:10ADB0000C020C060C060C060C060C03FE0100002F
:10ADC0000000000000000000000000000000E003A0
:10ADD00018030C060C040404060006000600060016
:10ADE0000600060006040C040C021803F000000024
:10ADF00000000000000000000000000000007F00D4
:10AE00008C010C030C030C060C060C060C060C063D
:10AE10000C060C060C060C030C038C017F000000D2
:10AE20000000000000000000000000000000FF0320
:10AE3000060306040604060086008600FE0086005F
:10AE4000860086000600060406040602FF030000D2
:10AE50000000000000000000000000000000FF03F0
:10AE6000060306040604060086008600FE0086002F
:10AE70008600860006000600060006001F0000008F
:10AE80000000000000000000000000000000F000D2
:10AE900018010C020C02040206000600060006005F
:10AEA000C60F060306030C030C031803F000000092
:10AEB00000000000000000000000000000000F0F74
:10AEC000060606060606060606060606FE07060629
:10AED0000606060606060606060606060F0F00000C
:10AEE0000000000000000000000000000000FC0363
:10AEF0006000600060006000600060006000600052
:10AF0000600060006000600060006000FC03000002
:10AF10000000000000000000000000000000F80732
:10AF2000C000C000C000C000C000C000C000C00021
:10AF3000C000C000C000C000C000C000C000C6000B
:10AF400066003C0000000000000000000000CF038D
:10AF50008601C60046002600160036002E006E0050
:10AF60004600C60086008601060106038F07000022
:10AF700000000000000000000000000000001F00B2
:10AF80000600060006000600060006000600060091
:10AF9000060006000600060406040602FF03000081
:10AFA0000000000000000000000000000000070793
:10AFB000860386038E038E034E034E034A035A0311
:10AFC0005A033A03320332033203120387070000A5
:10AFD00000000000000000000000000000008E0FD4
:10AFE0000C021C021C023402340264026402440299
:10AFF000C402840284038403040304031F020000C8
:10B000000000000000000000000000000000F00050
:10B0100098010C030C02060606060606060606063E
:10B020000606060606060C020C039801F000000056
:10B030000000000000000000000000000000FF0011
:10B040000603060606060606060606068603FE0034
:10B050000600060006000600060006001F000000AD
:10B060000000000000000000000000000000F000F0
:10B0700098010C030C0206060606060606060606DE
:10B080000606060676064C02CC039801F0008007FF
:10B090000003000000000000000000000000FF01AD
:10B0A000060306060606060606060603FE0046001A
:10B0B000C600860086010603060306060F0E000082
:10B0C0000000000000000000000000000000F80286
:10B0D0000C030602060206000E003C00F800E00326
:10B0E000800300070206020606060C03F0010000BA
:10B0F0000000000000000000000000000000FE074B
:10B100006204610861086000600060006000600027
:10B11000600060006000600060006000F8010000F6
:10B1200000000000000000000000000000001E07FA
:10B130000C020C020C020C020C020C020C020C029F
:10B140000C020C020C020C020C021801F0000000B0
:10B1500000000000000000000000000000000F07D9
:10B160000602040104010C010C018800880098000B
:10B1700098005000500070003000200020000000B7
:10B180000000000000000000000000000000F70EBA
:10B19000620442044604460464026402E402E402D7
:10B1A0009C029C0198019801880188008800000099
:10B1B00000000000000000000000000000009E07EA
:10B1C0000C01080118019000B00060002000600030
:10B1D0006000D00090008801080104038E07000081
:10B1E00000000000000000000000000000000F0F41
:10B1F000060404020C0208011801B800B000700037
:10B20000600060006000600060006000F801000005
:10B210000000000000000000000000000000FC072B
:10B220000C02060302018001800040004000200063
:10B2300020001000180008040C040402FE030000A3
:10B240000000000000000000E003200020002000BB
:10B2500020002000200020002000200020002000EE
:10B2600020002000200020002000200020002000DE
:10B27000E0030000000000000000000004000400E3
:10B2800008000800100010001000200020004000FE
:10B290004000C000800080000001000100020002A8
:10B2A00000020004000000007C004000400040005C
:10B2B000400040004000400040004000400040008E
:10B2C000400040004000400040004000400040007E
:10B2D0007C000000000060009000080100000000F9
:10B2E000000000000000000000000000000000005E
:10B2F000000000000000000000000000000000004E
:10B30000000000000000000000000000000000003D
:10B31000000000000000000000000000000000002D
:10B32000000000000000000000000000000000001D
:10B330000000FF0F00000000180060000000000087
:10B3400000000000000000000000000000000000FD
:10B3500000000000000000000000000000000000ED
:10B3600000000000000000000000000000000000DD
:10B370000000000000000000F0010C030C030003BB
:10B38000E0031C030E03060306038E0B7C0E000075
:10B3900000000000000000000000000008000E0097
:10B3A0000C000C000C000C00CC013C031C060C062D
:10B3B0000C060C060C060C060C021C03E401000033
:10B3C000000000000000000000000000000000007D
:10B3D0000000000000000000F0008C018C018601DC
:10B3E00006000600060006020C020C01F000000038
:10B3F0000000000000000000000000000002C00388
:10B40000000300030003000378038C030C0306030E
:10B41000060306030603060304038C0778010000F5
:10B42000000000000000000000000000000000001C
:10B430000000000000000000E001180308020C06F4
:10B440000C06FC070C000C0018041802E0010000B8
:10B450000000000000000000000000000000C00329
:10B460006006300630003000FE0130003000300051
:10B47000300030003000300030003000FC010000AF
:10B4800000000000000000000000000000000000BC
:10B490000000000000000000F007D8068C018C01BD
:10B4A0008C019801F8000C00FC00CC030603060395
:10B4B0008E03F800000000000000000008000E00ED
:10B4C0000C000C000C000C00EC011C030C030C0322
:10B4D0000C030C030C030C030C030C039E0700006D
:10B4E00000000000000000000000000000006000FC
:10B4F00060000000000040007C0060006000600010
:10B50000600060006000600060006000FC030000FC
:10B510000000000000000000000000000000C0016A
:10B52000C001000000000001F001800180018001E5
:10B530008001800180018001800180018001800103
:10B54000CC007C00000000000000000008000E009D
:10B550000C000C000C000C008C038C008C004C00C8
:10B560006C005C008C008C010C010C039E07000039
:10B5700000000000000000000000000040007C000F
:10B5800060006000600060006000600060006000BB
:10B59000600060006000600060006000FC0300006C
:10B5A000000000000000000000000000000000009B
:10B5B00000000000000000003707EE066606660681
:10B5C000660666066606660666066606FF0F0000E5
:10B5D000000000000000000000000000000000006B
:10B5E0000000000000000000EE011C030C030C032F
:10B5F0000C030C030C030C030C030C039E0700004C
:10B60000000000000000000000000000000000003A
:10B610000000000000000000F00098010C03060686
:10B6200006060606060606060C030C03F0000000DC
:10B63000000000000000000000000000000000000A
:10B640000000000000000000EE011C030C060C06C8
:10B650000C060C060C060C060C031C03EC010C007B
:10B660000C003E0000000000000000000000000090
:10B67000000000000000000078028C030C030603A9
:10B68000060306030603060304038C037803000382
:10B690000003C007000000000000000000000000E0
:10B6A00000000000000000009F0358063806180044
:10B6B000180018001800180018001800FF000000FB
:10B6C000000000000000000000000000000000007A
:10B6D0000000000000000000F0031C030C020C023C
:10B6E0003800F000C003040304038C03FC010000D5
:10B6F000000000000000000000000000000000004A
:10B700002000200030003000FE013000300030000A
:10B71000300030003000300030023002E001000024
:10B720000000000000000000000000000000000019
:10B7300000000000000008028E030C030C030C0341
:10B740000C030C030C030C030C039C077801000092
:10B7500000000000000000000000000000000000E9
:10B7600000000000000000001E070C020801080194
:10B7700018019000B000B0006000600020000000E0
:10B7800000000000000000000000000000000000B9
:10B790000000000000000000F70E6204460464028E
:10B7A0006402EC029C0198019801980108000000D5
:10B7B0000000000000000000000000000000000089
:10B7C0000000000000000000BC0718011001B000DC
:10B7D00060006000E0009000080108039E07000080
:10B7E0000000000000000000000000000000000059
:10B7F00000000000000000009E0708010801080189
:10B8000090009000B0006000600060002000200008
:10B8100024001C00000000000000000000000000E8
:10B820000000000000000000FC018401C40044008E
:10B83000600020003000180208020C03FC01000028
:10B840000000000000000000000380008000800075
:10B8500080008000800080008000400020004000C8
:10B8600080008000800080008000800080008000D8
:10B870000003000040004000400040004000400045
:10B8800040004000400040004000400040004000B8
:10B8900040004000400040004000400040004000A8
:10B8A00040004000000000000C00100010001000DC
:10B8B00010001000100010001000200040002000B8
:10B8C00010001000100010001000100010001000F8
:10B8D0000C00000000001C002204C20480030000D1
:10B8E0000000000000000000000000000000000058
:10B8F0000000000000000000000000000000000048
:10B900000000000000000000000000000000000037
:10B910000000000000000000000000000000000027
:10B920000000000000000000000000000000000017
:10B930000000000000000000000000000000000007
:10B940000000000000000000000000000000C00136
:10B95000C001C001C001C001C001C0018000800061
:10B960008000800080008000800000000000000057
:10B9700000008001C003C00380010000000000003F
:10B9800000000000000000000000E01CE01CF01EB1
:10B99000700E380718030801840000000000000042
:10B9A0000000000000000000000000000000000097
:10B9B0000000000000000000000000000000000087
:10B9C0000000000000000000000000000000000077
:10B9D00020102010201020102010FE7FFE7F100865
:10B9E000100810081008100810081008FE7FFE7FCD
:10B9F000080408040804080408040000000000000B
:10BA00000000000000000000000000000001000134
:10BA1000C007601910311831183918393801700110
:10BA2000E001C0038007000F001D003900311C3108
:10BA30001C310C310C11180DE00700010001000150
:10BA400000000000000000000000000000000000F6
:10BA50001C1036186308630C6304630463026302FA
:10BA60006301361D9C3780228063406340632063FE
:10BA70002063306310221836081C0000000000000C
:10BA800000000000000000000000000000000000B6
:10BA9000F00098018C018C018C018C018C00CC0091
:10BAA0007800183E1C083608320863046304C30497
:10BAB000C303834306438E26781C00000000000069
:10BAC000000000000000000000001C003C003C00E2
:10BAD0003000300010000C000600000000000000E4
:10BAE0000000000000000000000000000000000056
:10BAF0000000000000000000000000000000000046
:10BB000000000000000000000000004000200010C5
:10BB10000008000C0004000600030003000380017D
:10BB2000800180018001800180018001800100038B
:10BB30000003000300060006000C000800100020AF
:10BB400000400000000000000000020004000800A7
:10BB50001000300020006000C000C000C000800164
:10BB60008001800180018001800180018001C0008E
:10BB7000C000C00060006000300010000800040039
:10BB800002000000000000000000000000000000B3
:10BB90000000000000018003800300011C713C795B
:10BBA000783DC0070001C007783D3C791C71000159
:10BBB00080038003800100000000000000000000FE
:10BBC0000000000000000000000000000000000075
:10BBD0000000000000000001000100010001000160
:10BBE00000010001FC7F00010001000100010001D3
:10BBF0000001000100000000000000000000000043
:10BC00000000000000000000000000000000000034
:10BC10000000000000000000000000000000000024
:10BC20000000000000000000000000000000000014
:10BC3000000000001C003C003C0030003000100000
:10BC40000C000600000000000000000000000000E2
:10BC500000000000000000000000000000000000E4
:10BC600000000000FE7F0000000000000000000057
:10BC700000000000000000000000000000000000C4
:10BC800000000000000000000000000000000000B4
:10BC900000000000000000000000000000000000A4
:10BCA0000000000000000000000000000000000094
:10BCB000000018003C003C001800000000000000DC
:10BCC00000000000000000000000004000600020B4
:10BCD0000030001000180008000C000400060002EC
:10BCE0000003000180018000C000400060002000CF
:10BCF00030001000180008000C00040006000200CC
:10BD00000000000000000000000000000000000033
:10BD1000C007600C30181830183018200C600C6008
:10BD20000C600C600C600C600C600C600C601820E7
:10BD3000183018303018600CC007000000000000F8
:10BD400000000000000000000000000000000000F3
:10BD500000018001F80180018001800180018001E3
:10BD600080018001800180018001800180018001CB
:10BD7000800180018001C003F81F00000000000066
:10BD800000000000000000000000000000000000B3
:10BD9000E007101C0818043004300C300C30003060
:10BDA000001800080004000200018000400020206C
:10BDB000102008200430FC1FFC1F000000000000C1
:10BDC0000000000000000000000000000000000073
:10BDD000E003180E0C0C0C180C180C180018000CB2
:10BDE0000006C003000E00180010003000300C30B8
:10BDF0000C300C100C18180CE003000000000000C0
:10BE00000000000000000000000000000000000032
:10BE1000000C000E000E000F800E800E400E600E13
:10BE2000200E100E100E080E040E040EFE7F000EE3
:10BE3000000E000E000E000E000EC07F000000007D
:10BE400000000000000000000000000000000000F2
:10BE5000F03FF03F10001000100008000800C80775
:10BE6000280C1818081000300030003000300C305A
:10BE70000C3004180418080CF00300000000000047
:10BE800000000000000000000000000000000000B2
:10BE9000800FC010203010301800180008000C006F
:10BEA0008C0F6C183C301C600C600C600C600C60DB
:10BEB0001860182030306018C00700000000000033
:10BEC0000000000000000000000000000000000072
:10BED000F83FF83F1C100C0804080404000400029A
:10BEE0000002000100010001800080008000C0000D
:10BEF000C000C000C000C000C00000000000000082
:10BF00000000000000000000000000000000000031
:10BF1000E007300C18180C300C300C301C3038187E
:10BF20007008E007B007180E0C1C06380630063003
:10BF3000063006300C18180CE0030000000000006A
:10BF400000000000000000000000000000000000F1
:10BF5000E00318040C080C180610063006300630F2
:10BF6000063006380C3C1836F03100300018001846
:10BF700000180C0C0C060C03F0010000000000007F
:10BF800000000000000000000000000000000000B1
:10BF90000000000000000000000000000000800120
:10BFA000C003C0038001000000000000000000008A
:10BFB00000008001C003C0038001000000000000F9
:10BFC0000000000000000000000000000000000071
:10BFD0000000000000000000000000000000C000A1
:10BFE000C000000000000000000000000000000091
:10BFF000000000000000C000C00080008000400081
:10C0000040000000000000000000000000000020D0
:10C01000001000080004000600038001C00060005A
:10C02000300018000C00180030006000C0008001D3
:10C0300000030006000400080010002000000000BB
:10C0400000000000000000000000000000000000F0
:10C050000000000000000000000000000000FE7F63
:10C0600000000000000000000000FE7F0000000053
:10C0700000000000000000000000000000000000C0
:10C0800000000000000000000000000000000400AC
:10C090000800100020006000C000800100030006BE
:10C0A000000C001800300018000C0006000380018E
:10C0B000C000600020001000080004000000000024
:10C0C0000000000000000000000000000000C007A9
:10C0D0003018083008600C601C601C601C60003068
:10C0E000001C00060001800080008000800000002D
:10C0F00000008001C003C0038001000000000000B8
:10C10000000000000000000000000000000000002F
:10C11000C0076018103018200C2F8C4D864CC64C70
:10C12000C64C664C66446644662666266615CC1C7C
:10C130000C40082018303018C00700000000000034
:10C1400000000000000000000000000000000001EE
:10C15000C001C001C001400160032003200320038F
:10C160003006100610061006F80F080C080C080C14
:10C170000C0C0418041806181F7C000000000000B6
:10C1800000000000000000000000000000000000AF
:10C19000FE07181C183818301830183018301818C6
:10C1A000180CF80718181830182018601860186054
:10C1B0001860186018301818FE0F0000000000000A
:10C1C000000000000000000000000000000000006F
:10C1D000C0276038103018200C400C4004000600C6
:10C1E00006000600060006000600060006000C40D9
:10C1F0000C400C2018303018C00700000000000070
:10C20000000000000000000000000000000000002E
:10C21000FE03180E181818301830183018601860FF
:10C22000186018601860186018601860186018307E
:10C23000183018101818180EFE0300000000000037
:10C2400000000000000000000000000000000000EE
:10C25000FE3F1830182018601840180018081808F9
:10C26000180CF80F180C18081808180018001800F7
:10C270001840184018201830FE3F00000000000051
:10C2800000000000000000000000000000000000AE
:10C29000FE7F1870184018C0188018001810181069
:10C2A0001818F81F1818181018101800180018007F
:10C2B00018001800180018007E00000000000000A0
:10C2C000000000000000000000000000000000006E
:10C2D000C013701C101018100C200C200400060055
:10C2E000060006000600060006FC063006300C308C
:10C2F0000C30183018303008C00700000000000073
:10C30000000000000000000000000000000000002D
:10C310003F7E0C180C180C180C180C180C180C1864
:10C320000C180C18FC1F0C180C180C180C180C18F6
:10C330000C180C180C180C183F7E000000000000B0
:10C3400000000000000000000000000000000000ED
:10C35000F81F80018001800180018001800180013F
:10C3600080018001800180018001800180018001C5
:10C370008001800180018001F81F000000000000A2
:10C3800000000000000000000000000000000000AD
:10C39000E07F000600060006000600060006000614
:10C3A000000600060006000600060006000600065D
:10C3B0000006000600060006000600060E060E0334
:10C3C0008E01FC00000000000000000000000000E2
:10C3D0007E7C18181808180418061802180198010D
:10C3E0009801D801B803380318071806180E180C5E
:10C3F000181C1818183018307EFC000000000000CF
:10C40000000000000000000000000000000000002C
:10C410007E001800180018001800180018001800F6
:10C42000180018001800180018001800180018004C
:10C430001840184018201830FE3F0000000000008F
:10C4400000000000000000000000000000000000EC
:10C450001FF81C381C381C381C3C34343434343439
:10C46000343674326432643264326431C431C4317B
:10C47000C431C430C43084309FFC00000000000090
:10C4800000000000000000000000000000000000AC
:10C490001F7C1C103C103410341074106410E41015
:10C4A000C410C41184118413041304170416041E49
:10C4B000041C041C041C04181F18000000000000C9
:10C4C000000000000000000000000000000000006C
:10C4D000C003300C181808100C300C3006600660D1
:10C4E00006600660066006600660066006600C2056
:10C4F0000C3008101818300CC003000000000000B9
:10C50000000000000000000000000000000000002B
:10C51000FE0F18181830186018601860186018603E
:10C5200018301818F80F1800180018001800180014
:10C5300018001800180018007E000000000000001D
:10C5400000000000000000000000000000000000EB
:10C55000C003300C18180C100C300C20066006605C
:10C560000660066006600660066006600660E461BC
:10C570002C331C321816300EC007004C007C0038DB
:10C5800000000000000000000000000000000000AB
:10C59000FE07181C183818301830183018301818C2
:10C5A000180CF80798031803180718061806180E31
:10C5B000180C180C181C18187E78000000000000D9
:10C5C000000000000000000000000000000000006B
:10C5D000E027303818300C200C200C000C0018001C
:10C5E0007800E003800F001E0038007000600460D7
:10C5F0000460086018303818C80F00000000000000
:10C60000000000000000000000000000000000002A
:10C61000FC3F8C2184618241824180018001800144
:10C620008001800180018001800180018001800102
:10C630008001800180018001E0070000000000000F
:10C6400000000000000000000000000000000000EA
:10C650003F7C0C100C100C100C100C100C100C105B
:10C660000C100C100C100C100C100C100C100C10EA
:10C670000C100C1008083804E00300000000000053
:10C6800000000000000000000000000000000000AA
:10C690003EF81820182018203010301030103010BC
:10C6A000600860086008E00CC004C004C004800397
:10C6B00080038003800300010001000000000000EF
:10C6C000000000000000000000000000000000006A
:10C6D000DFF38661862186218C210C218C238C132B
:10C6E0008C138C134C1358125816580E380E380EE3
:10C6F000380E300C1004100410040000000000007C
:10C700000000000000000000000000000000000029
:10C710007E3E180838083004300470026002E001E0
:10C72000C001C001800180034003400720062006AD
:10C73000100C100C081808183E7C000000000000C7
:10C7400000000000000000000000000000000000E9
:10C750007E7C1C10181018083008300C700460041F
:10C760006002C002C002C00180018001800180011E
:10C770008001800180018001E007000000000000CE
:10C7800000000000000000000000000000000000A9
:10C79000F83F18180818040C040E000600070003E0
:10C7A00080038001C001C000E00060007000300024
:10C7B000382018201C100C18FE1F0000000000007C
:10C7C00000000000000000000000C03F40004000EA
:10C7D0004000400040004000400040004000400059
:10C7E0004000400040004000400040004000400049
:10C7F0004000400040004000400040004000C03F7A
:10C800000000000000000000000000000000080020
:10C810001800180010003000200060006000400088
:10C82000C0008000800180010001000300020006BA
:10C8300000060004000C000800180018001000306A
:10C8400000200000000000000000FC0300020002C5
:10C8500000020002000200020002000200020002C8
:10C8600000020002000200020002000200020002B8
:10C870000002000200020002000200020002FC03AB
:10C88000000000000000000000008007C006200833
:10C890001010000000000000000000000000000078
:10C8A0000000000000000000000000000000000088
:10C8B0000000000000000000000000000000000078
:10C8C0000000000000000000000000000000000068
:10C8D0000000000000000000000000000000000058
:10C8E0000000000000000000000000000000000048
:10C8F0000000000000000000000000000000000038
:10C900000000FFFF0000000000007800C0000001F0
:10C910000000000000000000000000000000000017
:10C920000000000000000000000000000000000007
:10C9300000000000000000000000000000000000F7
:10C9400000000000000000000000000000000000E7
:10C950000000000000000000000000000000F003E4
:10C9600018060C0C0C0C000C800F700C1C0C0C0C22
:10C97000060C060C064C0C4FF838000000000000B6
:10C980000000000000000000000000000000100097
:10C990001E00180018001800180018001800180FC2
:10C9A000D81838303860186018601860186018603F
:10C9B0001860182038307818C80700000000000000
:10C9C0000000000000000000000000000000000067
:10C9D0000000000000000000000000000000C00790
:10C9E000700C181818180C180C000C000C000C0017
:10C9F0000C20182018103008C007000000000000AC
:10CA00000000000000000000000000000000001016
:10CA1000001E001800180018001800180018E01B6D
:10CA2000301C181818180C180C180C180C180C18A6
:10CA30000C180818181C307AE009000000000000EB
:10CA400000000000000000000000000000000000E6
:10CA50000000000000000000000000000000C0070F
:10CA6000300C181808100C300C30FC3F0C000C0077
:10CA70000C00182018107018C007000000000000FB
:10CA800000000000000000000000000000000000A6
:10CA9000003E80C380C0C0C0C000C000C000FC1FFA
:10CAA000C000C000C000C000C000C000C000C00086
:10CAB000C000C000C000C000F80F0000000000006F
:10CAC0000000000000000000000000000000000066
:10CAD0000000000000000000000000000000C0771F
:10CAE000306C10181818181818181018300CF00797
:10CAF00018001800F00FF03F08700C600C600C601C
:10CB00003838E00F000000000000000000001000B6
:10CB10001E00180018001800180018001800980FC0
:10CB2000D8183830183018301830183018301830FD
:10CB300018301830183018307EFC0000000000005B
:10CB400000000000000000000000000000000000E5
:10CB50008003800380030000000000000001F80152
:10CB600080018001800180018001800180018001BD
:10CB70008001800180018001F81F0000000000009A
:10CB800000000000000000000000000000000000A5
:10CB90000038003800380000000000000010801F3E
:10CBA00000180018001800180018001800180018C5
:10CBB0000018001800180018001800180018180CA9
:10CBC0001806F00300000000000000000000100044
:10CBD0001E00180018001800180018001800183E51
:10CBE000180C1806180318019801D8013803180703
:10CBF0001806180C181C18187E7C00000000000095
:10CC00000000000000000000000000000000000123
:10CC1000F801800180018001800180018001800194
:10CC200080018001800180018001800180018001FC
:10CC30008001800180018001F81F000000000000D9
:10CC400000000000000000000000000000000000E4
:10CC50000000000000000000000000000800EE1CC2
:10CC60009C338C318C318C318C318C318C318C31CA
:10CC70008C318C318C318C31DE7B00000000000067
:10CC800000000000000000000000000000000000A4
:10CC900000000000000000000000000010001E0F57
:10CCA000D81838301830183018301830183018307C
:10CCB00018301830183018307EFC000000000000DA
:10CCC0000000000000000000000000000000000064
:10CCD0000000000000000000000000000000C0078D
:10CCE000701C103018300C600C600C600C600C6014
:10CCF0000C60183018303018C00700000000000029
:10CD00000000000000000000000000000000000023
:10CD100000000000000000000000000010009E0F56
:10CD2000581838301820186018601860186018609B
:10CD30001860183038307818980718001800180054
:10CD400018007E000000000000000000000000004D
:10CD50000000000000000000000000000000C023F0
:10CD6000303C183818300C300C300C300C300C3093
:10CD70000C3008301838303CE033003000300030E0
:10CD8000003000FC00000000000000000000000077
:10CD900000000000000000000000000060007E3C79
:10CDA00060666061E000E0006000600060006000BC
:10CDB0006000600060006000FE07000000000000EE
:10CDC0000000000000000000000000000000000063
:10CDD0000000000000000000000000000000E0274C
:10CDE00030381830182018007000E003800F001C45
:10CDF000043004300C301C18EC0F00000000000060
:10CE00000000000000000000000000000000000022
:10CE100000000000800080008000C000E000FC1FD7
:10CE2000C000C000C000C000C000C000C000C00002
:10CE3000C000C020C0208011000F000000000000D2
:10CE400000000000000000000000000000000000E2
:10CE500000000000000000000000000010201E3C48
:10CE60001830183018301830183018301830183082
:10CE700018301830183830F4E013000000000000BB
:10CE800000000000000000000000000000000000A2
:10CE900000000000000000000000000000007E3CD8
:10CEA0001818180838083004300470026002600254
:10CEB000E001C001C001C0008000000000000000CF
:10CEC0000000000000000000000000000000000062
:10CED0000000000000000000000000000000DFF77C
:10CEE0008E630C238C238C23981398135816581692
:10CEF000700E700E700E2004200400000000000070
:10CF00000000000000000000000000000000000021
:10CF10000000000000000000000000000000FC3ED7
:10CF200070087004E004C002C00180038003400761
:10CF30006006200C100C18183E7E00000000000057
:10CF400000000000000000000000000000000000E1
:10CF500000000000000000000000000000007E7CD7
:10CF60001818180830083008300460046004C00243
:10CF7000C002C0028001800180018000800080002A
:10CF80004C003C0000000000000000000000000019
:10CF90000000000000000000000000000000FC1F76
:10CFA0000C0C040E0406000380038001C000E000A6
:10CFB0007020302038301C18FC1F000000000000DA
:10CFC0000000000000000000000000300008000425
:10CFD0000004000400040004000400040004000431
:10CFE00000040002800100020004000400040004A8
:10CFF000000400040004000400040004000400080D
:10D0000000300000000100010001000100010001EA
:10D010000001000100010001000100010001000108
:10D0200000010001000100010001000100010001F8
:10D0300000010001000100010001000100010001E8
:10D04000000100010000000000000C0010002000A2
:10D0500020002000200020002000200020002000D0
:10D06000200040008001400020002000200020001F
:10D0700020002000200020002000200020001000C0
:10D080000C00000000003800C4008640026100224D
:10D09000001C000000000000000000000000000074
:10D0A0000000000000000000000000000000000080
:10D0B0000000000000000000000000000000000070
:10D0C00000000000D6D0200020002000FE03220235
:10D0D00022022202FE032202200020002000BEB015
:10D0E000FC010401FC010401FC012000FF07040114
:10D0F000FC01200024013202D4B0FE070204FA042D
:10D1000002040204FE05520452044A058605020484
:10D11000FE07B5E710001000FF0111011101FF012A
:10D1200011011101FF0111041004E007D7D3000021
:10D13000FC018000400020002000FF0720002000AC
:10D14000200020003800D6D08000800080008000C1
:10D15000FC1F84108410841084108410FC1F841021
:10D160008000800080008000BEB0F80F0808F80F33
:10D170000808F80F8000FF7F0000F80F0808080873
:10D18000F80F80008410A2204000D4B00000FE3FC1
:10D190000220F22702200220FA2F2221222122211E
:10D1A000122912290A2E0220FE3F0220B5E7800034
:10D1B00080008000FC1F841084108410FC1F8410E9
:10D1C00084108410FC1F845080408040007FD7D39F
:10D1D0000000FE1F00080004000280018000FF7FA5
:10D1E000800080008000800080008000A00040005F
:10D1F000D6D0000000000000001800000800000861
:10D2000000000800080818F8FF1F18081818081868
:10D21000180818180818180818180818F8FF1F0810
:10D2200008080008000008000008000008000018B6
:10D2300000001800001800000000BEB00000000050
:10D240000000400006C0FF07400006C0FF07400086
:10D2500006C0FF07400802003000FEFF3F0000004C
:10D26000C0FF07C00002C00002C00002C0FF038070
:10D27000100080110160100E3010180C1E30001CC0
:10D2800000000000D4B0000000000000080030F8EA
:10D29000FF1F08001008C010083F10080010080009
:10D2A00010080013C8FF10082210082210082210CE
:10D2B00008221008211208211488601648C013287B
:10D2C0000010080010F8FF1F080010000000B5E76C
:10D2D0000000000000000018000008000008000026
:10D2E0000800F0FF0F1008041008041008041008CC
:10D2F00004F0FF07100804100804100804100804C4
:10D30000F0FF0710080000081000081000082000B7
:10D31000183000F01F000000D7D30000000000000C
:10D32000000004F0FF0F00000600000100C0000034
:10D330002800001800001800001830FEFF7F0018B9
:10D340000000180000180000180000180000180065
:10D35000001800001800001800001F00000C00005A
:10D360000000D6D000000000000000000080000097
:10D3700000800100008001000080010000800100A9
:10D38000008001001080010CF0FFFF0F30800104CD
:10D3900030800104308001043080010430800104B9
:10D3A000308001043080010430800104F0FFFF0769
:10D3B0003080010430800104008001000080010001
:10D3C0000080010000800100008001000080010059
:10D3D000008001000080010000800100008000004A
:10D3E00000000000BEB000000000000000000000CF
:10D3F00000000001800100FFFF0100038001000325
:10D40000800100FFFF01000380010003800100FF95
:10D41000FF0100818100000003000000031CFCFFED
:10D42000FF3F000040000003C00100FFFF010003B8
:10D43000C0000003C0000003C00000FFFF000001A7
:10D44000410000040100000E71000007810180010D
:10D4500001076000010E1898011C04E0011800C0CB
:10D46000000000000000D4B0000000000000000038
:10D4700000000008F0FFFF1F3000000C3000000C1F
:10D480003000100C30FE3F0C3004000C3000000C5B
:10D490003000000C3000000C3000C00CF0FFFF0D1D
:10D4A0003030060E3030060C3010060C3010060CF2
:10D4B0003010060C3018860C3018860C3008060D1B
:10D4C000300C860D3006EE0F3002FC0D3001000CE2
:10D4D000F000000C3000000CF0FFFF0F3000000CDB
:10D4E0001000000400000000B5E70000000000008C
:10D4F000000000C0000000C0010000C0000000C02B
:10D50000000000C0000000C00000E0FFFF0360C09A
:10D51000000360C0000360C0000360C0000360C07F
:10D52000000360C00003E0FFFF0360C0000360C0B1
:10D53000000360C0000360C0000360C00003E0FFA0
:10D54000FF0360C0000160C0000000C0000800C010
:10D55000001000C0001000C0001800C0013800809A
:10D56000FF1F0000000000000000D7D300000000F3
:10D57000000000000000000000000003C0FFFF07E3
:10D58000000080070000C0000000600000001800DC
:10D5900000000C00008003000080030000800100F8
:10D5A000008001080080011CFCFFFF3F008001009B
:10D5B0000080010000800100008001000080010067
:10D5C0000080010000800100008001000080010057
:10D5D00000800100008001000080010000FC0100CB
:10D5E00000E000000040000000000000E12E654265
:10D5F000F6FF793D2E9E8B3A555555555555C53FED
:10D600007D6FEB0312D6D4BF5544880E55C1C93F78
:10D610003B8F68B52882A4BF88B20175E0EF493F0F
:10D6200009F7FD0DE13D023F4B2D8A1C273A03C04F
:10D63000C88A599CE52A004059018D1B6C06E6BF3B
:10D6400082922EB1C5B8B33F68D600080000002012
:10D65000840500009208000814D800088405002002
:10D66000E43F0000B89000088113156D1B084504C5
:10D670001A51041A6D041A890413F56C1B08210849
:10D6800017040309041201140202021640FFFF40AE
:10D6900057260201020301031A1A031319131B0868
:10D6A00015041A11041A3D048119371182105324EC
:10D6B000F4130A0632022A401C1C0902435F111DA2
:10D6C000C03209042D1A020B13052416100105247B
:10D6D000011009010424020205240617010705822E
:10D6E00003081C10090495320A1D07050102432C8A
:10D6F000070581070938442A40072A8107112B09A9
:10D7000007440A3B044413B96A1B08210413A16BA4
:10D7100042081A650C13A9691B08F304C11AA11861
:10D720001A95041AAD041A89040114134C254220D9
:10D73000051ACDCCCC3E0312803F052610271027BA
:10D74000320F29C701511201000F10416374696F34
:10D750006E5761697474696E67491E080A13436FD6
:10D76000756E74646F776E1E00081154616B654F9F
:10D770006666491ED810486F76657253746172747C
:10D78000506F696E741E080A13476F466F72776197
:10D7900072643C8F476F5269676834E91E0C104C05
:10D7A00065661D791E0D184261636B1E1A52D4E91D
:10D7B00076F9960A12321E08091446696E64506F93
:10D7C0006C653CF808436C6F7365546F21491E0DFE
:10D7D000125475726E7A895AA8094C616E6453703E
:10D7E00061633E491EE8095265736574416E677A4C
:10D7F000491E2C5072653B0915D209131B891E0462
:10D80000516F636B038E010109128F29A40A19F469
:04D81000A80000006C
:040000050800018965
:00000001FF
