Component: ARM Compiler 5.06 update 3 (build 300) Tool: armlink [4d35c9]

==============================================================================

Section Cross References

    startup_stm32f407xx.o(RESET) refers to startup_stm32f407xx.o(STACK) for __initial_sp
    startup_stm32f407xx.o(RESET) refers to startup_stm32f407xx.o(.text) for Reset_Handler
    startup_stm32f407xx.o(RESET) refers to stm32f4xx_it.o(i.NMI_Handler) for NMI_Handler
    startup_stm32f407xx.o(RESET) refers to stm32f4xx_it.o(i.HardFault_Handler) for HardFault_Handler
    startup_stm32f407xx.o(RESET) refers to stm32f4xx_it.o(i.MemManage_Handler) for MemManage_Handler
    startup_stm32f407xx.o(RESET) refers to stm32f4xx_it.o(i.BusFault_Handler) for BusFault_Handler
    startup_stm32f407xx.o(RESET) refers to stm32f4xx_it.o(i.UsageFault_Handler) for UsageFault_Handler
    startup_stm32f407xx.o(RESET) refers to stm32f4xx_it.o(i.SVC_Handler) for SVC_Handler
    startup_stm32f407xx.o(RESET) refers to stm32f4xx_it.o(i.DebugMon_Handler) for DebugMon_Handler
    startup_stm32f407xx.o(RESET) refers to stm32f4xx_it.o(i.PendSV_Handler) for PendSV_Handler
    startup_stm32f407xx.o(RESET) refers to stm32f4xx_it.o(i.SysTick_Handler) for SysTick_Handler
    startup_stm32f407xx.o(RESET) refers to stm32f4xx_it.o(i.DMA1_Stream0_IRQHandler) for DMA1_Stream0_IRQHandler
    startup_stm32f407xx.o(RESET) refers to stm32f4xx_it.o(i.DMA1_Stream1_IRQHandler) for DMA1_Stream1_IRQHandler
    startup_stm32f407xx.o(RESET) refers to stm32f4xx_it.o(i.DMA1_Stream2_IRQHandler) for DMA1_Stream2_IRQHandler
    startup_stm32f407xx.o(RESET) refers to stm32f4xx_it.o(i.DMA1_Stream3_IRQHandler) for DMA1_Stream3_IRQHandler
    startup_stm32f407xx.o(RESET) refers to stm32f4xx_it.o(i.DMA1_Stream4_IRQHandler) for DMA1_Stream4_IRQHandler
    startup_stm32f407xx.o(RESET) refers to stm32f4xx_it.o(i.DMA1_Stream5_IRQHandler) for DMA1_Stream5_IRQHandler
    startup_stm32f407xx.o(RESET) refers to stm32f4xx_it.o(i.DMA1_Stream6_IRQHandler) for DMA1_Stream6_IRQHandler
==============================================================================

Removing Unused input sections from the image.

    Removing system.o(.rev16_text), (4 bytes).
    Removing system.o(.revsh_text), (4 bytes).
    Removing system.o(.rrx_text), (6 bytes).
    Removing system.o(.bss), (20 bytes).
    Removing system.o(.data), (4 bytes).
    Removing system.o(.data), (6 bytes).
    Removing main.o(.rev16_text), (4 bytes).
    Removing main.o(.revsh_text), (4 bytes).
    Removing main.o(.rrx_text), (6 bytes).
    Removing gpio.o(.rev16_text), (4 bytes).
    Removing gpio.o(.revsh_text), (4 bytes).
    Removing gpio.o(.rrx_text), (6 bytes).
    Removing dma.o(.rev16_text), (4 bytes).
    Removing dma.o(.revsh_text), (4 bytes).
    Removing dma.o(.rrx_text), (6 bytes).
    Removing i2c.o(.rev16_text), (4 bytes).
    Removing i2c.o(.revsh_text), (4 bytes).
    Removing i2c.o(.rrx_text), (6 bytes).
==============================================================================

Image Symbol Table

    Local Symbols

    Symbol Name                              Value     Ov Type        Size  Object(Section)

    ../Drivers/STM32F4xx_HAL_Driver/Src/stm32f4xx_hal.c 0x00000000   Number         0  stm32f4xx_hal.o ABSOLUTE
    ../Drivers/STM32F4xx_HAL_Driver/Src/stm32f4xx_hal_cortex.c 0x00000000   Number         0  stm32f4xx_hal_cortex.o ABSOLUTE
    ../Drivers/STM32F4xx_HAL_Driver/Src/stm32f4xx_hal_dma.c 0x00000000   Number         0  stm32f4xx_hal_dma.o ABSOLUTE
    ../Drivers/STM32F4xx_HAL_Driver/Src/stm32f4xx_hal_dma_ex.c 0x00000000   Number         0  stm32f4xx_hal_dma_ex.o ABSOLUTE
    ../Drivers/STM32F4xx_HAL_Driver/Src/stm32f4xx_hal_exti.c 0x00000000   Number         0  stm32f4xx_hal_exti.o ABSOLUTE
    ../Drivers/STM32F4xx_HAL_Driver/Src/stm32f4xx_hal_flash.c 0x00000000   Number         0  stm32f4xx_hal_flash.o ABSOLUTE
    ../Drivers/STM32F4xx_HAL_Driver/Src/stm32f4xx_hal_flash_ex.c 0x00000000   Number         0  stm32f4xx_hal_flash_ex.o ABSOLUTE
    ../Drivers/STM32F4xx_HAL_Driver/Src/stm32f4xx_hal_flash_ramfunc.c 0x00000000   Number         0  stm32f4xx_hal_flash_ramfunc.o ABSOLUTE
    ../Drivers/STM32F4xx_HAL_Driver/Src/stm32f4xx_hal_gpio.c 0x00000000   Number         0  stm32f4xx_hal_gpio.o ABSOLUTE
    ../Drivers/STM32F4xx_HAL_Driver/Src/stm32f4xx_hal_i2c.c 0x00000000   Number         0  stm32f4xx_hal_i2c.o ABSOLUTE
    ../Drivers/STM32F4xx_HAL_Driver/Src/stm32f4xx_hal_i2c_ex.c 0x00000000   Number         0  stm32f4xx_hal_i2c_ex.o ABSOLUTE
    ../Drivers/STM32F4xx_HAL_Driver/Src/stm32f4xx_hal_pcd.c 0x00000000   Number         0  stm32f4xx_hal_pcd.o ABSOLUTE
    ../Drivers/STM32F4xx_HAL_Driver/Src/stm32f4xx_hal_pcd_ex.c 0x00000000   Number         0  stm32f4xx_hal_pcd_ex.o ABSOLUTE
    ../Drivers/STM32F4xx_HAL_Driver/Src/stm32f4xx_hal_pwr.c 0x00000000   Number         0  stm32f4xx_hal_pwr.o ABSOLUTE
    ../Drivers/STM32F4xx_HAL_Driver/Src/stm32f4xx_hal_pwr_ex.c 0x00000000   Number         0  stm32f4xx_hal_pwr_ex.o ABSOLUTE
    ../Drivers/STM32F4xx_HAL_Driver/Src/stm32f4xx_hal_rcc.c 0x00000000   Number         0  stm32f4xx_hal_rcc.o ABSOLUTE
    ../Drivers/STM32F4xx_HAL_Driver/Src/stm32f4xx_hal_rcc_ex.c 0x00000000   Number         0  stm32f4xx_hal_rcc_ex.o ABSOLUTE
    ../Drivers/STM32F4xx_HAL_Driver/Src/stm32f4xx_hal_tim.c 0x00000000   Number         0  stm32f4xx_hal_tim.o ABSOLUTE
    ../Drivers/STM32F4xx_HAL_Driver/Src/stm32f4xx_hal_tim_ex.c 0x00000000   Number         0  stm32f4xx_hal_tim_ex.o ABSOLUTE
    ../Drivers/STM32F4xx_HAL_Driver/Src/stm32f4xx_hal_uart.c 0x00000000   Number         0  stm32f4xx_hal_uart.o ABSOLUTE
    ../Drivers/STM32F4xx_HAL_Driver/Src/stm32f4xx_ll_usb.c 0x00000000   Number         0  stm32f4xx_ll_usb.o ABSOLUTE
    ../Middlewares/ST/STM32_USB_Device_Library/Class/CDC/Src/usbd_cdc.c 0x00000000   Number         0  usbd_cdc.o ABSOLUTE
    ../Middlewares/ST/STM32_USB_Device_Library/Core/Src/usbd_core.c 0x00000000   Number         0  usbd_core.o ABSOLUTE
    ../Middlewares/ST/STM32_USB_Device_Library/Core/Src/usbd_ctlreq.c 0x00000000   Number         0  usbd_ctlreq.o ABSOLUTE
    ../Middlewares/ST/STM32_USB_Device_Library/Core/Src/usbd_ioreq.c 0x00000000   Number         0  usbd_ioreq.o ABSOLUTE
    ../Src/dma.c                             0x00000000   Number         0  dma.o ABSOLUTE
    ../Src/gpio.c                            0x00000000   Number         0  gpio.o ABSOLUTE
    ../Src/i2c.c                             0x00000000   Number         0  i2c.o ABSOLUTE
    ../Src/main.c                            0x00000000   Number         0  main.o ABSOLUTE
    ../Src/stm32f4xx_hal_msp.c               0x00000000   Number         0  stm32f4xx_hal_msp.o ABSOLUTE
    ../Src/stm32f4xx_it.c                    0x00000000   Number         0  stm32f4xx_it.o ABSOLUTE
    ../Src/system_stm32f4xx.c                0x00000000   Number         0  system_stm32f4xx.o ABSOLUTE
    ../Src/tim.c                             0x00000000   Number         0  tim.o ABSOLUTE
    ../Src/usart.c                           0x00000000   Number         0  usart.o ABSOLUTE
    ../Src/usb_device.c                      0x00000000   Number         0  usb_device.o ABSOLUTE
    ../Src/usbd_cdc_if.c                     0x00000000   Number         0  usbd_cdc_if.o ABSOLUTE
    ../Src/usbd_conf.c                       0x00000000   Number         0  usbd_conf.o ABSOLUTE
    ../Src/usbd_desc.c                       0x00000000   Number         0  usbd_desc.o ABSOLUTE
    ../clib/../cmprslib/zerorunl2.c          0x00000000   Number         0  __dczerorl2.o ABSOLUTE
    ../clib/microlib/division.c              0x00000000   Number         0  uldiv.o ABSOLUTE
    ../clib/microlib/errno.c                 0x00000000   Number         0  errno.o ABSOLUTE
    ../clib/microlib/init/entry.s            0x00000000   Number         0  entry8a.o ABSOLUTE
    ../clib/microlib/init/entry.s            0x00000000   Number         0  entry9b.o ABSOLUTE
    ../clib/microlib/init/entry.s            0x00000000   Number         0  entry2.o ABSOLUTE
    ../clib/microlib/init/entry.s            0x00000000   Number         0  entry5.o ABSOLUTE
    ../clib/microlib/init/entry.s            0x00000000   Number         0  entry7a.o ABSOLUTE
    ../clib/microlib/init/entry.s            0x00000000   Number         0  entry7b.o ABSOLUTE
    ../clib/microlib/init/entry.s            0x00000000   Number         0  entry11a.o ABSOLUTE
    ../clib/microlib/init/entry.s            0x00000000   Number         0  entry8b.o ABSOLUTE
    ../clib/microlib/init/entry.s            0x00000000   Number         0  entry9a.o ABSOLUTE
    ../clib/microlib/init/entry.s            0x00000000   Number         0  entry10b.o ABSOLUTE
    ../clib/microlib/init/entry.s            0x00000000   Number         0  entry10a.o ABSOLUTE
    ../clib/microlib/init/entry.s            0x00000000   Number         0  entry11b.o ABSOLUTE
    ../clib/microlib/init/entry.s            0x00000000   Number         0  entry.o ABSOLUTE
    ../clib/microlib/longlong.c              0x00000000   Number         0  llshl.o ABSOLUTE
    ../clib/microlib/longlong.c              0x00000000   Number         0  llsshr.o ABSOLUTE
    ../clib/microlib/longlong.c              0x00000000   Number         0  llushr.o ABSOLUTE
    ../clib/microlib/malloc/malloc.c         0x00000000   Number         0  mallocr.o ABSOLUTE
    ../clib/microlib/malloc/malloc.c         0x00000000   Number         0  malloc.o ABSOLUTE
    ../clib/microlib/malloc/malloc.c         0x00000000   Number         0  malloca.o ABSOLUTE
    ../clib/microlib/malloc/malloc.c         0x00000000   Number         0  mallocra.o ABSOLUTE
    ../clib/microlib/malloc/mvars.c          0x00000000   Number         0  mvars.o ABSOLUTE
    ../clib/microlib/string/memcpy.c         0x00000000   Number         0  memmoveb.o ABSOLUTE
    ../clib/microlib/string/memcpy.c         0x00000000   Number         0  memcpyb.o ABSOLUTE
    ../clib/microlib/string/memcpy.c         0x00000000   Number         0  memmovea.o ABSOLUTE
    ../clib/microlib/string/memcpy.c         0x00000000   Number         0  memcpya.o ABSOLUTE
    ../clib/microlib/string/memset.c         0x00000000   Number         0  memseta.o ABSOLUTE
    ../clib/microlib/string/strcpy.c         0x00000000   Number         0  strcpy.o ABSOLUTE
    ../clib/microlib/string/strlen.c         0x00000000   Number         0  strlen.o ABSOLUTE
    ../clib/microlib/stubs.s                 0x00000000   Number         0  iusefp.o ABSOLUTE
    ../fplib/microlib/d2f.c                  0x00000000   Number         0  d2f.o ABSOLUTE
    ../fplib/microlib/f2d.c                  0x00000000   Number         0  f2d.o ABSOLUTE
    ../fplib/microlib/fpadd.c                0x00000000   Number         0  dadd.o ABSOLUTE
    ../fplib/microlib/fpdiv.c                0x00000000   Number         0  ddiv.o ABSOLUTE
    ../fplib/microlib/fpepilogue.c           0x00000000   Number         0  depilogue.o ABSOLUTE
    ../fplib/microlib/fpepilogue.c           0x00000000   Number         0  fepilogue.o ABSOLUTE
    ../fplib/microlib/fpfix.c                0x00000000   Number         0  dfixui.o ABSOLUTE
    ../fplib/microlib/fpflt.c                0x00000000   Number         0  dfltui.o ABSOLUTE
    ../fplib/microlib/fpmul.c                0x00000000   Number         0  dmul.o ABSOLUTE
    ../fplib/microlib/fpneg.c                0x00000000   Number         0  dneg.o ABSOLUTE
    ../fplib/microlib/fpsqrt.c               0x00000000   Number         0  dsqrt.o ABSOLUTE
    ../mathlib/asin.c                        0x00000000   Number         0  asin.o ABSOLUTE
    ../mathlib/asin.c                        0x00000000   Number         0  asin_x.o ABSOLUTE
    ../mathlib/atan2f.c                      0x00000000   Number         0  atan2f_x.o ABSOLUTE
    ../mathlib/atan2f.c                      0x00000000   Number         0  atan2f.o ABSOLUTE
    ../mathlib/cosf.c                        0x00000000   Number         0  cosf.o ABSOLUTE
    ../mathlib/cosf.c                        0x00000000   Number         0  cosf_x.o ABSOLUTE
    ../mathlib/dunder.c                      0x00000000   Number         0  dunder.o ABSOLUTE
    ../mathlib/fabs.c                        0x00000000   Number         0  fabs.o ABSOLUTE
    ../mathlib/fpclassify.c                  0x00000000   Number         0  fpclassify.o ABSOLUTE
    ../mathlib/fpclassifyf.c                 0x00000000   Number         0  fpclassifyf.o ABSOLUTE
    ../mathlib/funder.c                      0x00000000   Number         0  funder.o ABSOLUTE
    ../mathlib/poly.c                        0x00000000   Number         0  poly.o ABSOLUTE
    ../mathlib/rredf.c                       0x00000000   Number         0  rredf.o ABSOLUTE
    ../mathlib/sinf.c                        0x00000000   Number         0  sinf_x.o ABSOLUTE
    ../mathlib/sinf.c                        0x00000000   Number         0  sinf.o ABSOLUTE
    ../mathlib/sqrt.c                        0x00000000   Number         0  sqrt.o ABSOLUTE
    ../mathlib/sqrt.c                        0x00000000   Number         0  sqrt_x.o ABSOLUTE
    ..\Control\FollowLine_eg2.c              0x00000000   Number         0  followline_eg2.o ABSOLUTE
    ..\Control\Init.c                        0x00000000   Number         0  init.o ABSOLUTE
    ..\Control\SDK.c                         0x00000000   Number         0  sdk.o ABSOLUTE
    ..\Control\control.c                     0x00000000   Number         0  control.o ABSOLUTE
    ..\Control\height_control.c              0x00000000   Number         0  height_control.o ABSOLUTE
    ..\Control\pos_ctrl.c                    0x00000000   Number         0  pos_ctrl.o ABSOLUTE
    ..\Control\remote.c                      0x00000000   Number         0  remote.o ABSOLUTE
    ..\Drivers\STM32F4xx_HAL_Driver\Src\stm32f4xx_hal.c 0x00000000   Number         0  stm32f4xx_hal.o ABSOLUTE
    ..\Drivers\STM32F4xx_HAL_Driver\Src\stm32f4xx_hal_cortex.c 0x00000000   Number         0  stm32f4xx_hal_cortex.o ABSOLUTE
    ..\Drivers\STM32F4xx_HAL_Driver\Src\stm32f4xx_hal_dma.c 0x00000000   Number         0  stm32f4xx_hal_dma.o ABSOLUTE
    ..\Drivers\STM32F4xx_HAL_Driver\Src\stm32f4xx_hal_dma_ex.c 0x00000000   Number         0  stm32f4xx_hal_dma_ex.o ABSOLUTE
    ..\Drivers\STM32F4xx_HAL_Driver\Src\stm32f4xx_hal_exti.c 0x00000000   Number         0  stm32f4xx_hal_exti.o ABSOLUTE
    ..\Drivers\STM32F4xx_HAL_Driver\Src\stm32f4xx_hal_flash.c 0x00000000   Number         0  stm32f4xx_hal_flash.o ABSOLUTE
    ..\Drivers\STM32F4xx_HAL_Driver\Src\stm32f4xx_hal_flash_ex.c 0x00000000   Number         0  stm32f4xx_hal_flash_ex.o ABSOLUTE
    ..\Drivers\STM32F4xx_HAL_Driver\Src\stm32f4xx_hal_flash_ramfunc.c 0x00000000   Number         0  stm32f4xx_hal_flash_ramfunc.o ABSOLUTE
    ..\Drivers\STM32F4xx_HAL_Driver\Src\stm32f4xx_hal_gpio.c 0x00000000   Number         0  stm32f4xx_hal_gpio.o ABSOLUTE
    ..\Drivers\STM32F4xx_HAL_Driver\Src\stm32f4xx_hal_i2c.c 0x00000000   Number         0  stm32f4xx_hal_i2c.o ABSOLUTE
    ..\Drivers\STM32F4xx_HAL_Driver\Src\stm32f4xx_hal_i2c_ex.c 0x00000000   Number         0  stm32f4xx_hal_i2c_ex.o ABSOLUTE
    ..\Drivers\STM32F4xx_HAL_Driver\Src\stm32f4xx_hal_pcd.c 0x00000000   Number         0  stm32f4xx_hal_pcd.o ABSOLUTE
    ..\Drivers\STM32F4xx_HAL_Driver\Src\stm32f4xx_hal_pcd_ex.c 0x00000000   Number         0  stm32f4xx_hal_pcd_ex.o ABSOLUTE
    ..\Drivers\STM32F4xx_HAL_Driver\Src\stm32f4xx_hal_pwr.c 0x00000000   Number         0  stm32f4xx_hal_pwr.o ABSOLUTE
    ..\Drivers\STM32F4xx_HAL_Driver\Src\stm32f4xx_hal_pwr_ex.c 0x00000000   Number         0  stm32f4xx_hal_pwr_ex.o ABSOLUTE
    ..\Drivers\STM32F4xx_HAL_Driver\Src\stm32f4xx_hal_rcc.c 0x00000000   Number         0  stm32f4xx_hal_rcc.o ABSOLUTE
    ..\Drivers\STM32F4xx_HAL_Driver\Src\stm32f4xx_hal_rcc_ex.c 0x00000000   Number         0  stm32f4xx_hal_rcc_ex.o ABSOLUTE
    ..\Drivers\STM32F4xx_HAL_Driver\Src\stm32f4xx_hal_tim.c 0x00000000   Number         0  stm32f4xx_hal_tim.o ABSOLUTE
    ..\Drivers\STM32F4xx_HAL_Driver\Src\stm32f4xx_hal_tim_ex.c 0x00000000   Number         0  stm32f4xx_hal_tim_ex.o ABSOLUTE
    ..\Drivers\STM32F4xx_HAL_Driver\Src\stm32f4xx_hal_uart.c 0x00000000   Number         0  stm32f4xx_hal_uart.o ABSOLUTE
    ..\Drivers\STM32F4xx_HAL_Driver\Src\stm32f4xx_ll_usb.c 0x00000000   Number         0  stm32f4xx_ll_usb.o ABSOLUTE
    ..\Math\filter.c                         0x00000000   Number         0  filter.o ABSOLUTE
    ..\Math\myMath.c                         0x00000000   Number         0  mymath.o ABSOLUTE
    ..\Math\my_queue.c                       0x00000000   Number         0  my_queue.o ABSOLUTE
    ..\Math\pid.c                            0x00000000   Number         0  pid.o ABSOLUTE
    ..\Middlewares\ST\STM32_USB_Device_Library\Class\CDC\Src\usbd_cdc.c 0x00000000   Number         0  usbd_cdc.o ABSOLUTE
    ..\Middlewares\ST\STM32_USB_Device_Library\Core\Src\usbd_core.c 0x00000000   Number         0  usbd_core.o ABSOLUTE
    ..\Middlewares\ST\STM32_USB_Device_Library\Core\Src\usbd_ctlreq.c 0x00000000   Number         0  usbd_ctlreq.o ABSOLUTE
    ..\Middlewares\ST\STM32_USB_Device_Library\Core\Src\usbd_ioreq.c 0x00000000   Number         0  usbd_ioreq.o ABSOLUTE
    ..\Module\Ano_OF.c                       0x00000000   Number         0  ano_of.o ABSOLUTE
    ..\Module\HARDWARE_i2c.c                 0x00000000   Number         0  hardware_i2c.o ABSOLUTE
    ..\Module\HARDWARE_uart.c                0x00000000   Number         0  hardware_uart.o ABSOLUTE
    ..\Module\LED.c                          0x00000000   Number         0  led.o ABSOLUTE
    ..\Module\ZKHD_Link.c                    0x00000000   Number         0  zkhd_link.o ABSOLUTE
    ..\Module\beep.c                         0x00000000   Number         0  beep.o ABSOLUTE
    ..\Module\gcs.c                          0x00000000   Number         0  gcs.o ABSOLUTE
    ..\Module\imu.c                          0x00000000   Number         0  imu.o ABSOLUTE
    ..\Module\lcd.c                          0x00000000   Number         0  lcd.o ABSOLUTE
    ..\Module\lcd_init.c                     0x00000000   Number         0  lcd_init.o ABSOLUTE
    ..\Module\lcd_status.c                   0x00000000   Number         0  lcd_status.o ABSOLUTE
    ..\Module\motor.c                        0x00000000   Number         0  motor.o ABSOLUTE
    ..\Module\mpu6050.c                      0x00000000   Number         0  mpu6050.o ABSOLUTE
    ..\Module\power.c                        0x00000000   Number         0  power.o ABSOLUTE
    ..\Module\server.c                       0x00000000   Number         0  server.o ABSOLUTE
    ..\Module\speed_estimator.c              0x00000000   Number         0  speed_estimator.o ABSOLUTE
    ..\Module\system.c                       0x00000000   Number         0  system.o ABSOLUTE
    ..\Src\dma.c                             0x00000000   Number         0  dma.o ABSOLUTE
    ..\Src\gpio.c                            0x00000000   Number         0  gpio.o ABSOLUTE
    ..\Src\i2c.c                             0x00000000   Number         0  i2c.o ABSOLUTE
    ..\Src\main.c                            0x00000000   Number         0  main.o ABSOLUTE
    ..\Src\status.c                          0x00000000   Number         0  status.o ABSOLUTE
    ..\Src\stm32f4xx_hal_msp.c               0x00000000   Number         0  stm32f4xx_hal_msp.o ABSOLUTE
    ..\Src\stm32f4xx_it.c                    0x00000000   Number         0  stm32f4xx_it.o ABSOLUTE
    ..\Src\system_stm32f4xx.c                0x00000000   Number         0  system_stm32f4xx.o ABSOLUTE
    ..\Src\tim.c                             0x00000000   Number         0  tim.o ABSOLUTE
    ..\Src\usart.c                           0x00000000   Number         0  usart.o ABSOLUTE
    ..\Src\usb_device.c                      0x00000000   Number         0  usb_device.o ABSOLUTE
    ..\Src\usbd_cdc_if.c                     0x00000000   Number         0  usbd_cdc_if.o ABSOLUTE
    ..\Src\usbd_conf.c                       0x00000000   Number         0  usbd_conf.o ABSOLUTE
    ..\Src\usbd_desc.c                       0x00000000   Number         0  usbd_desc.o ABSOLUTE
    ..\\Control\\FollowLine_eg2.c            0x00000000   Number         0  followline_eg2.o ABSOLUTE
    ..\\Control\\Init.c                      0x00000000   Number         0  init.o ABSOLUTE
    ..\\Control\\SDK.c                       0x00000000   Number         0  sdk.o ABSOLUTE
    ..\\Control\\control.c                   0x00000000   Number         0  control.o ABSOLUTE
    ..\\Control\\height_control.c            0x00000000   Number         0  height_control.o ABSOLUTE
    ..\\Control\\pos_ctrl.c                  0x00000000   Number         0  pos_ctrl.o ABSOLUTE
    ..\\Control\\remote.c                    0x00000000   Number         0  remote.o ABSOLUTE
    ..\\Math\\filter.c                       0x00000000   Number         0  filter.o ABSOLUTE
    ..\\Math\\myMath.c                       0x00000000   Number         0  mymath.o ABSOLUTE
    ..\\Math\\pid.c                          0x00000000   Number         0  pid.o ABSOLUTE
    ..\\Module\\Ano_OF.c                     0x00000000   Number         0  ano_of.o ABSOLUTE
    ..\\Module\\HARDWARE_i2c.c               0x00000000   Number         0  hardware_i2c.o ABSOLUTE
    ..\\Module\\HARDWARE_uart.c              0x00000000   Number         0  hardware_uart.o ABSOLUTE
    ..\\Module\\LED.c                        0x00000000   Number         0  led.o ABSOLUTE
    ..\\Module\\ZKHD_Link.c                  0x00000000   Number         0  zkhd_link.o ABSOLUTE
    ..\\Module\\beep.c                       0x00000000   Number         0  beep.o ABSOLUTE
    ..\\Module\\gcs.c                        0x00000000   Number         0  gcs.o ABSOLUTE
    ..\\Module\\imu.c                        0x00000000   Number         0  imu.o ABSOLUTE
    ..\\Module\\lcd.c                        0x00000000   Number         0  lcd.o ABSOLUTE
    ..\\Module\\lcd_init.c                   0x00000000   Number         0  lcd_init.o ABSOLUTE
    ..\\Module\\lcd_status.c                 0x00000000   Number         0  lcd_status.o ABSOLUTE
    ..\\Module\\motor.c                      0x00000000   Number         0  motor.o ABSOLUTE
    ..\\Module\\mpu6050.c                    0x00000000   Number         0  mpu6050.o ABSOLUTE
    ..\\Module\\power.c                      0x00000000   Number         0  power.o ABSOLUTE
    ..\\Module\\server.c                     0x00000000   Number         0  server.o ABSOLUTE
    ..\\Module\\speed_estimator.c            0x00000000   Number         0  speed_estimator.o ABSOLUTE
    ..\\Module\\system.c                     0x00000000   Number         0  system.o ABSOLUTE
    ..\\Src\\status.c                        0x00000000   Number         0  status.o ABSOLUTE
    cdcmple.s                                0x00000000   Number         0  cdcmple.o ABSOLUTE
    dc.s                                     0x00000000   Number         0  dc.o ABSOLUTE
    handlers.s                               0x00000000   Number         0  handlers.o ABSOLUTE
    init.s                                   0x00000000   Number         0  init.o ABSOLUTE
    startup_stm32f407xx.s                    0x00000000   Number         0  startup_stm32f407xx.o ABSOLUTE
    RESET                                    0x08000000   Section      392  startup_stm32f407xx.o(RESET)
    .ARM.Collect$$$$00000000                 0x08000188   Section        0  entry.o(.ARM.Collect$$$$00000000)
    .ARM.Collect$$$$00000001                 0x08000188   Section        4  entry2.o(.ARM.Collect$$$$00000001)
    .ARM.Collect$$$$00000004                 0x0800018c   Section        4  entry5.o(.ARM.Collect$$$$00000004)
    .ARM.Collect$$$$00000008                 0x08000190   Section        0  entry7b.o(.ARM.Collect$$$$00000008)
    .ARM.Collect$$$$0000000A                 0x08000190   Section        0  entry8b.o(.ARM.Collect$$$$0000000A)
    .ARM.Collect$$$$0000000B                 0x08000190   Section        8  entry9a.o(.ARM.Collect$$$$0000000B)
    .ARM.Collect$$$$0000000D                 0x08000198   Section        0  entry10a.o(.ARM.Collect$$$$0000000D)
    .ARM.Collect$$$$0000000F                 0x08000198   Section        0  entry11a.o(.ARM.Collect$$$$0000000F)
    .ARM.Collect$$$$00002712                 0x08000198   Section        4  entry2.o(.ARM.Collect$$$$00002712)
    __lit__00000000                          0x08000198   Data           4  entry2.o(.ARM.Collect$$$$00002712)
    .text                                    0x0800019c   Section       36  startup_stm32f407xx.o(.text)
    $v0                                      0x0800019c   Number         0  startup_stm32f407xx.o(.text)
    .text                                    0x080001c0   Section        0  uldiv.o(.text)
    .text                                    0x08000222   Section        0  memmovea.o(.text)
    .text                                    0x08000262   Section        0  memseta.o(.text)
    .text                                    0x08000286   Section        0  dadd.o(.text)
    .text                                    0x080003d4   Section        0  dmul.o(.text)
    .text                                    0x080004b8   Section        0  dfltui.o(.text)
    .text                                    0x080004d2   Section        0  dfixui.o(.text)
    .text                                    0x08000504   Section        0  f2d.o(.text)
    .text                                    0x0800052a   Section        0  d2f.o(.text)
    .text                                    0x08000562   Section        0  llshl.o(.text)
    .text                                    0x08000580   Section        0  llushr.o(.text)
    .text                                    0x080005a0   Section        0  llsshr.o(.text)
    .text                                    0x080005c4   Section        0  fepilogue.o(.text)
    .text                                    0x080005c4   Section        0  iusefp.o(.text)
    .text                                    0x08000632   Section        0  depilogue.o(.text)
    .text                                    0x080006ec   Section        0  ddiv.o(.text)
    .text                                    0x080007cc   Section       36  init.o(.text)
    .text                                    0x080007f0   Section        0  dsqrt.o(.text)
    .text                                    0x08000892   Section        0  __dczerorl2.o(.text)
    i.ALT_Ctrl                               0x080008e8   Section        0  height_control.o(i.ALT_Ctrl)
    i.ATT_Update                             0x08000b94   Section        0  imu.o(i.ATT_Update)
    i.ActionHoldPoint                        0x08000ed8   Section        0  followline_eg2.o(i.ActionHoldPoint)
    i.AnalyRC                                0x08000f04   Section        0  remote.o(i.AnalyRC)
    i.AnoOF_Check                            0x08001120   Section        0  ano_of.o(i.AnoOF_Check)
    AnoOF_Check                              0x08001121   Thumb Code    86  ano_of.o(i.AnoOF_Check)
    i.AnoOF_DataAnl                          0x08001180   Section        0  ano_of.o(i.AnoOF_DataAnl)
    i.AnoOF_GetOneByte                       0x08001240   Section        0  ano_of.o(i.AnoOF_GetOneByte)
    i.AnoOF_State_Get                        0x080012e4   Section        0  ano_of.o(i.AnoOF_State_Get)
    AnoOF_State_Get                          0x080012e5   Thumb Code    28  ano_of.o(i.AnoOF_State_Get)
    i.AnoOF_State_Task                       0x08001304   Section        0  ano_of.o(i.AnoOF_State_Task)
    i.BusFault_Handler                       0x0800130e   Section        0  stm32f4xx_it.o(i.BusFault_Handler)
    i.CDC_Control_FS                         0x08001310   Section        0  usbd_cdc_if.o(i.CDC_Control_FS)
    CDC_Control_FS                           0x08001311   Thumb Code     4  usbd_cdc_if.o(i.CDC_Control_FS)
    i.CDC_DeInit_FS                          0x08001314   Section        0  usbd_cdc_if.o(i.CDC_DeInit_FS)
    CDC_DeInit_FS                            0x08001315   Thumb Code     4  usbd_cdc_if.o(i.CDC_DeInit_FS)
    i.CDC_Init_FS                            0x08001318   Section        0  usbd_cdc_if.o(i.CDC_Init_FS)
    CDC_Init_FS                              0x08001319   Thumb Code    24  usbd_cdc_if.o(i.CDC_Init_FS)
    i.CDC_Receive_FS                         0x0800133c   Section        0  usbd_cdc_if.o(i.CDC_Receive_FS)
    CDC_Receive_FS                           0x0800133d   Thumb Code    20  usbd_cdc_if.o(i.CDC_Receive_FS)
    i.ClacCascadePID                         0x08001354   Section        0  pid.o(i.ClacCascadePID)
    i.DMA1_Stream0_IRQHandler                0x08001378   Section        0  stm32f4xx_it.o(i.DMA1_Stream0_IRQHandler)
    i.DMA1_Stream1_IRQHandler                0x08001384   Section        0  stm32f4xx_it.o(i.DMA1_Stream1_IRQHandler)
    i.DMA1_Stream2_IRQHandler                0x08001390   Section        0  stm32f4xx_it.o(i.DMA1_Stream2_IRQHandler)
    i.DMA1_Stream3_IRQHandler                0x0800139c   Section        0  stm32f4xx_it.o(i.DMA1_Stream3_IRQHandler)
    i.DMA1_Stream4_IRQHandler                0x080013b8   Section        0  stm32f4xx_it.o(i.DMA1_Stream4_IRQHandler)
    i.DMA1_Stream5_IRQHandler                0x080013d4   Section        0  stm32f4xx_it.o(i.DMA1_Stream5_IRQHandler)
    i.DMA1_Stream6_IRQHandler                0x080013e0   Section        0  stm32f4xx_it.o(i.DMA1_Stream6_IRQHandler)
    i.DMA1_Stream7_IRQHandler                0x080013fc   Section        0  stm32f4xx_it.o(i.DMA1_Stream7_IRQHandler)
    i.DMA2_Stream1_IRQHandler                0x08001418   Section        0  stm32f4xx_it.o(i.DMA2_Stream1_IRQHandler)
    i.DMA2_Stream2_IRQHandler                0x08001424   Section        0  stm32f4xx_it.o(i.DMA2_Stream2_IRQHandler)
    i.DMA2_Stream6_IRQHandler                0x08001430   Section        0  stm32f4xx_it.o(i.DMA2_Stream6_IRQHandler)
    i.DMA_CalcBaseAndBitshift                0x0800144c   Section        0  stm32f4xx_hal_dma.o(i.DMA_CalcBaseAndBitshift)
    DMA_CalcBaseAndBitshift                  0x0800144d   Thumb Code    34  stm32f4xx_hal_dma.o(i.DMA_CalcBaseAndBitshift)
    i.DMA_CheckFifoParam                     0x08001474   Section        0  stm32f4xx_hal_dma.o(i.DMA_CheckFifoParam)
    DMA_CheckFifoParam                       0x08001475   Thumb Code    84  stm32f4xx_hal_dma.o(i.DMA_CheckFifoParam)
    i.DMA_SetConfig                          0x080014c8   Section        0  stm32f4xx_hal_dma.o(i.DMA_SetConfig)
    DMA_SetConfig                            0x080014c9   Thumb Code    40  stm32f4xx_hal_dma.o(i.DMA_SetConfig)
    i.DebugMon_Handler                       0x080014f0   Section        0  stm32f4xx_it.o(i.DebugMon_Handler)
    i.Error_Handler                          0x080014f2   Section        0  main.o(i.Error_Handler)
    i.FlightPidControl                       0x080014f4   Section        0  control.o(i.FlightPidControl)
    i.Follow_Init                            0x0800168c   Section        0  followline_eg2.o(i.Follow_Init)
    i.GetAngle                               0x08001738   Section        0  imu.o(i.GetAngle)
    i.GetMPU6050Data                         0x080017dc   Section        0  mpu6050.o(i.GetMPU6050Data)
    i.GetMPU6050Offset                       0x0800187c   Section        0  mpu6050.o(i.GetMPU6050Offset)
    i.HAL_DMA_Abort                          0x080019dc   Section        0  stm32f4xx_hal_dma.o(i.HAL_DMA_Abort)
    i.HAL_DMA_Abort_IT                       0x08001a6a   Section        0  stm32f4xx_hal_dma.o(i.HAL_DMA_Abort_IT)
    i.HAL_DMA_IRQHandler                     0x08001a90   Section        0  stm32f4xx_hal_dma.o(i.HAL_DMA_IRQHandler)
    i.HAL_DMA_Init                           0x08001c30   Section        0  stm32f4xx_hal_dma.o(i.HAL_DMA_Init)
    i.HAL_DMA_Start_IT                       0x08001d04   Section        0  stm32f4xx_hal_dma.o(i.HAL_DMA_Start_IT)
    i.HAL_Delay                              0x08001d7c   Section        0  stm32f4xx_hal.o(i.HAL_Delay)
    i.HAL_GPIO_Init                          0x08001da0   Section        0  stm32f4xx_hal_gpio.o(i.HAL_GPIO_Init)
    i.HAL_GPIO_TogglePin                     0x08001f50   Section        0  stm32f4xx_hal_gpio.o(i.HAL_GPIO_TogglePin)
    i.HAL_GPIO_WritePin                      0x08001f5e   Section        0  stm32f4xx_hal_gpio.o(i.HAL_GPIO_WritePin)
    i.HAL_GetTick                            0x08001f68   Section        0  stm32f4xx_hal.o(i.HAL_GetTick)
    i.HAL_I2C_Init                           0x08001f74   Section        0  stm32f4xx_hal_i2c.o(i.HAL_I2C_Init)
    i.HAL_I2C_MspInit                        0x080020e8   Section        0  i2c.o(i.HAL_I2C_MspInit)
    i.HAL_IncTick                            0x08002170   Section        0  stm32f4xx_hal.o(i.HAL_IncTick)
    i.HAL_Init                               0x08002180   Section        0  stm32f4xx_hal.o(i.HAL_Init)
    i.HAL_InitTick                           0x080021b4   Section        0  stm32f4xx_hal.o(i.HAL_InitTick)
    i.HAL_MspInit                            0x080021f4   Section        0  stm32f4xx_hal_msp.o(i.HAL_MspInit)
    i.HAL_NVIC_EnableIRQ                     0x08002224   Section        0  stm32f4xx_hal_cortex.o(i.HAL_NVIC_EnableIRQ)
    i.HAL_NVIC_SetPriority                   0x08002240   Section        0  stm32f4xx_hal_cortex.o(i.HAL_NVIC_SetPriority)
    i.HAL_NVIC_SetPriorityGrouping           0x08002280   Section        0  stm32f4xx_hal_cortex.o(i.HAL_NVIC_SetPriorityGrouping)
    i.HAL_PCDEx_LPM_Callback                 0x080022a4   Section        0  stm32f4xx_hal_pcd_ex.o(i.HAL_PCDEx_LPM_Callback)
    i.HAL_PCDEx_SetRxFiFo                    0x080022a6   Section        0  stm32f4xx_hal_pcd_ex.o(i.HAL_PCDEx_SetRxFiFo)
    i.HAL_PCDEx_SetTxFiFo                    0x080022ae   Section        0  stm32f4xx_hal_pcd_ex.o(i.HAL_PCDEx_SetTxFiFo)
    i.HAL_PCD_ConnectCallback                0x080022f2   Section        0  usbd_conf.o(i.HAL_PCD_ConnectCallback)
    i.HAL_PCD_DataInStageCallback            0x080022fa   Section        0  usbd_conf.o(i.HAL_PCD_DataInStageCallback)
    i.HAL_PCD_DataOutStageCallback           0x0800230c   Section        0  usbd_conf.o(i.HAL_PCD_DataOutStageCallback)
    i.HAL_PCD_DisconnectCallback             0x08002320   Section        0  usbd_conf.o(i.HAL_PCD_DisconnectCallback)
    i.HAL_PCD_EP_Close                       0x08002328   Section        0  stm32f4xx_hal_pcd.o(i.HAL_PCD_EP_Close)
    i.HAL_PCD_EP_ClrStall                    0x08002374   Section        0  stm32f4xx_hal_pcd.o(i.HAL_PCD_EP_ClrStall)
    i.HAL_PCD_EP_GetRxCount                  0x080023d0   Section        0  stm32f4xx_hal_pcd.o(i.HAL_PCD_EP_GetRxCount)
    i.HAL_PCD_EP_Open                        0x080023e2   Section        0  stm32f4xx_hal_pcd.o(i.HAL_PCD_EP_Open)
    i.HAL_PCD_EP_Receive                     0x08002442   Section        0  stm32f4xx_hal_pcd.o(i.HAL_PCD_EP_Receive)
    i.HAL_PCD_EP_SetStall                    0x0800248a   Section        0  stm32f4xx_hal_pcd.o(i.HAL_PCD_EP_SetStall)
    i.HAL_PCD_EP_Transmit                    0x080024fe   Section        0  stm32f4xx_hal_pcd.o(i.HAL_PCD_EP_Transmit)
    i.HAL_PCD_IRQHandler                     0x08002540   Section        0  stm32f4xx_hal_pcd.o(i.HAL_PCD_IRQHandler)
    i.HAL_PCD_ISOINIncompleteCallback        0x080029a4   Section        0  usbd_conf.o(i.HAL_PCD_ISOINIncompleteCallback)
    i.HAL_PCD_ISOOUTIncompleteCallback       0x080029ac   Section        0  usbd_conf.o(i.HAL_PCD_ISOOUTIncompleteCallback)
    i.HAL_PCD_Init                           0x080029b4   Section        0  stm32f4xx_hal_pcd.o(i.HAL_PCD_Init)
    i.HAL_PCD_MspInit                        0x08002a98   Section        0  usbd_conf.o(i.HAL_PCD_MspInit)
    i.HAL_PCD_ResetCallback                  0x08002b1c   Section        0  usbd_conf.o(i.HAL_PCD_ResetCallback)
    i.HAL_PCD_ResumeCallback                 0x08002b48   Section        0  usbd_conf.o(i.HAL_PCD_ResumeCallback)
    i.HAL_PCD_SOFCallback                    0x08002b50   Section        0  usbd_conf.o(i.HAL_PCD_SOFCallback)
    i.HAL_PCD_SetAddress                     0x08002b58   Section        0  stm32f4xx_hal_pcd.o(i.HAL_PCD_SetAddress)
    i.HAL_PCD_SetupStageCallback             0x08002b80   Section        0  usbd_conf.o(i.HAL_PCD_SetupStageCallback)
    i.HAL_PCD_Start                          0x08002b8e   Section        0  stm32f4xx_hal_pcd.o(i.HAL_PCD_Start)
    i.HAL_PCD_SuspendCallback                0x08002bd0   Section        0  usbd_conf.o(i.HAL_PCD_SuspendCallback)
    i.HAL_RCC_ClockConfig                    0x08002c00   Section        0  stm32f4xx_hal_rcc.o(i.HAL_RCC_ClockConfig)
    i.HAL_RCC_GetHCLKFreq                    0x08002d30   Section        0  stm32f4xx_hal_rcc.o(i.HAL_RCC_GetHCLKFreq)
    i.HAL_RCC_GetPCLK1Freq                   0x08002d3c   Section        0  stm32f4xx_hal_rcc.o(i.HAL_RCC_GetPCLK1Freq)
    i.HAL_RCC_GetPCLK2Freq                   0x08002d5c   Section        0  stm32f4xx_hal_rcc.o(i.HAL_RCC_GetPCLK2Freq)
    i.HAL_RCC_GetSysClockFreq                0x08002d7c   Section        0  stm32f4xx_hal_rcc.o(i.HAL_RCC_GetSysClockFreq)
    i.HAL_RCC_OscConfig                      0x08002de0   Section        0  stm32f4xx_hal_rcc.o(i.HAL_RCC_OscConfig)
    i.HAL_SYSTICK_Config                     0x080030fc   Section        0  stm32f4xx_hal_cortex.o(i.HAL_SYSTICK_Config)
    i.HAL_TIMEx_BreakCallback                0x08003124   Section        0  stm32f4xx_hal_tim_ex.o(i.HAL_TIMEx_BreakCallback)
    i.HAL_TIMEx_CommutCallback               0x08003126   Section        0  stm32f4xx_hal_tim_ex.o(i.HAL_TIMEx_CommutCallback)
    i.HAL_TIMEx_ConfigBreakDeadTime          0x08003128   Section        0  stm32f4xx_hal_tim_ex.o(i.HAL_TIMEx_ConfigBreakDeadTime)
    i.HAL_TIMEx_MasterConfigSynchronization  0x0800317c   Section        0  stm32f4xx_hal_tim_ex.o(i.HAL_TIMEx_MasterConfigSynchronization)
    i.HAL_TIM_Base_Init                      0x080031be   Section        0  stm32f4xx_hal_tim.o(i.HAL_TIM_Base_Init)
    i.HAL_TIM_Base_MspInit                   0x080031f4   Section        0  tim.o(i.HAL_TIM_Base_MspInit)
    i.HAL_TIM_Base_Start_IT                  0x08003258   Section        0  stm32f4xx_hal_tim.o(i.HAL_TIM_Base_Start_IT)
    i.HAL_TIM_ConfigClockSource              0x0800327a   Section        0  stm32f4xx_hal_tim.o(i.HAL_TIM_ConfigClockSource)
    i.HAL_TIM_IC_CaptureCallback             0x08003350   Section        0  stm32f4xx_hal_tim.o(i.HAL_TIM_IC_CaptureCallback)
    i.HAL_TIM_IRQHandler                     0x08003352   Section        0  stm32f4xx_hal_tim.o(i.HAL_TIM_IRQHandler)
    i.HAL_TIM_MspPostInit                    0x080034b8   Section        0  tim.o(i.HAL_TIM_MspPostInit)
    i.HAL_TIM_OC_DelayElapsedCallback        0x0800355c   Section        0  stm32f4xx_hal_tim.o(i.HAL_TIM_OC_DelayElapsedCallback)
    i.HAL_TIM_PWM_ConfigChannel              0x0800355e   Section        0  stm32f4xx_hal_tim.o(i.HAL_TIM_PWM_ConfigChannel)
    i.HAL_TIM_PWM_Init                       0x0800362e   Section        0  stm32f4xx_hal_tim.o(i.HAL_TIM_PWM_Init)
    i.HAL_TIM_PWM_MspInit                    0x08003664   Section        0  tim.o(i.HAL_TIM_PWM_MspInit)
    i.HAL_TIM_PWM_PulseFinishedCallback      0x08003698   Section        0  stm32f4xx_hal_tim.o(i.HAL_TIM_PWM_PulseFinishedCallback)
    i.HAL_TIM_PWM_Start                      0x0800369c   Section        0  stm32f4xx_hal_tim.o(i.HAL_TIM_PWM_Start)
    i.HAL_TIM_PeriodElapsedCallback          0x080036e0   Section        0  stm32f4xx_hal_tim.o(i.HAL_TIM_PeriodElapsedCallback)
    i.HAL_TIM_TriggerCallback                0x080036e2   Section        0  stm32f4xx_hal_tim.o(i.HAL_TIM_TriggerCallback)
    i.HAL_UART_DMAStop                       0x080036e4   Section        0  stm32f4xx_hal_uart.o(i.HAL_UART_DMAStop)
    i.HAL_UART_ErrorCallback                 0x0800373c   Section        0  stm32f4xx_hal_uart.o(i.HAL_UART_ErrorCallback)
    i.HAL_UART_IRQHandler                    0x08003740   Section        0  stm32f4xx_hal_uart.o(i.HAL_UART_IRQHandler)
    i.HAL_UART_Init                          0x08003850   Section        0  stm32f4xx_hal_uart.o(i.HAL_UART_Init)
    i.HAL_UART_MspInit                       0x080038b4   Section        0  usart.o(i.HAL_UART_MspInit)
    i.HAL_UART_Receive_DMA                   0x08003d7c   Section        0  stm32f4xx_hal_uart.o(i.HAL_UART_Receive_DMA)
    i.HAL_UART_RxCpltCallback                0x08003e14   Section        0  hardware_uart.o(i.HAL_UART_RxCpltCallback)
    i.HAL_UART_RxHalfCpltCallback            0x08003e16   Section        0  stm32f4xx_hal_uart.o(i.HAL_UART_RxHalfCpltCallback)
    i.HAL_UART_Transmit                      0x08003e18   Section        0  stm32f4xx_hal_uart.o(i.HAL_UART_Transmit)
    i.HAL_UART_Transmit_DMA                  0x08003ed4   Section        0  stm32f4xx_hal_uart.o(i.HAL_UART_Transmit_DMA)
    i.HAL_UART_TxCpltCallback                0x08003f54   Section        0  stm32f4xx_hal_uart.o(i.HAL_UART_TxCpltCallback)
    i.HAL_UART_TxHalfCpltCallback            0x08003f56   Section        0  stm32f4xx_hal_uart.o(i.HAL_UART_TxHalfCpltCallback)
    i.Hadrware_Init                          0x08003f58   Section        0  init.o(i.Hadrware_Init)
    i.HardFault_Handler                      0x08003fb0   Section        0  stm32f4xx_it.o(i.HardFault_Handler)
    i.I2C_Init                               0x08003fb4   Section        0  hardware_i2c.o(i.I2C_Init)
    i.I2C_Read_Byte                          0x08003fdc   Section        0  hardware_i2c.o(i.I2C_Read_Byte)
    i.I2C_Write_Byte                         0x0800401c   Section        0  hardware_i2c.o(i.I2C_Write_Byte)
    i.IIC_RecvACK                            0x08004050   Section        0  hardware_i2c.o(i.IIC_RecvACK)
    i.IIC_RecvByte                           0x080040a4   Section        0  hardware_i2c.o(i.IIC_RecvByte)
    i.IIC_SendACK                            0x080040f0   Section        0  hardware_i2c.o(i.IIC_SendACK)
    i.IIC_SendByte                           0x08004150   Section        0  hardware_i2c.o(i.IIC_SendByte)
    i.IIC_Start                              0x080041b0   Section        0  hardware_i2c.o(i.IIC_Start)
    i.IIC_Stop                               0x080041fc   Section        0  hardware_i2c.o(i.IIC_Stop)
    i.IMU_Reset                              0x08004240   Section        0  imu.o(i.IMU_Reset)
    i.IntToUnicode                           0x08004264   Section        0  usbd_desc.o(i.IntToUnicode)
    IntToUnicode                             0x08004265   Thumb Code    56  usbd_desc.o(i.IntToUnicode)
    i.KernelPolling                          0x0800429c   Section        0  system.o(i.KernelPolling)
    i.LCD_Address_Set                        0x080043a8   Section        0  lcd_init.o(i.LCD_Address_Set)
    i.LCD_DrawPoint                          0x080043ea   Section        0  lcd.o(i.LCD_DrawPoint)
    i.LCD_Fill                               0x08004400   Section        0  lcd.o(i.LCD_Fill)
    i.LCD_Init                               0x08004440   Section        0  lcd_init.o(i.LCD_Init)
    i.LCD_ShowChar                           0x08004694   Section        0  lcd.o(i.LCD_ShowChar)
    i.LCD_ShowIntNum                         0x080047a0   Section        0  lcd.o(i.LCD_ShowIntNum)
    i.LCD_ShowString                         0x08004820   Section        0  lcd.o(i.LCD_ShowString)
    i.LCD_WR_DATA                            0x0800485a   Section        0  lcd_init.o(i.LCD_WR_DATA)
    i.LCD_WR_REG                             0x08004870   Section        0  lcd_init.o(i.LCD_WR_REG)
    i.LCD_Writ_Bus                           0x08004898   Section        0  lcd_init.o(i.LCD_Writ_Bus)
    i.LEDInit                                0x080048f0   Section        0  led.o(i.LEDInit)
    i.MPU6050Init                            0x08004908   Section        0  mpu6050.o(i.MPU6050Init)
    i.MX_DMA_Init                            0x080049b4   Section        0  dma.o(i.MX_DMA_Init)
    i.MX_GPIO_Init                           0x08004a80   Section        0  gpio.o(i.MX_GPIO_Init)
    i.MX_I2C3_Init                           0x08004c08   Section        0  i2c.o(i.MX_I2C3_Init)
    i.MX_TIM1_Init                           0x08004c48   Section        0  tim.o(i.MX_TIM1_Init)
    i.MX_TIM2_Init                           0x08004d1c   Section        0  tim.o(i.MX_TIM2_Init)
    i.MX_TIM3_Init                           0x08004da4   Section        0  tim.o(i.MX_TIM3_Init)
    i.MX_TIM4_Init                           0x08004e0c   Section        0  tim.o(i.MX_TIM4_Init)
    i.MX_UART4_Init                          0x08004e74   Section        0  usart.o(i.MX_UART4_Init)
    i.MX_UART5_Init                          0x08004eac   Section        0  usart.o(i.MX_UART5_Init)
    i.MX_USART1_UART_Init                    0x08004ee4   Section        0  usart.o(i.MX_USART1_UART_Init)
    i.MX_USART2_UART_Init                    0x08004f28   Section        0  usart.o(i.MX_USART2_UART_Init)
    i.MX_USART3_UART_Init                    0x08004f60   Section        0  usart.o(i.MX_USART3_UART_Init)
    i.MX_USART6_UART_Init                    0x08004f98   Section        0  usart.o(i.MX_USART6_UART_Init)
    i.MX_USB_DEVICE_Init                     0x08004fd0   Section        0  usb_device.o(i.MX_USB_DEVICE_Init)
    i.MemManage_Handler                      0x08005024   Section        0  stm32f4xx_it.o(i.MemManage_Handler)
    i.MotorControl                           0x08005028   Section        0  control.o(i.MotorControl)
    i.Motor_Init                             0x08005250   Section        0  motor.o(i.Motor_Init)
    i.NMI_Handler                            0x0800527c   Section        0  stm32f4xx_it.o(i.NMI_Handler)
    i.OTG_FS_IRQHandler                      0x08005280   Section        0  stm32f4xx_it.o(i.OTG_FS_IRQHandler)
    i.PCD_EP_OutXfrComplete_int              0x0800528c   Section        0  stm32f4xx_hal_pcd.o(i.PCD_EP_OutXfrComplete_int)
    PCD_EP_OutXfrComplete_int                0x0800528d   Thumb Code   212  stm32f4xx_hal_pcd.o(i.PCD_EP_OutXfrComplete_int)
    i.PCD_WriteEmptyTxFifo                   0x08005368   Section        0  stm32f4xx_hal_pcd.o(i.PCD_WriteEmptyTxFifo)
    PCD_WriteEmptyTxFifo                     0x08005369   Thumb Code   162  stm32f4xx_hal_pcd.o(i.PCD_WriteEmptyTxFifo)
    i.PID_Init                               0x0800540c   Section        0  init.o(i.PID_Init)
    i.POS_Ctrl                               0x080054ac   Section        0  pos_ctrl.o(i.POS_Ctrl)
    i.PendSV_Handler                         0x080056e8   Section        0  stm32f4xx_it.o(i.PendSV_Handler)
    i.PollingGCS                             0x080056ec   Section        0  gcs.o(i.PollingGCS)
    i.PollingLED                             0x0800575c   Section        0  led.o(i.PollingLED)
    i.PollingUSART                           0x08005820   Section        0  hardware_uart.o(i.PollingUSART)
    i.Q_rsqrt                                0x08005878   Section        0  mymath.o(i.Q_rsqrt)
    i.RCReceiveHandle                        0x080058a4   Section        0  remote.o(i.RCReceiveHandle)
    i.RemotePolling                          0x080059a8   Section        0  remote.o(i.RemotePolling)
    i.RemoteUnlock                           0x080059dc   Section        0  remote.o(i.RemoteUnlock)
    i.Remote_init                            0x08005a94   Section        0  remote.o(i.Remote_init)
    i.ResetPID                               0x08005abc   Section        0  pid.o(i.ResetPID)
    i.SVC_Handler                            0x08005af8   Section        0  stm32f4xx_it.o(i.SVC_Handler)
    i.SysTick_Handler                        0x08005afc   Section        0  stm32f4xx_it.o(i.SysTick_Handler)
    i.SystemClock_Config                     0x08005b88   Section        0  main.o(i.SystemClock_Config)
    i.SystemInit                             0x08005c10   Section        0  system_stm32f4xx.o(i.SystemInit)
    i.TIM3_IRQHandler                        0x08005c64   Section        0  stm32f4xx_it.o(i.TIM3_IRQHandler)
    i.TIM4_IRQHandler                        0x08005c70   Section        0  stm32f4xx_it.o(i.TIM4_IRQHandler)
    i.TIM_Base_SetConfig                     0x08005c7c   Section        0  stm32f4xx_hal_tim.o(i.TIM_Base_SetConfig)
    i.TIM_CCxChannelCmd                      0x08005d44   Section        0  stm32f4xx_hal_tim.o(i.TIM_CCxChannelCmd)
    i.TIM_ETR_SetConfig                      0x08005d5e   Section        0  stm32f4xx_hal_tim.o(i.TIM_ETR_SetConfig)
    i.TIM_ITRx_SetConfig                     0x08005d72   Section        0  stm32f4xx_hal_tim.o(i.TIM_ITRx_SetConfig)
    TIM_ITRx_SetConfig                       0x08005d73   Thumb Code    16  stm32f4xx_hal_tim.o(i.TIM_ITRx_SetConfig)
    i.TIM_OC1_SetConfig                      0x08005d84   Section        0  stm32f4xx_hal_tim.o(i.TIM_OC1_SetConfig)
    TIM_OC1_SetConfig                        0x08005d85   Thumb Code    88  stm32f4xx_hal_tim.o(i.TIM_OC1_SetConfig)
    i.TIM_OC2_SetConfig                      0x08005de4   Section        0  stm32f4xx_hal_tim.o(i.TIM_OC2_SetConfig)
    i.TIM_OC3_SetConfig                      0x08005e50   Section        0  stm32f4xx_hal_tim.o(i.TIM_OC3_SetConfig)
    TIM_OC3_SetConfig                        0x08005e51   Thumb Code    96  stm32f4xx_hal_tim.o(i.TIM_OC3_SetConfig)
    i.TIM_OC4_SetConfig                      0x08005eb8   Section        0  stm32f4xx_hal_tim.o(i.TIM_OC4_SetConfig)
    TIM_OC4_SetConfig                        0x08005eb9   Thumb Code    70  stm32f4xx_hal_tim.o(i.TIM_OC4_SetConfig)
    i.TIM_TI1_ConfigInputStage               0x08005f08   Section        0  stm32f4xx_hal_tim.o(i.TIM_TI1_ConfigInputStage)
    TIM_TI1_ConfigInputStage                 0x08005f09   Thumb Code    34  stm32f4xx_hal_tim.o(i.TIM_TI1_ConfigInputStage)
    i.TIM_TI2_ConfigInputStage               0x08005f2a   Section        0  stm32f4xx_hal_tim.o(i.TIM_TI2_ConfigInputStage)
    TIM_TI2_ConfigInputStage                 0x08005f2b   Thumb Code    36  stm32f4xx_hal_tim.o(i.TIM_TI2_ConfigInputStage)
    i.Terrain_following                      0x08005f50   Section        0  speed_estimator.o(i.Terrain_following)
    i.UART4_IRQHandler                       0x08005fb8   Section        0  stm32f4xx_it.o(i.UART4_IRQHandler)
    i.UART5_IRQHandler                       0x08005fe8   Section        0  stm32f4xx_it.o(i.UART5_IRQHandler)
    i.UART_1_ReceiveHandle                   0x08006030   Section        0  hardware_uart.o(i.UART_1_ReceiveHandle)
    i.UART_2_ReceiveHandle                   0x08006054   Section        0  hardware_uart.o(i.UART_2_ReceiveHandle)
    i.UART_3_ReceiveHandle                   0x08006068   Section        0  hardware_uart.o(i.UART_3_ReceiveHandle)
    i.UART_4_ReceiveHandle                   0x0800606a   Section        0  hardware_uart.o(i.UART_4_ReceiveHandle)
    i.UART_5_ReceiveHandle                   0x0800606c   Section        0  hardware_uart.o(i.UART_5_ReceiveHandle)
    i.UART_6_ReceiveHandle                   0x0800606e   Section        0  hardware_uart.o(i.UART_6_ReceiveHandle)
    i.UART_DMAAbortOnError                   0x08006070   Section        0  stm32f4xx_hal_uart.o(i.UART_DMAAbortOnError)
    UART_DMAAbortOnError                     0x08006071   Thumb Code    16  stm32f4xx_hal_uart.o(i.UART_DMAAbortOnError)
    i.UART_DMAError                          0x08006080   Section        0  stm32f4xx_hal_uart.o(i.UART_DMAError)
    UART_DMAError                            0x08006081   Thumb Code    74  stm32f4xx_hal_uart.o(i.UART_DMAError)
    i.UART_DMAReceiveCplt                    0x080060ca   Section        0  stm32f4xx_hal_uart.o(i.UART_DMAReceiveCplt)
    UART_DMAReceiveCplt                      0x080060cb   Thumb Code    60  stm32f4xx_hal_uart.o(i.UART_DMAReceiveCplt)
    i.UART_DMARxHalfCplt                     0x08006106   Section        0  stm32f4xx_hal_uart.o(i.UART_DMARxHalfCplt)
    UART_DMARxHalfCplt                       0x08006107   Thumb Code    10  stm32f4xx_hal_uart.o(i.UART_DMARxHalfCplt)
    i.UART_DMATransmitCplt                   0x08006110   Section        0  stm32f4xx_hal_uart.o(i.UART_DMATransmitCplt)
    UART_DMATransmitCplt                     0x08006111   Thumb Code    46  stm32f4xx_hal_uart.o(i.UART_DMATransmitCplt)
    i.UART_DMATxHalfCplt                     0x0800613e   Section        0  stm32f4xx_hal_uart.o(i.UART_DMATxHalfCplt)
    UART_DMATxHalfCplt                       0x0800613f   Thumb Code    10  stm32f4xx_hal_uart.o(i.UART_DMATxHalfCplt)
    i.UART_EndRxTransfer                     0x08006148   Section        0  stm32f4xx_hal_uart.o(i.UART_EndRxTransfer)
    UART_EndRxTransfer                       0x08006149   Thumb Code    28  stm32f4xx_hal_uart.o(i.UART_EndRxTransfer)
    i.UART_EndTxTransfer                     0x08006164   Section        0  stm32f4xx_hal_uart.o(i.UART_EndTxTransfer)
    UART_EndTxTransfer                       0x08006165   Thumb Code    18  stm32f4xx_hal_uart.o(i.UART_EndTxTransfer)
    i.UART_Receive_IT                        0x08006176   Section        0  stm32f4xx_hal_uart.o(i.UART_Receive_IT)
    UART_Receive_IT                          0x08006177   Thumb Code   150  stm32f4xx_hal_uart.o(i.UART_Receive_IT)
    i.UART_SetConfig                         0x0800620c   Section        0  stm32f4xx_hal_uart.o(i.UART_SetConfig)
    UART_SetConfig                           0x0800620d   Thumb Code   676  stm32f4xx_hal_uart.o(i.UART_SetConfig)
    i.UART_Transmit_IT                       0x080064b8   Section        0  stm32f4xx_hal_uart.o(i.UART_Transmit_IT)
    UART_Transmit_IT                         0x080064b9   Thumb Code    98  stm32f4xx_hal_uart.o(i.UART_Transmit_IT)
    i.UART_WaitOnFlagUntilTimeout            0x0800651a   Section        0  stm32f4xx_hal_uart.o(i.UART_WaitOnFlagUntilTimeout)
    UART_WaitOnFlagUntilTimeout              0x0800651b   Thumb Code   100  stm32f4xx_hal_uart.o(i.UART_WaitOnFlagUntilTimeout)
    i.USART1_IRQHandler                      0x08006580   Section        0  stm32f4xx_it.o(i.USART1_IRQHandler)
    i.USART2_IRQHandler                      0x080065b0   Section        0  stm32f4xx_it.o(i.USART2_IRQHandler)
    i.USART3_IRQHandler                      0x080065e4   Section        0  stm32f4xx_it.o(i.USART3_IRQHandler)
    i.USART6_IRQHandler                      0x0800660c   Section        0  stm32f4xx_it.o(i.USART6_IRQHandler)
    i.USART_Init                             0x08006650   Section        0  hardware_uart.o(i.USART_Init)
    i.USBD_CDC_DataIn                        0x080069a8   Section        0  usbd_cdc.o(i.USBD_CDC_DataIn)
    USBD_CDC_DataIn                          0x080069a9   Thumb Code    74  usbd_cdc.o(i.USBD_CDC_DataIn)
    i.USBD_CDC_DataOut                       0x080069f2   Section        0  usbd_cdc.o(i.USBD_CDC_DataOut)
    USBD_CDC_DataOut                         0x080069f3   Thumb Code    46  usbd_cdc.o(i.USBD_CDC_DataOut)
    i.USBD_CDC_DeInit                        0x08006a20   Section        0  usbd_cdc.o(i.USBD_CDC_DeInit)
    USBD_CDC_DeInit                          0x08006a21   Thumb Code    68  usbd_cdc.o(i.USBD_CDC_DeInit)
    i.USBD_CDC_EP0_RxReady                   0x08006a64   Section        0  usbd_cdc.o(i.USBD_CDC_EP0_RxReady)
    USBD_CDC_EP0_RxReady                     0x08006a65   Thumb Code    36  usbd_cdc.o(i.USBD_CDC_EP0_RxReady)
    i.USBD_CDC_GetDeviceQualifierDescriptor  0x08006a88   Section        0  usbd_cdc.o(i.USBD_CDC_GetDeviceQualifierDescriptor)
    i.USBD_CDC_GetFSCfgDesc                  0x08006a94   Section        0  usbd_cdc.o(i.USBD_CDC_GetFSCfgDesc)
    USBD_CDC_GetFSCfgDesc                    0x08006a95   Thumb Code     8  usbd_cdc.o(i.USBD_CDC_GetFSCfgDesc)
    i.USBD_CDC_GetHSCfgDesc                  0x08006aa0   Section        0  usbd_cdc.o(i.USBD_CDC_GetHSCfgDesc)
    USBD_CDC_GetHSCfgDesc                    0x08006aa1   Thumb Code     8  usbd_cdc.o(i.USBD_CDC_GetHSCfgDesc)
    i.USBD_CDC_GetOtherSpeedCfgDesc          0x08006aac   Section        0  usbd_cdc.o(i.USBD_CDC_GetOtherSpeedCfgDesc)
    USBD_CDC_GetOtherSpeedCfgDesc            0x08006aad   Thumb Code     8  usbd_cdc.o(i.USBD_CDC_GetOtherSpeedCfgDesc)
    i.USBD_CDC_Init                          0x08006ab8   Section        0  usbd_cdc.o(i.USBD_CDC_Init)
    USBD_CDC_Init                            0x08006ab9   Thumb Code   148  usbd_cdc.o(i.USBD_CDC_Init)
    i.USBD_CDC_ReceivePacket                 0x08006b4c   Section        0  usbd_cdc.o(i.USBD_CDC_ReceivePacket)
    i.USBD_CDC_RegisterInterface             0x08006b74   Section        0  usbd_cdc.o(i.USBD_CDC_RegisterInterface)
    i.USBD_CDC_SetRxBuffer                   0x08006b84   Section        0  usbd_cdc.o(i.USBD_CDC_SetRxBuffer)
    i.USBD_CDC_SetTxBuffer                   0x08006b90   Section        0  usbd_cdc.o(i.USBD_CDC_SetTxBuffer)
    i.USBD_CDC_Setup                         0x08006ba0   Section        0  usbd_cdc.o(i.USBD_CDC_Setup)
    USBD_CDC_Setup                           0x08006ba1   Thumb Code   172  usbd_cdc.o(i.USBD_CDC_Setup)
    i.USBD_ClrClassConfig                    0x08006c4c   Section        0  usbd_core.o(i.USBD_ClrClassConfig)
    i.USBD_CtlContinueRx                     0x08006c5a   Section        0  usbd_ioreq.o(i.USBD_CtlContinueRx)
    i.USBD_CtlContinueSendData               0x08006c6a   Section        0  usbd_ioreq.o(i.USBD_CtlContinueSendData)
    i.USBD_CtlError                          0x08006c7a   Section        0  usbd_ctlreq.o(i.USBD_CtlError)
    i.USBD_CtlPrepareRx                      0x08006c90   Section        0  usbd_ioreq.o(i.USBD_CtlPrepareRx)
    i.USBD_CtlReceiveStatus                  0x08006cae   Section        0  usbd_ioreq.o(i.USBD_CtlReceiveStatus)
    i.USBD_CtlSendData                       0x08006cc4   Section        0  usbd_ioreq.o(i.USBD_CtlSendData)
    i.USBD_CtlSendStatus                     0x08006cde   Section        0  usbd_ioreq.o(i.USBD_CtlSendStatus)
    i.USBD_FS_ConfigStrDescriptor            0x08006cf4   Section        0  usbd_desc.o(i.USBD_FS_ConfigStrDescriptor)
    i.USBD_FS_DeviceDescriptor               0x08006d14   Section        0  usbd_desc.o(i.USBD_FS_DeviceDescriptor)
    i.USBD_FS_InterfaceStrDescriptor         0x08006d20   Section        0  usbd_desc.o(i.USBD_FS_InterfaceStrDescriptor)
    i.USBD_FS_LangIDStrDescriptor            0x08006d44   Section        0  usbd_desc.o(i.USBD_FS_LangIDStrDescriptor)
    i.USBD_FS_ManufacturerStrDescriptor      0x08006d50   Section        0  usbd_desc.o(i.USBD_FS_ManufacturerStrDescriptor)
    i.USBD_FS_ProductStrDescriptor           0x08006d6c   Section        0  usbd_desc.o(i.USBD_FS_ProductStrDescriptor)
    i.USBD_FS_SerialStrDescriptor            0x08006d88   Section        0  usbd_desc.o(i.USBD_FS_SerialStrDescriptor)
    i.USBD_GetDescriptor                     0x08006dc0   Section        0  usbd_ctlreq.o(i.USBD_GetDescriptor)
    USBD_GetDescriptor                       0x08006dc1   Thumb Code   232  usbd_ctlreq.o(i.USBD_GetDescriptor)
    i.USBD_GetString                         0x08006ea8   Section        0  usbd_ctlreq.o(i.USBD_GetString)
    i.USBD_Get_USB_Status                    0x08006ef0   Section        0  usbd_conf.o(i.USBD_Get_USB_Status)
    i.USBD_Init                              0x08006f08   Section        0  usbd_core.o(i.USBD_Init)
    i.USBD_LL_ClearStallEP                   0x08006f32   Section        0  usbd_conf.o(i.USBD_LL_ClearStallEP)
    i.USBD_LL_CloseEP                        0x08006f44   Section        0  usbd_conf.o(i.USBD_LL_CloseEP)
    i.USBD_LL_DataInStage                    0x08006f56   Section        0  usbd_core.o(i.USBD_LL_DataInStage)
    i.USBD_LL_DataOutStage                   0x0800701c   Section        0  usbd_core.o(i.USBD_LL_DataOutStage)
    i.USBD_LL_DevConnected                   0x0800709e   Section        0  usbd_core.o(i.USBD_LL_DevConnected)
    i.USBD_LL_DevDisconnected                0x080070a2   Section        0  usbd_core.o(i.USBD_LL_DevDisconnected)
    i.USBD_LL_GetRxDataSize                  0x080070b8   Section        0  usbd_conf.o(i.USBD_LL_GetRxDataSize)
    i.USBD_LL_Init                           0x080070c0   Section        0  usbd_conf.o(i.USBD_LL_Init)
    i.USBD_LL_IsStallEP                      0x08007120   Section        0  usbd_conf.o(i.USBD_LL_IsStallEP)
    i.USBD_LL_IsoINIncomplete                0x08007140   Section        0  usbd_core.o(i.USBD_LL_IsoINIncomplete)
    i.USBD_LL_IsoOUTIncomplete               0x08007144   Section        0  usbd_core.o(i.USBD_LL_IsoOUTIncomplete)
    i.USBD_LL_OpenEP                         0x08007148   Section        0  usbd_conf.o(i.USBD_LL_OpenEP)
    i.USBD_LL_PrepareReceive                 0x08007160   Section        0  usbd_conf.o(i.USBD_LL_PrepareReceive)
    i.USBD_LL_Reset                          0x08007172   Section        0  usbd_core.o(i.USBD_LL_Reset)
    i.USBD_LL_Resume                         0x080071c2   Section        0  usbd_core.o(i.USBD_LL_Resume)
    i.USBD_LL_SOF                            0x080071ce   Section        0  usbd_core.o(i.USBD_LL_SOF)
    i.USBD_LL_SetSpeed                       0x080071e6   Section        0  usbd_core.o(i.USBD_LL_SetSpeed)
    i.USBD_LL_SetUSBAddress                  0x080071ec   Section        0  usbd_conf.o(i.USBD_LL_SetUSBAddress)
    i.USBD_LL_SetupStage                     0x080071fe   Section        0  usbd_core.o(i.USBD_LL_SetupStage)
    i.USBD_LL_StallEP                        0x08007258   Section        0  usbd_conf.o(i.USBD_LL_StallEP)
    i.USBD_LL_Start                          0x0800726a   Section        0  usbd_conf.o(i.USBD_LL_Start)
    i.USBD_LL_Suspend                        0x0800727c   Section        0  usbd_core.o(i.USBD_LL_Suspend)
    i.USBD_LL_Transmit                       0x0800728e   Section        0  usbd_conf.o(i.USBD_LL_Transmit)
    i.USBD_ParseSetupRequest                 0x080072a0   Section        0  usbd_ctlreq.o(i.USBD_ParseSetupRequest)
    i.USBD_RegisterClass                     0x080072c8   Section        0  usbd_core.o(i.USBD_RegisterClass)
    i.USBD_SetClassConfig                    0x080072d8   Section        0  usbd_core.o(i.USBD_SetClassConfig)
    i.USBD_SetConfig                         0x080072f0   Section        0  usbd_ctlreq.o(i.USBD_SetConfig)
    USBD_SetConfig                           0x080072f1   Thumb Code   128  usbd_ctlreq.o(i.USBD_SetConfig)
    i.USBD_Start                             0x08007374   Section        0  usbd_core.o(i.USBD_Start)
    i.USBD_StdDevReq                         0x0800737e   Section        0  usbd_ctlreq.o(i.USBD_StdDevReq)
    i.USBD_StdEPReq                          0x08007490   Section        0  usbd_ctlreq.o(i.USBD_StdEPReq)
    i.USBD_StdItfReq                         0x080075e0   Section        0  usbd_ctlreq.o(i.USBD_StdItfReq)
    i.USB_ActivateEndpoint                   0x08007630   Section        0  stm32f4xx_ll_usb.o(i.USB_ActivateEndpoint)
    i.USB_ActivateSetup                      0x080076b0   Section        0  stm32f4xx_ll_usb.o(i.USB_ActivateSetup)
    i.USB_CoreInit                           0x080076e4   Section        0  stm32f4xx_ll_usb.o(i.USB_CoreInit)
    i.USB_CoreReset                          0x08007758   Section        0  stm32f4xx_ll_usb.o(i.USB_CoreReset)
    USB_CoreReset                            0x08007759   Thumb Code    50  stm32f4xx_ll_usb.o(i.USB_CoreReset)
    i.USB_DeactivateEndpoint                 0x08007790   Section        0  stm32f4xx_ll_usb.o(i.USB_DeactivateEndpoint)
    i.USB_DevConnect                         0x08007810   Section        0  stm32f4xx_ll_usb.o(i.USB_DevConnect)
    i.USB_DevDisconnect                      0x08007828   Section        0  stm32f4xx_ll_usb.o(i.USB_DevDisconnect)
    i.USB_DevInit                            0x08007840   Section        0  stm32f4xx_ll_usb.o(i.USB_DevInit)
    i.USB_DisableGlobalInt                   0x080079cc   Section        0  stm32f4xx_ll_usb.o(i.USB_DisableGlobalInt)
    i.USB_EP0StartXfer                       0x080079d8   Section        0  stm32f4xx_ll_usb.o(i.USB_EP0StartXfer)
    i.USB_EP0_OutStart                       0x08007af0   Section        0  stm32f4xx_ll_usb.o(i.USB_EP0_OutStart)
    i.USB_EPClearStall                       0x08007b48   Section        0  stm32f4xx_ll_usb.o(i.USB_EPClearStall)
    i.USB_EPSetStall                         0x08007ba0   Section        0  stm32f4xx_ll_usb.o(i.USB_EPSetStall)
    i.USB_EPStartXfer                        0x08007bf8   Section        0  stm32f4xx_ll_usb.o(i.USB_EPStartXfer)
    i.USB_EnableGlobalInt                    0x08007de0   Section        0  stm32f4xx_ll_usb.o(i.USB_EnableGlobalInt)
    i.USB_FlushRxFifo                        0x08007dec   Section        0  stm32f4xx_ll_usb.o(i.USB_FlushRxFifo)
    i.USB_FlushTxFifo                        0x08007e0c   Section        0  stm32f4xx_ll_usb.o(i.USB_FlushTxFifo)
    i.USB_GetDevSpeed                        0x08007e30   Section        0  stm32f4xx_ll_usb.o(i.USB_GetDevSpeed)
    i.USB_GetMode                            0x08007e4a   Section        0  stm32f4xx_ll_usb.o(i.USB_GetMode)
    i.USB_ReadDevAllInEpInterrupt            0x08007e52   Section        0  stm32f4xx_ll_usb.o(i.USB_ReadDevAllInEpInterrupt)
    i.USB_ReadDevAllOutEpInterrupt           0x08007e60   Section        0  stm32f4xx_ll_usb.o(i.USB_ReadDevAllOutEpInterrupt)
    i.USB_ReadDevInEPInterrupt               0x08007e6e   Section        0  stm32f4xx_ll_usb.o(i.USB_ReadDevInEPInterrupt)
    i.USB_ReadDevOutEPInterrupt              0x08007e92   Section        0  stm32f4xx_ll_usb.o(i.USB_ReadDevOutEPInterrupt)
    i.USB_ReadInterrupts                     0x08007ea2   Section        0  stm32f4xx_ll_usb.o(i.USB_ReadInterrupts)
    i.USB_ReadPacket                         0x08007eaa   Section        0  stm32f4xx_ll_usb.o(i.USB_ReadPacket)
    i.USB_SetCurrentMode                     0x08007ec6   Section        0  stm32f4xx_ll_usb.o(i.USB_SetCurrentMode)
    i.USB_SetDevAddress                      0x08007ef4   Section        0  stm32f4xx_ll_usb.o(i.USB_SetDevAddress)
    i.USB_SetTurnaroundTime                  0x08007f18   Section        0  stm32f4xx_ll_usb.o(i.USB_SetTurnaroundTime)
    i.USB_WritePacket                        0x08008000   Section        0  stm32f4xx_ll_usb.o(i.USB_WritePacket)
    i.UpdateAction                           0x08008024   Section        0  followline_eg2.o(i.UpdateAction)
    i.UpdateButton                           0x080080b4   Section        0  followline_eg2.o(i.UpdateButton)
    i.UpdateCentControl                      0x080080e0   Section        0  followline_eg2.o(i.UpdateCentControl)
    i.UpdateMotor                            0x080080f4   Section        0  motor.o(i.UpdateMotor)
    i.UpdatePID                              0x08008154   Section        0  pid.o(i.UpdatePID)
    i.UpdateStatus                           0x08008290   Section        0  followline_eg2.o(i.UpdateStatus)
    i.UpdateToGCSAltitude                    0x08008330   Section        0  gcs.o(i.UpdateToGCSAltitude)
    i.UpdateToGCSAttitude                    0x08008384   Section        0  gcs.o(i.UpdateToGCSAttitude)
    i.UpdateToGCSHardwareInfo                0x0800843c   Section        0  gcs.o(i.UpdateToGCSHardwareInfo)
    i.UpdateToGCSLine                        0x08008484   Section        0  gcs.o(i.UpdateToGCSLine)
    i.UpdateToGCSLine2                       0x080084dc   Section        0  gcs.o(i.UpdateToGCSLine2)
    i.UpdateToGCSMPU6050                     0x08008534   Section        0  gcs.o(i.UpdateToGCSMPU6050)
    i.UpdateToGCSPidInfo                     0x08008578   Section        0  gcs.o(i.UpdateToGCSPidInfo)
    i.UpdateUSBQueue                         0x08008600   Section        0  gcs.o(i.UpdateUSBQueue)
    i.UsageFault_Handler                     0x08008634   Section        0  stm32f4xx_it.o(i.UsageFault_Handler)
    i.WZ_Est_Calcu                           0x08008638   Section        0  speed_estimator.o(i.WZ_Est_Calcu)
    i.WZ_Fix_Calcu                           0x08008664   Section        0  speed_estimator.o(i.WZ_Fix_Calcu)
    i.WZ_Fus_Reset                           0x08008760   Section        0  speed_estimator.o(i.WZ_Fus_Reset)
    i.WZ_Obs_Calcu                           0x08008780   Section        0  speed_estimator.o(i.WZ_Obs_Calcu)
    i.ZKHD_Link_FMU_To_GCS_Handle            0x080088a4   Section        0  zkhd_link.o(i.ZKHD_Link_FMU_To_GCS_Handle)
    i.ZKHD_Link_MakeFrame                    0x080088b4   Section        0  zkhd_link.o(i.ZKHD_Link_MakeFrame)
    i.__ARM_fpclassify                       0x08008918   Section        0  fpclassify.o(i.__ARM_fpclassify)
    i.__ARM_fpclassifyf                      0x08008948   Section        0  fpclassifyf.o(i.__ARM_fpclassifyf)
    i.__NVIC_SetPriority                     0x0800896e   Section        0  stm32f4xx_hal_cortex.o(i.__NVIC_SetPriority)
    __NVIC_SetPriority                       0x0800896f   Thumb Code    32  stm32f4xx_hal_cortex.o(i.__NVIC_SetPriority)
    i.__hardfp_asin                          0x08008990   Section        0  asin.o(i.__hardfp_asin)
    i.__hardfp_atan2f                        0x08008cf0   Section        0  atan2f.o(i.__hardfp_atan2f)
    i.__kernel_poly                          0x08008f40   Section        0  poly.o(i.__kernel_poly)
    i.__mathlib_dbl_infnan                   0x08009038   Section        0  dunder.o(i.__mathlib_dbl_infnan)
    i.__mathlib_dbl_invalid                  0x08009050   Section        0  dunder.o(i.__mathlib_dbl_invalid)
    i.__mathlib_dbl_underflow                0x08009070   Section        0  dunder.o(i.__mathlib_dbl_underflow)
    i.__mathlib_flt_infnan2                  0x08009090   Section        0  funder.o(i.__mathlib_flt_infnan2)
    i.__mathlib_flt_underflow                0x08009098   Section        0  funder.o(i.__mathlib_flt_underflow)
    i.__scatterload_copy                     0x080090a8   Section       14  handlers.o(i.__scatterload_copy)
    i.__scatterload_null                     0x080090b6   Section        2  handlers.o(i.__scatterload_null)
    i.__scatterload_zeroinit                 0x080090b8   Section       14  handlers.o(i.__scatterload_zeroinit)
    i.__set_errno                            0x080090c8   Section        0  errno.o(i.__set_errno)
    i.beep_update                            0x080090d4   Section        0  beep.o(i.beep_update)
    i.deQueue                                0x080090e4   Section        0  my_queue.o(i.deQueue)
    i.delay                                  0x08009128   Section        0  hardware_i2c.o(i.delay)
    i.enQueue                                0x08009138   Section        0  my_queue.o(i.enQueue)
    i.fabs                                   0x0800917e   Section        0  fabs.o(i.fabs)
    i.flush_lcd                              0x08009198   Section        0  lcd_status.o(i.flush_lcd)
    i.free                                   0x080091cc   Section        0  malloc.o(i.free)
    i.gcs_init                               0x0800921c   Section        0  gcs.o(i.gcs_init)
    i.lcd_exchange_page                      0x08009258   Section        0  lcd_status.o(i.lcd_exchange_page)
    i.lcd_message                            0x08009278   Section        0  lcd_status.o(i.lcd_message)
    i.lcd_status_init                        0x080092f4   Section        0  lcd_status.o(i.lcd_status_init)
    i.lcd_update                             0x08009350   Section        0  lcd_status.o(i.lcd_update)
    i.main                                   0x080095e8   Section        0  main.o(i.main)
    i.malloc                                 0x08009644   Section        0  malloc.o(i.malloc)
    i.mypow                                  0x080096b0   Section        0  lcd.o(i.mypow)
    i.reset_i                                0x080096c0   Section        0  pid.o(i.reset_i)
    i.sdk_init                               0x080096d0   Section        0  sdk.o(i.sdk_init)
    i.sdk_land                               0x08009774   Section        0  sdk.o(i.sdk_land)
    i.sdk_lock                               0x08009780   Section        0  sdk.o(i.sdk_lock)
    i.sdk_takeoff                            0x08009790   Section        0  sdk.o(i.sdk_takeoff)
    i.sdk_unlock                             0x080097a4   Section        0  sdk.o(i.sdk_unlock)
    i.sdk_update                             0x080097b4   Section        0  sdk.o(i.sdk_update)
    i.sdk_update_position                    0x080098ec   Section        0  sdk.o(i.sdk_update_position)
    i.sdk_update_s_2                         0x0800994c   Section        0  sdk.o(i.sdk_update_s_2)
    i.sdk_velocity_reset                     0x080099cc   Section        0  sdk.o(i.sdk_velocity_reset)
    i.sdk_velociyt_x_set                     0x080099e4   Section        0  sdk.o(i.sdk_velociyt_x_set)
    i.sdk_velociyt_y_set                     0x08009a20   Section        0  sdk.o(i.sdk_velociyt_y_set)
    i.sqrt                                   0x08009a5c   Section        0  sqrt.o(i.sqrt)
    i.update2gcs_mode                        0x08009acc   Section        0  gcs.o(i.update2gcs_mode)
    i.update2gcsdevecelist                   0x08009b00   Section        0  gcs.o(i.update2gcsdevecelist)
    i.update2gcsotherinfogroup1              0x08009b94   Section        0  gcs.o(i.update2gcsotherinfogroup1)
    i.update_status                          0x08009c10   Section        0  status.o(i.update_status)
    i.usart_rx_idle_handle                   0x08009c48   Section        0  hardware_uart.o(i.usart_rx_idle_handle)
    .constdata                               0x08009cb0   Section        8  stm32f4xx_hal_dma.o(.constdata)
    flagBitshiftOffset                       0x08009cb0   Data           8  stm32f4xx_hal_dma.o(.constdata)
    .constdata                               0x08009cb8   Section       16  system_stm32f4xx.o(.constdata)
    .constdata                               0x08009cc8   Section        8  system_stm32f4xx.o(.constdata)
    .constdata                               0x08009cd0   Section    14620  lcd.o(.constdata)
    .constdata                               0x0800d5ec   Section        4  mymath.o(.constdata)
    .constdata                               0x0800d5f0   Section        4  mymath.o(.constdata)
    .constdata                               0x0800d5f4   Section        4  mymath.o(.constdata)
    .constdata                               0x0800d5f8   Section       80  asin.o(.constdata)
    pS                                       0x0800d5f8   Data          48  asin.o(.constdata)
    qS                                       0x0800d628   Data          32  asin.o(.constdata)
    .data                                    0x20000000   Section        8  system.o(.data)
    Cnt                                      0x20000004   Data           4  system.o(.data)
    .data                                    0x20000008   Section       28  usbd_desc.o(.data)
    .data                                    0x20000024   Section       50  usbd_desc.o(.data)
    .data                                    0x20000058   Section       16  usbd_cdc_if.o(.data)
    .data                                    0x20000068   Section        8  stm32f4xx_it.o(.data)
    .data                                    0x20000070   Section       12  stm32f4xx_hal.o(.data)
    .data                                    0x2000007c   Section        4  system_stm32f4xx.o(.data)
    .data                                    0x20000080   Section        1  usbd_ctlreq.o(.data)
    cfgidx                                   0x20000080   Data           1  usbd_ctlreq.o(.data)
    .data                                    0x20000084   Section      215  usbd_cdc.o(.data)
    USBD_CDC_DeviceQualifierDesc             0x20000084   Data          10  usbd_cdc.o(.data)
    .data                                    0x2000015c   Section       56  usbd_cdc.o(.data)
    .data                                    0x20000194   Section        6  beep.o(.data)
    .data                                    0x2000019a   Section        8  led.o(.data)
    .data                                    0x200001a4   Section       12  mpu6050.o(.data)
    check                                    0x200001a4   Data           1  mpu6050.o(.data)
    cnt                                      0x200001ac   Data           4  mpu6050.o(.data)
    .data                                    0x200001b0   Section       44  imu.o(.data)
    KpDef                                    0x200001b0   Data           4  imu.o(.data)
    vecxZ                                    0x200001b8   Data           4  imu.o(.data)
    vecyZ                                    0x200001bc   Data           4  imu.o(.data)
    veczZ                                    0x200001c0   Data           4  imu.o(.data)
    wz_acc_tmp                               0x200001c4   Data           8  imu.o(.data)
    NumQ                                     0x200001cc   Data          16  imu.o(.data)
    .data                                    0x200001dc   Section       20  ano_of.o(.data)
    _data_cnt                                0x200001dc   Data           1  ano_of.o(.data)
    _data_len                                0x200001dd   Data           1  ano_of.o(.data)
    state                                    0x200001de   Data           1  ano_of.o(.data)
    of_check_f                               0x200001df   Data           2  ano_of.o(.data)
    of_check_cnt                             0x200001e2   Data           4  ano_of.o(.data)
    .data                                    0x200001f0   Section       16  gcs.o(.data)
    yaobai                                   0x200001f0   Data           1  gcs.o(.data)
    Cnt                                      0x200001f8   Data           4  gcs.o(.data)
    .data                                    0x20000200   Section        2  gcs.o(.data)
    .data                                    0x20000202   Section        2  gcs.o(.data)
    .data                                    0x20000204   Section        1  hardware_uart.o(.data)
    .data                                    0x20000208   Section        8  hardware_i2c.o(.data)
    .data                                    0x20000210   Section       84  speed_estimator.o(.data)
    height_init_f                            0x20000210   Data           1  speed_estimator.o(.data)
    alt_tmp                                  0x20000214   Data           4  speed_estimator.o(.data)
    acc                                      0x20000218   Data           4  speed_estimator.o(.data)
    velocity                                 0x2000021c   Data           4  speed_estimator.o(.data)
    last_velocity                            0x20000220   Data           4  speed_estimator.o(.data)
    last_alt                                 0x20000224   Data           4  speed_estimator.o(.data)
    height_old                               0x2000025c   Data           8  speed_estimator.o(.data)
    .data                                    0x20000264   Section        1  init.o(.data)
    .data                                    0x20000265   Section      602  lcd_status.o(.data)
    _action_countdown                        0x20000265   Data           1  lcd_status.o(.data)
    last_page                                0x20000266   Data           1  lcd_status.o(.data)
    .data                                    0x200004c0   Section       16  control.o(.data)
    status                                   0x200004c0   Data           1  control.o(.data)
    status                                   0x200004c1   Data           1  control.o(.data)
    .data                                    0x200004d0   Section       56  height_control.o(.data)
    exp_vel_d                                0x200004d4   Data           4  height_control.o(.data)
    exp_acc                                  0x200004d8   Data           4  height_control.o(.data)
    fb_acc                                   0x200004dc   Data           4  height_control.o(.data)
    exp_vel                                  0x200004e0   Data           4  height_control.o(.data)
    fb_vel                                   0x200004e4   Data           4  height_control.o(.data)
    exp_hei                                  0x200004e8   Data           4  height_control.o(.data)
    fb_hei                                   0x200004ec   Data           4  height_control.o(.data)
    hei_err                                  0x200004f0   Data           4  height_control.o(.data)
    vel_err                                  0x200004f4   Data           4  height_control.o(.data)
    acc_err                                  0x200004f8   Data           4  height_control.o(.data)
    acc_err_i                                0x200004fc   Data           4  height_control.o(.data)
    acc_out                                  0x20000500   Data           4  height_control.o(.data)
    wz_out                                   0x20000504   Data           4  height_control.o(.data)
    .data                                    0x20000508   Section       72  pos_ctrl.o(.data)
    .data                                    0x20000550   Section        8  remote.o(.data)
    status                                   0x20000550   Data           1  remote.o(.data)
    cnt                                      0x20000551   Data           1  remote.o(.data)
    .data                                    0x20000558   Section       12  sdk.o(.data)
    cnt                                      0x20000558   Data           4  sdk.o(.data)
    cnt                                      0x2000055c   Data           4  sdk.o(.data)
    last_angle                               0x20000560   Data           4  sdk.o(.data)
    .data                                    0x20000564   Section       20  followline_eg2.o(.data)
    Enter                                    0x20000564   Data           1  followline_eg2.o(.data)
    CloseGate                                0x20000565   Data           1  followline_eg2.o(.data)
    CountDown                                0x20000566   Data           2  followline_eg2.o(.data)
    Cnt                                      0x20000568   Data           4  followline_eg2.o(.data)
    cnt                                      0x2000056c   Data           4  followline_eg2.o(.data)
    OldPos                                   0x20000570   Data           8  followline_eg2.o(.data)
    .data                                    0x20000578   Section        4  mvars.o(.data)
    .data                                    0x2000057c   Section        4  mvars.o(.data)
    .data                                    0x20000580   Section        4  errno.o(.data)
    _errno                                   0x20000580   Data           4  errno.o(.data)
    .bss                                     0x20000584   Section       84  i2c.o(.bss)
    .bss                                     0x200005d8   Section      256  tim.o(.bss)
    .bss                                     0x200006d8   Section     1440  usart.o(.bss)
    .bss                                     0x20000c78   Section      668  usb_device.o(.bss)
    .bss                                     0x20000f14   Section     1032  usbd_conf.o(.bss)
    .bss                                     0x2000131c   Section      512  usbd_desc.o(.bss)
    .bss                                     0x2000151c   Section     4096  usbd_cdc_if.o(.bss)
    .bss                                     0x2000251c   Section       88  mpu6050.o(.bss)
    mpu_filter                               0x2000251c   Data          48  mpu6050.o(.bss)
    .bss                                     0x20002574   Section       12  imu.o(.bss)
    .bss                                     0x20002580   Section      122  ano_of.o(.bss)
    _datatemp                                0x200025c8   Data          50  ano_of.o(.bss)
    .bss                                     0x200025fc   Section       36  gcs.o(.bss)
    .bss                                     0x20002620   Section     4736  hardware_uart.o(.bss)
    .bss                                     0x200038a0   Section       12  speed_estimator.o(.bss)
    .bss                                     0x200038ac   Section      332  init.o(.bss)
    .bss                                     0x200039f8   Section      465  lcd_status.o(.bss)
    .bss                                     0x20003bcc   Section      884  pid.o(.bss)
    .bss                                     0x20003f40   Section       12  control.o(.bss)
    .bss                                     0x20003f4c   Section       36  height_control.o(.bss)
    exp_vel_transition                       0x20003f60   Data          16  height_control.o(.bss)
    .bss                                     0x20003f70   Section      114  remote.o(.bss)
    .bss                                     0x20003fe4   Section      336  sdk.o(.bss)
    .bss                                     0x20004134   Section       48  followline_eg2.o(.bss)
    HEAP                                     0x20004168   Section      512  startup_stm32f407xx.o(HEAP)
    STACK                                    0x20004368   Section      512  startup_stm32f407xx.o(STACK)

    Global Symbols

    Symbol Name                              Value     Ov Type        Size  Object(Section)

    BuildAttributes$$THM_ISAv4$E$P$D$K$B$S$7EM$VFPi3$EXTD16$VFPS$VFMA$PE$A:L22UL41UL21$X:L11$S22US41US21$IEEE1$IW$USESV6$~STKCKD$USESV7$~SHL$OTIME$ROPI$IEEEX$EBA8$MICROLIB$REQ8$PRES8$EABIv2 0x00000000   Number         0  anon$$obj.o ABSOLUTE
    __ARM_use_no_argv                        0x00000000   Number         0  main.o ABSOLUTE
    __cpp_initialize__aeabi_                  - Undefined Weak Reference
    __cxa_finalize                            - Undefined Weak Reference
    _clock_init                               - Undefined Weak Reference
    _microlib_exit                            - Undefined Weak Reference
    __Vectors_Size                           0x00000188   Number         0  startup_stm32f407xx.o ABSOLUTE
    __Vectors                                0x08000000   Data           4  startup_stm32f407xx.o(RESET)
    __Vectors_End                            0x08000188   Data           0  startup_stm32f407xx.o(RESET)
    __main                                   0x08000189   Thumb Code     0  entry.o(.ARM.Collect$$$$00000000)
    _main_stk                                0x08000189   Thumb Code     0  entry2.o(.ARM.Collect$$$$00000001)
    _main_scatterload                        0x0800018d   Thumb Code     0  entry5.o(.ARM.Collect$$$$00000004)
    __main_after_scatterload                 0x08000191   Thumb Code     0  entry5.o(.ARM.Collect$$$$00000004)
    _main_clock                              0x08000191   Thumb Code     0  entry7b.o(.ARM.Collect$$$$00000008)
    _main_cpp_init                           0x08000191   Thumb Code     0  entry8b.o(.ARM.Collect$$$$0000000A)
    _main_init                               0x08000191   Thumb Code     0  entry9a.o(.ARM.Collect$$$$0000000B)
    __rt_final_cpp                           0x08000199   Thumb Code     0  entry10a.o(.ARM.Collect$$$$0000000D)
    __rt_final_exit                          0x08000199   Thumb Code     0  entry11a.o(.ARM.Collect$$$$0000000F)
    Reset_Handler                            0x0800019d   Thumb Code     8  startup_stm32f407xx.o(.text)
    ADC_IRQHandler                           0x080001b7   Thumb Code     0  startup_stm32f407xx.o(.text)
    CAN1_RX0_IRQHandler                      0x080001b7   Thumb Code     0  startup_stm32f407xx.o(.text)
    CAN1_RX1_IRQHandler                      0x080001b7   Thumb Code     0  startup_stm32f407xx.o(.text)
    CAN1_SCE_IRQHandler                      0x080001b7   Thumb Code     0  startup_stm32f407xx.o(.text)
    CAN1_TX_IRQHandler                       0x080001b7   Thumb Code     0  startup_stm32f407xx.o(.text)
    CAN2_RX0_IRQHandler                      0x080001b7   Thumb Code     0  startup_stm32f407xx.o(.text)
    CAN2_RX1_IRQHandler                      0x080001b7   Thumb Code     0  startup_stm32f407xx.o(.text)
    CAN2_SCE_IRQHandler                      0x080001b7   Thumb Code     0  startup_stm32f407xx.o(.text)
    CAN2_TX_IRQHandler                       0x080001b7   Thumb Code     0  startup_stm32f407xx.o(.text)
    DCMI_IRQHandler                          0x080001b7   Thumb Code     0  startup_stm32f407xx.o(.text)
    DMA2_Stream0_IRQHandler                  0x080001b7   Thumb Code     0  startup_stm32f407xx.o(.text)
    DMA2_Stream3_IRQHandler                  0x080001b7   Thumb Code     0  startup_stm32f407xx.o(.text)
    DMA2_Stream4_IRQHandler                  0x080001b7   Thumb Code     0  startup_stm32f407xx.o(.text)
    DMA2_Stream5_IRQHandler                  0x080001b7   Thumb Code     0  startup_stm32f407xx.o(.text)
    DMA2_Stream7_IRQHandler                  0x080001b7   Thumb Code     0  startup_stm32f407xx.o(.text)
    ETH_IRQHandler                           0x080001b7   Thumb Code     0  startup_stm32f407xx.o(.text)
    ETH_WKUP_IRQHandler                      0x080001b7   Thumb Code     0  startup_stm32f407xx.o(.text)
    EXTI0_IRQHandler                         0x080001b7   Thumb Code     0  startup_stm32f407xx.o(.text)
    EXTI15_10_IRQHandler                     0x080001b7   Thumb Code     0  startup_stm32f407xx.o(.text)
    EXTI1_IRQHandler                         0x080001b7   Thumb Code     0  startup_stm32f407xx.o(.text)
    EXTI2_IRQHandler                         0x080001b7   Thumb Code     0  startup_stm32f407xx.o(.text)
    EXTI3_IRQHandler                         0x080001b7   Thumb Code     0  startup_stm32f407xx.o(.text)
    EXTI4_IRQHandler                         0x080001b7   Thumb Code     0  startup_stm32f407xx.o(.text)
    EXTI9_5_IRQHandler                       0x080001b7   Thumb Code     0  startup_stm32f407xx.o(.text)
    FLASH_IRQHandler                         0x080001b7   Thumb Code     0  startup_stm32f407xx.o(.text)
    FMC_IRQHandler                           0x080001b7   Thumb Code     0  startup_stm32f407xx.o(.text)
    FPU_IRQHandler                           0x080001b7   Thumb Code     0  startup_stm32f407xx.o(.text)
    HASH_RNG_IRQHandler                      0x080001b7   Thumb Code     0  startup_stm32f407xx.o(.text)
    I2C1_ER_IRQHandler                       0x080001b7   Thumb Code     0  startup_stm32f407xx.o(.text)
    I2C1_EV_IRQHandler                       0x080001b7   Thumb Code     0  startup_stm32f407xx.o(.text)
    I2C2_ER_IRQHandler                       0x080001b7   Thumb Code     0  startup_stm32f407xx.o(.text)
    I2C2_EV_IRQHandler                       0x080001b7   Thumb Code     0  startup_stm32f407xx.o(.text)
    I2C3_ER_IRQHandler                       0x080001b7   Thumb Code     0  startup_stm32f407xx.o(.text)
    I2C3_EV_IRQHandler                       0x080001b7   Thumb Code     0  startup_stm32f407xx.o(.text)
    OTG_FS_WKUP_IRQHandler                   0x080001b7   Thumb Code     0  startup_stm32f407xx.o(.text)
    OTG_HS_EP1_IN_IRQHandler                 0x080001b7   Thumb Code     0  startup_stm32f407xx.o(.text)
    OTG_HS_EP1_OUT_IRQHandler                0x080001b7   Thumb Code     0  startup_stm32f407xx.o(.text)
    OTG_HS_IRQHandler                        0x080001b7   Thumb Code     0  startup_stm32f407xx.o(.text)
    OTG_HS_WKUP_IRQHandler                   0x080001b7   Thumb Code     0  startup_stm32f407xx.o(.text)
    PVD_IRQHandler                           0x080001b7   Thumb Code     0  startup_stm32f407xx.o(.text)
    RCC_IRQHandler                           0x080001b7   Thumb Code     0  startup_stm32f407xx.o(.text)
    RTC_Alarm_IRQHandler                     0x080001b7   Thumb Code     0  startup_stm32f407xx.o(.text)
    RTC_WKUP_IRQHandler                      0x080001b7   Thumb Code     0  startup_stm32f407xx.o(.text)
    SDIO_IRQHandler                          0x080001b7   Thumb Code     0  startup_stm32f407xx.o(.text)
    SPI1_IRQHandler                          0x080001b7   Thumb Code     0  startup_stm32f407xx.o(.text)
    SPI2_IRQHandler                          0x080001b7   Thumb Code     0  startup_stm32f407xx.o(.text)
    SPI3_IRQHandler                          0x080001b7   Thumb Code     0  startup_stm32f407xx.o(.text)
    TAMP_STAMP_IRQHandler                    0x080001b7   Thumb Code     0  startup_stm32f407xx.o(.text)
    TIM1_BRK_TIM9_IRQHandler                 0x080001b7   Thumb Code     0  startup_stm32f407xx.o(.text)
    TIM1_CC_IRQHandler                       0x080001b7   Thumb Code     0  startup_stm32f407xx.o(.text)
    TIM1_TRG_COM_TIM11_IRQHandler            0x080001b7   Thumb Code     0  startup_stm32f407xx.o(.text)
    TIM1_UP_TIM10_IRQHandler                 0x080001b7   Thumb Code     0  startup_stm32f407xx.o(.text)
    TIM2_IRQHandler                          0x080001b7   Thumb Code     0  startup_stm32f407xx.o(.text)
    TIM5_IRQHandler                          0x080001b7   Thumb Code     0  startup_stm32f407xx.o(.text)
    TIM6_DAC_IRQHandler                      0x080001b7   Thumb Code     0  startup_stm32f407xx.o(.text)
    TIM7_IRQHandler                          0x080001b7   Thumb Code     0  startup_stm32f407xx.o(.text)
    TIM8_BRK_TIM12_IRQHandler                0x080001b7   Thumb Code     0  startup_stm32f407xx.o(.text)
    TIM8_CC_IRQHandler                       0x080001b7   Thumb Code     0  startup_stm32f407xx.o(.text)
    TIM8_TRG_COM_TIM14_IRQHandler            0x080001b7   Thumb Code     0  startup_stm32f407xx.o(.text)
    TIM8_UP_TIM13_IRQHandler                 0x080001b7   Thumb Code     0  startup_stm32f407xx.o(.text)
    WWDG_IRQHandler                          0x080001b7   Thumb Code     0  startup_stm32f407xx.o(.text)
    __aeabi_uldivmod                         0x080001c1   Thumb Code    98  uldiv.o(.text)
    ___aeabi_memcpy8$move                    0x08000223   Thumb Code     0  memmovea.o(.text)
    __aeabi_memcpy                           0x08000223   Thumb Code    64  memmovea.o(.text)
    __aeabi_memcpy4                          0x08000223   Thumb Code     0  memmovea.o(.text)
    __aeabi_memmove                          0x08000223   Thumb Code     0  memmovea.o(.text)
    __aeabi_memmove4                         0x08000223   Thumb Code     0  memmovea.o(.text)
    __aeabi_memmove8                         0x08000223   Thumb Code     0  memmovea.o(.text)
    __aeabi_memset                           0x08000263   Thumb Code    14  memseta.o(.text)
    __aeabi_memset4                          0x08000263   Thumb Code     0  memseta.o(.text)
    __aeabi_memset8                          0x08000263   Thumb Code     0  memseta.o(.text)
    __aeabi_memclr                           0x08000271   Thumb Code     4  memseta.o(.text)
    __aeabi_memclr4                          0x08000271   Thumb Code     0  memseta.o(.text)
    __aeabi_memclr8                          0x08000271   Thumb Code     0  memseta.o(.text)
    _memset$wrapper                          0x08000275   Thumb Code    18  memseta.o(.text)
    __aeabi_dadd                             0x08000287   Thumb Code   322  dadd.o(.text)
    __aeabi_dsub                             0x080003c9   Thumb Code     6  dadd.o(.text)
    __aeabi_drsub                            0x080003cf   Thumb Code     6  dadd.o(.text)
    __aeabi_dmul                             0x080003d5   Thumb Code   228  dmul.o(.text)
    __aeabi_ui2d                             0x080004b9   Thumb Code    26  dfltui.o(.text)
    __aeabi_d2uiz                            0x080004d3   Thumb Code    50  dfixui.o(.text)
    __aeabi_f2d                              0x08000505   Thumb Code    38  f2d.o(.text)
    __aeabi_d2f                              0x0800052b   Thumb Code    56  d2f.o(.text)
    __aeabi_llsl                             0x08000563   Thumb Code    30  llshl.o(.text)
    _ll_shift_l                              0x08000563   Thumb Code     0  llshl.o(.text)
    __aeabi_llsr                             0x08000581   Thumb Code    32  llushr.o(.text)
    _ll_ushift_r                             0x08000581   Thumb Code     0  llushr.o(.text)
    __aeabi_lasr                             0x080005a1   Thumb Code    36  llsshr.o(.text)
    _ll_sshift_r                             0x080005a1   Thumb Code     0  llsshr.o(.text)
    __I$use$fp                               0x080005c5   Thumb Code     0  iusefp.o(.text)
    _float_round                             0x080005c5   Thumb Code    18  fepilogue.o(.text)
    _float_epilogue                          0x080005d7   Thumb Code    92  fepilogue.o(.text)
    _double_round                            0x08000633   Thumb Code    30  depilogue.o(.text)
    _double_epilogue                         0x08000651   Thumb Code   156  depilogue.o(.text)
    __aeabi_ddiv                             0x080006ed   Thumb Code   222  ddiv.o(.text)
    __scatterload                            0x080007cd   Thumb Code    28  init.o(.text)
    __scatterload_rt2                        0x080007cd   Thumb Code     0  init.o(.text)
    _dsqrt                                   0x080007f1   Thumb Code   162  dsqrt.o(.text)
    __decompress                             0x08000893   Thumb Code     0  __dczerorl2.o(.text)
    __decompress1                            0x08000893   Thumb Code    86  __dczerorl2.o(.text)
    ALT_Ctrl                                 0x080008e9   Thumb Code   578  height_control.o(i.ALT_Ctrl)
    ATT_Update                               0x08000b95   Thumb Code   808  imu.o(i.ATT_Update)
    ActionHoldPoint                          0x08000ed9   Thumb Code    36  followline_eg2.o(i.ActionHoldPoint)
    AnalyRC                                  0x08000f05   Thumb Code   506  remote.o(i.AnalyRC)
    AnoOF_DataAnl                            0x08001181   Thumb Code   184  ano_of.o(i.AnoOF_DataAnl)
    AnoOF_GetOneByte                         0x08001241   Thumb Code   154  ano_of.o(i.AnoOF_GetOneByte)
    AnoOF_State_Task                         0x08001305   Thumb Code    10  ano_of.o(i.AnoOF_State_Task)
    BusFault_Handler                         0x0800130f   Thumb Code     2  stm32f4xx_it.o(i.BusFault_Handler)
    ClacCascadePID                           0x08001355   Thumb Code    36  pid.o(i.ClacCascadePID)
    DMA1_Stream0_IRQHandler                  0x08001379   Thumb Code     6  stm32f4xx_it.o(i.DMA1_Stream0_IRQHandler)
    DMA1_Stream1_IRQHandler                  0x08001385   Thumb Code     6  stm32f4xx_it.o(i.DMA1_Stream1_IRQHandler)
    DMA1_Stream2_IRQHandler                  0x08001391   Thumb Code     6  stm32f4xx_it.o(i.DMA1_Stream2_IRQHandler)
    DMA1_Stream3_IRQHandler                  0x0800139d   Thumb Code    18  stm32f4xx_it.o(i.DMA1_Stream3_IRQHandler)
    DMA1_Stream4_IRQHandler                  0x080013b9   Thumb Code    18  stm32f4xx_it.o(i.DMA1_Stream4_IRQHandler)
    DMA1_Stream5_IRQHandler                  0x080013d5   Thumb Code     6  stm32f4xx_it.o(i.DMA1_Stream5_IRQHandler)
    DMA1_Stream6_IRQHandler                  0x080013e1   Thumb Code    18  stm32f4xx_it.o(i.DMA1_Stream6_IRQHandler)
    DMA1_Stream7_IRQHandler                  0x080013fd   Thumb Code    18  stm32f4xx_it.o(i.DMA1_Stream7_IRQHandler)
    DMA2_Stream1_IRQHandler                  0x08001419   Thumb Code     6  stm32f4xx_it.o(i.DMA2_Stream1_IRQHandler)
    DMA2_Stream2_IRQHandler                  0x08001425   Thumb Code     6  stm32f4xx_it.o(i.DMA2_Stream2_IRQHandler)
    DMA2_Stream6_IRQHandler                  0x08001431   Thumb Code    18  stm32f4xx_it.o(i.DMA2_Stream6_IRQHandler)
    DebugMon_Handler                         0x080014f1   Thumb Code     2  stm32f4xx_it.o(i.DebugMon_Handler)
    Error_Handler                            0x080014f3   Thumb Code     2  main.o(i.Error_Handler)
    FlightPidControl                         0x080014f5   Thumb Code   364  control.o(i.FlightPidControl)
    Follow_Init                              0x0800168d   Thumb Code   136  followline_eg2.o(i.Follow_Init)
    GetAngle                                 0x08001739   Thumb Code   156  imu.o(i.GetAngle)
    GetMPU6050Data                           0x080017dd   Thumb Code   148  mpu6050.o(i.GetMPU6050Data)
    GetMPU6050Offset                         0x0800187d   Thumb Code   342  mpu6050.o(i.GetMPU6050Offset)
    HAL_DMA_Abort                            0x080019dd   Thumb Code   142  stm32f4xx_hal_dma.o(i.HAL_DMA_Abort)
    HAL_DMA_Abort_IT                         0x08001a6b   Thumb Code    36  stm32f4xx_hal_dma.o(i.HAL_DMA_Abort_IT)
    HAL_DMA_IRQHandler                       0x08001a91   Thumb Code   412  stm32f4xx_hal_dma.o(i.HAL_DMA_IRQHandler)
    HAL_DMA_Init                             0x08001c31   Thumb Code   206  stm32f4xx_hal_dma.o(i.HAL_DMA_Init)
    HAL_DMA_Start_IT                         0x08001d05   Thumb Code   120  stm32f4xx_hal_dma.o(i.HAL_DMA_Start_IT)
    HAL_Delay                                0x08001d7d   Thumb Code    32  stm32f4xx_hal.o(i.HAL_Delay)
    HAL_GPIO_Init                            0x08001da1   Thumb Code   388  stm32f4xx_hal_gpio.o(i.HAL_GPIO_Init)
    HAL_GPIO_TogglePin                       0x08001f51   Thumb Code    14  stm32f4xx_hal_gpio.o(i.HAL_GPIO_TogglePin)
    HAL_GPIO_WritePin                        0x08001f5f   Thumb Code    10  stm32f4xx_hal_gpio.o(i.HAL_GPIO_WritePin)
    HAL_GetTick                              0x08001f69   Thumb Code     6  stm32f4xx_hal.o(i.HAL_GetTick)
    HAL_I2C_Init                             0x08001f75   Thumb Code   356  stm32f4xx_hal_i2c.o(i.HAL_I2C_Init)
    HAL_I2C_MspInit                          0x080020e9   Thumb Code   118  i2c.o(i.HAL_I2C_MspInit)
    HAL_IncTick                              0x08002171   Thumb Code    12  stm32f4xx_hal.o(i.HAL_IncTick)
    HAL_Init                                 0x08002181   Thumb Code    48  stm32f4xx_hal.o(i.HAL_Init)
    HAL_InitTick                             0x080021b5   Thumb Code    54  stm32f4xx_hal.o(i.HAL_InitTick)
    HAL_MspInit                              0x080021f5   Thumb Code    42  stm32f4xx_hal_msp.o(i.HAL_MspInit)
    HAL_NVIC_EnableIRQ                       0x08002225   Thumb Code    26  stm32f4xx_hal_cortex.o(i.HAL_NVIC_EnableIRQ)
    HAL_NVIC_SetPriority                     0x08002241   Thumb Code    60  stm32f4xx_hal_cortex.o(i.HAL_NVIC_SetPriority)
    HAL_NVIC_SetPriorityGrouping             0x08002281   Thumb Code    26  stm32f4xx_hal_cortex.o(i.HAL_NVIC_SetPriorityGrouping)
    HAL_PCDEx_LPM_Callback                   0x080022a5   Thumb Code     2  stm32f4xx_hal_pcd_ex.o(i.HAL_PCDEx_LPM_Callback)
    HAL_PCDEx_SetRxFiFo                      0x080022a7   Thumb Code     8  stm32f4xx_hal_pcd_ex.o(i.HAL_PCDEx_SetRxFiFo)
    HAL_PCDEx_SetTxFiFo                      0x080022af   Thumb Code    68  stm32f4xx_hal_pcd_ex.o(i.HAL_PCDEx_SetTxFiFo)
    HAL_PCD_ConnectCallback                  0x080022f3   Thumb Code     8  usbd_conf.o(i.HAL_PCD_ConnectCallback)
    HAL_PCD_DataInStageCallback              0x080022fb   Thumb Code    18  usbd_conf.o(i.HAL_PCD_DataInStageCallback)
    HAL_PCD_DataOutStageCallback             0x0800230d   Thumb Code    20  usbd_conf.o(i.HAL_PCD_DataOutStageCallback)
    HAL_PCD_DisconnectCallback               0x08002321   Thumb Code     8  usbd_conf.o(i.HAL_PCD_DisconnectCallback)
    HAL_PCD_EP_Close                         0x08002329   Thumb Code    76  stm32f4xx_hal_pcd.o(i.HAL_PCD_EP_Close)
    HAL_PCD_EP_ClrStall                      0x08002375   Thumb Code    92  stm32f4xx_hal_pcd.o(i.HAL_PCD_EP_ClrStall)
    HAL_PCD_EP_GetRxCount                    0x080023d1   Thumb Code    18  stm32f4xx_hal_pcd.o(i.HAL_PCD_EP_GetRxCount)
    HAL_PCD_EP_Open                          0x080023e3   Thumb Code    96  stm32f4xx_hal_pcd.o(i.HAL_PCD_EP_Open)
    HAL_PCD_EP_Receive                       0x08002443   Thumb Code    72  stm32f4xx_hal_pcd.o(i.HAL_PCD_EP_Receive)
    HAL_PCD_EP_SetStall                      0x0800248b   Thumb Code   116  stm32f4xx_hal_pcd.o(i.HAL_PCD_EP_SetStall)
    HAL_PCD_EP_Transmit                      0x080024ff   Thumb Code    64  stm32f4xx_hal_pcd.o(i.HAL_PCD_EP_Transmit)
    HAL_PCD_IRQHandler                       0x08002541   Thumb Code  1114  stm32f4xx_hal_pcd.o(i.HAL_PCD_IRQHandler)
    HAL_PCD_ISOINIncompleteCallback          0x080029a5   Thumb Code     8  usbd_conf.o(i.HAL_PCD_ISOINIncompleteCallback)
    HAL_PCD_ISOOUTIncompleteCallback         0x080029ad   Thumb Code     8  usbd_conf.o(i.HAL_PCD_ISOOUTIncompleteCallback)
    HAL_PCD_Init                             0x080029b5   Thumb Code   226  stm32f4xx_hal_pcd.o(i.HAL_PCD_Init)
    HAL_PCD_MspInit                          0x08002a99   Thumb Code   122  usbd_conf.o(i.HAL_PCD_MspInit)
    HAL_PCD_ResetCallback                    0x08002b1d   Thumb Code    44  usbd_conf.o(i.HAL_PCD_ResetCallback)
    HAL_PCD_ResumeCallback                   0x08002b49   Thumb Code     8  usbd_conf.o(i.HAL_PCD_ResumeCallback)
    HAL_PCD_SOFCallback                      0x08002b51   Thumb Code     8  usbd_conf.o(i.HAL_PCD_SOFCallback)
    HAL_PCD_SetAddress                       0x08002b59   Thumb Code    40  stm32f4xx_hal_pcd.o(i.HAL_PCD_SetAddress)
    HAL_PCD_SetupStageCallback               0x08002b81   Thumb Code    14  usbd_conf.o(i.HAL_PCD_SetupStageCallback)
    HAL_PCD_Start                            0x08002b8f   Thumb Code    66  stm32f4xx_hal_pcd.o(i.HAL_PCD_Start)
    HAL_PCD_SuspendCallback                  0x08002bd1   Thumb Code    44  usbd_conf.o(i.HAL_PCD_SuspendCallback)
    HAL_RCC_ClockConfig                      0x08002c01   Thumb Code   286  stm32f4xx_hal_rcc.o(i.HAL_RCC_ClockConfig)
    HAL_RCC_GetHCLKFreq                      0x08002d31   Thumb Code     6  stm32f4xx_hal_rcc.o(i.HAL_RCC_GetHCLKFreq)
    HAL_RCC_GetPCLK1Freq                     0x08002d3d   Thumb Code    20  stm32f4xx_hal_rcc.o(i.HAL_RCC_GetPCLK1Freq)
    HAL_RCC_GetPCLK2Freq                     0x08002d5d   Thumb Code    20  stm32f4xx_hal_rcc.o(i.HAL_RCC_GetPCLK2Freq)
    HAL_RCC_GetSysClockFreq                  0x08002d7d   Thumb Code    88  stm32f4xx_hal_rcc.o(i.HAL_RCC_GetSysClockFreq)
    HAL_RCC_OscConfig                        0x08002de1   Thumb Code   770  stm32f4xx_hal_rcc.o(i.HAL_RCC_OscConfig)
    HAL_SYSTICK_Config                       0x080030fd   Thumb Code    40  stm32f4xx_hal_cortex.o(i.HAL_SYSTICK_Config)
    HAL_TIMEx_BreakCallback                  0x08003125   Thumb Code     2  stm32f4xx_hal_tim_ex.o(i.HAL_TIMEx_BreakCallback)
    HAL_TIMEx_CommutCallback                 0x08003127   Thumb Code     2  stm32f4xx_hal_tim_ex.o(i.HAL_TIMEx_CommutCallback)
    HAL_TIMEx_ConfigBreakDeadTime            0x08003129   Thumb Code    84  stm32f4xx_hal_tim_ex.o(i.HAL_TIMEx_ConfigBreakDeadTime)
    HAL_TIMEx_MasterConfigSynchronization    0x0800317d   Thumb Code    66  stm32f4xx_hal_tim_ex.o(i.HAL_TIMEx_MasterConfigSynchronization)
    HAL_TIM_Base_Init                        0x080031bf   Thumb Code    54  stm32f4xx_hal_tim.o(i.HAL_TIM_Base_Init)
    HAL_TIM_Base_MspInit                     0x080031f5   Thumb Code    86  tim.o(i.HAL_TIM_Base_MspInit)
    HAL_TIM_Base_Start_IT                    0x08003259   Thumb Code    34  stm32f4xx_hal_tim.o(i.HAL_TIM_Base_Start_IT)
    HAL_TIM_ConfigClockSource                0x0800327b   Thumb Code   214  stm32f4xx_hal_tim.o(i.HAL_TIM_ConfigClockSource)
    HAL_TIM_IC_CaptureCallback               0x08003351   Thumb Code     2  stm32f4xx_hal_tim.o(i.HAL_TIM_IC_CaptureCallback)
    HAL_TIM_IRQHandler                       0x08003353   Thumb Code   358  stm32f4xx_hal_tim.o(i.HAL_TIM_IRQHandler)
    HAL_TIM_MspPostInit                      0x080034b9   Thumb Code   144  tim.o(i.HAL_TIM_MspPostInit)
    HAL_TIM_OC_DelayElapsedCallback          0x0800355d   Thumb Code     2  stm32f4xx_hal_tim.o(i.HAL_TIM_OC_DelayElapsedCallback)
    HAL_TIM_PWM_ConfigChannel                0x0800355f   Thumb Code   208  stm32f4xx_hal_tim.o(i.HAL_TIM_PWM_ConfigChannel)
    HAL_TIM_PWM_Init                         0x0800362f   Thumb Code    54  stm32f4xx_hal_tim.o(i.HAL_TIM_PWM_Init)
    HAL_TIM_PWM_MspInit                      0x08003665   Thumb Code    42  tim.o(i.HAL_TIM_PWM_MspInit)
    HAL_TIM_PWM_PulseFinishedCallback        0x08003699   Thumb Code     2  stm32f4xx_hal_tim.o(i.HAL_TIM_PWM_PulseFinishedCallback)
    HAL_TIM_PWM_Start                        0x0800369d   Thumb Code    58  stm32f4xx_hal_tim.o(i.HAL_TIM_PWM_Start)
    HAL_TIM_PeriodElapsedCallback            0x080036e1   Thumb Code     2  stm32f4xx_hal_tim.o(i.HAL_TIM_PeriodElapsedCallback)
    HAL_TIM_TriggerCallback                  0x080036e3   Thumb Code     2  stm32f4xx_hal_tim.o(i.HAL_TIM_TriggerCallback)
    HAL_UART_DMAStop                         0x080036e5   Thumb Code    88  stm32f4xx_hal_uart.o(i.HAL_UART_DMAStop)
    HAL_UART_ErrorCallback                   0x0800373d   Thumb Code     2  stm32f4xx_hal_uart.o(i.HAL_UART_ErrorCallback)
    HAL_UART_IRQHandler                      0x08003741   Thumb Code   266  stm32f4xx_hal_uart.o(i.HAL_UART_IRQHandler)
    HAL_UART_Init                            0x08003851   Thumb Code    98  stm32f4xx_hal_uart.o(i.HAL_UART_Init)
    HAL_UART_MspInit                         0x080038b5   Thumb Code  1210  usart.o(i.HAL_UART_MspInit)
    HAL_UART_Receive_DMA                     0x08003d7d   Thumb Code   138  stm32f4xx_hal_uart.o(i.HAL_UART_Receive_DMA)
    HAL_UART_RxCpltCallback                  0x08003e15   Thumb Code     2  hardware_uart.o(i.HAL_UART_RxCpltCallback)
    HAL_UART_RxHalfCpltCallback              0x08003e17   Thumb Code     2  stm32f4xx_hal_uart.o(i.HAL_UART_RxHalfCpltCallback)
    HAL_UART_Transmit                        0x08003e19   Thumb Code   186  stm32f4xx_hal_uart.o(i.HAL_UART_Transmit)
    HAL_UART_Transmit_DMA                    0x08003ed5   Thumb Code   114  stm32f4xx_hal_uart.o(i.HAL_UART_Transmit_DMA)
    HAL_UART_TxCpltCallback                  0x08003f55   Thumb Code     2  stm32f4xx_hal_uart.o(i.HAL_UART_TxCpltCallback)
    HAL_UART_TxHalfCpltCallback              0x08003f57   Thumb Code     2  stm32f4xx_hal_uart.o(i.HAL_UART_TxHalfCpltCallback)
    Hadrware_Init                            0x08003f59   Thumb Code    78  init.o(i.Hadrware_Init)
    HardFault_Handler                        0x08003fb1   Thumb Code     2  stm32f4xx_it.o(i.HardFault_Handler)
    I2C_Init                                 0x08003fb5   Thumb Code    36  hardware_i2c.o(i.I2C_Init)
    I2C_Read_Byte                            0x08003fdd   Thumb Code    64  hardware_i2c.o(i.I2C_Read_Byte)
    I2C_Write_Byte                           0x0800401d   Thumb Code    50  hardware_i2c.o(i.I2C_Write_Byte)
    IIC_RecvACK                              0x08004051   Thumb Code    76  hardware_i2c.o(i.IIC_RecvACK)
    IIC_RecvByte                             0x080040a5   Thumb Code    70  hardware_i2c.o(i.IIC_RecvByte)
    IIC_SendACK                              0x080040f1   Thumb Code    92  hardware_i2c.o(i.IIC_SendACK)
    IIC_SendByte                             0x08004151   Thumb Code    92  hardware_i2c.o(i.IIC_SendByte)
    IIC_Start                                0x080041b1   Thumb Code    70  hardware_i2c.o(i.IIC_Start)
    IIC_Stop                                 0x080041fd   Thumb Code    62  hardware_i2c.o(i.IIC_Stop)
    IMU_Reset                                0x08004241   Thumb Code    28  imu.o(i.IMU_Reset)
    KernelPolling                            0x0800429d   Thumb Code   240  system.o(i.KernelPolling)
    LCD_Address_Set                          0x080043a9   Thumb Code    66  lcd_init.o(i.LCD_Address_Set)
    LCD_DrawPoint                            0x080043eb   Thumb Code    22  lcd.o(i.LCD_DrawPoint)
    LCD_Fill                                 0x08004401   Thumb Code    62  lcd.o(i.LCD_Fill)
    LCD_Init                                 0x08004441   Thumb Code   590  lcd_init.o(i.LCD_Init)
    LCD_ShowChar                             0x08004695   Thumb Code   252  lcd.o(i.LCD_ShowChar)
    LCD_ShowIntNum                           0x080047a1   Thumb Code   128  lcd.o(i.LCD_ShowIntNum)
    LCD_ShowString                           0x08004821   Thumb Code    58  lcd.o(i.LCD_ShowString)
    LCD_WR_DATA                              0x0800485b   Thumb Code    20  lcd_init.o(i.LCD_WR_DATA)
    LCD_WR_REG                               0x08004871   Thumb Code    36  lcd_init.o(i.LCD_WR_REG)
    LCD_Writ_Bus                             0x08004899   Thumb Code    82  lcd_init.o(i.LCD_Writ_Bus)
    LEDInit                                  0x080048f1   Thumb Code    18  led.o(i.LEDInit)
    MPU6050Init                              0x08004909   Thumb Code   162  mpu6050.o(i.MPU6050Init)
    MX_DMA_Init                              0x080049b5   Thumb Code   200  dma.o(i.MX_DMA_Init)
    MX_GPIO_Init                             0x08004a81   Thumb Code   372  gpio.o(i.MX_GPIO_Init)
    MX_I2C3_Init                             0x08004c09   Thumb Code    50  i2c.o(i.MX_I2C3_Init)
    MX_TIM1_Init                             0x08004c49   Thumb Code   204  tim.o(i.MX_TIM1_Init)
    MX_TIM2_Init                             0x08004d1d   Thumb Code   132  tim.o(i.MX_TIM2_Init)
    MX_TIM3_Init                             0x08004da5   Thumb Code    94  tim.o(i.MX_TIM3_Init)
    MX_TIM4_Init                             0x08004e0d   Thumb Code    94  tim.o(i.MX_TIM4_Init)
    MX_UART4_Init                            0x08004e75   Thumb Code    48  usart.o(i.MX_UART4_Init)
    MX_UART5_Init                            0x08004ead   Thumb Code    48  usart.o(i.MX_UART5_Init)
    MX_USART1_UART_Init                      0x08004ee5   Thumb Code    54  usart.o(i.MX_USART1_UART_Init)
    MX_USART2_UART_Init                      0x08004f29   Thumb Code    48  usart.o(i.MX_USART2_UART_Init)
    MX_USART3_UART_Init                      0x08004f61   Thumb Code    48  usart.o(i.MX_USART3_UART_Init)
    MX_USART6_UART_Init                      0x08004f99   Thumb Code    48  usart.o(i.MX_USART6_UART_Init)
    MX_USB_DEVICE_Init                       0x08004fd1   Thumb Code    66  usb_device.o(i.MX_USB_DEVICE_Init)
    MemManage_Handler                        0x08005025   Thumb Code     2  stm32f4xx_it.o(i.MemManage_Handler)
    MotorControl                             0x08005029   Thumb Code   514  control.o(i.MotorControl)
    Motor_Init                               0x08005251   Thumb Code    38  motor.o(i.Motor_Init)
    NMI_Handler                              0x0800527d   Thumb Code     2  stm32f4xx_it.o(i.NMI_Handler)
    OTG_FS_IRQHandler                        0x08005281   Thumb Code     6  stm32f4xx_it.o(i.OTG_FS_IRQHandler)
    PID_Init                                 0x0800540d   Thumb Code   124  init.o(i.PID_Init)
    POS_Ctrl                                 0x080054ad   Thumb Code   506  pos_ctrl.o(i.POS_Ctrl)
    PendSV_Handler                           0x080056e9   Thumb Code     2  stm32f4xx_it.o(i.PendSV_Handler)
    PollingGCS                               0x080056ed   Thumb Code   106  gcs.o(i.PollingGCS)
    PollingLED                               0x0800575d   Thumb Code   182  led.o(i.PollingLED)
    PollingUSART                             0x08005821   Thumb Code    80  hardware_uart.o(i.PollingUSART)
    Q_rsqrt                                  0x08005879   Thumb Code    40  mymath.o(i.Q_rsqrt)
    RCReceiveHandle                          0x080058a5   Thumb Code   210  remote.o(i.RCReceiveHandle)
    RemotePolling                            0x080059a9   Thumb Code    40  remote.o(i.RemotePolling)
    RemoteUnlock                             0x080059dd   Thumb Code   172  remote.o(i.RemoteUnlock)
    Remote_init                              0x08005a95   Thumb Code    32  remote.o(i.Remote_init)
    ResetPID                                 0x08005abd   Thumb Code    48  pid.o(i.ResetPID)
    SVC_Handler                              0x08005af9   Thumb Code     2  stm32f4xx_it.o(i.SVC_Handler)
    SysTick_Handler                          0x08005afd   Thumb Code   110  stm32f4xx_it.o(i.SysTick_Handler)
    SystemClock_Config                       0x08005b89   Thumb Code   126  main.o(i.SystemClock_Config)
    SystemInit                               0x08005c11   Thumb Code    66  system_stm32f4xx.o(i.SystemInit)
    TIM3_IRQHandler                          0x08005c65   Thumb Code     6  stm32f4xx_it.o(i.TIM3_IRQHandler)
    TIM4_IRQHandler                          0x08005c71   Thumb Code     6  stm32f4xx_it.o(i.TIM4_IRQHandler)
    TIM_Base_SetConfig                       0x08005c7d   Thumb Code   156  stm32f4xx_hal_tim.o(i.TIM_Base_SetConfig)
    TIM_CCxChannelCmd                        0x08005d45   Thumb Code    26  stm32f4xx_hal_tim.o(i.TIM_CCxChannelCmd)
    TIM_ETR_SetConfig                        0x08005d5f   Thumb Code    20  stm32f4xx_hal_tim.o(i.TIM_ETR_SetConfig)
    TIM_OC2_SetConfig                        0x08005de5   Thumb Code    98  stm32f4xx_hal_tim.o(i.TIM_OC2_SetConfig)
    Terrain_following                        0x08005f51   Thumb Code    98  speed_estimator.o(i.Terrain_following)
    UART4_IRQHandler                         0x08005fb9   Thumb Code    44  stm32f4xx_it.o(i.UART4_IRQHandler)
    UART5_IRQHandler                         0x08005fe9   Thumb Code    60  stm32f4xx_it.o(i.UART5_IRQHandler)
    UART_1_ReceiveHandle                     0x08006031   Thumb Code    26  hardware_uart.o(i.UART_1_ReceiveHandle)
    UART_2_ReceiveHandle                     0x08006055   Thumb Code    20  hardware_uart.o(i.UART_2_ReceiveHandle)
    UART_3_ReceiveHandle                     0x08006069   Thumb Code     2  hardware_uart.o(i.UART_3_ReceiveHandle)
    UART_4_ReceiveHandle                     0x0800606b   Thumb Code     2  hardware_uart.o(i.UART_4_ReceiveHandle)
    UART_5_ReceiveHandle                     0x0800606d   Thumb Code     2  hardware_uart.o(i.UART_5_ReceiveHandle)
    UART_6_ReceiveHandle                     0x0800606f   Thumb Code     2  hardware_uart.o(i.UART_6_ReceiveHandle)
    USART1_IRQHandler                        0x08006581   Thumb Code    44  stm32f4xx_it.o(i.USART1_IRQHandler)
    USART2_IRQHandler                        0x080065b1   Thumb Code    44  stm32f4xx_it.o(i.USART2_IRQHandler)
    USART3_IRQHandler                        0x080065e5   Thumb Code    34  stm32f4xx_it.o(i.USART3_IRQHandler)
    USART6_IRQHandler                        0x0800660d   Thumb Code    54  stm32f4xx_it.o(i.USART6_IRQHandler)
    USART_Init                               0x08006651   Thumb Code   794  hardware_uart.o(i.USART_Init)
    USBD_CDC_GetDeviceQualifierDescriptor    0x08006a89   Thumb Code     8  usbd_cdc.o(i.USBD_CDC_GetDeviceQualifierDescriptor)
    USBD_CDC_ReceivePacket                   0x08006b4d   Thumb Code    40  usbd_cdc.o(i.USBD_CDC_ReceivePacket)
    USBD_CDC_RegisterInterface               0x08006b75   Thumb Code    16  usbd_cdc.o(i.USBD_CDC_RegisterInterface)
    USBD_CDC_SetRxBuffer                     0x08006b85   Thumb Code    12  usbd_cdc.o(i.USBD_CDC_SetRxBuffer)
    USBD_CDC_SetTxBuffer                     0x08006b91   Thumb Code    16  usbd_cdc.o(i.USBD_CDC_SetTxBuffer)
    USBD_ClrClassConfig                      0x08006c4d   Thumb Code    14  usbd_core.o(i.USBD_ClrClassConfig)
    USBD_CtlContinueRx                       0x08006c5b   Thumb Code    16  usbd_ioreq.o(i.USBD_CtlContinueRx)
    USBD_CtlContinueSendData                 0x08006c6b   Thumb Code    16  usbd_ioreq.o(i.USBD_CtlContinueSendData)
    USBD_CtlError                            0x08006c7b   Thumb Code    22  usbd_ctlreq.o(i.USBD_CtlError)
    USBD_CtlPrepareRx                        0x08006c91   Thumb Code    30  usbd_ioreq.o(i.USBD_CtlPrepareRx)
    USBD_CtlReceiveStatus                    0x08006caf   Thumb Code    22  usbd_ioreq.o(i.USBD_CtlReceiveStatus)
    USBD_CtlSendData                         0x08006cc5   Thumb Code    26  usbd_ioreq.o(i.USBD_CtlSendData)
    USBD_CtlSendStatus                       0x08006cdf   Thumb Code    22  usbd_ioreq.o(i.USBD_CtlSendStatus)
    USBD_FS_ConfigStrDescriptor              0x08006cf5   Thumb Code    16  usbd_desc.o(i.USBD_FS_ConfigStrDescriptor)
    USBD_FS_DeviceDescriptor                 0x08006d15   Thumb Code     8  usbd_desc.o(i.USBD_FS_DeviceDescriptor)
    USBD_FS_InterfaceStrDescriptor           0x08006d21   Thumb Code    16  usbd_desc.o(i.USBD_FS_InterfaceStrDescriptor)
    USBD_FS_LangIDStrDescriptor              0x08006d45   Thumb Code     8  usbd_desc.o(i.USBD_FS_LangIDStrDescriptor)
    USBD_FS_ManufacturerStrDescriptor        0x08006d51   Thumb Code    16  usbd_desc.o(i.USBD_FS_ManufacturerStrDescriptor)
    USBD_FS_ProductStrDescriptor             0x08006d6d   Thumb Code    16  usbd_desc.o(i.USBD_FS_ProductStrDescriptor)
    USBD_FS_SerialStrDescriptor              0x08006d89   Thumb Code    48  usbd_desc.o(i.USBD_FS_SerialStrDescriptor)
    USBD_GetString                           0x08006ea9   Thumb Code    72  usbd_ctlreq.o(i.USBD_GetString)
    USBD_Get_USB_Status                      0x08006ef1   Thumb Code    24  usbd_conf.o(i.USBD_Get_USB_Status)
    USBD_Init                                0x08006f09   Thumb Code    42  usbd_core.o(i.USBD_Init)
    USBD_LL_ClearStallEP                     0x08006f33   Thumb Code    18  usbd_conf.o(i.USBD_LL_ClearStallEP)
    USBD_LL_CloseEP                          0x08006f45   Thumb Code    18  usbd_conf.o(i.USBD_LL_CloseEP)
    USBD_LL_DataInStage                      0x08006f57   Thumb Code   198  usbd_core.o(i.USBD_LL_DataInStage)
    USBD_LL_DataOutStage                     0x0800701d   Thumb Code   130  usbd_core.o(i.USBD_LL_DataOutStage)
    USBD_LL_DevConnected                     0x0800709f   Thumb Code     4  usbd_core.o(i.USBD_LL_DevConnected)
    USBD_LL_DevDisconnected                  0x080070a3   Thumb Code    22  usbd_core.o(i.USBD_LL_DevDisconnected)
    USBD_LL_GetRxDataSize                    0x080070b9   Thumb Code     8  usbd_conf.o(i.USBD_LL_GetRxDataSize)
    USBD_LL_Init                             0x080070c1   Thumb Code    90  usbd_conf.o(i.USBD_LL_Init)
    USBD_LL_IsStallEP                        0x08007121   Thumb Code    32  usbd_conf.o(i.USBD_LL_IsStallEP)
    USBD_LL_IsoINIncomplete                  0x08007141   Thumb Code     4  usbd_core.o(i.USBD_LL_IsoINIncomplete)
    USBD_LL_IsoOUTIncomplete                 0x08007145   Thumb Code     4  usbd_core.o(i.USBD_LL_IsoOUTIncomplete)
    USBD_LL_OpenEP                           0x08007149   Thumb Code    24  usbd_conf.o(i.USBD_LL_OpenEP)
    USBD_LL_PrepareReceive                   0x08007161   Thumb Code    18  usbd_conf.o(i.USBD_LL_PrepareReceive)
    USBD_LL_Reset                            0x08007173   Thumb Code    80  usbd_core.o(i.USBD_LL_Reset)
    USBD_LL_Resume                           0x080071c3   Thumb Code    12  usbd_core.o(i.USBD_LL_Resume)
    USBD_LL_SOF                              0x080071cf   Thumb Code    24  usbd_core.o(i.USBD_LL_SOF)
    USBD_LL_SetSpeed                         0x080071e7   Thumb Code     6  usbd_core.o(i.USBD_LL_SetSpeed)
    USBD_LL_SetUSBAddress                    0x080071ed   Thumb Code    18  usbd_conf.o(i.USBD_LL_SetUSBAddress)
    USBD_LL_SetupStage                       0x080071ff   Thumb Code    90  usbd_core.o(i.USBD_LL_SetupStage)
    USBD_LL_StallEP                          0x08007259   Thumb Code    18  usbd_conf.o(i.USBD_LL_StallEP)
    USBD_LL_Start                            0x0800726b   Thumb Code    18  usbd_conf.o(i.USBD_LL_Start)
    USBD_LL_Suspend                          0x0800727d   Thumb Code    18  usbd_core.o(i.USBD_LL_Suspend)
    USBD_LL_Transmit                         0x0800728f   Thumb Code    18  usbd_conf.o(i.USBD_LL_Transmit)
    USBD_ParseSetupRequest                   0x080072a1   Thumb Code    40  usbd_ctlreq.o(i.USBD_ParseSetupRequest)
    USBD_RegisterClass                       0x080072c9   Thumb Code    16  usbd_core.o(i.USBD_RegisterClass)
    USBD_SetClassConfig                      0x080072d9   Thumb Code    22  usbd_core.o(i.USBD_SetClassConfig)
    USBD_Start                               0x08007375   Thumb Code    10  usbd_core.o(i.USBD_Start)
    USBD_StdDevReq                           0x0800737f   Thumb Code   274  usbd_ctlreq.o(i.USBD_StdDevReq)
    USBD_StdEPReq                            0x08007491   Thumb Code   336  usbd_ctlreq.o(i.USBD_StdEPReq)
    USBD_StdItfReq                           0x080075e1   Thumb Code    78  usbd_ctlreq.o(i.USBD_StdItfReq)
    USB_ActivateEndpoint                     0x08007631   Thumb Code   122  stm32f4xx_ll_usb.o(i.USB_ActivateEndpoint)
    USB_ActivateSetup                        0x080076b1   Thumb Code    52  stm32f4xx_ll_usb.o(i.USB_ActivateSetup)
    USB_CoreInit                             0x080076e5   Thumb Code   112  stm32f4xx_ll_usb.o(i.USB_CoreInit)
    USB_DeactivateEndpoint                   0x08007791   Thumb Code   118  stm32f4xx_ll_usb.o(i.USB_DeactivateEndpoint)
    USB_DevConnect                           0x08007811   Thumb Code    24  stm32f4xx_ll_usb.o(i.USB_DevConnect)
    USB_DevDisconnect                        0x08007829   Thumb Code    24  stm32f4xx_ll_usb.o(i.USB_DevDisconnect)
    USB_DevInit                              0x08007841   Thumb Code   378  stm32f4xx_ll_usb.o(i.USB_DevInit)
    USB_DisableGlobalInt                     0x080079cd   Thumb Code    12  stm32f4xx_ll_usb.o(i.USB_DisableGlobalInt)
    USB_EP0StartXfer                         0x080079d9   Thumb Code   276  stm32f4xx_ll_usb.o(i.USB_EP0StartXfer)
    USB_EP0_OutStart                         0x08007af1   Thumb Code    84  stm32f4xx_ll_usb.o(i.USB_EP0_OutStart)
    USB_EPClearStall                         0x08007b49   Thumb Code    88  stm32f4xx_ll_usb.o(i.USB_EPClearStall)
    USB_EPSetStall                           0x08007ba1   Thumb Code    88  stm32f4xx_ll_usb.o(i.USB_EPSetStall)
    USB_EPStartXfer                          0x08007bf9   Thumb Code   482  stm32f4xx_ll_usb.o(i.USB_EPStartXfer)
    USB_EnableGlobalInt                      0x08007de1   Thumb Code    12  stm32f4xx_ll_usb.o(i.USB_EnableGlobalInt)
    USB_FlushRxFifo                          0x08007ded   Thumb Code    28  stm32f4xx_ll_usb.o(i.USB_FlushRxFifo)
    USB_FlushTxFifo                          0x08007e0d   Thumb Code    32  stm32f4xx_ll_usb.o(i.USB_FlushTxFifo)
    USB_GetDevSpeed                          0x08007e31   Thumb Code    26  stm32f4xx_ll_usb.o(i.USB_GetDevSpeed)
    USB_GetMode                              0x08007e4b   Thumb Code     8  stm32f4xx_ll_usb.o(i.USB_GetMode)
    USB_ReadDevAllInEpInterrupt              0x08007e53   Thumb Code    14  stm32f4xx_ll_usb.o(i.USB_ReadDevAllInEpInterrupt)
    USB_ReadDevAllOutEpInterrupt             0x08007e61   Thumb Code    14  stm32f4xx_ll_usb.o(i.USB_ReadDevAllOutEpInterrupt)
    USB_ReadDevInEPInterrupt                 0x08007e6f   Thumb Code    36  stm32f4xx_ll_usb.o(i.USB_ReadDevInEPInterrupt)
    USB_ReadDevOutEPInterrupt                0x08007e93   Thumb Code    16  stm32f4xx_ll_usb.o(i.USB_ReadDevOutEPInterrupt)
    USB_ReadInterrupts                       0x08007ea3   Thumb Code     8  stm32f4xx_ll_usb.o(i.USB_ReadInterrupts)
    USB_ReadPacket                           0x08007eab   Thumb Code    28  stm32f4xx_ll_usb.o(i.USB_ReadPacket)
    USB_SetCurrentMode                       0x08007ec7   Thumb Code    46  stm32f4xx_ll_usb.o(i.USB_SetCurrentMode)
    USB_SetDevAddress                        0x08007ef5   Thumb Code    34  stm32f4xx_ll_usb.o(i.USB_SetDevAddress)
    USB_SetTurnaroundTime                    0x08007f19   Thumb Code   158  stm32f4xx_ll_usb.o(i.USB_SetTurnaroundTime)
    USB_WritePacket                          0x08008001   Thumb Code    36  stm32f4xx_ll_usb.o(i.USB_WritePacket)
    UpdateAction                             0x08008025   Thumb Code   130  followline_eg2.o(i.UpdateAction)
    UpdateButton                             0x080080b5   Thumb Code    30  followline_eg2.o(i.UpdateButton)
    UpdateCentControl                        0x080080e1   Thumb Code    18  followline_eg2.o(i.UpdateCentControl)
    UpdateMotor                              0x080080f5   Thumb Code    92  motor.o(i.UpdateMotor)
    UpdatePID                                0x08008155   Thumb Code   312  pid.o(i.UpdatePID)
    UpdateStatus                             0x08008291   Thumb Code   150  followline_eg2.o(i.UpdateStatus)
    UpdateToGCSAltitude                      0x08008331   Thumb Code    74  gcs.o(i.UpdateToGCSAltitude)
    UpdateToGCSAttitude                      0x08008385   Thumb Code   166  gcs.o(i.UpdateToGCSAttitude)
    UpdateToGCSHardwareInfo                  0x0800843d   Thumb Code    62  gcs.o(i.UpdateToGCSHardwareInfo)
    UpdateToGCSLine                          0x08008485   Thumb Code    82  gcs.o(i.UpdateToGCSLine)
    UpdateToGCSLine2                         0x080084dd   Thumb Code    88  gcs.o(i.UpdateToGCSLine2)
    UpdateToGCSMPU6050                       0x08008535   Thumb Code    58  gcs.o(i.UpdateToGCSMPU6050)
    UpdateToGCSPidInfo                       0x08008579   Thumb Code   120  gcs.o(i.UpdateToGCSPidInfo)
    UpdateUSBQueue                           0x08008601   Thumb Code    42  gcs.o(i.UpdateUSBQueue)
    UsageFault_Handler                       0x08008635   Thumb Code     2  stm32f4xx_it.o(i.UsageFault_Handler)
    WZ_Est_Calcu                             0x08008639   Thumb Code    34  speed_estimator.o(i.WZ_Est_Calcu)
    WZ_Fix_Calcu                             0x08008665   Thumb Code   202  speed_estimator.o(i.WZ_Fix_Calcu)
    WZ_Fus_Reset                             0x08008761   Thumb Code    24  speed_estimator.o(i.WZ_Fus_Reset)
    WZ_Obs_Calcu                             0x08008781   Thumb Code   256  speed_estimator.o(i.WZ_Obs_Calcu)
    ZKHD_Link_FMU_To_GCS_Handle              0x080088a5   Thumb Code    10  zkhd_link.o(i.ZKHD_Link_FMU_To_GCS_Handle)
    ZKHD_Link_MakeFrame                      0x080088b5   Thumb Code   100  zkhd_link.o(i.ZKHD_Link_MakeFrame)
    __ARM_fpclassify                         0x08008919   Thumb Code    48  fpclassify.o(i.__ARM_fpclassify)
    __ARM_fpclassifyf                        0x08008949   Thumb Code    38  fpclassifyf.o(i.__ARM_fpclassifyf)
    __hardfp_asin                            0x08008991   Thumb Code   770  asin.o(i.__hardfp_asin)
    __hardfp_atan2f                          0x08008cf1   Thumb Code   502  atan2f.o(i.__hardfp_atan2f)
    __kernel_poly                            0x08008f41   Thumb Code   248  poly.o(i.__kernel_poly)
    __mathlib_dbl_infnan                     0x08009039   Thumb Code    20  dunder.o(i.__mathlib_dbl_infnan)
    __mathlib_dbl_invalid                    0x08009051   Thumb Code    24  dunder.o(i.__mathlib_dbl_invalid)
    __mathlib_dbl_underflow                  0x08009071   Thumb Code    24  dunder.o(i.__mathlib_dbl_underflow)
    __mathlib_flt_infnan2                    0x08009091   Thumb Code     6  funder.o(i.__mathlib_flt_infnan2)
    __mathlib_flt_underflow                  0x08009099   Thumb Code    10  funder.o(i.__mathlib_flt_underflow)
    __scatterload_copy                       0x080090a9   Thumb Code    14  handlers.o(i.__scatterload_copy)
    __scatterload_null                       0x080090b7   Thumb Code     2  handlers.o(i.__scatterload_null)
    __scatterload_zeroinit                   0x080090b9   Thumb Code    14  handlers.o(i.__scatterload_zeroinit)
    __set_errno                              0x080090c9   Thumb Code     6  errno.o(i.__set_errno)
    beep_update                              0x080090d5   Thumb Code    10  beep.o(i.beep_update)
    deQueue                                  0x080090e5   Thumb Code    68  my_queue.o(i.deQueue)
    delay                                    0x08009129   Thumb Code    10  hardware_i2c.o(i.delay)
    enQueue                                  0x08009139   Thumb Code    70  my_queue.o(i.enQueue)
    fabs                                     0x0800917f   Thumb Code    24  fabs.o(i.fabs)
    flush_lcd                                0x08009199   Thumb Code    44  lcd_status.o(i.flush_lcd)
    free                                     0x080091cd   Thumb Code    76  malloc.o(i.free)
    gcs_init                                 0x0800921d   Thumb Code    32  gcs.o(i.gcs_init)
    lcd_exchange_page                        0x08009259   Thumb Code    26  lcd_status.o(i.lcd_exchange_page)
    lcd_message                              0x08009279   Thumb Code   118  lcd_status.o(i.lcd_message)
    lcd_status_init                          0x080092f5   Thumb Code    86  lcd_status.o(i.lcd_status_init)
    lcd_update                               0x08009351   Thumb Code   378  lcd_status.o(i.lcd_update)
    main                                     0x080095e9   Thumb Code    90  main.o(i.main)
    malloc                                   0x08009645   Thumb Code    92  malloc.o(i.malloc)
    mypow                                    0x080096b1   Thumb Code    16  lcd.o(i.mypow)
    reset_i                                  0x080096c1   Thumb Code    10  pid.o(i.reset_i)
    sdk_init                                 0x080096d1   Thumb Code   138  sdk.o(i.sdk_init)
    sdk_land                                 0x08009775   Thumb Code     8  sdk.o(i.sdk_land)
    sdk_lock                                 0x08009781   Thumb Code    12  sdk.o(i.sdk_lock)
    sdk_takeoff                              0x08009791   Thumb Code    16  sdk.o(i.sdk_takeoff)
    sdk_unlock                               0x080097a5   Thumb Code    12  sdk.o(i.sdk_unlock)
    sdk_update                               0x080097b5   Thumb Code   258  sdk.o(i.sdk_update)
    sdk_update_position                      0x080098ed   Thumb Code    80  sdk.o(i.sdk_update_position)
    sdk_update_s_2                           0x0800994d   Thumb Code   122  sdk.o(i.sdk_update_s_2)
    sdk_velocity_reset                       0x080099cd   Thumb Code    16  sdk.o(i.sdk_velocity_reset)
    sdk_velociyt_x_set                       0x080099e5   Thumb Code    38  sdk.o(i.sdk_velociyt_x_set)
    sdk_velociyt_y_set                       0x08009a21   Thumb Code    38  sdk.o(i.sdk_velociyt_y_set)
    sqrt                                     0x08009a5d   Thumb Code   110  sqrt.o(i.sqrt)
    update2gcs_mode                          0x08009acd   Thumb Code    46  gcs.o(i.update2gcs_mode)
    update2gcsdevecelist                     0x08009b01   Thumb Code   136  gcs.o(i.update2gcsdevecelist)
    update2gcsotherinfogroup1                0x08009b95   Thumb Code   116  gcs.o(i.update2gcsotherinfogroup1)
    update_status                            0x08009c11   Thumb Code    44  status.o(i.update_status)
    usart_rx_idle_handle                     0x08009c49   Thumb Code    94  hardware_uart.o(i.usart_rx_idle_handle)
    AHBPrescTable                            0x08009cb8   Data          16  system_stm32f4xx.o(.constdata)
    APBPrescTable                            0x08009cc8   Data           8  system_stm32f4xx.o(.constdata)
    ascii_1206                               0x08009cd0   Data        1140  lcd.o(.constdata)
    ascii_1608                               0x0800a144   Data        1520  lcd.o(.constdata)
    ascii_2412                               0x0800a734   Data        4560  lcd.o(.constdata)
    ascii_3216                               0x0800b904   Data        6080  lcd.o(.constdata)
    tfont12                                  0x0800d0c4   Data         130  lcd.o(.constdata)
    tfont16                                  0x0800d146   Data         170  lcd.o(.constdata)
    tfont24                                  0x0800d1f0   Data         370  lcd.o(.constdata)
    tfont32                                  0x0800d362   Data         650  lcd.o(.constdata)
    RtA                                      0x0800d5ec   Data           4  mymath.o(.constdata)
    Gyro_G                                   0x0800d5f0   Data           4  mymath.o(.constdata)
    Gyro_Gr                                  0x0800d5f4   Data           4  mymath.o(.constdata)
    Region$$Table$$Base                      0x0800d648   Number         0  anon$$obj.o(Region$$Table)
    Region$$Table$$Limit                     0x0800d668   Number         0  anon$$obj.o(Region$$Table)
    KernelRunning                            0x20000000   Data           1  system.o(.data)
    FS_Desc                                  0x20000008   Data          28  usbd_desc.o(.data)
    USBD_LangIDDesc                          0x20000024   Data           4  usbd_desc.o(.data)
    USBD_FS_DeviceDesc                       0x20000028   Data          18  usbd_desc.o(.data)
    USBD_StringSerial                        0x2000003c   Data          26  usbd_desc.o(.data)
    USBD_Interface_fops_FS                   0x20000058   Data          16  usbd_cdc_if.o(.data)
    temp2                                    0x20000068   Data           1  stm32f4xx_it.o(.data)
    msTicks                                  0x2000006c   Data           4  stm32f4xx_it.o(.data)
    uwTickFreq                               0x20000070   Data           1  stm32f4xx_hal.o(.data)
    uwTickPrio                               0x20000074   Data           4  stm32f4xx_hal.o(.data)
    uwTick                                   0x20000078   Data           4  stm32f4xx_hal.o(.data)
    SystemCoreClock                          0x2000007c   Data           4  system_stm32f4xx.o(.data)
    USBD_CDC_CfgHSDesc                       0x20000090   Data          67  usbd_cdc.o(.data)
    USBD_CDC_CfgFSDesc                       0x200000d4   Data          67  usbd_cdc.o(.data)
    USBD_CDC_OtherSpeedCfgDesc               0x20000118   Data          67  usbd_cdc.o(.data)
    USBD_CDC                                 0x2000015c   Data          56  usbd_cdc.o(.data)
    BeepManager                              0x20000194   Data           6  beep.o(.data)
    g_LedManager                             0x2000019a   Data           8  led.o(.data)
    pMpu                                     0x200001a8   Data           4  mpu6050.o(.data)
    NormAccz                                 0x200001b4   Data           4  imu.o(.data)
    ano_of_alt_count                         0x200001e8   Data           4  ano_of.o(.data)
    ano_of_count                             0x200001ec   Data           4  ano_of.o(.data)
    PID_select                               0x200001f1   Data           1  gcs.o(.data)
    base                                     0x200001f4   Data           4  gcs.o(.data)
    PID_Config_Info                          0x200001fc   Data           4  gcs.o(.data)
    FbAlt                                    0x20000200   Data           2  gcs.o(.data)
    ExpAlt                                   0x20000202   Data           2  gcs.o(.data)
    is_uart_init_compleate                   0x20000204   Data           1  hardware_uart.o(.data)
    Ack_Count                                0x20000208   Data           1  hardware_i2c.o(.data)
    cnt                                      0x2000020c   Data           4  hardware_i2c.o(.data)
    Select_Baro                              0x20000211   Data           1  speed_estimator.o(.data)
    Estimator_Enable                         0x20000212   Data           1  speed_estimator.o(.data)
    wz_fus_sta                               0x20000213   Data           1  speed_estimator.o(.data)
    obs_wz_hasl                              0x20000228   Data           4  speed_estimator.o(.data)
    obs_wz_hasl_gnd                          0x2000022c   Data           4  speed_estimator.o(.data)
    obs_wz_velocity_ref                      0x20000230   Data           4  speed_estimator.o(.data)
    obs_wz_height_ref                        0x20000234   Data           4  speed_estimator.o(.data)
    est_wz_velocity                          0x20000238   Data           4  speed_estimator.o(.data)
    est_wz_height                            0x2000023c   Data           4  speed_estimator.o(.data)
    fix_wz_velocity                          0x20000240   Data           4  speed_estimator.o(.data)
    fix_wz_height                            0x20000244   Data           4  speed_estimator.o(.data)
    fix_wz_acceleration                      0x20000248   Data           4  speed_estimator.o(.data)
    obs_wz_velocity                          0x2000024c   Data           8  speed_estimator.o(.data)
    obs_wz_height                            0x20000254   Data           8  speed_estimator.o(.data)
    InitComplete                             0x20000264   Data           1  init.o(.data)
    FollowLine_ActionList_str                0x20000267   Data         600  lcd_status.o(.data)
    g_FMUflg                                 0x200004c2   Data           1  control.o(.data)
    PIDGroup_desired_yaw_pos_tmp             0x200004c4   Data           4  control.o(.data)
    motor                                    0x200004c8   Data           8  control.o(.data)
    fc_state_take_off                        0x200004d0   Data           1  height_control.o(.data)
    exp_velocity                             0x20000508   Data           8  pos_ctrl.o(.data)
    fb_velocity                              0x20000510   Data           8  pos_ctrl.o(.data)
    fb_velocity_old                          0x20000518   Data           8  pos_ctrl.o(.data)
    fb_velocity_d                            0x20000520   Data           8  pos_ctrl.o(.data)
    fb_velocity_fixed                        0x20000528   Data           8  pos_ctrl.o(.data)
    pos_velocity_err                         0x20000530   Data           8  pos_ctrl.o(.data)
    pos_velocity_err_i                       0x20000538   Data           8  pos_ctrl.o(.data)
    pos_out                                  0x20000540   Data           8  pos_ctrl.o(.data)
    pos_out_trans                            0x20000548   Data           8  pos_ctrl.o(.data)
    OnlineCnt                                0x20000554   Data           4  remote.o(.data)
    __microlib_freelist                      0x20000578   Data           4  mvars.o(.data)
    __microlib_freelist_initialised          0x2000057c   Data           4  mvars.o(.data)
    hi2c3                                    0x20000584   Data          84  i2c.o(.bss)
    htim1                                    0x200005d8   Data          64  tim.o(.bss)
    htim2                                    0x20000618   Data          64  tim.o(.bss)
    htim3                                    0x20000658   Data          64  tim.o(.bss)
    htim4                                    0x20000698   Data          64  tim.o(.bss)
    huart4                                   0x200006d8   Data          64  usart.o(.bss)
    huart5                                   0x20000718   Data          64  usart.o(.bss)
    huart1                                   0x20000758   Data          64  usart.o(.bss)
    huart2                                   0x20000798   Data          64  usart.o(.bss)
    huart3                                   0x200007d8   Data          64  usart.o(.bss)
    huart6                                   0x20000818   Data          64  usart.o(.bss)
    hdma_uart4_tx                            0x20000858   Data          96  usart.o(.bss)
    hdma_uart4_rx                            0x200008b8   Data          96  usart.o(.bss)
    hdma_uart5_tx                            0x20000918   Data          96  usart.o(.bss)
    hdma_uart5_rx                            0x20000978   Data          96  usart.o(.bss)
    hdma_usart1_rx                           0x200009d8   Data          96  usart.o(.bss)
    hdma_usart2_tx                           0x20000a38   Data          96  usart.o(.bss)
    hdma_usart2_rx                           0x20000a98   Data          96  usart.o(.bss)
    hdma_usart3_rx                           0x20000af8   Data          96  usart.o(.bss)
    hdma_usart3_tx                           0x20000b58   Data          96  usart.o(.bss)
    hdma_usart6_rx                           0x20000bb8   Data          96  usart.o(.bss)
    hdma_usart6_tx                           0x20000c18   Data          96  usart.o(.bss)
    hUsbDeviceFS                             0x20000c78   Data         668  usb_device.o(.bss)
    hpcd_USB_OTG_FS                          0x20000f14   Data        1032  usbd_conf.o(.bss)
    USBD_StrDesc                             0x2000131c   Data         512  usbd_desc.o(.bss)
    UserRxBufferFS                           0x2000151c   Data        2048  usbd_cdc_if.o(.bss)
    UserTxBufferFS                           0x20001d1c   Data        2048  usbd_cdc_if.o(.bss)
    g_MPUManager                             0x2000254c   Data          26  mpu6050.o(.bss)
    buffer                                   0x20002566   Data          14  mpu6050.o(.bss)
    g_Attitude                               0x20002574   Data          12  imu.o(.bss)
    ANO_OF                                   0x20002580   Data          72  ano_of.o(.bss)
    g_UAVinfo                                0x200025fc   Data          36  gcs.o(.bss)
    SBusRxBuff                               0x20002620   Data         150  hardware_uart.o(.bss)
    UsartGroup                               0x200026b8   Data        4584  hardware_uart.o(.bss)
    fix_rat                                  0x200038a0   Data          12  speed_estimator.o(.bss)
    USB_Send_Queue                           0x200038ac   Data         332  init.o(.bss)
    lcd_manager                              0x200039f8   Data         444  lcd_status.o(.bss)
    temp_                                    0x20003bb4   Data          21  lcd_status.o(.bss)
    PIDGroup                                 0x20003bcc   Data         884  pid.o(.bss)
    fb_gyro_lpf                              0x20003f40   Data          12  control.o(.bss)
    HeightInfo                               0x20003f4c   Data          20  height_control.o(.bss)
    SBusRemote                               0x20003f70   Data          32  remote.o(.bss)
    RC_rxData                                0x20003f90   Data          32  remote.o(.bss)
    Remote                                   0x20003fb0   Data          24  remote.o(.bss)
    PreRemote                                0x20003fc8   Data          26  remote.o(.bss)
    sdk_pid                                  0x20003fe4   Data         204  sdk.o(.bss)
    sdk_manager                              0x200040b0   Data          44  sdk.o(.bss)
    s2_height                                0x200040dc   Data          88  sdk.o(.bss)
    FollowManager                            0x20004134   Data          48  followline_eg2.o(.bss)
    __heap_base                              0x20004168   Data           0  startup_stm32f407xx.o(HEAP)
    __heap_limit                             0x20004368   Data           0  startup_stm32f407xx.o(HEAP)
    __initial_sp                             0x20004568   Data           0  startup_stm32f407xx.o(STACK)



==============================================================================

Memory Map of the image

  Image Entry point : 0x08000189

  Load Region LR_IROM1 (Base: 0x08000000, Size: 0x0000dbec, Max: 0x00080000, ABSOLUTE, COMPRESSED[0x0000d814])

    Execution Region ER_IROM1 (Exec base: 0x08000000, Load base: 0x08000000, Size: 0x0000d668, Max: 0x00080000, ABSOLUTE)

    Exec Addr    Load Addr    Size         Type   Attr      Idx    E Section Name        Object

    0x08000000   0x08000000   0x00000188   Data   RO            3    RESET               startup_stm32f407xx.o
    0x08000188   0x08000188   0x00000000   Code   RO         6895  * .ARM.Collect$$$$00000000  mc_w.l(entry.o)
    0x08000188   0x08000188   0x00000004   Code   RO         7009    .ARM.Collect$$$$00000001  mc_w.l(entry2.o)
    0x0800018c   0x0800018c   0x00000004   Code   RO         7012    .ARM.Collect$$$$00000004  mc_w.l(entry5.o)
    0x08000190   0x08000190   0x00000000   Code   RO         7014    .ARM.Collect$$$$00000008  mc_w.l(entry7b.o)
    0x08000190   0x08000190   0x00000000   Code   RO         7016    .ARM.Collect$$$$0000000A  mc_w.l(entry8b.o)
    0x08000190   0x08000190   0x00000008   Code   RO         7017    .ARM.Collect$$$$0000000B  mc_w.l(entry9a.o)
    0x08000198   0x08000198   0x00000000   Code   RO         7019    .ARM.Collect$$$$0000000D  mc_w.l(entry10a.o)
    0x08000198   0x08000198   0x00000000   Code   RO         7021    .ARM.Collect$$$$0000000F  mc_w.l(entry11a.o)
    0x08000198   0x08000198   0x00000004   Code   RO         7010    .ARM.Collect$$$$00002712  mc_w.l(entry2.o)
    0x0800019c   0x0800019c   0x00000024   Code   RO            4    .text               startup_stm32f407xx.o
    0x080001c0   0x080001c0   0x00000062   Code   RO         6898    .text               mc_w.l(uldiv.o)
    0x08000222   0x08000222   0x00000040   Code   RO         6902    .text               mc_w.l(memmovea.o)
    0x08000262   0x08000262   0x00000024   Code   RO         6904    .text               mc_w.l(memseta.o)
    0x08000286   0x08000286   0x0000014e   Code   RO         6942    .text               mf_w.l(dadd.o)
    0x080003d4   0x080003d4   0x000000e4   Code   RO         6944    .text               mf_w.l(dmul.o)
    0x080004b8   0x080004b8   0x0000001a   Code   RO         6946    .text               mf_w.l(dfltui.o)
    0x080004d2   0x080004d2   0x00000032   Code   RO         6948    .text               mf_w.l(dfixui.o)
    0x08000504   0x08000504   0x00000026   Code   RO         6950    .text               mf_w.l(f2d.o)
    0x0800052a   0x0800052a   0x00000038   Code   RO         6952    .text               mf_w.l(d2f.o)
    0x08000562   0x08000562   0x0000001e   Code   RO         7023    .text               mc_w.l(llshl.o)
    0x08000580   0x08000580   0x00000020   Code   RO         7025    .text               mc_w.l(llushr.o)
    0x080005a0   0x080005a0   0x00000024   Code   RO         7027    .text               mc_w.l(llsshr.o)
    0x080005c4   0x080005c4   0x00000000   Code   RO         7038    .text               mc_w.l(iusefp.o)
    0x080005c4   0x080005c4   0x0000006e   Code   RO         7039    .text               mf_w.l(fepilogue.o)
    0x08000632   0x08000632   0x000000ba   Code   RO         7041    .text               mf_w.l(depilogue.o)
    0x080006ec   0x080006ec   0x000000de   Code   RO         7043    .text               mf_w.l(ddiv.o)
    0x080007ca   0x080007ca   0x00000002   PAD
    0x080007cc   0x080007cc   0x00000024   Code   RO         7047    .text               mc_w.l(init.o)
    0x080007f0   0x080007f0   0x000000a2   Code   RO         7049    .text               mf_w.l(dsqrt.o)
    0x08000892   0x08000892   0x00000056   Code   RO         7061    .text               mc_w.l(__dczerorl2.o)
    0x080008e8   0x080008e8   0x000002ac   Code   RO         6457    i.ALT_Ctrl          height_control.o
    0x08000b94   0x08000b94   0x00000344   Code   RO         5091    i.ATT_Update        imu.o
    0x08000ed8   0x08000ed8   0x0000002c   Code   RO         6772    i.ActionHoldPoint   followline_eg2.o
    0x08000f04   0x08000f04   0x0000021c   Code   RO         6527    i.AnalyRC           remote.o
    0x08001120   0x08001120   0x00000060   Code   RO         5144    i.AnoOF_Check       ano_of.o
    0x08001180   0x08001180   0x000000c0   Code   RO         5145    i.AnoOF_DataAnl     ano_of.o
    0x08001240   0x08001240   0x000000a4   Code   RO         5146    i.AnoOF_GetOneByte  ano_of.o
    0x080012e4   0x080012e4   0x00000020   Code   RO         5147    i.AnoOF_State_Get   ano_of.o
    0x08001304   0x08001304   0x0000000a   Code   RO         5148    i.AnoOF_State_Task  ano_of.o
    0x0800130e   0x0800130e   0x00000002   Code   RO          939    i.BusFault_Handler  stm32f4xx_it.o
    0x08001310   0x08001310   0x00000004   Code   RO          887    i.CDC_Control_FS    usbd_cdc_if.o
    0x08001314   0x08001314   0x00000004   Code   RO          888    i.CDC_DeInit_FS     usbd_cdc_if.o
    0x08001318   0x08001318   0x00000024   Code   RO          889    i.CDC_Init_FS       usbd_cdc_if.o
    0x0800133c   0x0800133c   0x00000018   Code   RO          890    i.CDC_Receive_FS    usbd_cdc_if.o
    0x08001354   0x08001354   0x00000024   Code   RO         6344    i.ClacCascadePID    pid.o
    0x08001378   0x08001378   0x0000000c   Code   RO          940    i.DMA1_Stream0_IRQHandler  stm32f4xx_it.o
    0x08001384   0x08001384   0x0000000c   Code   RO          941    i.DMA1_Stream1_IRQHandler  stm32f4xx_it.o
    0x08001390   0x08001390   0x0000000c   Code   RO          942    i.DMA1_Stream2_IRQHandler  stm32f4xx_it.o
    0x0800139c   0x0800139c   0x0000001c   Code   RO          943    i.DMA1_Stream3_IRQHandler  stm32f4xx_it.o
    0x080013b8   0x080013b8   0x0000001c   Code   RO          944    i.DMA1_Stream4_IRQHandler  stm32f4xx_it.o
    0x080013d4   0x080013d4   0x0000000c   Code   RO          945    i.DMA1_Stream5_IRQHandler  stm32f4xx_it.o
    0x080013e0   0x080013e0   0x0000001c   Code   RO          946    i.DMA1_Stream6_IRQHandler  stm32f4xx_it.o
    0x080013fc   0x080013fc   0x0000001c   Code   RO          947    i.DMA1_Stream7_IRQHandler  stm32f4xx_it.o
    0x08001418   0x08001418   0x0000000c   Code   RO          948    i.DMA2_Stream1_IRQHandler  stm32f4xx_it.o
    0x08001424   0x08001424   0x0000000c   Code   RO          949    i.DMA2_Stream2_IRQHandler  stm32f4xx_it.o
    0x08001430   0x08001430   0x0000001c   Code   RO          950    i.DMA2_Stream6_IRQHandler  stm32f4xx_it.o
    0x0800144c   0x0800144c   0x00000028   Code   RO         3883    i.DMA_CalcBaseAndBitshift  stm32f4xx_hal_dma.o
    0x08001474   0x08001474   0x00000054   Code   RO         3884    i.DMA_CheckFifoParam  stm32f4xx_hal_dma.o
    0x080014c8   0x080014c8   0x00000028   Code   RO         3885    i.DMA_SetConfig     stm32f4xx_hal_dma.o
    0x080014f0   0x080014f0   0x00000002   Code   RO          951    i.DebugMon_Handler  stm32f4xx_it.o
    0x080014f2   0x080014f2   0x00000002   Code   RO          256    i.Error_Handler     main.o
    0x080014f4   0x080014f4   0x00000198   Code   RO         6416    i.FlightPidControl  control.o
    0x0800168c   0x0800168c   0x000000ac   Code   RO         6773    i.Follow_Init       followline_eg2.o
    0x08001738   0x08001738   0x000000a4   Code   RO         5092    i.GetAngle          imu.o
    0x080017dc   0x080017dc   0x000000a0   Code   RO         5032    i.GetMPU6050Data    mpu6050.o
    0x0800187c   0x0800187c   0x00000160   Code   RO         5033    i.GetMPU6050Offset  mpu6050.o
    0x080019dc   0x080019dc   0x0000008e   Code   RO         3886    i.HAL_DMA_Abort     stm32f4xx_hal_dma.o
    0x08001a6a   0x08001a6a   0x00000024   Code   RO         3887    i.HAL_DMA_Abort_IT  stm32f4xx_hal_dma.o
    0x08001a8e   0x08001a8e   0x00000002   PAD
    0x08001a90   0x08001a90   0x000001a0   Code   RO         3891    i.HAL_DMA_IRQHandler  stm32f4xx_hal_dma.o
    0x08001c30   0x08001c30   0x000000d4   Code   RO         3892    i.HAL_DMA_Init      stm32f4xx_hal_dma.o
    0x08001d04   0x08001d04   0x00000078   Code   RO         3896    i.HAL_DMA_Start_IT  stm32f4xx_hal_dma.o
    0x08001d7c   0x08001d7c   0x00000024   Code   RO         4305    i.HAL_Delay         stm32f4xx_hal.o
    0x08001da0   0x08001da0   0x000001b0   Code   RO         3779    i.HAL_GPIO_Init     stm32f4xx_hal_gpio.o
    0x08001f50   0x08001f50   0x0000000e   Code   RO         3782    i.HAL_GPIO_TogglePin  stm32f4xx_hal_gpio.o
    0x08001f5e   0x08001f5e   0x0000000a   Code   RO         3783    i.HAL_GPIO_WritePin  stm32f4xx_hal_gpio.o
    0x08001f68   0x08001f68   0x0000000c   Code   RO         4311    i.HAL_GetTick       stm32f4xx_hal.o
    0x08001f74   0x08001f74   0x00000174   Code   RO         1741    i.HAL_I2C_Init      stm32f4xx_hal_i2c.o
    0x080020e8   0x080020e8   0x00000088   Code   RO          367    i.HAL_I2C_MspInit   i2c.o
    0x08002170   0x08002170   0x00000010   Code   RO         4317    i.HAL_IncTick       stm32f4xx_hal.o
    0x08002180   0x08002180   0x00000034   Code   RO         4318    i.HAL_Init          stm32f4xx_hal.o
    0x080021b4   0x080021b4   0x00000040   Code   RO         4319    i.HAL_InitTick      stm32f4xx_hal.o
    0x080021f4   0x080021f4   0x00000030   Code   RO         1144    i.HAL_MspInit       stm32f4xx_hal_msp.o
    0x08002224   0x08002224   0x0000001a   Code   RO         4168    i.HAL_NVIC_EnableIRQ  stm32f4xx_hal_cortex.o
    0x0800223e   0x0800223e   0x00000002   PAD
    0x08002240   0x08002240   0x00000040   Code   RO         4174    i.HAL_NVIC_SetPriority  stm32f4xx_hal_cortex.o
    0x08002280   0x08002280   0x00000024   Code   RO         4175    i.HAL_NVIC_SetPriorityGrouping  stm32f4xx_hal_cortex.o
    0x080022a4   0x080022a4   0x00000002   Code   RO         1389    i.HAL_PCDEx_LPM_Callback  stm32f4xx_hal_pcd_ex.o
    0x080022a6   0x080022a6   0x00000008   Code   RO         1390    i.HAL_PCDEx_SetRxFiFo  stm32f4xx_hal_pcd_ex.o
    0x080022ae   0x080022ae   0x00000044   Code   RO         1391    i.HAL_PCDEx_SetTxFiFo  stm32f4xx_hal_pcd_ex.o
    0x080022f2   0x080022f2   0x00000008   Code   RO          606    i.HAL_PCD_ConnectCallback  usbd_conf.o
    0x080022fa   0x080022fa   0x00000012   Code   RO          607    i.HAL_PCD_DataInStageCallback  usbd_conf.o
    0x0800230c   0x0800230c   0x00000014   Code   RO          608    i.HAL_PCD_DataOutStageCallback  usbd_conf.o
    0x08002320   0x08002320   0x00000008   Code   RO          609    i.HAL_PCD_DisconnectCallback  usbd_conf.o
    0x08002328   0x08002328   0x0000004c   Code   RO         1177    i.HAL_PCD_EP_Close  stm32f4xx_hal_pcd.o
    0x08002374   0x08002374   0x0000005c   Code   RO         1178    i.HAL_PCD_EP_ClrStall  stm32f4xx_hal_pcd.o
    0x080023d0   0x080023d0   0x00000012   Code   RO         1180    i.HAL_PCD_EP_GetRxCount  stm32f4xx_hal_pcd.o
    0x080023e2   0x080023e2   0x00000060   Code   RO         1181    i.HAL_PCD_EP_Open   stm32f4xx_hal_pcd.o
    0x08002442   0x08002442   0x00000048   Code   RO         1182    i.HAL_PCD_EP_Receive  stm32f4xx_hal_pcd.o
    0x0800248a   0x0800248a   0x00000074   Code   RO         1183    i.HAL_PCD_EP_SetStall  stm32f4xx_hal_pcd.o
    0x080024fe   0x080024fe   0x00000040   Code   RO         1184    i.HAL_PCD_EP_Transmit  stm32f4xx_hal_pcd.o
    0x0800253e   0x0800253e   0x00000002   PAD
    0x08002540   0x08002540   0x00000464   Code   RO         1186    i.HAL_PCD_IRQHandler  stm32f4xx_hal_pcd.o
    0x080029a4   0x080029a4   0x00000008   Code   RO          610    i.HAL_PCD_ISOINIncompleteCallback  usbd_conf.o
    0x080029ac   0x080029ac   0x00000008   Code   RO          611    i.HAL_PCD_ISOOUTIncompleteCallback  usbd_conf.o
    0x080029b4   0x080029b4   0x000000e2   Code   RO         1189    i.HAL_PCD_Init      stm32f4xx_hal_pcd.o
    0x08002a96   0x08002a96   0x00000002   PAD
    0x08002a98   0x08002a98   0x00000084   Code   RO          613    i.HAL_PCD_MspInit   usbd_conf.o
    0x08002b1c   0x08002b1c   0x0000002c   Code   RO          614    i.HAL_PCD_ResetCallback  usbd_conf.o
    0x08002b48   0x08002b48   0x00000008   Code   RO          615    i.HAL_PCD_ResumeCallback  usbd_conf.o
    0x08002b50   0x08002b50   0x00000008   Code   RO          616    i.HAL_PCD_SOFCallback  usbd_conf.o
    0x08002b58   0x08002b58   0x00000028   Code   RO         1195    i.HAL_PCD_SetAddress  stm32f4xx_hal_pcd.o
    0x08002b80   0x08002b80   0x0000000e   Code   RO          617    i.HAL_PCD_SetupStageCallback  usbd_conf.o
    0x08002b8e   0x08002b8e   0x00000042   Code   RO         1197    i.HAL_PCD_Start     stm32f4xx_hal_pcd.o
    0x08002bd0   0x08002bd0   0x00000030   Code   RO          618    i.HAL_PCD_SuspendCallback  usbd_conf.o
    0x08002c00   0x08002c00   0x00000130   Code   RO         3425    i.HAL_RCC_ClockConfig  stm32f4xx_hal_rcc.o
    0x08002d30   0x08002d30   0x0000000c   Code   RO         3430    i.HAL_RCC_GetHCLKFreq  stm32f4xx_hal_rcc.o
    0x08002d3c   0x08002d3c   0x00000020   Code   RO         3432    i.HAL_RCC_GetPCLK1Freq  stm32f4xx_hal_rcc.o
    0x08002d5c   0x08002d5c   0x00000020   Code   RO         3433    i.HAL_RCC_GetPCLK2Freq  stm32f4xx_hal_rcc.o
    0x08002d7c   0x08002d7c   0x00000064   Code   RO         3434    i.HAL_RCC_GetSysClockFreq  stm32f4xx_hal_rcc.o
    0x08002de0   0x08002de0   0x0000031c   Code   RO         3437    i.HAL_RCC_OscConfig  stm32f4xx_hal_rcc.o
    0x080030fc   0x080030fc   0x00000028   Code   RO         4179    i.HAL_SYSTICK_Config  stm32f4xx_hal_cortex.o
    0x08003124   0x08003124   0x00000002   Code   RO         2847    i.HAL_TIMEx_BreakCallback  stm32f4xx_hal_tim_ex.o
    0x08003126   0x08003126   0x00000002   Code   RO         2848    i.HAL_TIMEx_CommutCallback  stm32f4xx_hal_tim_ex.o
    0x08003128   0x08003128   0x00000054   Code   RO         2850    i.HAL_TIMEx_ConfigBreakDeadTime  stm32f4xx_hal_tim_ex.o
    0x0800317c   0x0800317c   0x00000042   Code   RO         2865    i.HAL_TIMEx_MasterConfigSynchronization  stm32f4xx_hal_tim_ex.o
    0x080031be   0x080031be   0x00000036   Code   RO         2172    i.HAL_TIM_Base_Init  stm32f4xx_hal_tim.o
    0x080031f4   0x080031f4   0x00000064   Code   RO          409    i.HAL_TIM_Base_MspInit  tim.o
    0x08003258   0x08003258   0x00000022   Code   RO         2177    i.HAL_TIM_Base_Start_IT  stm32f4xx_hal_tim.o
    0x0800327a   0x0800327a   0x000000d6   Code   RO         2181    i.HAL_TIM_ConfigClockSource  stm32f4xx_hal_tim.o
    0x08003350   0x08003350   0x00000002   Code   RO         2201    i.HAL_TIM_IC_CaptureCallback  stm32f4xx_hal_tim.o
    0x08003352   0x08003352   0x00000166   Code   RO         2215    i.HAL_TIM_IRQHandler  stm32f4xx_hal_tim.o
    0x080034b8   0x080034b8   0x000000a4   Code   RO          410    i.HAL_TIM_MspPostInit  tim.o
    0x0800355c   0x0800355c   0x00000002   Code   RO         2218    i.HAL_TIM_OC_DelayElapsedCallback  stm32f4xx_hal_tim.o
    0x0800355e   0x0800355e   0x000000d0   Code   RO         2239    i.HAL_TIM_PWM_ConfigChannel  stm32f4xx_hal_tim.o
    0x0800362e   0x0800362e   0x00000036   Code   RO         2242    i.HAL_TIM_PWM_Init  stm32f4xx_hal_tim.o
    0x08003664   0x08003664   0x00000034   Code   RO          412    i.HAL_TIM_PWM_MspInit  tim.o
    0x08003698   0x08003698   0x00000002   Code   RO         2245    i.HAL_TIM_PWM_PulseFinishedCallback  stm32f4xx_hal_tim.o
    0x0800369a   0x0800369a   0x00000002   PAD
    0x0800369c   0x0800369c   0x00000044   Code   RO         2247    i.HAL_TIM_PWM_Start  stm32f4xx_hal_tim.o
    0x080036e0   0x080036e0   0x00000002   Code   RO         2253    i.HAL_TIM_PeriodElapsedCallback  stm32f4xx_hal_tim.o
    0x080036e2   0x080036e2   0x00000002   Code   RO         2258    i.HAL_TIM_TriggerCallback  stm32f4xx_hal_tim.o
    0x080036e4   0x080036e4   0x00000058   Code   RO         3117    i.HAL_UART_DMAStop  stm32f4xx_hal_uart.o
    0x0800373c   0x0800373c   0x00000002   Code   RO         3119    i.HAL_UART_ErrorCallback  stm32f4xx_hal_uart.o
    0x0800373e   0x0800373e   0x00000002   PAD
    0x08003740   0x08003740   0x00000110   Code   RO         3122    i.HAL_UART_IRQHandler  stm32f4xx_hal_uart.o
    0x08003850   0x08003850   0x00000062   Code   RO         3123    i.HAL_UART_Init     stm32f4xx_hal_uart.o
    0x080038b2   0x080038b2   0x00000002   PAD
    0x080038b4   0x080038b4   0x000004c8   Code   RO          487    i.HAL_UART_MspInit  usart.o
    0x08003d7c   0x08003d7c   0x00000098   Code   RO         3127    i.HAL_UART_Receive_DMA  stm32f4xx_hal_uart.o
    0x08003e14   0x08003e14   0x00000002   Code   RO         5485    i.HAL_UART_RxCpltCallback  hardware_uart.o
    0x08003e16   0x08003e16   0x00000002   Code   RO         3130    i.HAL_UART_RxHalfCpltCallback  stm32f4xx_hal_uart.o
    0x08003e18   0x08003e18   0x000000ba   Code   RO         3131    i.HAL_UART_Transmit  stm32f4xx_hal_uart.o
    0x08003ed2   0x08003ed2   0x00000002   PAD
    0x08003ed4   0x08003ed4   0x00000080   Code   RO         3132    i.HAL_UART_Transmit_DMA  stm32f4xx_hal_uart.o
    0x08003f54   0x08003f54   0x00000002   Code   RO         3134    i.HAL_UART_TxCpltCallback  stm32f4xx_hal_uart.o
    0x08003f56   0x08003f56   0x00000002   Code   RO         3135    i.HAL_UART_TxHalfCpltCallback  stm32f4xx_hal_uart.o
    0x08003f58   0x08003f58   0x00000058   Code   RO         5732    i.Hadrware_Init     init.o
    0x08003fb0   0x08003fb0   0x00000002   Code   RO          952    i.HardFault_Handler  stm32f4xx_it.o
    0x08003fb2   0x08003fb2   0x00000002   PAD
    0x08003fb4   0x08003fb4   0x00000028   Code   RO         5590    i.I2C_Init          hardware_i2c.o
    0x08003fdc   0x08003fdc   0x00000040   Code   RO         5591    i.I2C_Read_Byte     hardware_i2c.o
    0x0800401c   0x0800401c   0x00000032   Code   RO         5593    i.I2C_Write_Byte    hardware_i2c.o
    0x0800404e   0x0800404e   0x00000002   PAD
    0x08004050   0x08004050   0x00000054   Code   RO         5594    i.IIC_RecvACK       hardware_i2c.o
    0x080040a4   0x080040a4   0x0000004c   Code   RO         5595    i.IIC_RecvByte      hardware_i2c.o
    0x080040f0   0x080040f0   0x00000060   Code   RO         5596    i.IIC_SendACK       hardware_i2c.o
    0x08004150   0x08004150   0x00000060   Code   RO         5597    i.IIC_SendByte      hardware_i2c.o
    0x080041b0   0x080041b0   0x0000004c   Code   RO         5598    i.IIC_Start         hardware_i2c.o
    0x080041fc   0x080041fc   0x00000044   Code   RO         5599    i.IIC_Stop          hardware_i2c.o
    0x08004240   0x08004240   0x00000024   Code   RO         5094    i.IMU_Reset         imu.o
    0x08004264   0x08004264   0x00000038   Code   RO          801    i.IntToUnicode      usbd_desc.o
    0x0800429c   0x0800429c   0x0000010c   Code   RO           13    i.KernelPolling     system.o
    0x080043a8   0x080043a8   0x00000042   Code   RO         6051    i.LCD_Address_Set   lcd_init.o
    0x080043ea   0x080043ea   0x00000016   Code   RO         5921    i.LCD_DrawPoint     lcd.o
    0x08004400   0x08004400   0x0000003e   Code   RO         5923    i.LCD_Fill          lcd.o
    0x0800443e   0x0800443e   0x00000002   PAD
    0x08004440   0x08004440   0x00000254   Code   RO         6053    i.LCD_Init          lcd_init.o
    0x08004694   0x08004694   0x0000010c   Code   RO         5924    i.LCD_ShowChar      lcd.o
    0x080047a0   0x080047a0   0x00000080   Code   RO         5931    i.LCD_ShowIntNum    lcd.o
    0x08004820   0x08004820   0x0000003a   Code   RO         5934    i.LCD_ShowString    lcd.o
    0x0800485a   0x0800485a   0x00000014   Code   RO         6054    i.LCD_WR_DATA       lcd_init.o
    0x0800486e   0x0800486e   0x00000002   PAD
    0x08004870   0x08004870   0x00000028   Code   RO         6056    i.LCD_WR_REG        lcd_init.o
    0x08004898   0x08004898   0x00000058   Code   RO         6057    i.LCD_Writ_Bus      lcd_init.o
    0x080048f0   0x080048f0   0x00000018   Code   RO         4996    i.LEDInit           led.o
    0x08004908   0x08004908   0x000000ac   Code   RO         5034    i.MPU6050Init       mpu6050.o
    0x080049b4   0x080049b4   0x000000cc   Code   RO          342    i.MX_DMA_Init       dma.o
    0x08004a80   0x08004a80   0x00000188   Code   RO          318    i.MX_GPIO_Init      gpio.o
    0x08004c08   0x08004c08   0x00000040   Code   RO          368    i.MX_I2C3_Init      i2c.o
    0x08004c48   0x08004c48   0x000000d4   Code   RO          413    i.MX_TIM1_Init      tim.o
    0x08004d1c   0x08004d1c   0x00000088   Code   RO          414    i.MX_TIM2_Init      tim.o
    0x08004da4   0x08004da4   0x00000068   Code   RO          415    i.MX_TIM3_Init      tim.o
    0x08004e0c   0x08004e0c   0x00000068   Code   RO          416    i.MX_TIM4_Init      tim.o
    0x08004e74   0x08004e74   0x00000038   Code   RO          488    i.MX_UART4_Init     usart.o
    0x08004eac   0x08004eac   0x00000038   Code   RO          489    i.MX_UART5_Init     usart.o
    0x08004ee4   0x08004ee4   0x00000044   Code   RO          490    i.MX_USART1_UART_Init  usart.o
    0x08004f28   0x08004f28   0x00000038   Code   RO          491    i.MX_USART2_UART_Init  usart.o
    0x08004f60   0x08004f60   0x00000038   Code   RO          492    i.MX_USART3_UART_Init  usart.o
    0x08004f98   0x08004f98   0x00000038   Code   RO          493    i.MX_USART6_UART_Init  usart.o
    0x08004fd0   0x08004fd0   0x00000054   Code   RO          558    i.MX_USB_DEVICE_Init  usb_device.o
    0x08005024   0x08005024   0x00000002   Code   RO          953    i.MemManage_Handler  stm32f4xx_it.o
    0x08005026   0x08005026   0x00000002   PAD
    0x08005028   0x08005028   0x00000228   Code   RO         6417    i.MotorControl      control.o
    0x08005250   0x08005250   0x0000002c   Code   RO         5872    i.Motor_Init        motor.o
    0x0800527c   0x0800527c   0x00000002   Code   RO          954    i.NMI_Handler       stm32f4xx_it.o
    0x0800527e   0x0800527e   0x00000002   PAD
    0x08005280   0x08005280   0x0000000c   Code   RO          955    i.OTG_FS_IRQHandler  stm32f4xx_it.o
    0x0800528c   0x0800528c   0x000000dc   Code   RO         1200    i.PCD_EP_OutXfrComplete_int  stm32f4xx_hal_pcd.o
    0x08005368   0x08005368   0x000000a2   Code   RO         1201    i.PCD_WriteEmptyTxFifo  stm32f4xx_hal_pcd.o
    0x0800540a   0x0800540a   0x00000002   PAD
    0x0800540c   0x0800540c   0x000000a0   Code   RO         5733    i.PID_Init          init.o
    0x080054ac   0x080054ac   0x0000023c   Code   RO         6497    i.POS_Ctrl          pos_ctrl.o
    0x080056e8   0x080056e8   0x00000002   Code   RO          956    i.PendSV_Handler    stm32f4xx_it.o
    0x080056ea   0x080056ea   0x00000002   PAD
    0x080056ec   0x080056ec   0x00000070   Code   RO         5198    i.PollingGCS        gcs.o
    0x0800575c   0x0800575c   0x000000c4   Code   RO         4997    i.PollingLED        led.o
    0x08005820   0x08005820   0x00000058   Code   RO         5486    i.PollingUSART      hardware_uart.o
    0x08005878   0x08005878   0x0000002c   Code   RO         6279    i.Q_rsqrt           mymath.o
    0x080058a4   0x080058a4   0x00000104   Code   RO         6528    i.RCReceiveHandle   remote.o
    0x080059a8   0x080059a8   0x00000034   Code   RO         6529    i.RemotePolling     remote.o
    0x080059dc   0x080059dc   0x000000b8   Code   RO         6530    i.RemoteUnlock      remote.o
    0x08005a94   0x08005a94   0x00000028   Code   RO         6531    i.Remote_init       remote.o
    0x08005abc   0x08005abc   0x0000003c   Code   RO         6345    i.ResetPID          pid.o
    0x08005af8   0x08005af8   0x00000002   Code   RO          957    i.SVC_Handler       stm32f4xx_it.o
    0x08005afa   0x08005afa   0x00000002   PAD
    0x08005afc   0x08005afc   0x0000008c   Code   RO          958    i.SysTick_Handler   stm32f4xx_it.o
    0x08005b88   0x08005b88   0x00000088   Code   RO          257    i.SystemClock_Config  main.o
    0x08005c10   0x08005c10   0x00000054   Code   RO         4554    i.SystemInit        system_stm32f4xx.o
    0x08005c64   0x08005c64   0x0000000c   Code   RO          959    i.TIM3_IRQHandler   stm32f4xx_it.o
    0x08005c70   0x08005c70   0x0000000c   Code   RO          960    i.TIM4_IRQHandler   stm32f4xx_it.o
    0x08005c7c   0x08005c7c   0x000000c8   Code   RO         2260    i.TIM_Base_SetConfig  stm32f4xx_hal_tim.o
    0x08005d44   0x08005d44   0x0000001a   Code   RO         2261    i.TIM_CCxChannelCmd  stm32f4xx_hal_tim.o
    0x08005d5e   0x08005d5e   0x00000014   Code   RO         2271    i.TIM_ETR_SetConfig  stm32f4xx_hal_tim.o
    0x08005d72   0x08005d72   0x00000010   Code   RO         2272    i.TIM_ITRx_SetConfig  stm32f4xx_hal_tim.o
    0x08005d82   0x08005d82   0x00000002   PAD
    0x08005d84   0x08005d84   0x00000060   Code   RO         2273    i.TIM_OC1_SetConfig  stm32f4xx_hal_tim.o
    0x08005de4   0x08005de4   0x0000006c   Code   RO         2274    i.TIM_OC2_SetConfig  stm32f4xx_hal_tim.o
    0x08005e50   0x08005e50   0x00000068   Code   RO         2275    i.TIM_OC3_SetConfig  stm32f4xx_hal_tim.o
    0x08005eb8   0x08005eb8   0x00000050   Code   RO         2276    i.TIM_OC4_SetConfig  stm32f4xx_hal_tim.o
    0x08005f08   0x08005f08   0x00000022   Code   RO         2278    i.TIM_TI1_ConfigInputStage  stm32f4xx_hal_tim.o
    0x08005f2a   0x08005f2a   0x00000024   Code   RO         2280    i.TIM_TI2_ConfigInputStage  stm32f4xx_hal_tim.o
    0x08005f4e   0x08005f4e   0x00000002   PAD
    0x08005f50   0x08005f50   0x00000068   Code   RO         5677    i.Terrain_following  speed_estimator.o
    0x08005fb8   0x08005fb8   0x00000030   Code   RO          961    i.UART4_IRQHandler  stm32f4xx_it.o
    0x08005fe8   0x08005fe8   0x00000048   Code   RO          962    i.UART5_IRQHandler  stm32f4xx_it.o
    0x08006030   0x08006030   0x00000024   Code   RO         5487    i.UART_1_ReceiveHandle  hardware_uart.o
    0x08006054   0x08006054   0x00000014   Code   RO         5488    i.UART_2_ReceiveHandle  hardware_uart.o
    0x08006068   0x08006068   0x00000002   Code   RO         5489    i.UART_3_ReceiveHandle  hardware_uart.o
    0x0800606a   0x0800606a   0x00000002   Code   RO         5490    i.UART_4_ReceiveHandle  hardware_uart.o
    0x0800606c   0x0800606c   0x00000002   Code   RO         5491    i.UART_5_ReceiveHandle  hardware_uart.o
    0x0800606e   0x0800606e   0x00000002   Code   RO         5492    i.UART_6_ReceiveHandle  hardware_uart.o
    0x08006070   0x08006070   0x00000010   Code   RO         3136    i.UART_DMAAbortOnError  stm32f4xx_hal_uart.o
    0x08006080   0x08006080   0x0000004a   Code   RO         3137    i.UART_DMAError     stm32f4xx_hal_uart.o
    0x080060ca   0x080060ca   0x0000003c   Code   RO         3138    i.UART_DMAReceiveCplt  stm32f4xx_hal_uart.o
    0x08006106   0x08006106   0x0000000a   Code   RO         3140    i.UART_DMARxHalfCplt  stm32f4xx_hal_uart.o
    0x08006110   0x08006110   0x0000002e   Code   RO         3142    i.UART_DMATransmitCplt  stm32f4xx_hal_uart.o
    0x0800613e   0x0800613e   0x0000000a   Code   RO         3144    i.UART_DMATxHalfCplt  stm32f4xx_hal_uart.o
    0x08006148   0x08006148   0x0000001c   Code   RO         3146    i.UART_EndRxTransfer  stm32f4xx_hal_uart.o
    0x08006164   0x08006164   0x00000012   Code   RO         3147    i.UART_EndTxTransfer  stm32f4xx_hal_uart.o
    0x08006176   0x08006176   0x00000096   Code   RO         3148    i.UART_Receive_IT   stm32f4xx_hal_uart.o
    0x0800620c   0x0800620c   0x000002ac   Code   RO         3149    i.UART_SetConfig    stm32f4xx_hal_uart.o
    0x080064b8   0x080064b8   0x00000062   Code   RO         3150    i.UART_Transmit_IT  stm32f4xx_hal_uart.o
    0x0800651a   0x0800651a   0x00000064   Code   RO         3151    i.UART_WaitOnFlagUntilTimeout  stm32f4xx_hal_uart.o
    0x0800657e   0x0800657e   0x00000002   PAD
    0x08006580   0x08006580   0x00000030   Code   RO          963    i.USART1_IRQHandler  stm32f4xx_it.o
    0x080065b0   0x080065b0   0x00000034   Code   RO          964    i.USART2_IRQHandler  stm32f4xx_it.o
    0x080065e4   0x080065e4   0x00000028   Code   RO          965    i.USART3_IRQHandler  stm32f4xx_it.o
    0x0800660c   0x0800660c   0x00000044   Code   RO          966    i.USART6_IRQHandler  stm32f4xx_it.o
    0x08006650   0x08006650   0x00000358   Code   RO         5493    i.USART_Init        hardware_uart.o
    0x080069a8   0x080069a8   0x0000004a   Code   RO         4854    i.USBD_CDC_DataIn   usbd_cdc.o
    0x080069f2   0x080069f2   0x0000002e   Code   RO         4855    i.USBD_CDC_DataOut  usbd_cdc.o
    0x08006a20   0x08006a20   0x00000044   Code   RO         4856    i.USBD_CDC_DeInit   usbd_cdc.o
    0x08006a64   0x08006a64   0x00000024   Code   RO         4857    i.USBD_CDC_EP0_RxReady  usbd_cdc.o
    0x08006a88   0x08006a88   0x0000000c   Code   RO         4858    i.USBD_CDC_GetDeviceQualifierDescriptor  usbd_cdc.o
    0x08006a94   0x08006a94   0x0000000c   Code   RO         4859    i.USBD_CDC_GetFSCfgDesc  usbd_cdc.o
    0x08006aa0   0x08006aa0   0x0000000c   Code   RO         4860    i.USBD_CDC_GetHSCfgDesc  usbd_cdc.o
    0x08006aac   0x08006aac   0x0000000c   Code   RO         4861    i.USBD_CDC_GetOtherSpeedCfgDesc  usbd_cdc.o
    0x08006ab8   0x08006ab8   0x00000094   Code   RO         4862    i.USBD_CDC_Init     usbd_cdc.o
    0x08006b4c   0x08006b4c   0x00000028   Code   RO         4863    i.USBD_CDC_ReceivePacket  usbd_cdc.o
    0x08006b74   0x08006b74   0x00000010   Code   RO         4864    i.USBD_CDC_RegisterInterface  usbd_cdc.o
    0x08006b84   0x08006b84   0x0000000c   Code   RO         4865    i.USBD_CDC_SetRxBuffer  usbd_cdc.o
    0x08006b90   0x08006b90   0x00000010   Code   RO         4866    i.USBD_CDC_SetTxBuffer  usbd_cdc.o
    0x08006ba0   0x08006ba0   0x000000ac   Code   RO         4867    i.USBD_CDC_Setup    usbd_cdc.o
    0x08006c4c   0x08006c4c   0x0000000e   Code   RO         4591    i.USBD_ClrClassConfig  usbd_core.o
    0x08006c5a   0x08006c5a   0x00000010   Code   RO         4794    i.USBD_CtlContinueRx  usbd_ioreq.o
    0x08006c6a   0x08006c6a   0x00000010   Code   RO         4795    i.USBD_CtlContinueSendData  usbd_ioreq.o
    0x08006c7a   0x08006c7a   0x00000016   Code   RO         4729    i.USBD_CtlError     usbd_ctlreq.o
    0x08006c90   0x08006c90   0x0000001e   Code   RO         4796    i.USBD_CtlPrepareRx  usbd_ioreq.o
    0x08006cae   0x08006cae   0x00000016   Code   RO         4797    i.USBD_CtlReceiveStatus  usbd_ioreq.o
    0x08006cc4   0x08006cc4   0x0000001a   Code   RO         4798    i.USBD_CtlSendData  usbd_ioreq.o
    0x08006cde   0x08006cde   0x00000016   Code   RO         4799    i.USBD_CtlSendStatus  usbd_ioreq.o
    0x08006cf4   0x08006cf4   0x00000020   Code   RO          802    i.USBD_FS_ConfigStrDescriptor  usbd_desc.o
    0x08006d14   0x08006d14   0x0000000c   Code   RO          803    i.USBD_FS_DeviceDescriptor  usbd_desc.o
    0x08006d20   0x08006d20   0x00000024   Code   RO          804    i.USBD_FS_InterfaceStrDescriptor  usbd_desc.o
    0x08006d44   0x08006d44   0x0000000c   Code   RO          805    i.USBD_FS_LangIDStrDescriptor  usbd_desc.o
    0x08006d50   0x08006d50   0x0000001c   Code   RO          806    i.USBD_FS_ManufacturerStrDescriptor  usbd_desc.o
    0x08006d6c   0x08006d6c   0x0000001c   Code   RO          807    i.USBD_FS_ProductStrDescriptor  usbd_desc.o
    0x08006d88   0x08006d88   0x00000038   Code   RO          808    i.USBD_FS_SerialStrDescriptor  usbd_desc.o
    0x08006dc0   0x08006dc0   0x000000e8   Code   RO         4730    i.USBD_GetDescriptor  usbd_ctlreq.o
    0x08006ea8   0x08006ea8   0x00000048   Code   RO         4731    i.USBD_GetString    usbd_ctlreq.o
    0x08006ef0   0x08006ef0   0x00000018   Code   RO          619    i.USBD_Get_USB_Status  usbd_conf.o
    0x08006f08   0x08006f08   0x0000002a   Code   RO         4593    i.USBD_Init         usbd_core.o
    0x08006f32   0x08006f32   0x00000012   Code   RO          620    i.USBD_LL_ClearStallEP  usbd_conf.o
    0x08006f44   0x08006f44   0x00000012   Code   RO          621    i.USBD_LL_CloseEP   usbd_conf.o
    0x08006f56   0x08006f56   0x000000c6   Code   RO         4594    i.USBD_LL_DataInStage  usbd_core.o
    0x0800701c   0x0800701c   0x00000082   Code   RO         4595    i.USBD_LL_DataOutStage  usbd_core.o
    0x0800709e   0x0800709e   0x00000004   Code   RO         4596    i.USBD_LL_DevConnected  usbd_core.o
    0x080070a2   0x080070a2   0x00000016   Code   RO         4597    i.USBD_LL_DevDisconnected  usbd_core.o
    0x080070b8   0x080070b8   0x00000008   Code   RO          625    i.USBD_LL_GetRxDataSize  usbd_conf.o
    0x080070c0   0x080070c0   0x00000060   Code   RO          626    i.USBD_LL_Init      usbd_conf.o
    0x08007120   0x08007120   0x00000020   Code   RO          627    i.USBD_LL_IsStallEP  usbd_conf.o
    0x08007140   0x08007140   0x00000004   Code   RO         4598    i.USBD_LL_IsoINIncomplete  usbd_core.o
    0x08007144   0x08007144   0x00000004   Code   RO         4599    i.USBD_LL_IsoOUTIncomplete  usbd_core.o
    0x08007148   0x08007148   0x00000018   Code   RO          628    i.USBD_LL_OpenEP    usbd_conf.o
    0x08007160   0x08007160   0x00000012   Code   RO          629    i.USBD_LL_PrepareReceive  usbd_conf.o
    0x08007172   0x08007172   0x00000050   Code   RO         4600    i.USBD_LL_Reset     usbd_core.o
    0x080071c2   0x080071c2   0x0000000c   Code   RO         4601    i.USBD_LL_Resume    usbd_core.o
    0x080071ce   0x080071ce   0x00000018   Code   RO         4602    i.USBD_LL_SOF       usbd_core.o
    0x080071e6   0x080071e6   0x00000006   Code   RO         4603    i.USBD_LL_SetSpeed  usbd_core.o
    0x080071ec   0x080071ec   0x00000012   Code   RO          630    i.USBD_LL_SetUSBAddress  usbd_conf.o
    0x080071fe   0x080071fe   0x0000005a   Code   RO         4604    i.USBD_LL_SetupStage  usbd_core.o
    0x08007258   0x08007258   0x00000012   Code   RO          631    i.USBD_LL_StallEP   usbd_conf.o
    0x0800726a   0x0800726a   0x00000012   Code   RO          632    i.USBD_LL_Start     usbd_conf.o
    0x0800727c   0x0800727c   0x00000012   Code   RO         4605    i.USBD_LL_Suspend   usbd_core.o
    0x0800728e   0x0800728e   0x00000012   Code   RO          634    i.USBD_LL_Transmit  usbd_conf.o
    0x080072a0   0x080072a0   0x00000028   Code   RO         4732    i.USBD_ParseSetupRequest  usbd_ctlreq.o
    0x080072c8   0x080072c8   0x00000010   Code   RO         4606    i.USBD_RegisterClass  usbd_core.o
    0x080072d8   0x080072d8   0x00000016   Code   RO         4608    i.USBD_SetClassConfig  usbd_core.o
    0x080072ee   0x080072ee   0x00000002   PAD
    0x080072f0   0x080072f0   0x00000084   Code   RO         4733    i.USBD_SetConfig    usbd_ctlreq.o
    0x08007374   0x08007374   0x0000000a   Code   RO         4609    i.USBD_Start        usbd_core.o
    0x0800737e   0x0800737e   0x00000112   Code   RO         4734    i.USBD_StdDevReq    usbd_ctlreq.o
    0x08007490   0x08007490   0x00000150   Code   RO         4735    i.USBD_StdEPReq     usbd_ctlreq.o
    0x080075e0   0x080075e0   0x0000004e   Code   RO         4736    i.USBD_StdItfReq    usbd_ctlreq.o
    0x0800762e   0x0800762e   0x00000002   PAD
    0x08007630   0x08007630   0x00000080   Code   RO         1431    i.USB_ActivateEndpoint  stm32f4xx_ll_usb.o
    0x080076b0   0x080076b0   0x00000034   Code   RO         1433    i.USB_ActivateSetup  stm32f4xx_ll_usb.o
    0x080076e4   0x080076e4   0x00000074   Code   RO         1435    i.USB_CoreInit      stm32f4xx_ll_usb.o
    0x08007758   0x08007758   0x00000038   Code   RO         1436    i.USB_CoreReset     stm32f4xx_ll_usb.o
    0x08007790   0x08007790   0x00000080   Code   RO         1439    i.USB_DeactivateEndpoint  stm32f4xx_ll_usb.o
    0x08007810   0x08007810   0x00000018   Code   RO         1440    i.USB_DevConnect    stm32f4xx_ll_usb.o
    0x08007828   0x08007828   0x00000018   Code   RO         1441    i.USB_DevDisconnect  stm32f4xx_ll_usb.o
    0x08007840   0x08007840   0x0000018c   Code   RO         1442    i.USB_DevInit       stm32f4xx_ll_usb.o
    0x080079cc   0x080079cc   0x0000000c   Code   RO         1443    i.USB_DisableGlobalInt  stm32f4xx_ll_usb.o
    0x080079d8   0x080079d8   0x00000118   Code   RO         1446    i.USB_EP0StartXfer  stm32f4xx_ll_usb.o
    0x08007af0   0x08007af0   0x00000058   Code   RO         1447    i.USB_EP0_OutStart  stm32f4xx_ll_usb.o
    0x08007b48   0x08007b48   0x00000058   Code   RO         1448    i.USB_EPClearStall  stm32f4xx_ll_usb.o
    0x08007ba0   0x08007ba0   0x00000058   Code   RO         1449    i.USB_EPSetStall    stm32f4xx_ll_usb.o
    0x08007bf8   0x08007bf8   0x000001e8   Code   RO         1450    i.USB_EPStartXfer   stm32f4xx_ll_usb.o
    0x08007de0   0x08007de0   0x0000000c   Code   RO         1451    i.USB_EnableGlobalInt  stm32f4xx_ll_usb.o
    0x08007dec   0x08007dec   0x00000020   Code   RO         1452    i.USB_FlushRxFifo   stm32f4xx_ll_usb.o
    0x08007e0c   0x08007e0c   0x00000024   Code   RO         1453    i.USB_FlushTxFifo   stm32f4xx_ll_usb.o
    0x08007e30   0x08007e30   0x0000001a   Code   RO         1455    i.USB_GetDevSpeed   stm32f4xx_ll_usb.o
    0x08007e4a   0x08007e4a   0x00000008   Code   RO         1457    i.USB_GetMode       stm32f4xx_ll_usb.o
    0x08007e52   0x08007e52   0x0000000e   Code   RO         1464    i.USB_ReadDevAllInEpInterrupt  stm32f4xx_ll_usb.o
    0x08007e60   0x08007e60   0x0000000e   Code   RO         1465    i.USB_ReadDevAllOutEpInterrupt  stm32f4xx_ll_usb.o
    0x08007e6e   0x08007e6e   0x00000024   Code   RO         1466    i.USB_ReadDevInEPInterrupt  stm32f4xx_ll_usb.o
    0x08007e92   0x08007e92   0x00000010   Code   RO         1467    i.USB_ReadDevOutEPInterrupt  stm32f4xx_ll_usb.o
    0x08007ea2   0x08007ea2   0x00000008   Code   RO         1468    i.USB_ReadInterrupts  stm32f4xx_ll_usb.o
    0x08007eaa   0x08007eaa   0x0000001c   Code   RO         1469    i.USB_ReadPacket    stm32f4xx_ll_usb.o
    0x08007ec6   0x08007ec6   0x0000002e   Code   RO         1471    i.USB_SetCurrentMode  stm32f4xx_ll_usb.o
    0x08007ef4   0x08007ef4   0x00000022   Code   RO         1472    i.USB_SetDevAddress  stm32f4xx_ll_usb.o
    0x08007f16   0x08007f16   0x00000002   PAD
    0x08007f18   0x08007f18   0x000000e8   Code   RO         1474    i.USB_SetTurnaroundTime  stm32f4xx_ll_usb.o
    0x08008000   0x08008000   0x00000024   Code   RO         1477    i.USB_WritePacket   stm32f4xx_ll_usb.o
    0x08008024   0x08008024   0x00000090   Code   RO         6775    i.UpdateAction      followline_eg2.o
    0x080080b4   0x080080b4   0x0000002c   Code   RO         6776    i.UpdateButton      followline_eg2.o
    0x080080e0   0x080080e0   0x00000012   Code   RO         6777    i.UpdateCentControl  followline_eg2.o
    0x080080f2   0x080080f2   0x00000002   PAD
    0x080080f4   0x080080f4   0x00000060   Code   RO         5875    i.UpdateMotor       motor.o
    0x08008154   0x08008154   0x0000013c   Code   RO         6346    i.UpdatePID         pid.o
    0x08008290   0x08008290   0x000000a0   Code   RO         6778    i.UpdateStatus      followline_eg2.o
    0x08008330   0x08008330   0x00000054   Code   RO         5199    i.UpdateToGCSAltitude  gcs.o
    0x08008384   0x08008384   0x000000b8   Code   RO         5200    i.UpdateToGCSAttitude  gcs.o
    0x0800843c   0x0800843c   0x00000048   Code   RO         5202    i.UpdateToGCSHardwareInfo  gcs.o
    0x08008484   0x08008484   0x00000058   Code   RO         5203    i.UpdateToGCSLine   gcs.o
    0x080084dc   0x080084dc   0x00000058   Code   RO         5204    i.UpdateToGCSLine2  gcs.o
    0x08008534   0x08008534   0x00000044   Code   RO         5205    i.UpdateToGCSMPU6050  gcs.o
    0x08008578   0x08008578   0x00000088   Code   RO         5207    i.UpdateToGCSPidInfo  gcs.o
    0x08008600   0x08008600   0x00000034   Code   RO         5208    i.UpdateUSBQueue    gcs.o
    0x08008634   0x08008634   0x00000002   Code   RO          967    i.UsageFault_Handler  stm32f4xx_it.o
    0x08008636   0x08008636   0x00000002   PAD
    0x08008638   0x08008638   0x0000002c   Code   RO         5678    i.WZ_Est_Calcu      speed_estimator.o
    0x08008664   0x08008664   0x000000fc   Code   RO         5679    i.WZ_Fix_Calcu      speed_estimator.o
    0x08008760   0x08008760   0x00000020   Code   RO         5680    i.WZ_Fus_Reset      speed_estimator.o
    0x08008780   0x08008780   0x00000124   Code   RO         5681    i.WZ_Obs_Calcu      speed_estimator.o
    0x080088a4   0x080088a4   0x00000010   Code   RO         5788    i.ZKHD_Link_FMU_To_GCS_Handle  zkhd_link.o
    0x080088b4   0x080088b4   0x00000064   Code   RO         5792    i.ZKHD_Link_MakeFrame  zkhd_link.o
    0x08008918   0x08008918   0x00000030   Code   RO         6974    i.__ARM_fpclassify  m_wm.l(fpclassify.o)
    0x08008948   0x08008948   0x00000026   Code   RO         6976    i.__ARM_fpclassifyf  m_wm.l(fpclassifyf.o)
    0x0800896e   0x0800896e   0x00000020   Code   RO         4181    i.__NVIC_SetPriority  stm32f4xx_hal_cortex.o
    0x0800898e   0x0800898e   0x00000002   PAD
    0x08008990   0x08008990   0x00000360   Code   RO         6845    i.__hardfp_asin     m_wm.l(asin.o)
    0x08008cf0   0x08008cf0   0x00000250   Code   RO         6859    i.__hardfp_atan2f   m_wm.l(atan2f.o)
    0x08008f40   0x08008f40   0x000000f8   Code   RO         6992    i.__kernel_poly     m_wm.l(poly.o)
    0x08009038   0x08009038   0x00000014   Code   RO         6955    i.__mathlib_dbl_infnan  m_wm.l(dunder.o)
    0x0800904c   0x0800904c   0x00000004   PAD
    0x08009050   0x08009050   0x00000020   Code   RO         6957    i.__mathlib_dbl_invalid  m_wm.l(dunder.o)
    0x08009070   0x08009070   0x00000020   Code   RO         6960    i.__mathlib_dbl_underflow  m_wm.l(dunder.o)
    0x08009090   0x08009090   0x00000006   Code   RO         6980    i.__mathlib_flt_infnan2  m_wm.l(funder.o)
    0x08009096   0x08009096   0x00000002   PAD
    0x08009098   0x08009098   0x00000010   Code   RO         6984    i.__mathlib_flt_underflow  m_wm.l(funder.o)
    0x080090a8   0x080090a8   0x0000000e   Code   RO         7055    i.__scatterload_copy  mc_w.l(handlers.o)
    0x080090b6   0x080090b6   0x00000002   Code   RO         7056    i.__scatterload_null  mc_w.l(handlers.o)
    0x080090b8   0x080090b8   0x0000000e   Code   RO         7057    i.__scatterload_zeroinit  mc_w.l(handlers.o)
    0x080090c6   0x080090c6   0x00000002   PAD
    0x080090c8   0x080090c8   0x0000000c   Code   RO         7033    i.__set_errno       mc_w.l(errno.o)
    0x080090d4   0x080090d4   0x00000010   Code   RO         4961    i.beep_update       beep.o
    0x080090e4   0x080090e4   0x00000044   Code   RO         6390    i.deQueue           my_queue.o
    0x08009128   0x08009128   0x00000010   Code   RO         5600    i.delay             hardware_i2c.o
    0x08009138   0x08009138   0x00000046   Code   RO         6391    i.enQueue           my_queue.o
    0x0800917e   0x0800917e   0x00000018   Code   RO         6970    i.fabs              m_wm.l(fabs.o)
    0x08009196   0x08009196   0x00000002   PAD
    0x08009198   0x08009198   0x00000034   Code   RO         6108    i.flush_lcd         lcd_status.o
    0x080091cc   0x080091cc   0x00000050   Code   RO         6914    i.free              mc_w.l(malloc.o)
    0x0800921c   0x0800921c   0x0000003c   Code   RO         5210    i.gcs_init          gcs.o
    0x08009258   0x08009258   0x00000020   Code   RO         6109    i.lcd_exchange_page  lcd_status.o
    0x08009278   0x08009278   0x0000007c   Code   RO         6110    i.lcd_message       lcd_status.o
    0x080092f4   0x080092f4   0x0000005c   Code   RO         6111    i.lcd_status_init   lcd_status.o
    0x08009350   0x08009350   0x00000298   Code   RO         6112    i.lcd_update        lcd_status.o
    0x080095e8   0x080095e8   0x0000005a   Code   RO          258    i.main              main.o
    0x08009642   0x08009642   0x00000002   PAD
    0x08009644   0x08009644   0x0000006c   Code   RO         6915    i.malloc            mc_w.l(malloc.o)
    0x080096b0   0x080096b0   0x00000010   Code   RO         5935    i.mypow             lcd.o
    0x080096c0   0x080096c0   0x00000010   Code   RO         6347    i.reset_i           pid.o
    0x080096d0   0x080096d0   0x000000a4   Code   RO         6599    i.sdk_init          sdk.o
    0x08009774   0x08009774   0x0000000c   Code   RO         6600    i.sdk_land          sdk.o
    0x08009780   0x08009780   0x00000010   Code   RO         6601    i.sdk_lock          sdk.o
    0x08009790   0x08009790   0x00000014   Code   RO         6606    i.sdk_takeoff       sdk.o
    0x080097a4   0x080097a4   0x00000010   Code   RO         6607    i.sdk_unlock        sdk.o
    0x080097b4   0x080097b4   0x00000138   Code   RO         6608    i.sdk_update        sdk.o
    0x080098ec   0x080098ec   0x00000060   Code   RO         6609    i.sdk_update_position  sdk.o
    0x0800994c   0x0800994c   0x00000080   Code   RO         6610    i.sdk_update_s_2    sdk.o
    0x080099cc   0x080099cc   0x00000018   Code   RO         6611    i.sdk_velocity_reset  sdk.o
    0x080099e4   0x080099e4   0x0000003c   Code   RO         6613    i.sdk_velociyt_x_set  sdk.o
    0x08009a20   0x08009a20   0x0000003c   Code   RO         6614    i.sdk_velociyt_y_set  sdk.o
    0x08009a5c   0x08009a5c   0x0000006e   Code   RO         6999    i.sqrt              m_wm.l(sqrt.o)
    0x08009aca   0x08009aca   0x00000002   PAD
    0x08009acc   0x08009acc   0x00000034   Code   RO         5212    i.update2gcs_mode   gcs.o
    0x08009b00   0x08009b00   0x00000094   Code   RO         5213    i.update2gcsdevecelist  gcs.o
    0x08009b94   0x08009b94   0x0000007c   Code   RO         5214    i.update2gcsotherinfogroup1  gcs.o
    0x08009c10   0x08009c10   0x00000038   Code   RO         6167    i.update_status     status.o
    0x08009c48   0x08009c48   0x00000068   Code   RO         5495    i.usart_rx_idle_handle  hardware_uart.o
    0x08009cb0   0x08009cb0   0x00000008   Data   RO         3898    .constdata          stm32f4xx_hal_dma.o
    0x08009cb8   0x08009cb8   0x00000010   Data   RO         4555    .constdata          system_stm32f4xx.o
    0x08009cc8   0x08009cc8   0x00000008   Data   RO         4556    .constdata          system_stm32f4xx.o
    0x08009cd0   0x08009cd0   0x0000391c   Data   RO         5937    .constdata          lcd.o
    0x0800d5ec   0x0800d5ec   0x00000004   Data   RO         6286    .constdata          mymath.o
    0x0800d5f0   0x0800d5f0   0x00000004   Data   RO         6288    .constdata          mymath.o
    0x0800d5f4   0x0800d5f4   0x00000004   Data   RO         6289    .constdata          mymath.o
    0x0800d5f8   0x0800d5f8   0x00000050   Data   RO         6848    .constdata          m_wm.l(asin.o)
    0x0800d648   0x0800d648   0x00000020   Data   RO         7053    Region$$Table       anon$$obj.o


    Execution Region RW_IRAM1 (Exec base: 0x20000000, Load base: 0x0800d668, Size: 0x00004568, Max: 0x00020000, ABSOLUTE, COMPRESSED[0x000001ac])

    Exec Addr    Load Addr    Size         Type   Attr      Idx    E Section Name        Object

    0x20000000   COMPRESSED   0x00000008   Data   RW           15    .data               system.o
    0x20000008   COMPRESSED   0x0000001c   Data   RW          810    .data               usbd_desc.o
    0x20000024   COMPRESSED   0x00000032   Data   RW          811    .data               usbd_desc.o
    0x20000056   COMPRESSED   0x00000002   PAD
    0x20000058   COMPRESSED   0x00000010   Data   RW          893    .data               usbd_cdc_if.o
    0x20000068   COMPRESSED   0x00000008   Data   RW          969    .data               stm32f4xx_it.o
    0x20000070   COMPRESSED   0x0000000c   Data   RW         4325    .data               stm32f4xx_hal.o
    0x2000007c   COMPRESSED   0x00000004   Data   RW         4557    .data               system_stm32f4xx.o
    0x20000080   COMPRESSED   0x00000001   Data   RW         4737    .data               usbd_ctlreq.o
    0x20000081   COMPRESSED   0x00000003   PAD
    0x20000084   COMPRESSED   0x000000d7   Data   RW         4869    .data               usbd_cdc.o
    0x2000015b   COMPRESSED   0x00000001   PAD
    0x2000015c   COMPRESSED   0x00000038   Data   RW         4870    .data               usbd_cdc.o
    0x20000194   COMPRESSED   0x00000006   Data   RW         4962    .data               beep.o
    0x2000019a   COMPRESSED   0x00000008   Data   RW         4998    .data               led.o
    0x200001a2   COMPRESSED   0x00000002   PAD
    0x200001a4   COMPRESSED   0x0000000c   Data   RW         5036    .data               mpu6050.o
    0x200001b0   COMPRESSED   0x0000002c   Data   RW         5096    .data               imu.o
    0x200001dc   COMPRESSED   0x00000014   Data   RW         5151    .data               ano_of.o
    0x200001f0   COMPRESSED   0x00000010   Data   RW         5217    .data               gcs.o
    0x20000200   COMPRESSED   0x00000002   Data   RW         5218    .data               gcs.o
    0x20000202   COMPRESSED   0x00000002   Data   RW         5219    .data               gcs.o
    0x20000204   COMPRESSED   0x00000001   Data   RW         5497    .data               hardware_uart.o
    0x20000205   COMPRESSED   0x00000003   PAD
    0x20000208   COMPRESSED   0x00000008   Data   RW         5601    .data               hardware_i2c.o
    0x20000210   COMPRESSED   0x00000054   Data   RW         5683    .data               speed_estimator.o
    0x20000264   COMPRESSED   0x00000001   Data   RW         5736    .data               init.o
    0x20000265   COMPRESSED   0x0000025a   Data   RW         6114    .data               lcd_status.o
    0x200004bf   COMPRESSED   0x00000001   PAD
    0x200004c0   COMPRESSED   0x00000010   Data   RW         6419    .data               control.o
    0x200004d0   COMPRESSED   0x00000038   Data   RW         6459    .data               height_control.o
    0x20000508   COMPRESSED   0x00000048   Data   RW         6498    .data               pos_ctrl.o
    0x20000550   COMPRESSED   0x00000008   Data   RW         6534    .data               remote.o
    0x20000558   COMPRESSED   0x0000000c   Data   RW         6620    .data               sdk.o
    0x20000564   COMPRESSED   0x00000014   Data   RW         6782    .data               followline_eg2.o
    0x20000578   COMPRESSED   0x00000004   Data   RW         7029    .data               mc_w.l(mvars.o)
    0x2000057c   COMPRESSED   0x00000004   Data   RW         7030    .data               mc_w.l(mvars.o)
    0x20000580   COMPRESSED   0x00000004   Data   RW         7034    .data               mc_w.l(errno.o)
    0x20000584        -       0x00000054   Zero   RW          369    .bss                i2c.o
    0x200005d8        -       0x00000100   Zero   RW          417    .bss                tim.o
    0x200006d8        -       0x000005a0   Zero   RW          494    .bss                usart.o
    0x20000c78        -       0x0000029c   Zero   RW          559    .bss                usb_device.o
    0x20000f14        -       0x00000408   Zero   RW          635    .bss                usbd_conf.o
    0x2000131c        -       0x00000200   Zero   RW          809    .bss                usbd_desc.o
    0x2000151c        -       0x00001000   Zero   RW          892    .bss                usbd_cdc_if.o
    0x2000251c        -       0x00000058   Zero   RW         5035    .bss                mpu6050.o
    0x20002574        -       0x0000000c   Zero   RW         5095    .bss                imu.o
    0x20002580        -       0x0000007a   Zero   RW         5149    .bss                ano_of.o
    0x200025fa   COMPRESSED   0x00000002   PAD
    0x200025fc        -       0x00000024   Zero   RW         5216    .bss                gcs.o
    0x20002620        -       0x00001280   Zero   RW         5496    .bss                hardware_uart.o
    0x200038a0        -       0x0000000c   Zero   RW         5682    .bss                speed_estimator.o
    0x200038ac        -       0x0000014c   Zero   RW         5734    .bss                init.o
    0x200039f8        -       0x000001d1   Zero   RW         6113    .bss                lcd_status.o
    0x20003bc9   COMPRESSED   0x00000003   PAD
    0x20003bcc        -       0x00000374   Zero   RW         6348    .bss                pid.o
    0x20003f40        -       0x0000000c   Zero   RW         6418    .bss                control.o
    0x20003f4c        -       0x00000024   Zero   RW         6458    .bss                height_control.o
    0x20003f70        -       0x00000072   Zero   RW         6533    .bss                remote.o
    0x20003fe2   COMPRESSED   0x00000002   PAD
    0x20003fe4        -       0x00000150   Zero   RW         6619    .bss                sdk.o
    0x20004134        -       0x00000030   Zero   RW         6779    .bss                followline_eg2.o
    0x20004164   COMPRESSED   0x00000004   PAD
